{
  "_format": "hh-sol-artifact-1",
  "contractName": "Owners",
  "sourceName": "contracts/Owners.sol",
  "abi": [
    {
      "inputs": [],
      "stateMutability": "nonpayable",
      "type": "constructor"
    },
    {
      "inputs": [
        {
          "internalType": "address",
          "name": "_new",
          "type": "address"
        },
        {
          "internalType": "bool",
          "name": "_change",
          "type": "bool"
        }
      ],
      "name": "addOwner",
      "outputs": [],
      "stateMutability": "nonpayable",
      "type": "function"
    },
    {
      "inputs": [],
      "name": "getOwnersSize",
      "outputs": [
        {
          "internalType": "uint256",
          "name": "",
          "type": "uint256"
        }
      ],
      "stateMutability": "view",
      "type": "function"
    },
    {
      "inputs": [
        {
          "internalType": "address",
          "name": "",
          "type": "address"
        }
      ],
      "name": "isOwner",
      "outputs": [
        {
          "internalType": "bool",
          "name": "",
          "type": "bool"
        }
      ],
      "stateMutability": "view",
      "type": "function"
    },
    {
      "inputs": [
        {
          "internalType": "uint256",
          "name": "",
          "type": "uint256"
        }
      ],
      "name": "owners",
      "outputs": [
        {
          "internalType": "address",
          "name": "",
          "type": "address"
        }
      ],
      "stateMutability": "view",
      "type": "function"
    },
    {
      "inputs": [
        {
          "internalType": "address",
          "name": "_new",
          "type": "address"
        }
      ],
      "name": "removeOwner",
      "outputs": [],
      "stateMutability": "nonpayable",
      "type": "function"
    }
  ],
  "bytecode": "0x608060405234801561001057600080fd5b5060008054600181810183557f290decd9548b62a8d60345a988386fc84ba6bc95484008f6362f93160ef3e56390910180546001600160a01b03191633908117909155825260208190526040909120805460ff191690911790556106cc806100796000396000f3fe608060405234801561001057600080fd5b50600436106100575760003560e01c8063025e7c271461005c5780630c7b1d7b1461008c578063173825d91461009d5780632f54bf6e146100b2578063518e32d3146100e5575b600080fd5b61006f61006a36600461058f565b6100f8565b6040516001600160a01b0390911681526020015b60405180910390f35b600054604051908152602001610083565b6100b06100ab3660046105c4565b610122565b005b6100d56100c03660046105c4565b60016020526000908152604090205460ff1681565b6040519015158152602001610083565b6100b06100f33660046105e6565b6103a3565b6000818154811061010857600080fd5b6000918252602090912001546001600160a01b0316905081565b336001600160a01b03166000808154811061013f5761013f610622565b6000918252602090912001546001600160a01b0316146101a15760405162461bcd60e51b815260206004820152601860248201527727bbb732b9399d1027b7363c9029bab832b91027bbb732b960411b60448201526064015b60405180910390fd5b6001600160a01b03811660009081526001602052604090205460ff166101fd5760405162461bcd60e51b815260206004820152601160248201527027bbb732b9399d102737ba1037bbb732b960791b6044820152606401610198565b6000808154811061021057610210610622565b6000918252602090912001546001600160a01b03828116911614156102815760405162461bcd60e51b815260206004820152602160248201527f4f776e6572733a2043616e6e6f742072656d6f7665207375706572206f776e656044820152603960f91b6064820152608401610198565b60015b60005481101561038157816001600160a01b0316600082815481106102ab576102ab610622565b6000918252602090912001546001600160a01b0316141561036f57600080546102d69060019061064e565b815481106102e6576102e6610622565b600091825260208220015481546001600160a01b0390911691908390811061031057610310610622565b6000918252602082200180546001600160a01b0319166001600160a01b03939093169290921790915580548061034857610348610665565b600082815260209020810160001990810180546001600160a01b0319169055019055610381565b806103798161067b565b915050610284565b506001600160a01b03166000908152600160205260409020805460ff19169055565b336001600160a01b0316600080815481106103c0576103c0610622565b6000918252602090912001546001600160a01b03161461041d5760405162461bcd60e51b815260206004820152601860248201527727bbb732b9399d1027b7363c9029bab832b91027bbb732b960411b6044820152606401610198565b6001600160a01b03821660009081526001602052604090205460ff161561047e5760405162461bcd60e51b815260206004820152601560248201527427bbb732b9399d1020b63932b0b23c9037bbb732b960591b6044820152606401610198565b6001600160a01b0382166000908152600160208190526040909120805460ff191690911790558015610541576000806000815481106104bf576104bf610622565b6000918252602080832090910154835460018101855593835290822090920180546001600160a01b0319166001600160a01b03909316929092179091558054839190819061050f5761050f610622565b9060005260206000200160006101000a8154816001600160a01b0302191690836001600160a01b031602179055505050565b600080546001810182559080527f290decd9548b62a8d60345a988386fc84ba6bc95484008f6362f93160ef3e5630180546001600160a01b0384166001600160a01b03199091161790555050565b6000602082840312156105a157600080fd5b5035919050565b80356001600160a01b03811681146105bf57600080fd5b919050565b6000602082840312156105d657600080fd5b6105df826105a8565b9392505050565b600080604083850312156105f957600080fd5b610602836105a8565b91506020830135801515811461061757600080fd5b809150509250929050565b634e487b7160e01b600052603260045260246000fd5b634e487b7160e01b600052601160045260246000fd5b60008282101561066057610660610638565b500390565b634e487b7160e01b600052603160045260246000fd5b600060001982141561068f5761068f610638565b506001019056fea26469706673582212202759dc2e59417c3dac7a871953292c6bbcea7b7687f5de986368274b100af2b664736f6c63430008090033",
  "linkReferences": {},
  "deployedLinkReferences": {}
}