{
  "_format": "hh-sol-artifact-1",
  "contractName": "Handler_OwnersFacet",
  "sourceName": "contracts/handler/OwnersFacet.sol",
  "abi": [
    {
      "inputs": [
        {
          "internalType": "address",
          "name": "_new",
          "type": "address"
        },
        {
          "internalType": "bool",
          "name": "_change",
          "type": "bool"
        }
      ],
      "name": "addOwner",
      "outputs": [],
      "stateMutability": "nonpayable",
      "type": "function"
    },
    {
      "inputs": [
        {
          "internalType": "address",
          "name": "_new",
          "type": "address"
        }
      ],
      "name": "removeOwner",
      "outputs": [],
      "stateMutability": "nonpayable",
      "type": "function"
    }
  ],
  "bytecode": "0x608060405234801561001057600080fd5b506105f2806100206000396000f3fe608060405234801561001057600080fd5b50600436106100365760003560e01c8063173825d91461003b578063518e32d314610050575b600080fd5b61004e6100493660046104ea565b610063565b005b61004e61005e36600461050c565b6102ce565b61006b610413565b6001600160a01b03811660009081527f268ac4c2b4d4a4c12e71a80c18e7ac5f6fdd526f1a6f30d4c2f8836daedf105360205260409020547f268ac4c2b4d4a4c12e71a80c18e7ac5f6fdd526f1a6f30d4c2f8836daedf10519060ff1661010d5760405162461bcd60e51b815260206004820152601160248201527027bbb732b9399d102737ba1037bbb732b960791b60448201526064015b60405180910390fd5b8060010160008154811061012357610123610548565b6000918252602090912001546001600160a01b03838116911614156101945760405162461bcd60e51b815260206004820152602160248201527f4f776e6572733a2043616e6e6f742072656d6f7665207375706572206f776e656044820152603960f91b6064820152608401610104565b60015b60018201548110156102a757826001600160a01b03168260010182815481106101c2576101c2610548565b6000918252602090912001546001600160a01b03161415610295576001808301805490916101ef91610574565b815481106101ff576101ff610548565b6000918252602090912001546001830180546001600160a01b03909216918390811061022d5761022d610548565b9060005260206000200160006101000a8154816001600160a01b0302191690836001600160a01b031602179055508160010180548061026e5761026e61058b565b600082815260209020810160001990810180546001600160a01b03191690550190556102a7565b8061029f816105a1565b915050610197565b506001600160a01b039091166000908152600290910160205260409020805460ff19169055565b6102d6610413565b6001600160a01b03821660009081527f268ac4c2b4d4a4c12e71a80c18e7ac5f6fdd526f1a6f30d4c2f8836daedf105360205260409020805460ff191660011790557f268ac4c2b4d4a4c12e71a80c18e7ac5f6fdd526f1a6f30d4c2f8836daedf105181156103dd57806001018160010160008154811061035957610359610548565b600091825260208083209091015483546001818101865594845291832090910180546001600160a01b0319166001600160a01b0390921691909117905590820180548592906103aa576103aa610548565b9060005260206000200160006101000a8154816001600160a01b0302191690836001600160a01b03160217905550505050565b6001808201805491820181556000908152602090200180546001600160a01b0385166001600160a01b0319909116179055505050565b7f268ac4c2b4d4a4c12e71a80c18e7ac5f6fdd526f1a6f30d4c2f8836daedf105280547f268ac4c2b4d4a4c12e71a80c18e7ac5f6fdd526f1a6f30d4c2f8836daedf105191339160009061046957610469610548565b6000918252602090912001546001600160a01b0316146104cb5760405162461bcd60e51b815260206004820152601860248201527f4f776e6572733a204f6e6c79205375706572204f776e657200000000000000006044820152606401610104565b50565b80356001600160a01b03811681146104e557600080fd5b919050565b6000602082840312156104fc57600080fd5b610505826104ce565b9392505050565b6000806040838503121561051f57600080fd5b610528836104ce565b91506020830135801515811461053d57600080fd5b809150509250929050565b634e487b7160e01b600052603260045260246000fd5b634e487b7160e01b600052601160045260246000fd5b6000828210156105865761058661055e565b500390565b634e487b7160e01b600052603160045260246000fd5b60006000198214156105b5576105b561055e565b506001019056fea26469706673582212201ba3f166439e360c1005692eee7c4fce578a7d5664220e198d9b1b8622b4ccf764736f6c63430008090033",
  "linkReferences": {},
  "deployedLinkReferences": {}
}