{
  "_format": "hh-sol-artifact-1",
  "contractName": "FakeBUSD",
  "sourceName": "contracts/FakeBUSD.sol",
  "abi": [
    {
      "inputs": [],
      "stateMutability": "nonpayable",
      "type": "constructor"
    },
    {
      "anonymous": false,
      "inputs": [
        {
          "indexed": true,
          "internalType": "address",
          "name": "owner",
          "type": "address"
        },
        {
          "indexed": true,
          "internalType": "address",
          "name": "spender",
          "type": "address"
        },
        {
          "indexed": false,
          "internalType": "uint256",
          "name": "value",
          "type": "uint256"
        }
      ],
      "name": "Approval",
      "type": "event"
    },
    {
      "anonymous": false,
      "inputs": [
        {
          "indexed": true,
          "internalType": "address",
          "name": "from",
          "type": "address"
        },
        {
          "indexed": true,
          "internalType": "address",
          "name": "to",
          "type": "address"
        },
        {
          "indexed": false,
          "internalType": "uint256",
          "name": "value",
          "type": "uint256"
        }
      ],
      "name": "Transfer",
      "type": "event"
    },
    {
      "inputs": [
        {
          "internalType": "address",
          "name": "_new",
          "type": "address"
        },
        {
          "internalType": "bool",
          "name": "_change",
          "type": "bool"
        }
      ],
      "name": "addOwner",
      "outputs": [],
      "stateMutability": "nonpayable",
      "type": "function"
    },
    {
      "inputs": [
        {
          "internalType": "address",
          "name": "owner",
          "type": "address"
        },
        {
          "internalType": "address",
          "name": "spender",
          "type": "address"
        }
      ],
      "name": "allowance",
      "outputs": [
        {
          "internalType": "uint256",
          "name": "",
          "type": "uint256"
        }
      ],
      "stateMutability": "view",
      "type": "function"
    },
    {
      "inputs": [
        {
          "internalType": "address",
          "name": "spender",
          "type": "address"
        },
        {
          "internalType": "uint256",
          "name": "amount",
          "type": "uint256"
        }
      ],
      "name": "approve",
      "outputs": [
        {
          "internalType": "bool",
          "name": "",
          "type": "bool"
        }
      ],
      "stateMutability": "nonpayable",
      "type": "function"
    },
    {
      "inputs": [
        {
          "internalType": "address",
          "name": "account",
          "type": "address"
        }
      ],
      "name": "balanceOf",
      "outputs": [
        {
          "internalType": "uint256",
          "name": "",
          "type": "uint256"
        }
      ],
      "stateMutability": "view",
      "type": "function"
    },
    {
      "inputs": [],
      "name": "decimals",
      "outputs": [
        {
          "internalType": "uint8",
          "name": "",
          "type": "uint8"
        }
      ],
      "stateMutability": "view",
      "type": "function"
    },
    {
      "inputs": [
        {
          "internalType": "address",
          "name": "spender",
          "type": "address"
        },
        {
          "internalType": "uint256",
          "name": "subtractedValue",
          "type": "uint256"
        }
      ],
      "name": "decreaseAllowance",
      "outputs": [
        {
          "internalType": "bool",
          "name": "",
          "type": "bool"
        }
      ],
      "stateMutability": "nonpayable",
      "type": "function"
    },
    {
      "inputs": [],
      "name": "getOwnersSize",
      "outputs": [
        {
          "internalType": "uint256",
          "name": "",
          "type": "uint256"
        }
      ],
      "stateMutability": "view",
      "type": "function"
    },
    {
      "inputs": [],
      "name": "getToken",
      "outputs": [],
      "stateMutability": "nonpayable",
      "type": "function"
    },
    {
      "inputs": [
        {
          "internalType": "address",
          "name": "",
          "type": "address"
        }
      ],
      "name": "gotToken",
      "outputs": [
        {
          "internalType": "bool",
          "name": "",
          "type": "bool"
        }
      ],
      "stateMutability": "view",
      "type": "function"
    },
    {
      "inputs": [
        {
          "internalType": "address",
          "name": "spender",
          "type": "address"
        },
        {
          "internalType": "uint256",
          "name": "addedValue",
          "type": "uint256"
        }
      ],
      "name": "increaseAllowance",
      "outputs": [
        {
          "internalType": "bool",
          "name": "",
          "type": "bool"
        }
      ],
      "stateMutability": "nonpayable",
      "type": "function"
    },
    {
      "inputs": [
        {
          "internalType": "address",
          "name": "",
          "type": "address"
        }
      ],
      "name": "isOwner",
      "outputs": [
        {
          "internalType": "bool",
          "name": "",
          "type": "bool"
        }
      ],
      "stateMutability": "view",
      "type": "function"
    },
    {
      "inputs": [
        {
          "internalType": "uint256",
          "name": "_amount",
          "type": "uint256"
        },
        {
          "internalType": "address",
          "name": "_to",
          "type": "address"
        }
      ],
      "name": "mint",
      "outputs": [],
      "stateMutability": "nonpayable",
      "type": "function"
    },
    {
      "inputs": [],
      "name": "name",
      "outputs": [
        {
          "internalType": "string",
          "name": "",
          "type": "string"
        }
      ],
      "stateMutability": "view",
      "type": "function"
    },
    {
      "inputs": [
        {
          "internalType": "uint256",
          "name": "",
          "type": "uint256"
        }
      ],
      "name": "owners",
      "outputs": [
        {
          "internalType": "address",
          "name": "",
          "type": "address"
        }
      ],
      "stateMutability": "view",
      "type": "function"
    },
    {
      "inputs": [
        {
          "internalType": "address",
          "name": "_new",
          "type": "address"
        }
      ],
      "name": "removeOwner",
      "outputs": [],
      "stateMutability": "nonpayable",
      "type": "function"
    },
    {
      "inputs": [],
      "name": "symbol",
      "outputs": [
        {
          "internalType": "string",
          "name": "",
          "type": "string"
        }
      ],
      "stateMutability": "view",
      "type": "function"
    },
    {
      "inputs": [],
      "name": "totalSupply",
      "outputs": [
        {
          "internalType": "uint256",
          "name": "",
          "type": "uint256"
        }
      ],
      "stateMutability": "view",
      "type": "function"
    },
    {
      "inputs": [
        {
          "internalType": "address",
          "name": "to",
          "type": "address"
        },
        {
          "internalType": "uint256",
          "name": "amount",
          "type": "uint256"
        }
      ],
      "name": "transfer",
      "outputs": [
        {
          "internalType": "bool",
          "name": "",
          "type": "bool"
        }
      ],
      "stateMutability": "nonpayable",
      "type": "function"
    },
    {
      "inputs": [
        {
          "internalType": "address",
          "name": "from",
          "type": "address"
        },
        {
          "internalType": "address",
          "name": "to",
          "type": "address"
        },
        {
          "internalType": "uint256",
          "name": "amount",
          "type": "uint256"
        }
      ],
      "name": "transferFrom",
      "outputs": [
        {
          "internalType": "bool",
          "name": "",
          "type": "bool"
        }
      ],
      "stateMutability": "nonpayable",
      "type": "function"
    }
  ],
  "bytecode": "0x60806040523480156200001157600080fd5b50604080518082018252600981526811985ad948109554d160ba1b602080830191825283518085019094526006845265198b509554d160d21b9084015281519192916200006191600391620000da565b50805162000077906004906020840190620000da565b50506005805460018181019092557f036b6384b5eca791c62761152d0c79bb0604c104a5fb6f4eb0703f3154bb3db00180546001600160a01b031916339081179091556000908152600660205260409020805460ff1916909117905550620001bd565b828054620000e89062000180565b90600052602060002090601f0160209004810192826200010c576000855562000157565b82601f106200012757805160ff191683800117855562000157565b8280016001018555821562000157579182015b82811115620001575782518255916020019190600101906200013a565b506200016592915062000169565b5090565b5b808211156200016557600081556001016200016a565b600181811c908216806200019557607f821691505b60208210811415620001b757634e487b7160e01b600052602260045260246000fd5b50919050565b61113480620001cd6000396000f3fe608060405234801561001057600080fd5b50600436106101215760003560e01c8063313ce567116100ad57806395d89b411161007157806395d89b411461026c578063a457c2d714610274578063a9059cbb14610287578063dd62ed3e1461029a578063e0e15c00146102ad57600080fd5b8063313ce567146101fb578063395093511461020a578063518e32d31461021d57806370a082311461023057806394bf804d1461025957600080fd5b8063173825d9116100f4578063173825d9146101a057806318160ddd146101b557806321df0da7146101bd57806323b872dd146101c55780632f54bf6e146101d857600080fd5b8063025e7c271461012657806306fdde0314610156578063095ea7b31461016b5780630c7b1d7b1461018e575b600080fd5b610139610134366004610e93565b6102d0565b6040516001600160a01b0390911681526020015b60405180910390f35b61015e6102fa565b60405161014d9190610eac565b61017e610179366004610f1d565b61038c565b604051901515815260200161014d565b6005545b60405190815260200161014d565b6101b36101ae366004610f47565b6103a4565b005b600254610192565b6101b3610630565b61017e6101d3366004610f69565b6106b4565b61017e6101e6366004610f47565b60066020526000908152604090205460ff1681565b6040516012815260200161014d565b61017e610218366004610f1d565b6106d8565b6101b361022b366004610fa5565b6106fa565b61019261023e366004610f47565b6001600160a01b031660009081526020819052604090205490565b6101b3610267366004610fe1565b6108e6565b61015e610985565b61017e610282366004610f1d565b610994565b61017e610295366004610f1d565b610a0f565b6101926102a836600461100d565b610a1d565b61017e6102bb366004610f47565b60076020526000908152604090205460ff1681565b600581815481106102e057600080fd5b6000918252602090912001546001600160a01b0316905081565b60606003805461030990611037565b80601f016020809104026020016040519081016040528092919081815260200182805461033590611037565b80156103825780601f1061035757610100808354040283529160200191610382565b820191906000526020600020905b81548152906001019060200180831161036557829003601f168201915b5050505050905090565b60003361039a818585610a48565b5060019392505050565b336001600160a01b031660056000815481106103c2576103c2611072565b6000918252602090912001546001600160a01b0316146104245760405162461bcd60e51b815260206004820152601860248201527727bbb732b9399d1027b7363c9029bab832b91027bbb732b960411b60448201526064015b60405180910390fd5b6001600160a01b03811660009081526006602052604090205460ff166104805760405162461bcd60e51b815260206004820152601160248201527027bbb732b9399d102737ba1037bbb732b960791b604482015260640161041b565b600560008154811061049457610494611072565b6000918252602090912001546001600160a01b03828116911614156105055760405162461bcd60e51b815260206004820152602160248201527f4f776e6572733a2043616e6e6f742072656d6f7665207375706572206f776e656044820152603960f91b606482015260840161041b565b60015b60055481101561060e57816001600160a01b03166005828154811061052f5761052f611072565b6000918252602090912001546001600160a01b031614156105fc576005805461055a9060019061109e565b8154811061056a5761056a611072565b600091825260209091200154600580546001600160a01b03909216918390811061059657610596611072565b9060005260206000200160006101000a8154816001600160a01b0302191690836001600160a01b0316021790555060058054806105d5576105d56110b5565b600082815260209020810160001990810180546001600160a01b031916905501905561060e565b80610606816110cb565b915050610508565b506001600160a01b03166000908152600660205260409020805460ff19169055565b3360009081526007602052604090205460ff16156106845760405162461bcd60e51b815260206004820152601160248201527020b63932b0b23c9033b7ba103a37b5b2b760791b604482015260640161041b565b6106983369021e19e0c9bab2400000610b6c565b336000908152600760205260409020805460ff19166001179055565b6000336106c2858285610c4b565b6106cd858585610cc5565b506001949350505050565b60003361039a8185856106eb8383610a1d565b6106f591906110e6565b610a48565b336001600160a01b0316600560008154811061071857610718611072565b6000918252602090912001546001600160a01b0316146107755760405162461bcd60e51b815260206004820152601860248201527727bbb732b9399d1027b7363c9029bab832b91027bbb732b960411b604482015260640161041b565b6001600160a01b03821660009081526006602052604090205460ff16156107d65760405162461bcd60e51b815260206004820152601560248201527427bbb732b9399d1020b63932b0b23c9037bbb732b960591b604482015260640161041b565b6001600160a01b0382166000908152600660205260409020805460ff1916600117905580156108965760058060008154811061081457610814611072565b6000918252602080832090910154835460018101855593835290822090920180546001600160a01b0319166001600160a01b03909316929092179091556005805484929061086457610864611072565b9060005260206000200160006101000a8154816001600160a01b0302191690836001600160a01b031602179055505050565b600580546001810182556000919091527f036b6384b5eca791c62761152d0c79bb0604c104a5fb6f4eb0703f3154bb3db00180546001600160a01b0319166001600160a01b0384161790555b5050565b3360009081526006602052604090205460ff1661093a5760405162461bcd60e51b815260206004820152601260248201527127bbb732b9399d1027b7363c9027bbb732b960711b604482015260640161041b565b6000821161097b5760405162461bcd60e51b815260206004820152600e60248201526d416d6f756e7420746f6f206c6f7760901b604482015260640161041b565b6108e28183610b6c565b60606004805461030990611037565b600033816109a28286610a1d565b905083811015610a025760405162461bcd60e51b815260206004820152602560248201527f45524332303a2064656372656173656420616c6c6f77616e63652062656c6f77604482015264207a65726f60d81b606482015260840161041b565b6106cd8286868403610a48565b60003361039a818585610cc5565b6001600160a01b03918216600090815260016020908152604080832093909416825291909152205490565b6001600160a01b038316610aaa5760405162461bcd60e51b8152602060048201526024808201527f45524332303a20617070726f76652066726f6d20746865207a65726f206164646044820152637265737360e01b606482015260840161041b565b6001600160a01b038216610b0b5760405162461bcd60e51b815260206004820152602260248201527f45524332303a20617070726f766520746f20746865207a65726f206164647265604482015261737360f01b606482015260840161041b565b6001600160a01b0383811660008181526001602090815260408083209487168084529482529182902085905590518481527f8c5be1e5ebec7d5bd14f71427d1e84f3dd0314c0f7b2291e5b200ac8c7c3b925910160405180910390a3505050565b6001600160a01b038216610bc25760405162461bcd60e51b815260206004820152601f60248201527f45524332303a206d696e7420746f20746865207a65726f206164647265737300604482015260640161041b565b8060026000828254610bd491906110e6565b90915550506001600160a01b03821660009081526020819052604081208054839290610c019084906110e6565b90915550506040518181526001600160a01b038316906000907fddf252ad1be2c89b69c2b068fc378daa952ba7f163c4a11628f55a4df523b3ef9060200160405180910390a35050565b6000610c578484610a1d565b90506000198114610cbf5781811015610cb25760405162461bcd60e51b815260206004820152601d60248201527f45524332303a20696e73756666696369656e7420616c6c6f77616e6365000000604482015260640161041b565b610cbf8484848403610a48565b50505050565b6001600160a01b038316610d295760405162461bcd60e51b815260206004820152602560248201527f45524332303a207472616e736665722066726f6d20746865207a65726f206164604482015264647265737360d81b606482015260840161041b565b6001600160a01b038216610d8b5760405162461bcd60e51b815260206004820152602360248201527f45524332303a207472616e7366657220746f20746865207a65726f206164647260448201526265737360e81b606482015260840161041b565b6001600160a01b03831660009081526020819052604090205481811015610e035760405162461bcd60e51b815260206004820152602660248201527f45524332303a207472616e7366657220616d6f756e7420657863656564732062604482015265616c616e636560d01b606482015260840161041b565b6001600160a01b03808516600090815260208190526040808220858503905591851681529081208054849290610e3a9084906110e6565b92505081905550826001600160a01b0316846001600160a01b03167fddf252ad1be2c89b69c2b068fc378daa952ba7f163c4a11628f55a4df523b3ef84604051610e8691815260200190565b60405180910390a3610cbf565b600060208284031215610ea557600080fd5b5035919050565b600060208083528351808285015260005b81811015610ed957858101830151858201604001528201610ebd565b81811115610eeb576000604083870101525b50601f01601f1916929092016040019392505050565b80356001600160a01b0381168114610f1857600080fd5b919050565b60008060408385031215610f3057600080fd5b610f3983610f01565b946020939093013593505050565b600060208284031215610f5957600080fd5b610f6282610f01565b9392505050565b600080600060608486031215610f7e57600080fd5b610f8784610f01565b9250610f9560208501610f01565b9150604084013590509250925092565b60008060408385031215610fb857600080fd5b610fc183610f01565b915060208301358015158114610fd657600080fd5b809150509250929050565b60008060408385031215610ff457600080fd5b8235915061100460208401610f01565b90509250929050565b6000806040838503121561102057600080fd5b61102983610f01565b915061100460208401610f01565b600181811c9082168061104b57607f821691505b6020821081141561106c57634e487b7160e01b600052602260045260246000fd5b50919050565b634e487b7160e01b600052603260045260246000fd5b634e487b7160e01b600052601160045260246000fd5b6000828210156110b0576110b0611088565b500390565b634e487b7160e01b600052603160045260246000fd5b60006000198214156110df576110df611088565b5060010190565b600082198211156110f9576110f9611088565b50019056fea26469706673582212207ca750ae3a2f6e1de3ab0eac2c7febd5b162511980159027d9a01755892ca7ab64736f6c63430008090033",
  "linkReferences": {},
  "deployedLinkReferences": {}
}