{
  "_format": "hh-sol-artifact-1",
  "contractName": "Addons",
  "sourceName": "contracts/Addons.sol",
  "abi": [
    {
      "anonymous": false,
      "inputs": [
        {
          "indexed": false,
          "internalType": "uint8",
          "name": "version",
          "type": "uint8"
        }
      ],
      "name": "Initialized",
      "type": "event"
    },
    {
      "inputs": [
        {
          "internalType": "string",
          "name": "name",
          "type": "string"
        },
        {
          "internalType": "string",
          "name": "nodeType",
          "type": "string"
        }
      ],
      "name": "getFertilizerPriceByNameAndNodeType",
      "outputs": [
        {
          "internalType": "uint256",
          "name": "",
          "type": "uint256"
        }
      ],
      "stateMutability": "view",
      "type": "function"
    },
    {
      "inputs": [
        {
          "internalType": "string",
          "name": "name",
          "type": "string"
        }
      ],
      "name": "getFertilizerType",
      "outputs": [
        {
          "components": [
            {
              "internalType": "uint256",
              "name": "durationEffect",
              "type": "uint256"
            },
            {
              "internalType": "uint256",
              "name": "rewardBoost",
              "type": "uint256"
            },
            {
              "internalType": "uint256",
              "name": "globalLimit",
              "type": "uint256"
            },
            {
              "internalType": "uint256",
              "name": "userLimit",
              "type": "uint256"
            },
            {
              "internalType": "uint256",
              "name": "userNodeTypeLimit",
              "type": "uint256"
            },
            {
              "internalType": "uint256",
              "name": "nodeLimit",
              "type": "uint256"
            }
          ],
          "internalType": "struct Fertilizer",
          "name": "",
          "type": "tuple"
        }
      ],
      "stateMutability": "view",
      "type": "function"
    },
    {
      "inputs": [],
      "name": "getFertilizerTypes",
      "outputs": [
        {
          "components": [
            {
              "internalType": "string",
              "name": "name",
              "type": "string"
            },
            {
              "internalType": "uint256",
              "name": "durationEffect",
              "type": "uint256"
            },
            {
              "internalType": "uint256",
              "name": "rewardBoost",
              "type": "uint256"
            },
            {
              "internalType": "uint256[]",
              "name": "prices",
              "type": "uint256[]"
            },
            {
              "internalType": "uint256",
              "name": "globalLimit",
              "type": "uint256"
            },
            {
              "internalType": "uint256",
              "name": "userLimit",
              "type": "uint256"
            },
            {
              "internalType": "uint256",
              "name": "userNodeTypeLimit",
              "type": "uint256"
            },
            {
              "internalType": "uint256",
              "name": "nodeLimit",
              "type": "uint256"
            }
          ],
          "internalType": "struct Fertilizers.FertilizerView[]",
          "name": "",
          "type": "tuple[]"
        }
      ],
      "stateMutability": "view",
      "type": "function"
    },
    {
      "inputs": [
        {
          "internalType": "uint256",
          "name": "nodeId",
          "type": "uint256"
        }
      ],
      "name": "getItemLogForNode",
      "outputs": [
        {
          "components": [
            {
              "internalType": "uint256",
              "name": "creationTime",
              "type": "uint256"
            },
            {
              "internalType": "string",
              "name": "addonKind",
              "type": "string"
            },
            {
              "internalType": "string",
              "name": "addonTypeName",
              "type": "string"
            }
          ],
          "internalType": "struct Addons.NodeAddonLogItemView[]",
          "name": "",
          "type": "tuple[]"
        }
      ],
      "stateMutability": "view",
      "type": "function"
    },
    {
      "inputs": [
        {
          "internalType": "string",
          "name": "name",
          "type": "string"
        },
        {
          "internalType": "string",
          "name": "nodeType",
          "type": "string"
        }
      ],
      "name": "getWaterpackPriceByNameAndNodeType",
      "outputs": [
        {
          "internalType": "uint256",
          "name": "",
          "type": "uint256"
        }
      ],
      "stateMutability": "view",
      "type": "function"
    },
    {
      "inputs": [
        {
          "internalType": "string",
          "name": "name",
          "type": "string"
        }
      ],
      "name": "getWaterpackType",
      "outputs": [
        {
          "components": [
            {
              "internalType": "uint256",
              "name": "ratioOfGRP",
              "type": "uint256"
            }
          ],
          "internalType": "struct Waterpack",
          "name": "",
          "type": "tuple"
        }
      ],
      "stateMutability": "view",
      "type": "function"
    },
    {
      "inputs": [],
      "name": "getWaterpackTypes",
      "outputs": [
        {
          "components": [
            {
              "internalType": "string",
              "name": "name",
              "type": "string"
            },
            {
              "internalType": "uint256",
              "name": "ratioOfGRP",
              "type": "uint256"
            },
            {
              "internalType": "uint256[]",
              "name": "prices",
              "type": "uint256[]"
            }
          ],
          "internalType": "struct Waterpacks.WaterpackView[]",
          "name": "",
          "type": "tuple[]"
        }
      ],
      "stateMutability": "view",
      "type": "function"
    },
    {
      "inputs": [
        {
          "internalType": "string",
          "name": "name",
          "type": "string"
        }
      ],
      "name": "hasFertilizerType",
      "outputs": [
        {
          "internalType": "bool",
          "name": "",
          "type": "bool"
        }
      ],
      "stateMutability": "view",
      "type": "function"
    },
    {
      "inputs": [
        {
          "internalType": "string",
          "name": "name",
          "type": "string"
        }
      ],
      "name": "hasWaterpackType",
      "outputs": [
        {
          "internalType": "bool",
          "name": "",
          "type": "bool"
        }
      ],
      "stateMutability": "view",
      "type": "function"
    },
    {
      "inputs": [
        {
          "internalType": "contract IHandler",
          "name": "handler",
          "type": "address"
        }
      ],
      "name": "initialize",
      "outputs": [],
      "stateMutability": "nonpayable",
      "type": "function"
    },
    {
      "inputs": [
        {
          "internalType": "uint256[]",
          "name": "nodeTokenIds",
          "type": "uint256[]"
        },
        {
          "internalType": "string",
          "name": "fertilizerType",
          "type": "string"
        },
        {
          "internalType": "uint256",
          "name": "creationTime",
          "type": "uint256"
        },
        {
          "internalType": "uint256[]",
          "name": "amounts",
          "type": "uint256[]"
        }
      ],
      "name": "logFertilizers",
      "outputs": [],
      "stateMutability": "nonpayable",
      "type": "function"
    },
    {
      "inputs": [
        {
          "internalType": "uint256[]",
          "name": "nodeTokenIds",
          "type": "uint256[]"
        },
        {
          "internalType": "string",
          "name": "waterpackType",
          "type": "string"
        },
        {
          "internalType": "uint256",
          "name": "creationTime",
          "type": "uint256"
        },
        {
          "internalType": "uint256[]",
          "name": "amounts",
          "type": "uint256[]"
        }
      ],
      "name": "logWaterpacks",
      "outputs": [],
      "stateMutability": "nonpayable",
      "type": "function"
    },
    {
      "inputs": [
        {
          "internalType": "string",
          "name": "name",
          "type": "string"
        }
      ],
      "name": "removeFertilizerType",
      "outputs": [
        {
          "internalType": "bool",
          "name": "",
          "type": "bool"
        }
      ],
      "stateMutability": "nonpayable",
      "type": "function"
    },
    {
      "inputs": [
        {
          "internalType": "string",
          "name": "name",
          "type": "string"
        },
        {
          "internalType": "uint256",
          "name": "durationEffect",
          "type": "uint256"
        },
        {
          "internalType": "uint256",
          "name": "rewardBoost",
          "type": "uint256"
        },
        {
          "internalType": "uint256[]",
          "name": "limits",
          "type": "uint256[]"
        },
        {
          "internalType": "uint256[]",
          "name": "prices",
          "type": "uint256[]"
        }
      ],
      "name": "setFertilizerType",
      "outputs": [],
      "stateMutability": "nonpayable",
      "type": "function"
    },
    {
      "inputs": [
        {
          "internalType": "string",
          "name": "name",
          "type": "string"
        },
        {
          "internalType": "uint256",
          "name": "ratioOfGRP",
          "type": "uint256"
        },
        {
          "internalType": "uint256[]",
          "name": "prices",
          "type": "uint256[]"
        }
      ],
      "name": "setWaterpackType",
      "outputs": [],
      "stateMutability": "nonpayable",
      "type": "function"
    },
    {
      "inputs": [
        {
          "internalType": "uint256",
          "name": "",
          "type": "uint256"
        }
      ],
      "name": "totalCreatedPerNodeTokenId",
      "outputs": [
        {
          "internalType": "uint256",
          "name": "",
          "type": "uint256"
        }
      ],
      "stateMutability": "view",
      "type": "function"
    },
    {
      "inputs": [
        {
          "internalType": "string",
          "name": "",
          "type": "string"
        }
      ],
      "name": "totalCreatedPerType",
      "outputs": [
        {
          "internalType": "uint256",
          "name": "",
          "type": "uint256"
        }
      ],
      "stateMutability": "view",
      "type": "function"
    },
    {
      "inputs": [
        {
          "internalType": "address",
          "name": "",
          "type": "address"
        }
      ],
      "name": "totalCreatedPerUser",
      "outputs": [
        {
          "internalType": "uint256",
          "name": "",
          "type": "uint256"
        }
      ],
      "stateMutability": "view",
      "type": "function"
    },
    {
      "inputs": [
        {
          "internalType": "address",
          "name": "",
          "type": "address"
        },
        {
          "internalType": "string",
          "name": "",
          "type": "string"
        }
      ],
      "name": "totalCreatedPerUserPerType",
      "outputs": [
        {
          "internalType": "uint256",
          "name": "",
          "type": "uint256"
        }
      ],
      "stateMutability": "view",
      "type": "function"
    }
  ],
  "bytecode": "0x608060405234801561001057600080fd5b50613166806100206000396000f3fe608060405234801561001057600080fd5b50600436106101215760003560e01c8063922b7c20116100ad578063d3e2437811610071578063d3e24378146102f5578063dba3a19c1461030a578063f65f22671461031d578063f6742bd01461033d578063fde8faba1461035057600080fd5b8063922b7c201461027a578063bbf3f7be1461028d578063bc1371a4146102ad578063bf442d23146102cf578063c4d66de8146102e257600080fd5b80634b04e049116100f45780634b04e0491461019757806358fdbf44146101d35780636bc01b2e146101f35780637673036f14610252578063821247ea1461026757600080fd5b8063063431741461012657806318a63f311461014e5780631d6cc397146101635780633da607a514610176575b600080fd5b610139610134366004612676565b61037b565b60405190151581526020015b60405180910390f35b61016161015c366004612803565b610390565b005b6101616101713660046128d8565b6104dd565b610189610184366004612951565b610507565b604051908152602001610145565b6101896101a53660046129d1565b600b602090815260009283526040909220815180830184018051928152908401929093019190912091525481565b6101896101e1366004612a20565b600c6020526000908152604090205481565b610206610201366004612676565b6105a9565b6040516101459190600060c082019050825182526020830151602083015260408301516040830152606083015160608301526080830151608083015260a083015160a083015292915050565b61025a610621565b6040516101459190612acc565b610189610275366004612951565b610946565b610161610288366004612803565b6109b1565b61018961029b366004612b5d565b600a6020526000908152604090205481565b6102c06102bb366004612676565b610ab4565b60405190518152602001610145565b6101616102dd366004612b81565b610acd565b6101616102f0366004612b5d565b610b04565b6102fd610b7b565b6040516101459190612c2d565b610139610318366004612676565b610f8c565b61033061032b366004612a20565b610f98565b6040516101459190612ce4565b61013961034b366004612676565b61130f565b61018961035e366004612d67565b805160208183018101805160098252928201919093012091525481565b60006103878383611337565b90505b92915050565b6000546201000090046001600160a01b031633146103ad57600080fd5b80518451146103fd5760405162461bcd60e51b8152602060048201526017602482015276082c8c8dedce6744098cadccee8d040dad2e6dac2e8c6d604b1b60448201526064015b60405180910390fd5b60005b84518110156104d6576104468486838151811061041f5761041f612da3565b602002602001015184848151811061043957610439612da3565b6020026020010151611367565b60005b82828151811061045b5761045b612da3565b60200260200101518110156104c3576104b186838151811061047f5761047f612da3565b60200260200101516040518060400160405280600a8152602001692332b93a34b634bd32b960b11b81525087876117e2565b806104bb81612dcf565b915050610449565b50806104ce81612dcf565b915050610400565b5050505050565b6000546201000090046001600160a01b031633146104fa57600080fd5b6104d685858585856118ab565b60006105138585611337565b61055f5760405162461bcd60e51b815260206004820152601d60248201527f57617465727061636b207479706520646f6573206e6f7420657869737400000060448201526064016103f4565b6040516004906105729087908790612dea565b90815260200160405180910390208383604051610590929190612dea565b9081526020016040518091039020549050949350505050565b6105e26040518060c001604052806000815260200160008152602001600081526020016000815260200160008152602001600081525090565b61038783838080601f016020809104026020016040519081016040528093929190818152602001838380828437600092019190915250611b2492505050565b606060008060029054906101000a90046001600160a01b03166001600160a01b031663335faa096040518163ffffffff1660e01b815260040160006040518083038186803b15801561067257600080fd5b505afa158015610686573d6000803e3d6000fd5b505050506040513d6000823e601f3d908101601f191682016040526106ae9190810190612e3f565b6001549091506000906001600160401b038111156106ce576106ce6126b7565b60405190808252806020026020018201604052801561072357816020015b61071060405180606001604052806060815260200160008152602001606081525090565b8152602001906001900390816106ec5790505b50905060005b60015481101561093f57600083516001600160401b0381111561074e5761074e6126b7565b604051908082528060200260200182016040528015610777578160200160208202803683370190505b50905060005b84518110156108285760028054600491908590811061079e5761079e612da3565b906000526020600020016040516107b59190612fc3565b90815260200160405180910390208582815181106107d5576107d5612da3565b60200260200101516040516107ea9190612fcf565b90815260200160405180910390205482828151811061080b5761080b612da3565b60209081029190910101528061082081612dcf565b91505061077d565b50604051806060016040528060018001848154811061084957610849612da3565b90600052602060002001805461085e90612eef565b80601f016020809104026020016040519081016040528092919081815260200182805461088a90612eef565b80156108d75780601f106108ac576101008083540402835291602001916108d7565b820191906000526020600020905b8154815290600101906020018083116108ba57829003601f168201915b50505050508152602001600160000184815481106108f7576108f7612da3565b906000526020600020016000015481526020018281525083838151811061092057610920612da3565b602002602001018190525050808061093790612dcf565b915050610729565b5092915050565b60006109528585611c4e565b61099e5760405162461bcd60e51b815260206004820152601e60248201527f46657274696c697a6572207479706520646f6573206e6f74206578697374000060448201526064016103f4565b6040516008906105729087908790612dea565b6000546201000090046001600160a01b031633146109ce57600080fd5b8051845114610a195760405162461bcd60e51b8152602060048201526017602482015276082c8c8dedce6744098cadccee8d040dad2e6dac2e8c6d604b1b60448201526064016103f4565b60005b84518110156104d65760005b828281518110610a3a57610a3a612da3565b6020026020010151811015610aa157610a8f868381518110610a5e57610a5e612da3565b60200260200101516040518060400160405280600981526020016857617465727061636b60b81b81525087876117e2565b80610a9981612dcf565b915050610a28565b5080610aac81612dcf565b915050610a1c565b6040805160208101909152600081526103878383611c65565b6000546201000090046001600160a01b03163314610aea57600080fd5b610afa8888888888888888611d29565b5050505050505050565b6000610b10600161213b565b90508015610b28576000805461ff0019166101001790555b610b31826121c3565b8015610b77576000805461ff0019169055604051600181527f7f26b83ff96e1f2b6a682f133852f6798a09c465da95921460cefb38474024989060200160405180910390a15b5050565b606060008060029054906101000a90046001600160a01b03166001600160a01b031663335faa096040518163ffffffff1660e01b815260040160006040518083038186803b158015610bcc57600080fd5b505afa158015610be0573d6000803e3d6000fd5b505050506040513d6000823e601f3d908101601f19168201604052610c089190810190612e3f565b6005549091506000906001600160401b03811115610c2857610c286126b7565b604051908082528060200260200182016040528015610ca157816020015b610c8e60405180610100016040528060608152602001600081526020016000815260200160608152602001600081526020016000815260200160008152602001600081525090565b815260200190600190039081610c465790505b50905060005b60055481101561093f57600060056001018281548110610cc957610cc9612da3565b906000526020600020019050600084516001600160401b03811115610cf057610cf06126b7565b604051908082528060200260200182016040528015610d19578160200160208202803683370190505b50905060005b8551811015610dac57604051600890610d39908590612fc3565b9081526020016040518091039020868281518110610d5957610d59612da3565b6020026020010151604051610d6e9190612fcf565b908152602001604051809103902054828281518110610d8f57610d8f612da3565b602090810291909101015280610da481612dcf565b915050610d1f565b50604051806101000160405280838054610dc590612eef565b80601f0160208091040260200160405190810160405280929190818152602001828054610df190612eef565b8015610e3e5780601f10610e1357610100808354040283529160200191610e3e565b820191906000526020600020905b815481529060010190602001808311610e2157829003601f168201915b5050505050815260200160056000018581548110610e5e57610e5e612da3565b906000526020600020906006020160000154815260200160056000018581548110610e8b57610e8b612da3565b906000526020600020906006020160010154815260200182815260200160056000018581548110610ebe57610ebe612da3565b906000526020600020906006020160020154815260200160056000018581548110610eeb57610eeb612da3565b906000526020600020906006020160030154815260200160056000018581548110610f1857610f18612da3565b906000526020600020906006020160040154815260200160056000018581548110610f4557610f45612da3565b906000526020600020906006020160050154815250848481518110610f6c57610f6c612da3565b602002602001018190525050508080610f8490612dcf565b915050610ca7565b60006103878383611c4e565b6000818152600d6020908152604080832081518154608094810282018501909352606081810184815290959491938492849190840182828015610ffa57602002820191906000526020600020905b815481526020019060010190808311610fe6575b5050505050815260200160018201805480602002602001604051908101604052809291908181526020016000905b828210156110d457838290600052602060002001805461104790612eef565b80601f016020809104026020016040519081016040528092919081815260200182805461107390612eef565b80156110c05780601f10611095576101008083540402835291602001916110c0565b820191906000526020600020905b8154815290600101906020018083116110a357829003601f168201915b505050505081526020019060010190611028565b50505050815260200160028201805480602002602001604051908101604052809291908181526020016000905b828210156111ad57838290600052602060002001805461112090612eef565b80601f016020809104026020016040519081016040528092919081815260200182805461114c90612eef565b80156111995780601f1061116e57610100808354040283529160200191611199565b820191906000526020600020905b81548152906001019060200180831161117c57829003601f168201915b505050505081526020019060010190611101565b505050915250508051519091506000816001600160401b038111156111d4576111d46126b7565b60405190808252806020026020018201604052801561122957816020015b61121660405180606001604052806000815260200160608152602001606081525090565b8152602001906001900390816111f25790505b50905060005b8281101561130657835180518290811061124b5761124b612da3565b602002602001015182828151811061126557611265612da3565b602002602001015160000181815250508360200151818151811061128b5761128b612da3565b60200260200101518282815181106112a5576112a5612da3565b602002602001015160200181905250836040015181815181106112ca576112ca612da3565b60200260200101518282815181106112e4576112e4612da3565b60200260200101516040018190525080806112fe90612dcf565b91505061122f565b50949350505050565b600080546201000090046001600160a01b0316331461132d57600080fd5b61038783836121f6565b60006001600201838360405161134e929190612dea565b9081526040519081900360200190205415159392505050565b6000546201000090046001600160a01b0316331461138457600080fd5b600061138f84611b24565b6000805460405163a4a74c4960e01b8152600481018790529293509091620100009091046001600160a01b03169063a4a74c499060240160006040518083038186803b1580156113de57600080fd5b505afa1580156113f2573d6000803e3d6000fd5b505050506040513d6000823e601f3d908101601f1916820160405261141a9190810190612feb565b905060008060029054906101000a90046001600160a01b03166001600160a01b03166347ccca026040518163ffffffff1660e01b815260040160206040518083038186803b15801561146b57600080fd5b505afa15801561147f573d6000803e3d6000fd5b505050506040513d601f19601f820116820180604052508101906114a3919061301f565b6001600160a01b0316636352211e866040518263ffffffff1660e01b81526004016114d091815260200190565b60206040518083038186803b1580156114e857600080fd5b505afa1580156114fc573d6000803e3d6000fd5b505050506040513d601f19601f82011682018060405250810190611520919061301f565b9050836009876040516115339190612fcf565b90815260200160405180910390206000828254611550919061303c565b92505081905550826040015160098760405161156c9190612fcf565b90815260200160405180910390205411156115d45760405162461bcd60e51b815260206004820152602260248201527f46657274696c697a6572733a20476c6f62616c206c696d697420657863656564604482015261195960f21b60648201526084016103f4565b6001600160a01b0381166000908152600a6020526040812080548692906115fc90849061303c565b909155505060608301516001600160a01b0382166000908152600a6020526040902054111561166d5760405162461bcd60e51b815260206004820181905260248201527f46657274696c697a6572733a2055736572206c696d697420657863656564656460448201526064016103f4565b6001600160a01b0381166000908152600b6020526040908190209051859190611697908590612fcf565b908152602001604051809103902060008282546116b4919061303c565b909155505060808301516001600160a01b0382166000908152600b60205260409081902090516116e5908590612fcf565b90815260200160405180910390205411156117555760405162461bcd60e51b815260206004820152602a60248201527f46657274696c697a6572733a2055736572206e6f64652074797065206c696d696044820152691d08195e18d95959195960b21b60648201526084016103f4565b6000858152600c60205260408120805486929061177390849061303c565b909155505060a08301516000868152600c602052604090205411156117da5760405162461bcd60e51b815260206004820181905260248201527f46657274696c697a6572733a204e6f6465206c696d697420657863656564656460448201526064016103f4565b505050505050565b6000848152600d60209081526040822080546001818101835582855283852090910185905590810180549182018155835291819020855161182a939190910191860190612470565b506000848152600d6020908152604082206002018054600181018255908352918190208451611860939190910191850190612470565b506000848152600d60205260409020600181015490541461188357611883613054565b6000848152600d6020526040902060028101549054146118a5576118a5613054565b50505050565b60008060029054906101000a90046001600160a01b03166001600160a01b031663335faa096040518163ffffffff1660e01b815260040160006040518083038186803b1580156118fa57600080fd5b505afa15801561190e573d6000803e3d6000fd5b505050506040513d6000823e601f3d908101601f191682016040526119369190810190612e3f565b805190915082146119895760405162461bcd60e51b815260206004820152601b60248201527f57617465727061636b733a206c656e677468206d69736d61746368000000000060448201526064016103f4565b6000600160020187876040516119a0929190612dea565b90815260200160405180910390205490508060001415611a6557600280546001810182556000919091526119f7907f405787fa12a823e0f2b7631cc41b3ba8828b3321ca811111fa75cd3aa3bb5ace0188886124f4565b506040805160208101825286815260018054808201825560009190915290517fb10e2d527612073b26eecdfd717e6a320cf44b4afac2b0732d9fcbe2b7fa0cf6909101556002549051600390611a50908a908a90612dea565b90815260405190819003602001902055611a93565b60006001611a73818461306a565b81548110611a8357611a83612da3565b6000918252602090912001869055505b60005b8251811015610afa57848482818110611ab157611ab1612da3565b9050602002013560016003018989604051611acd929190612dea565b9081526020016040518091039020848381518110611aed57611aed612da3565b6020026020010151604051611b029190612fcf565b9081526040519081900360200190205580611b1c81612dcf565b915050611a96565b611b5d6040518060c001604052806000815260200160008152602001600081526020016000815260200160008152602001600081525090565b6000600560020183604051611b729190612fcf565b90815260200160405180910390205490508060001415611bd45760405162461bcd60e51b815260206004820152601c60248201527f46657274696c697a6572733a206e6f6e6578697374616e74206b65790000000060448201526064016103f4565b6005611be160018361306a565b81548110611bf157611bf1612da3565b90600052602060002090600602016040518060c00160405290816000820154815260200160018201548152602001600282015481526020016003820154815260200160048201548152602001600582015481525050915050919050565b60006005600201838360405161134e929190612dea565b604080516020810190915260008152600060016002018484604051611c8b929190612dea565b90815260200160405180910390205490508060001415611ced5760405162461bcd60e51b815260206004820152601b60248201527f57617465727061636b733a206e6f6e6578697374616e74206b6579000000000060448201526064016103f4565b6001611cf9818361306a565b81548110611d0957611d09612da3565b600091825260209182902060408051938401905201548152949350505050565b60048314611d795760405162461bcd60e51b815260206004820152601e60248201527f46657274696c697a6572733a20696e76616c696420617267756d656e7473000060448201526064016103f4565b60008060029054906101000a90046001600160a01b03166001600160a01b031663335faa096040518163ffffffff1660e01b815260040160006040518083038186803b158015611dc857600080fd5b505afa158015611ddc573d6000803e3d6000fd5b505050506040513d6000823e601f3d908101601f19168201604052611e049190810190612e3f565b80519091508214611e575760405162461bcd60e51b815260206004820152601c60248201527f46657274696c697a6572733a206c656e677468206d69736d617463680000000060448201526064016103f4565b600060056002018a8a604051611e6e929190612dea565b90815260200160405180910390205490508060001415611fde5760068054600181018255600091909152611ec5907ff652222313e28459528d920b65115c16c04f3efc82aaedc97be59f3f377c0d3f018b8b6124f4565b5060056000016040518060c001604052808a815260200189815260200188886000818110611ef557611ef5612da3565b90506020020135815260200188886001818110611f1457611f14612da3565b90506020020135815260200188886002818110611f3357611f33612da3565b90506020020135815260200188886003818110611f5257611f52612da3565b602090810292909201359092528354600181810186556000958652948290208451600692830290910190815591840151948201949094556040808401516002830155606084015160038301556080840151600483015560a0909301516005909101555090549051600790611fc9908d908d90612dea565b9081526040519081900360200190205561209d565b60006005611fed60018461306a565b81548110611ffd57611ffd612da3565b6000918252602082206006909102018a8155600181018a90559150879087908161202957612029612da3565b60200291909101356002830155508686600181811061204a5761204a612da3565b60200291909101356003830155508686600281811061206b5761206b612da3565b60200291909101356004830155508686600381811061208c5761208c612da3565b905060200201358160050181905550505b60005b825181101561212e578484828181106120bb576120bb612da3565b9050602002013560056003018c8c6040516120d7929190612dea565b90815260200160405180910390208483815181106120f7576120f7612da3565b602002602001015160405161210c9190612fcf565b908152604051908190036020019020558061212681612dcf565b9150506120a0565b5050505050505050505050565b60008054610100900460ff1615612182578160ff16600114801561215e5750303b155b61217a5760405162461bcd60e51b81526004016103f490613081565b506000919050565b60005460ff8084169116106121a95760405162461bcd60e51b81526004016103f490613081565b506000805460ff191660ff92909216919091179055600190565b600054610100900460ff166121ea5760405162461bcd60e51b81526004016103f4906130cf565b6121f38161241f565b50565b6000806005600201848460405161220e929190612dea565b9081526020016040518091039020549050806000141561223257600091505061038a565b600061223f60018361306a565b6005549091506000906122549060019061306a565b905081811461236d5760006005600001828154811061227557612275612da3565b9060005260206000209060060201905060006005600101838154811061229d5761229d612da3565b90600052602060002001905081600560000185815481106122c0576122c0612da3565b9060005260206000209060060201600082015481600001556001820154816001015560028201548160020155600382015481600301556004820154816004015560058201548160050155905050806005600101858154811061232457612324612da3565b9060005260206000200190805461233a90612eef565b612345929190612568565b508460056002018260405161235a9190612fc3565b9081526040519081900360200190205550505b600580548061237e5761237e61311a565b600082815260208120600660001990930183810290910182815560018101839055600281018390556003810183905560048101839055600501919091559091558054806123cd576123cd61311a565b6001900381819060005260206000200160006123e991906125e3565b9055600060056002018787604051612402929190612dea565b908152604051908190036020019020555060019250505092915050565b600054610100900460ff166124465760405162461bcd60e51b81526004016103f4906130cf565b600080546001600160a01b03909216620100000262010000600160b01b0319909216919091179055565b82805461247c90612eef565b90600052602060002090601f01602090048101928261249e57600085556124e4565b82601f106124b757805160ff19168380011785556124e4565b828001600101855582156124e4579182015b828111156124e45782518255916020019190600101906124c9565b506124f0929150612619565b5090565b82805461250090612eef565b90600052602060002090601f01602090048101928261252257600085556124e4565b82601f1061253b5782800160ff198235161785556124e4565b828001600101855582156124e4579182015b828111156124e457823582559160200191906001019061254d565b82805461257490612eef565b90600052602060002090601f01602090048101928261259657600085556124e4565b82601f106125a757805485556124e4565b828001600101855582156124e457600052602060002091601f016020900482015b828111156124e45782548255916001019190600101906125c8565b5080546125ef90612eef565b6000825580601f106125ff575050565b601f0160209004906000526020600020908101906121f391905b5b808211156124f0576000815560010161261a565b60008083601f84011261264057600080fd5b5081356001600160401b0381111561265757600080fd5b60208301915083602082850101111561266f57600080fd5b9250929050565b6000806020838503121561268957600080fd5b82356001600160401b0381111561269f57600080fd5b6126ab8582860161262e565b90969095509350505050565b634e487b7160e01b600052604160045260246000fd5b604051601f8201601f191681016001600160401b03811182821017156126f5576126f56126b7565b604052919050565b60006001600160401b03821115612716576127166126b7565b5060051b60200190565b600082601f83011261273157600080fd5b81356020612746612741836126fd565b6126cd565b82815260059290921b8401810191818101908684111561276557600080fd5b8286015b848110156127805780358352918301918301612769565b509695505050505050565b60006001600160401b038211156127a4576127a46126b7565b50601f01601f191660200190565b600082601f8301126127c357600080fd5b81356127d16127418261278b565b8181528460208386010111156127e657600080fd5b816020850160208301376000918101602001919091529392505050565b6000806000806080858703121561281957600080fd5b84356001600160401b038082111561283057600080fd5b61283c88838901612720565b9550602087013591508082111561285257600080fd5b61285e888389016127b2565b945060408701359350606087013591508082111561287b57600080fd5b5061288887828801612720565b91505092959194509250565b60008083601f8401126128a657600080fd5b5081356001600160401b038111156128bd57600080fd5b6020830191508360208260051b850101111561266f57600080fd5b6000806000806000606086880312156128f057600080fd5b85356001600160401b038082111561290757600080fd5b61291389838a0161262e565b909750955060208801359450604088013591508082111561293357600080fd5b5061294088828901612894565b969995985093965092949392505050565b6000806000806040858703121561296757600080fd5b84356001600160401b038082111561297e57600080fd5b61298a8883890161262e565b909650945060208701359150808211156129a357600080fd5b506129b08782880161262e565b95989497509550505050565b6001600160a01b03811681146121f357600080fd5b600080604083850312156129e457600080fd5b82356129ef816129bc565b915060208301356001600160401b03811115612a0a57600080fd5b612a16858286016127b2565b9150509250929050565b600060208284031215612a3257600080fd5b5035919050565b60005b83811015612a54578181015183820152602001612a3c565b838111156118a55750506000910152565b60008151808452612a7d816020860160208601612a39565b601f01601f19169290920160200192915050565b600081518084526020808501945080840160005b83811015612ac157815187529582019590820190600101612aa5565b509495945050505050565b60006020808301818452808551808352604092508286019150828160051b87010184880160005b83811015612b4f57603f19898403018552815160608151818652612b1982870182612a65565b915050888201518986015287820151915084810388860152612b3b8183612a91565b968901969450505090860190600101612af3565b509098975050505050505050565b600060208284031215612b6f57600080fd5b8135612b7a816129bc565b9392505050565b60008060008060008060008060a0898b031215612b9d57600080fd5b88356001600160401b0380821115612bb457600080fd5b612bc08c838d0161262e565b909a50985060208b0135975060408b0135965060608b0135915080821115612be757600080fd5b612bf38c838d01612894565b909650945060808b0135915080821115612c0c57600080fd5b50612c198b828c01612894565b999c989b5096995094979396929594505050565b60006020808301818452808551808352604092508286019150828160051b87010184880160005b83811015612b4f57603f1989840301855281516101008151818652612c7b82870182612a65565b9150508882015189860152878201518886015260608083015186830382880152612ca58382612a91565b6080858101519089015260a0808601519089015260c0808601519089015260e09485015194909701939093525050509386019390860190600101612c54565b60006020808301818452808551808352604092508286019150828160051b87010184880160005b83811015612b4f57603f19898403018552815160608151855288820151818a870152612d3982870182612a65565b91505087820151915084810388860152612d538183612a65565b968901969450505090860190600101612d0b565b600060208284031215612d7957600080fd5b81356001600160401b03811115612d8f57600080fd5b612d9b848285016127b2565b949350505050565b634e487b7160e01b600052603260045260246000fd5b634e487b7160e01b600052601160045260246000fd5b6000600019821415612de357612de3612db9565b5060010190565b8183823760009101908152919050565b600082601f830112612e0b57600080fd5b8151612e196127418261278b565b818152846020838601011115612e2e57600080fd5b612d9b826020830160208701612a39565b60006020808385031215612e5257600080fd5b82516001600160401b0380821115612e6957600080fd5b818501915085601f830112612e7d57600080fd5b8151612e8b612741826126fd565b81815260059190911b83018401908481019088831115612eaa57600080fd5b8585015b83811015612ee257805185811115612ec65760008081fd5b612ed48b89838a0101612dfa565b845250918601918601612eae565b5098975050505050505050565b600181811c90821680612f0357607f821691505b60208210811415612f2457634e487b7160e01b600052602260045260246000fd5b50919050565b8054600090600181811c9080831680612f4457607f831692505b6020808410821415612f6657634e487b7160e01b600052602260045260246000fd5b818015612f7a5760018114612f8b57612fb7565b60ff19861689528489019650612fb7565b876000528160002060005b86811015612faf5781548b820152908501908301612f96565b505084890196505b50505050505092915050565b60006103878284612f2a565b60008251612fe1818460208701612a39565b9190910192915050565b600060208284031215612ffd57600080fd5b81516001600160401b0381111561301357600080fd5b612d9b84828501612dfa565b60006020828403121561303157600080fd5b8151612b7a816129bc565b6000821982111561304f5761304f612db9565b500190565b634e487b7160e01b600052600160045260246000fd5b60008282101561307c5761307c612db9565b500390565b6020808252602e908201527f496e697469616c697a61626c653a20636f6e747261637420697320616c72656160408201526d191e481a5b9a5d1a585b1a5e995960921b606082015260800190565b6020808252602b908201527f496e697469616c697a61626c653a20636f6e7472616374206973206e6f74206960408201526a6e697469616c697a696e6760a81b606082015260800190565b634e487b7160e01b600052603160045260246000fdfea264697066735822122057ffcdb915d6cbc40e6093504bdf293c1e479e16b49f0d0e91da9ef7d349052364736f6c63430008090033",
  "linkReferences": {},
  "deployedLinkReferences": {}
}