{
  "_format": "hh-sol-artifact-1",
  "contractName": "Handler_AdministrationFacet",
  "sourceName": "contracts/handler/AdministrationFacet.sol",
  "abi": [
    {
      "inputs": [
        {
          "internalType": "address[]",
          "name": "_addrs",
          "type": "address[]"
        }
      ],
      "name": "addMultipleNodeTypes",
      "outputs": [],
      "stateMutability": "nonpayable",
      "type": "function"
    },
    {
      "inputs": [
        {
          "internalType": "address",
          "name": "_addr",
          "type": "address"
        }
      ],
      "name": "addNodeType",
      "outputs": [],
      "stateMutability": "nonpayable",
      "type": "function"
    },
    {
      "inputs": [
        {
          "internalType": "uint256",
          "name": "tokenId",
          "type": "uint256"
        }
      ],
      "name": "getAttribute",
      "outputs": [
        {
          "internalType": "string",
          "name": "",
          "type": "string"
        }
      ],
      "stateMutability": "view",
      "type": "function"
    },
    {
      "inputs": [
        {
          "internalType": "address",
          "name": "user",
          "type": "address"
        }
      ],
      "name": "getClaimableRewardsOf",
      "outputs": [
        {
          "internalType": "uint256",
          "name": "",
          "type": "uint256"
        },
        {
          "internalType": "uint256",
          "name": "",
          "type": "uint256"
        }
      ],
      "stateMutability": "view",
      "type": "function"
    },
    {
      "inputs": [
        {
          "internalType": "string",
          "name": "key",
          "type": "string"
        }
      ],
      "name": "getNodeTypesAddress",
      "outputs": [
        {
          "internalType": "address",
          "name": "",
          "type": "address"
        }
      ],
      "stateMutability": "view",
      "type": "function"
    },
    {
      "inputs": [
        {
          "internalType": "uint256",
          "name": "iStart",
          "type": "uint256"
        },
        {
          "internalType": "uint256",
          "name": "iEnd",
          "type": "uint256"
        }
      ],
      "name": "getNodeTypesBetweenIndexes",
      "outputs": [
        {
          "internalType": "string[]",
          "name": "",
          "type": "string[]"
        }
      ],
      "stateMutability": "view",
      "type": "function"
    },
    {
      "inputs": [],
      "name": "getNodeTypesNames",
      "outputs": [
        {
          "internalType": "string[]",
          "name": "",
          "type": "string[]"
        }
      ],
      "stateMutability": "view",
      "type": "function"
    },
    {
      "inputs": [],
      "name": "getNodeTypesSize",
      "outputs": [
        {
          "internalType": "uint256",
          "name": "",
          "type": "uint256"
        }
      ],
      "stateMutability": "view",
      "type": "function"
    },
    {
      "inputs": [
        {
          "internalType": "uint256",
          "name": "key",
          "type": "uint256"
        }
      ],
      "name": "getTokenIdNodeTypeName",
      "outputs": [
        {
          "internalType": "string",
          "name": "",
          "type": "string"
        }
      ],
      "stateMutability": "view",
      "type": "function"
    },
    {
      "inputs": [
        {
          "internalType": "uint256",
          "name": "iStart",
          "type": "uint256"
        },
        {
          "internalType": "uint256",
          "name": "iEnd",
          "type": "uint256"
        }
      ],
      "name": "getTokenIdsBetweenIndexes",
      "outputs": [
        {
          "internalType": "uint256[]",
          "name": "",
          "type": "uint256[]"
        }
      ],
      "stateMutability": "view",
      "type": "function"
    },
    {
      "inputs": [
        {
          "internalType": "uint256",
          "name": "iStart",
          "type": "uint256"
        },
        {
          "internalType": "uint256",
          "name": "iEnd",
          "type": "uint256"
        }
      ],
      "name": "getTokenIdsNodeTypeBetweenIndexes",
      "outputs": [
        {
          "internalType": "string[]",
          "name": "",
          "type": "string[]"
        }
      ],
      "stateMutability": "view",
      "type": "function"
    },
    {
      "inputs": [],
      "name": "getTokenIdsSize",
      "outputs": [
        {
          "internalType": "uint256",
          "name": "",
          "type": "uint256"
        }
      ],
      "stateMutability": "view",
      "type": "function"
    },
    {
      "inputs": [],
      "name": "getTotalCreatedNodes",
      "outputs": [
        {
          "internalType": "uint256",
          "name": "",
          "type": "uint256"
        }
      ],
      "stateMutability": "view",
      "type": "function"
    },
    {
      "inputs": [
        {
          "internalType": "address",
          "name": "user",
          "type": "address"
        }
      ],
      "name": "getTotalNodesOf",
      "outputs": [
        {
          "internalType": "uint256",
          "name": "",
          "type": "uint256"
        }
      ],
      "stateMutability": "view",
      "type": "function"
    },
    {
      "inputs": [
        {
          "internalType": "address",
          "name": "_addr",
          "type": "address"
        }
      ],
      "name": "hasNodeType",
      "outputs": [
        {
          "internalType": "bool",
          "name": "",
          "type": "bool"
        }
      ],
      "stateMutability": "view",
      "type": "function"
    },
    {
      "inputs": [],
      "name": "lucky",
      "outputs": [
        {
          "internalType": "contract ISpringLuckyBox",
          "name": "",
          "type": "address"
        }
      ],
      "stateMutability": "view",
      "type": "function"
    },
    {
      "inputs": [],
      "name": "nft",
      "outputs": [
        {
          "internalType": "address",
          "name": "",
          "type": "address"
        }
      ],
      "stateMutability": "view",
      "type": "function"
    },
    {
      "inputs": [],
      "name": "plot",
      "outputs": [
        {
          "internalType": "contract ISpringPlot",
          "name": "",
          "type": "address"
        }
      ],
      "stateMutability": "view",
      "type": "function"
    },
    {
      "inputs": [],
      "name": "postUpgrade",
      "outputs": [],
      "stateMutability": "nonpayable",
      "type": "function"
    },
    {
      "inputs": [
        {
          "internalType": "string",
          "name": "name",
          "type": "string"
        },
        {
          "internalType": "uint256",
          "name": "durationEffect",
          "type": "uint256"
        },
        {
          "internalType": "uint256",
          "name": "rewardBoost",
          "type": "uint256"
        },
        {
          "internalType": "uint256[]",
          "name": "limits",
          "type": "uint256[]"
        },
        {
          "internalType": "uint256[]",
          "name": "prices",
          "type": "uint256[]"
        }
      ],
      "name": "setFertilizerType",
      "outputs": [],
      "stateMutability": "nonpayable",
      "type": "function"
    },
    {
      "inputs": [
        {
          "internalType": "address",
          "name": "_new",
          "type": "address"
        }
      ],
      "name": "setLucky",
      "outputs": [],
      "stateMutability": "nonpayable",
      "type": "function"
    },
    {
      "inputs": [
        {
          "internalType": "address",
          "name": "_new",
          "type": "address"
        }
      ],
      "name": "setNft",
      "outputs": [],
      "stateMutability": "nonpayable",
      "type": "function"
    },
    {
      "inputs": [
        {
          "internalType": "address",
          "name": "_new",
          "type": "address"
        }
      ],
      "name": "setPlot",
      "outputs": [],
      "stateMutability": "nonpayable",
      "type": "function"
    },
    {
      "inputs": [
        {
          "internalType": "string",
          "name": "name",
          "type": "string"
        },
        {
          "internalType": "uint256",
          "name": "price",
          "type": "uint256"
        },
        {
          "internalType": "uint256",
          "name": "maxNodes",
          "type": "uint256"
        },
        {
          "internalType": "string[]",
          "name": "allowedNodeTypes",
          "type": "string[]"
        },
        {
          "internalType": "uint256",
          "name": "additionalGRPTime",
          "type": "uint256"
        },
        {
          "internalType": "uint256",
          "name": "waterpackGRPBoost",
          "type": "uint256"
        }
      ],
      "name": "setPlotType",
      "outputs": [],
      "stateMutability": "nonpayable",
      "type": "function"
    },
    {
      "inputs": [
        {
          "internalType": "address",
          "name": "_new",
          "type": "address"
        }
      ],
      "name": "setSwapper",
      "outputs": [],
      "stateMutability": "nonpayable",
      "type": "function"
    },
    {
      "inputs": [
        {
          "internalType": "string",
          "name": "name",
          "type": "string"
        },
        {
          "internalType": "uint256",
          "name": "ratioOfGRP",
          "type": "uint256"
        },
        {
          "internalType": "uint256[]",
          "name": "prices",
          "type": "uint256[]"
        }
      ],
      "name": "setWaterpackType",
      "outputs": [],
      "stateMutability": "nonpayable",
      "type": "function"
    },
    {
      "inputs": [],
      "name": "swapper",
      "outputs": [
        {
          "internalType": "contract ISwapper",
          "name": "",
          "type": "address"
        }
      ],
      "stateMutability": "view",
      "type": "function"
    },
    {
      "inputs": [
        {
          "internalType": "string",
          "name": "name",
          "type": "string"
        },
        {
          "internalType": "address",
          "name": "_addr",
          "type": "address"
        }
      ],
      "name": "updateNodeTypeAddress",
      "outputs": [],
      "stateMutability": "nonpayable",
      "type": "function"
    }
  ],
  "bytecode": "0x608060405234801561001057600080fd5b506127c4806100206000396000f3fe608060405234801561001057600080fd5b50600436106101c45760003560e01c8063a880f1a9116100f9578063d9c291cf11610097578063e1ca019b11610071578063e1ca019b146103c3578063ec52dc11146103d6578063f3c13387146103e9578063f6008948146103fc57600080fd5b8063d9c291cf1461038e578063da178cb01461039f578063e15e66d0146103b057600080fd5b8063c299d380116100d3578063c299d3801461033d578063c2b34b5e14610350578063c708c72c14610373578063d6a0d2ee1461038657600080fd5b8063a880f1a9146102ef578063bf035e1114610302578063bf442d231461032a57600080fd5b806362663f18116101665780639c82f2a4116101405780639c82f2a4146102a1578063a0a8fe65146102b4578063a4a74c49146102bc578063a650ac0d146102cf57600080fd5b806362663f1814610269578063652469301461027c578063837154761461028f57600080fd5b80632c53bc64116101a25780632c53bc641461021b578063335faa091461022357806347ccca0214610238578063493fe80f1461024957600080fd5b80631d6cc397146101c95780631fb895f8146101de5780632b3297f9146101f1575b600080fd5b6101dc6101d7366004611f8d565b61040f565b005b6101dc6101ec3660046120e5565b610491565b600a546001600160a01b03165b6040516001600160a01b0390911681526020015b60405180910390f35b6101dc61055b565b61022b61058e565b60405161021291906121dc565b6008546001600160a01b03166101fe565b61025c6102573660046121ef565b610665565b6040516102129190612208565b6101dc61027736600461223e565b61071e565b6101fe61028a3660046122d5565b610801565b6004545b604051908152602001610212565b6101dc6102af366004612311565b6108a1565b610293610934565b61025c6102ca3660046121ef565b610a1b565b6102e26102dd36600461232c565b610a2c565b604051610212919061234e565b6102936102fd366004612311565b610aec565b610315610310366004612311565b610bd7565b60408051928352602083019190915201610212565b6101dc610338366004612392565b610ce1565b61022b61034b36600461232c565b610d98565b61036361035e366004612311565b610ee0565b6040519015158152602001610212565b6101dc610381366004612311565b610f92565b600054610293565b6009546001600160a01b03166101fe565b600b546001600160a01b03166101fe565b61022b6103be36600461232c565b611094565b6101dc6103d1366004612311565b6111f5565b6101dc6103e436600461243e565b611284565b6101dc6103f7366004612311565b611302565b6101dc61040a366004612311565b611391565b610417611420565b61048a85858080601f016020809104026020016040519081016040528093929190818152602001838380828437600092019190915250506040805160208088028281018201909352878252899450909250879187918291908501908490808284376000920191909152506114b892505050565b5050505050565b610499611420565b6040516000906003906104ad908590612531565b9081526040519081900360200190205460ff166105115760405162461bcd60e51b815260206004820152601e60248201527f48616e646c65723a204e6f64655479706520646f65736e74206578697374000060448201526064015b60405180910390fd5b8181600001600101846040516105279190612531565b90815260405190819003602001902080546001600160a01b03929092166001600160a01b0319909216919091179055505050565b7f268ac4c2b4d4a4c12e71a80c18e7ac5f6fdd526f1a6f30d4c2f8836daedf10515460ff1661058c5761058c611772565b565b6060600080546040805160208084028201810190925282815292919060009084015b8282101561065c5783829060005260206000200180546105cf9061254d565b80601f01602080910402602001604051908101604052809291908181526020018280546105fb9061254d565b80156106485780601f1061061d57610100808354040283529160200191610648565b820191906000526020600020905b81548152906001019060200180831161062b57829003601f168201915b5050505050815260200190600101906105b0565b50505050905090565b6000818152600560205260408082209051606092916001916106879190612582565b9081526040519081900360200181205463493fe80f60e01b82526001600160a01b03169063493fe80f906106c390869060040190815260200190565b60006040518083038186803b1580156106db57600080fd5b505afa1580156106ef573d6000803e3d6000fd5b505050506040513d6000823e601f3d908101601f19168201604052610717919081019061261e565b9392505050565b610726611420565b6000805b82518110156107fc57600083828151811061074757610747612694565b60200260200101516001600160a01b03166306fdde036040518163ffffffff1660e01b815260040160006040518083038186803b15801561078757600080fd5b505afa15801561079b573d6000803e3d6000fd5b505050506040513d6000823e601f3d908101601f191682016040526107c3919081019061261e565b90506107e983828685815181106107dc576107dc612694565b6020026020010151611832565b50806107f4816126c0565b91505061072a565b505050565b6040516000908190600390610817908590612531565b9081526040519081900360200190205460ff1661086e5760405162461bcd60e51b8152602060048201526015602482015274139bd919551e5c1948191bd95cdb9d08195e1a5cdd605a1b6044820152606401610508565b6040516001820190610881908590612531565b908152604051908190036020019020546001600160a01b03169392505050565b6108a9611420565b60006001600160a01b0382166109115760405162461bcd60e51b815260206004820152602760248201527f48616e646c65723a20537761707065722063616e6e6f742062652061646472656044820152667373207a65726f60c81b6064820152608401610508565b600a0180546001600160a01b0319166001600160a01b0392909216919091179055565b6000806000805b8254811015610a14578254600184019084908390811061095d5761095d612694565b906000526020600020016040516109749190612582565b90815260408051602092819003830181205463b88d345360e01b825291516001600160a01b039092169263b88d345392600480840193829003018186803b1580156109be57600080fd5b505afa1580156109d2573d6000803e3d6000fd5b505050506040513d601f19601f820116820180604052508101906109f691906126db565b610a0090836126f4565b915080610a0c816126c0565b91505061093b565b5092915050565b6060610a268261193e565b92915050565b6060600080610a3b858561270c565b6001600160401b03811115610a5257610a52612006565b604051908082528060200260200182016040528015610a7b578160200160208202803683370190505b509050845b84811015610ae35760048301805482908110610a9e57610a9e612694565b9060005260206000200154828783610ab6919061270c565b81518110610ac657610ac6612694565b602090810291909101015280610adb816126c0565b915050610a80565b50949350505050565b6000806000805b8254811015610bcf5782546001840190849083908110610b1557610b15612694565b90600052602060002001604051610b2c9190612582565b908152604051908190036020018120546343a9ac3960e01b82526001600160a01b03878116600484015216906343a9ac399060240160206040518083038186803b158015610b7957600080fd5b505afa158015610b8d573d6000803e3d6000fd5b505050506040513d601f19601f82011682018060405250810190610bb191906126db565b610bbb90836126f4565b915080610bc7816126c0565b915050610af3565b509392505050565b6000808060008060005b8354811015610cd557835460009081906001870190879085908110610c0857610c08612694565b90600052602060002001604051610c1f9190612582565b908152604051908190036020018120546303eba50760e01b82526001600160a01b038b8116600484015216906303eba50790602401604080518083038186803b158015610c6b57600080fd5b505afa158015610c7f573d6000803e3d6000fd5b505050506040513d601f19601f82011682018060405250810190610ca39190612723565b9092509050610cb282866126f4565b9450610cbe81856126f4565b935050508080610ccd906126c0565b915050610be1565b50909590945092505050565b610ce9611420565b610d8e88888080601f01602080910402602001604051908101604052809392919081815260200183838082843760009201919091525050604080516020808a0282810182019093528982528c94508b935090918a918a91829185019084908082843760009201919091525050604080516020808b0282810182019093528a82529093508a925089918291850190849080828437600092019190915250611a3892505050565b5050505050505050565b6060600080610da7858561270c565b6001600160401b03811115610dbe57610dbe612006565b604051908082528060200260200182016040528015610df157816020015b6060815260200190600190039081610ddc5790505b509050845b84811015610ae3578254839082908110610e1257610e12612694565b906000526020600020018054610e279061254d565b80601f0160208091040260200160405190810160405280929190818152602001828054610e539061254d565b8015610ea05780601f10610e7557610100808354040283529160200191610ea0565b820191906000526020600020905b815481529060010190602001808311610e8357829003601f168201915b5050505050828783610eb2919061270c565b81518110610ec257610ec2612694565b60200260200101819052508080610ed8906126c0565b915050610df6565b600080826001600160a01b03166306fdde036040518163ffffffff1660e01b815260040160006040518083038186803b158015610f1c57600080fd5b505afa925050508015610f5157506040513d6000823e601f3d908101601f19168201604052610f4e919081019061261e565b60015b610f5e5750600092915050565b6040516003830190610f71908390612531565b9081526040519081900360200190205460ff16949350505050565b50919050565b610f9a611420565b600080826001600160a01b03166306fdde036040518163ffffffff1660e01b815260040160006040518083038186803b158015610fd657600080fd5b505afa158015610fea573d6000803e3d6000fd5b505050506040513d6000823e601f3d908101601f19168201604052611012919081019061261e565b905081600001600301816040516110299190612531565b9081526040519081900360200190205460ff16156110895760405162461bcd60e51b815260206004820181905260248201527f48616e646c65723a204e6f64655479706520616c7265616479206578697374736044820152606401610508565b6107fc828285611832565b60606000806110a3858561270c565b6001600160401b038111156110ba576110ba612006565b6040519080825280602002602001820160405280156110ed57816020015b60608152602001906001900390816110d85790505b509050845b84811015610ae35760048301805460058501916000918490811061111857611118612694565b90600052602060002001548152602001908152602001600020805461113c9061254d565b80601f01602080910402602001604051908101604052809291908181526020018280546111689061254d565b80156111b55780601f1061118a576101008083540402835291602001916111b5565b820191906000526020600020905b81548152906001019060200180831161119857829003601f168201915b50505050508287836111c7919061270c565b815181106111d7576111d7612694565b602002602001018190525080806111ed906126c0565b9150506110f2565b6111fd611420565b60006001600160a01b0382166112615760405162461bcd60e51b8152602060048201526024808201527f48616e646c65723a204c6f6f742063616e6e6f742062652061646472657373206044820152637a65726f60e01b6064820152608401610508565b60090180546001600160a01b0319166001600160a01b0392909216919091179055565b61128c611420565b600b5460405163ec52dc1160e01b81526000916001600160a01b03169063ec52dc11906112c7908a908a908a908a908a908a90600401612747565b600060405180830381600087803b1580156112e157600080fd5b505af11580156112f5573d6000803e3d6000fd5b5050505050505050505050565b61130a611420565b60006001600160a01b03821661136e5760405162461bcd60e51b815260206004820152602360248201527f48616e646c65723a204e66742063616e6e6f742062652061646472657373207a60448201526265726f60e81b6064820152608401610508565b60080180546001600160a01b0319166001600160a01b0392909216919091179055565b611399611420565b60006001600160a01b0382166113fd5760405162461bcd60e51b8152602060048201526024808201527f48616e646c65723a20506c6f742063616e6e6f742062652061646472657373206044820152637a65726f60e01b6064820152608401610508565b600b0180546001600160a01b0319166001600160a01b0392909216919091179055565b3360009081527f268ac4c2b4d4a4c12e71a80c18e7ac5f6fdd526f1a6f30d4c2f8836daedf105360205260409020547f268ac4c2b4d4a4c12e71a80c18e7ac5f6fdd526f1a6f30d4c2f8836daedf10519060ff166114b55760405162461bcd60e51b815260206004820152601260248201527127bbb732b9399d1027b7363c9027bbb732b960711b6044820152606401610508565b50565b60007fae290eb28aab8105e055b657aeea4e3b7eeed3fbe32f123b18998ab2907937b3905060008080546040805160208084028201810190925282815292919060009084015b828210156115aa57838290600052602060002001805461151d9061254d565b80601f01602080910402602001604051908101604052809291908181526020018280546115499061254d565b80156115965780601f1061156b57610100808354040283529160200191611596565b820191906000526020600020905b81548152906001019060200180831161157957829003601f168201915b5050505050815260200190600101906114fe565b50505050905082518151146116015760405162461bcd60e51b815260206004820152601b60248201527f57617465727061636b733a206c656e677468206d69736d6174636800000000006044820152606401610508565b600082600201866040516116159190612531565b908152602001604051809103902054905080600014156116ac5760018084018054918201815560009081526020908190208851611659939190910191890190611e68565b506040805160208082018352878252855460018181018855600088815292909220925192019190915584015490516002850190611697908990612531565b908152604051908190036020019020556116da565b6000836116ba60018461270c565b815481106116ca576116ca612694565b6000918252602090912001869055505b60005b8251811015611769578481815181106116f8576116f8612694565b602002602001015184600301886040516117129190612531565b908152602001604051809103902084838151811061173257611732612694565b60200260200101516040516117479190612531565b9081526040519081900360200190205580611761816126c0565b9150506116dd565b50505050505050565b7f268ac4c2b4d4a4c12e71a80c18e7ac5f6fdd526f1a6f30d4c2f8836daedf1051805460ff16156117e55760405162461bcd60e51b815260206004820152601b60248201527f4f776e6572733a20616c726561647920696e697469616c697a656400000000006044820152606401610508565b6001808201805480830182556000918252602080832090910180546001600160a01b03191633908117909155825260028401905260409020805460ff199081168317909155825416179055565b6040516003840190611845908490612531565b9081526040519081900360200190205460ff1615611873578083600001600101836040516105279190612531565b6001836000016003018360405161188a9190612531565b908152604051908190036020018120805492151560ff1990931692909217909155819060018501906118bd908590612531565b90815260405190819003602001812080546001600160a01b03939093166001600160a01b0319909316929092179091558354906002850190611900908590612531565b908152604051602091819003820190209190915583546001810185556000858152829020845161193893919092019190850190611e68565b50505050565b6000818152600760205260408120546060919060ff166119975760405162461bcd60e51b8152602060048201526014602482015273151bdad95b925908191bd95cdb9d08195e1a5cdd60621b6044820152606401610508565b6000838152600582016020526040902080546119b29061254d565b80601f01602080910402602001604051908101604052809291908181526020018280546119de9061254d565b8015611a2b5780601f10611a0057610100808354040283529160200191611a2b565b820191906000526020600020905b815481529060010190602001808311611a0e57829003601f168201915b5050505050915050919050565b81517f87e1fbeddd51183bf8b543eba737e1308597e167e4320ca5858ddc4f2780b43b90600314611aab5760405162461bcd60e51b815260206004820152601e60248201527f46657274696c697a6572733a20696e76616c696420617267756d656e747300006044820152606401610508565b6000805460408051602080840282018101909252828152918391829084015b82821015611b76578382906000526020600020018054611ae99061254d565b80601f0160208091040260200160405190810160405280929190818152602001828054611b159061254d565b8015611b625780601f10611b3757610100808354040283529160200191611b62565b820191906000526020600020905b815481529060010190602001808311611b4557829003601f168201915b505050505081526020019060010190611aca565b5050505090508051835114611bcd5760405162461bcd60e51b815260206004820152601c60248201527f46657274696c697a6572733a206c656e677468206d69736d61746368000000006044820152606401610508565b60008260020188604051611be19190612531565b90815260200160405180910390205490508060001415611d2b5760018084018054918201815560009081526020908190208a51611c259391909101918b0190611e68565b50826000016040518060c0016040528089815260200188815260200187600081518110611c5457611c54612694565b602002602001015181526020016000815260200187600181518110611c7b57611c7b612694565b6020026020010151815260200187600281518110611c9b57611c9b612694565b60209081029190910181015190915282546001818101855560009485529382902083516006909202019081559082015181840155604080830151600280840191909155606084015160038401556080840151600484015560a09093015160059092019190915591850154915190850190611d16908b90612531565b90815260405190819003602001902055611dce565b600083611d3960018461270c565b81548110611d4957611d49612694565b600091825260208220600690910201898155600181018990558751909250879190611d7657611d76612694565b6020026020010151816002018190555085600181518110611d9957611d99612694565b6020026020010151816004018190555085600281518110611dbc57611dbc612694565b60200260200101518160050181905550505b60005b8251811015611e5d57848181518110611dec57611dec612694565b6020026020010151846003018a604051611e069190612531565b9081526020016040518091039020848381518110611e2657611e26612694565b6020026020010151604051611e3b9190612531565b9081526040519081900360200190205580611e55816126c0565b915050611dd1565b505050505050505050565b828054611e749061254d565b90600052602060002090601f016020900481019282611e965760008555611edc565b82601f10611eaf57805160ff1916838001178555611edc565b82800160010185558215611edc579182015b82811115611edc578251825591602001919060010190611ec1565b50611ee8929150611eec565b5090565b5b80821115611ee85760008155600101611eed565b60008083601f840112611f1357600080fd5b5081356001600160401b03811115611f2a57600080fd5b602083019150836020828501011115611f4257600080fd5b9250929050565b60008083601f840112611f5b57600080fd5b5081356001600160401b03811115611f7257600080fd5b6020830191508360208260051b8501011115611f4257600080fd5b600080600080600060608688031215611fa557600080fd5b85356001600160401b0380821115611fbc57600080fd5b611fc889838a01611f01565b9097509550602088013594506040880135915080821115611fe857600080fd5b50611ff588828901611f49565b969995985093965092949392505050565b634e487b7160e01b600052604160045260246000fd5b604051601f8201601f191681016001600160401b038111828210171561204457612044612006565b604052919050565b60006001600160401b0382111561206557612065612006565b50601f01601f191660200190565b600082601f83011261208457600080fd5b81356120976120928261204c565b61201c565b8181528460208386010111156120ac57600080fd5b816020850160208301376000918101602001919091529392505050565b80356001600160a01b03811681146120e057600080fd5b919050565b600080604083850312156120f857600080fd5b82356001600160401b0381111561210e57600080fd5b61211a85828601612073565b925050612129602084016120c9565b90509250929050565b60005b8381101561214d578181015183820152602001612135565b838111156119385750506000910152565b60008151808452612176816020860160208601612132565b601f01601f19169290920160200192915050565b6000815180845260208085019450848260051b860182860160005b858110156121cf5783830389526121bd83835161215e565b988501989250908401906001016121a5565b5090979650505050505050565b602081526000610717602083018461218a565b60006020828403121561220157600080fd5b5035919050565b602081526000610717602083018461215e565b60006001600160401b0382111561223457612234612006565b5060051b60200190565b6000602080838503121561225157600080fd5b82356001600160401b0381111561226757600080fd5b8301601f8101851361227857600080fd5b80356122866120928261221b565b81815260059190911b820183019083810190878311156122a557600080fd5b928401925b828410156122ca576122bb846120c9565b825292840192908401906122aa565b979650505050505050565b6000602082840312156122e757600080fd5b81356001600160401b038111156122fd57600080fd5b61230984828501612073565b949350505050565b60006020828403121561232357600080fd5b610717826120c9565b6000806040838503121561233f57600080fd5b50508035926020909101359150565b6020808252825182820181905260009190848201906040850190845b818110156123865783518352928401929184019160010161236a565b50909695505050505050565b60008060008060008060008060a0898b0312156123ae57600080fd5b88356001600160401b03808211156123c557600080fd5b6123d18c838d01611f01565b909a50985060208b0135975060408b0135965060608b01359150808211156123f857600080fd5b6124048c838d01611f49565b909650945060808b013591508082111561241d57600080fd5b5061242a8b828c01611f49565b999c989b5096995094979396929594505050565b60008060008060008060c0878903121561245757600080fd5b6001600160401b03808835111561246d57600080fd5b61247a8989358a01612073565b965060208089013596506040890135955060608901358281111561249d57600080fd5b8901601f81018b136124ae57600080fd5b80356124bc6120928261221b565b81815260059190911b8201830190838101908d8311156124db57600080fd5b8484015b838110156125115786813511156124f557600080fd5b6125048f878335880101612073565b83529185019185016124df565b509a9d999c50979a60808101359960a09091013598509650505050505050565b60008251612543818460208701612132565b9190910192915050565b600181811c9082168061256157607f821691505b60208210811415610f8c57634e487b7160e01b600052602260045260246000fd5b600080835481600182811c91508083168061259e57607f831692505b60208084108214156125be57634e487b7160e01b86526022600452602486fd5b8180156125d257600181146125e357612610565b60ff19861689528489019650612610565b60008a81526020902060005b868110156126085781548b8201529085019083016125ef565b505084890196505b509498975050505050505050565b60006020828403121561263057600080fd5b81516001600160401b0381111561264657600080fd5b8201601f8101841361265757600080fd5b80516126656120928261204c565b81815285602083850101111561267a57600080fd5b61268b826020830160208601612132565b95945050505050565b634e487b7160e01b600052603260045260246000fd5b634e487b7160e01b600052601160045260246000fd5b60006000198214156126d4576126d46126aa565b5060010190565b6000602082840312156126ed57600080fd5b5051919050565b60008219821115612707576127076126aa565b500190565b60008282101561271e5761271e6126aa565b500390565b6000806040838503121561273657600080fd5b505080516020909101519092909150565b60c08152600061275a60c083018961215e565b8760208401528660408401528281036060840152612778818761218a565b6080840195909552505060a0015294935050505056fea264697066735822122066c092fc4238cbc323bc54eeaa1285f2ec94d3c370c8b53bb0d9851638dc54dd64736f6c63430008090033",
  "linkReferences": {},
  "deployedLinkReferences": {}
}