{
  "_format": "hh-sol-artifact-1",
  "contractName": "NodeType",
  "sourceName": "contracts/NodeType.sol",
  "abi": [
    {
      "anonymous": false,
      "inputs": [
        {
          "indexed": false,
          "internalType": "uint8",
          "name": "version",
          "type": "uint8"
        }
      ],
      "name": "Initialized",
      "type": "event"
    },
    {
      "inputs": [
        {
          "internalType": "string",
          "name": "_name",
          "type": "string"
        },
        {
          "internalType": "uint256",
          "name": "_rate",
          "type": "uint256"
        }
      ],
      "name": "addFeature",
      "outputs": [],
      "stateMutability": "nonpayable",
      "type": "function"
    },
    {
      "inputs": [
        {
          "internalType": "address",
          "name": "_new",
          "type": "address"
        },
        {
          "internalType": "bool",
          "name": "_change",
          "type": "bool"
        }
      ],
      "name": "addOwner",
      "outputs": [],
      "stateMutability": "nonpayable",
      "type": "function"
    },
    {
      "inputs": [
        {
          "internalType": "address",
          "name": "user",
          "type": "address"
        },
        {
          "internalType": "uint256",
          "name": "tokenId",
          "type": "uint256"
        },
        {
          "internalType": "uint256",
          "name": "amountOfGRP",
          "type": "uint256"
        },
        {
          "internalType": "uint256",
          "name": "amount",
          "type": "uint256"
        }
      ],
      "name": "addPlotAdditionalLifetime",
      "outputs": [],
      "stateMutability": "nonpayable",
      "type": "function"
    },
    {
      "inputs": [
        {
          "internalType": "address",
          "name": "user",
          "type": "address"
        },
        {
          "internalType": "uint256[]",
          "name": "tokenIds",
          "type": "uint256[]"
        },
        {
          "internalType": "uint256",
          "name": "durationEffect",
          "type": "uint256"
        },
        {
          "internalType": "uint256",
          "name": "boostAmount",
          "type": "uint256"
        },
        {
          "internalType": "uint256[]",
          "name": "amounts",
          "type": "uint256[]"
        }
      ],
      "name": "applyFertilizerBatch",
      "outputs": [],
      "stateMutability": "nonpayable",
      "type": "function"
    },
    {
      "inputs": [
        {
          "internalType": "address",
          "name": "user",
          "type": "address"
        },
        {
          "internalType": "uint256[]",
          "name": "tokenIds",
          "type": "uint256[]"
        },
        {
          "internalType": "uint256",
          "name": "ratioOfGRPExtended",
          "type": "uint256"
        },
        {
          "internalType": "uint256[]",
          "name": "amounts",
          "type": "uint256[]"
        }
      ],
      "name": "applyWaterpackBatch",
      "outputs": [],
      "stateMutability": "nonpayable",
      "type": "function"
    },
    {
      "inputs": [
        {
          "internalType": "string",
          "name": "feature",
          "type": "string"
        }
      ],
      "name": "baseRewardsPerSecond",
      "outputs": [
        {
          "internalType": "uint256",
          "name": "",
          "type": "uint256"
        }
      ],
      "stateMutability": "view",
      "type": "function"
    },
    {
      "inputs": [
        {
          "internalType": "address",
          "name": "from",
          "type": "address"
        },
        {
          "internalType": "uint256[]",
          "name": "tokenIds",
          "type": "uint256[]"
        }
      ],
      "name": "burnFrom",
      "outputs": [
        {
          "internalType": "uint256",
          "name": "",
          "type": "uint256"
        }
      ],
      "stateMutability": "nonpayable",
      "type": "function"
    },
    {
      "inputs": [
        {
          "internalType": "address",
          "name": "user",
          "type": "address"
        }
      ],
      "name": "calculateUserRewards",
      "outputs": [
        {
          "internalType": "uint256",
          "name": "",
          "type": "uint256"
        },
        {
          "internalType": "uint256",
          "name": "",
          "type": "uint256"
        }
      ],
      "stateMutability": "view",
      "type": "function"
    },
    {
      "inputs": [
        {
          "internalType": "address",
          "name": "user",
          "type": "address"
        },
        {
          "internalType": "uint256[]",
          "name": "tokenIds",
          "type": "uint256[]"
        }
      ],
      "name": "calculateUserRewardsBatch",
      "outputs": [
        {
          "internalType": "uint256[]",
          "name": "",
          "type": "uint256[]"
        },
        {
          "internalType": "uint256[]",
          "name": "",
          "type": "uint256[]"
        }
      ],
      "stateMutability": "view",
      "type": "function"
    },
    {
      "inputs": [
        {
          "internalType": "address",
          "name": "user",
          "type": "address"
        }
      ],
      "name": "claimRewardsAll",
      "outputs": [
        {
          "internalType": "uint256",
          "name": "",
          "type": "uint256"
        },
        {
          "internalType": "uint256",
          "name": "",
          "type": "uint256"
        }
      ],
      "stateMutability": "nonpayable",
      "type": "function"
    },
    {
      "inputs": [
        {
          "internalType": "address",
          "name": "user",
          "type": "address"
        },
        {
          "internalType": "uint256[]",
          "name": "tokenIds",
          "type": "uint256[]"
        }
      ],
      "name": "claimRewardsBatch",
      "outputs": [
        {
          "internalType": "uint256",
          "name": "",
          "type": "uint256"
        },
        {
          "internalType": "uint256",
          "name": "",
          "type": "uint256"
        }
      ],
      "stateMutability": "nonpayable",
      "type": "function"
    },
    {
      "inputs": [],
      "name": "claimTaxGRP",
      "outputs": [
        {
          "internalType": "uint256",
          "name": "",
          "type": "uint256"
        }
      ],
      "stateMutability": "view",
      "type": "function"
    },
    {
      "inputs": [],
      "name": "claimTime",
      "outputs": [
        {
          "internalType": "uint256",
          "name": "",
          "type": "uint256"
        }
      ],
      "stateMutability": "view",
      "type": "function"
    },
    {
      "inputs": [
        {
          "internalType": "address",
          "name": "user",
          "type": "address"
        },
        {
          "internalType": "uint256[]",
          "name": "tokenIds",
          "type": "uint256[]"
        },
        {
          "internalType": "string",
          "name": "feature",
          "type": "string"
        }
      ],
      "name": "createNodeCustom",
      "outputs": [],
      "stateMutability": "nonpayable",
      "type": "function"
    },
    {
      "inputs": [
        {
          "internalType": "address",
          "name": "user",
          "type": "address"
        },
        {
          "internalType": "uint256[]",
          "name": "tokenIds",
          "type": "uint256[]"
        },
        {
          "internalType": "string",
          "name": "feature",
          "type": "string"
        }
      ],
      "name": "createNodeWithLuckyBox",
      "outputs": [],
      "stateMutability": "nonpayable",
      "type": "function"
    },
    {
      "inputs": [
        {
          "internalType": "string",
          "name": "",
          "type": "string"
        }
      ],
      "name": "featureCount",
      "outputs": [
        {
          "internalType": "uint256",
          "name": "",
          "type": "uint256"
        }
      ],
      "stateMutability": "view",
      "type": "function"
    },
    {
      "inputs": [
        {
          "internalType": "string",
          "name": "",
          "type": "string"
        }
      ],
      "name": "featureToBoostRate",
      "outputs": [
        {
          "internalType": "uint256",
          "name": "",
          "type": "uint256"
        }
      ],
      "stateMutability": "view",
      "type": "function"
    },
    {
      "inputs": [
        {
          "internalType": "uint256",
          "name": "tokenId",
          "type": "uint256"
        }
      ],
      "name": "getAttribute",
      "outputs": [
        {
          "internalType": "string",
          "name": "",
          "type": "string"
        }
      ],
      "stateMutability": "view",
      "type": "function"
    },
    {
      "inputs": [
        {
          "internalType": "uint256",
          "name": "tokenId",
          "type": "uint256"
        }
      ],
      "name": "getCurrentLifetimeOfNode",
      "outputs": [
        {
          "internalType": "uint256",
          "name": "currentLifetime",
          "type": "uint256"
        },
        {
          "internalType": "uint256",
          "name": "currentTime",
          "type": "uint256"
        }
      ],
      "stateMutability": "view",
      "type": "function"
    },
    {
      "inputs": [
        {
          "internalType": "uint256",
          "name": "tokenId",
          "type": "uint256"
        }
      ],
      "name": "getCurrentRewardsPerSecondsForNode",
      "outputs": [
        {
          "internalType": "uint256",
          "name": "currentRewardsPerSeconds",
          "type": "uint256"
        },
        {
          "internalType": "uint256",
          "name": "currentTime",
          "type": "uint256"
        }
      ],
      "stateMutability": "view",
      "type": "function"
    },
    {
      "inputs": [
        {
          "internalType": "uint256",
          "name": "iStart",
          "type": "uint256"
        },
        {
          "internalType": "uint256",
          "name": "iEnd",
          "type": "uint256"
        }
      ],
      "name": "getFeaturesBetweenIndexes",
      "outputs": [
        {
          "internalType": "string[]",
          "name": "",
          "type": "string[]"
        }
      ],
      "stateMutability": "view",
      "type": "function"
    },
    {
      "inputs": [],
      "name": "getFeaturesSize",
      "outputs": [
        {
          "internalType": "uint256",
          "name": "",
          "type": "uint256"
        }
      ],
      "stateMutability": "view",
      "type": "function"
    },
    {
      "inputs": [
        {
          "internalType": "string",
          "name": "feature",
          "type": "string"
        }
      ],
      "name": "getGRP",
      "outputs": [
        {
          "internalType": "uint256",
          "name": "",
          "type": "uint256"
        }
      ],
      "stateMutability": "view",
      "type": "function"
    },
    {
      "inputs": [
        {
          "internalType": "uint256",
          "name": "tokenId",
          "type": "uint256"
        }
      ],
      "name": "getNodeFromTokenId",
      "outputs": [
        {
          "components": [
            {
              "internalType": "address",
              "name": "owner",
              "type": "address"
            },
            {
              "internalType": "uint256",
              "name": "creationTime",
              "type": "uint256"
            },
            {
              "internalType": "uint256",
              "name": "lastClaimTime",
              "type": "uint256"
            },
            {
              "internalType": "uint256",
              "name": "obtainingTime",
              "type": "uint256"
            },
            {
              "internalType": "string",
              "name": "feature",
              "type": "string"
            },
            {
              "internalType": "uint256",
              "name": "accumulatedRewards",
              "type": "uint256"
            },
            {
              "internalType": "uint256",
              "name": "lastRewardUpdateTime",
              "type": "uint256"
            },
            {
              "internalType": "uint256",
              "name": "lastLifetime",
              "type": "uint256"
            },
            {
              "internalType": "uint256[]",
              "name": "fertilizerCreationTime",
              "type": "uint256[]"
            },
            {
              "internalType": "uint256[]",
              "name": "fertilizerDuration",
              "type": "uint256[]"
            },
            {
              "internalType": "uint256[]",
              "name": "fertilizerBoost",
              "type": "uint256[]"
            },
            {
              "internalType": "uint256",
              "name": "plotAdditionalLifetime",
              "type": "uint256"
            },
            {
              "internalType": "uint256",
              "name": "totalClaimedRewards",
              "type": "uint256"
            },
            {
              "internalType": "bool",
              "name": "hasAdjustedClaimRewards",
              "type": "bool"
            }
          ],
          "internalType": "struct Node",
          "name": "",
          "type": "tuple"
        }
      ],
      "stateMutability": "view",
      "type": "function"
    },
    {
      "inputs": [
        {
          "internalType": "uint256",
          "name": "iStart",
          "type": "uint256"
        },
        {
          "internalType": "uint256",
          "name": "iEnd",
          "type": "uint256"
        }
      ],
      "name": "getNodeOwnersBetweenIndexes",
      "outputs": [
        {
          "internalType": "address[]",
          "name": "",
          "type": "address[]"
        }
      ],
      "stateMutability": "view",
      "type": "function"
    },
    {
      "inputs": [],
      "name": "getNodeOwnersSize",
      "outputs": [
        {
          "internalType": "uint256",
          "name": "",
          "type": "uint256"
        }
      ],
      "stateMutability": "view",
      "type": "function"
    },
    {
      "inputs": [
        {
          "internalType": "address",
          "name": "user",
          "type": "address"
        }
      ],
      "name": "getNodesCountLevelUpOf",
      "outputs": [
        {
          "internalType": "uint256",
          "name": "",
          "type": "uint256"
        }
      ],
      "stateMutability": "view",
      "type": "function"
    },
    {
      "inputs": [
        {
          "internalType": "address",
          "name": "user",
          "type": "address"
        }
      ],
      "name": "getNodesCountPendingOf",
      "outputs": [
        {
          "internalType": "uint256",
          "name": "",
          "type": "uint256"
        }
      ],
      "stateMutability": "view",
      "type": "function"
    },
    {
      "inputs": [
        {
          "internalType": "address",
          "name": "user",
          "type": "address"
        },
        {
          "internalType": "uint256",
          "name": "iStart",
          "type": "uint256"
        },
        {
          "internalType": "uint256",
          "name": "iEnd",
          "type": "uint256"
        }
      ],
      "name": "getNodesOfBetweenIndexes",
      "outputs": [
        {
          "components": [
            {
              "internalType": "address",
              "name": "owner",
              "type": "address"
            },
            {
              "internalType": "uint256",
              "name": "creationTime",
              "type": "uint256"
            },
            {
              "internalType": "uint256",
              "name": "lastClaimTime",
              "type": "uint256"
            },
            {
              "internalType": "uint256",
              "name": "obtainingTime",
              "type": "uint256"
            },
            {
              "internalType": "string",
              "name": "feature",
              "type": "string"
            },
            {
              "internalType": "uint256",
              "name": "accumulatedRewards",
              "type": "uint256"
            },
            {
              "internalType": "uint256",
              "name": "lastRewardUpdateTime",
              "type": "uint256"
            },
            {
              "internalType": "uint256",
              "name": "lastLifetime",
              "type": "uint256"
            },
            {
              "internalType": "uint256[]",
              "name": "fertilizerCreationTime",
              "type": "uint256[]"
            },
            {
              "internalType": "uint256[]",
              "name": "fertilizerDuration",
              "type": "uint256[]"
            },
            {
              "internalType": "uint256[]",
              "name": "fertilizerBoost",
              "type": "uint256[]"
            },
            {
              "internalType": "uint256",
              "name": "plotAdditionalLifetime",
              "type": "uint256"
            },
            {
              "internalType": "uint256",
              "name": "totalClaimedRewards",
              "type": "uint256"
            },
            {
              "internalType": "bool",
              "name": "hasAdjustedClaimRewards",
              "type": "bool"
            }
          ],
          "internalType": "struct Node[]",
          "name": "",
          "type": "tuple[]"
        }
      ],
      "stateMutability": "view",
      "type": "function"
    },
    {
      "inputs": [],
      "name": "getOwnersSize",
      "outputs": [
        {
          "internalType": "uint256",
          "name": "",
          "type": "uint256"
        }
      ],
      "stateMutability": "view",
      "type": "function"
    },
    {
      "inputs": [
        {
          "internalType": "address",
          "name": "user",
          "type": "address"
        },
        {
          "internalType": "uint256",
          "name": "iStart",
          "type": "uint256"
        },
        {
          "internalType": "uint256",
          "name": "iEnd",
          "type": "uint256"
        }
      ],
      "name": "getTimeGRPOfBetweenIndexes",
      "outputs": [
        {
          "internalType": "uint256[]",
          "name": "",
          "type": "uint256[]"
        }
      ],
      "stateMutability": "view",
      "type": "function"
    },
    {
      "inputs": [
        {
          "internalType": "address",
          "name": "user",
          "type": "address"
        },
        {
          "internalType": "uint256",
          "name": "iStart",
          "type": "uint256"
        },
        {
          "internalType": "uint256",
          "name": "iEnd",
          "type": "uint256"
        }
      ],
      "name": "getTokenIdsOfBetweenIndexes",
      "outputs": [
        {
          "internalType": "uint256[]",
          "name": "",
          "type": "uint256[]"
        }
      ],
      "stateMutability": "view",
      "type": "function"
    },
    {
      "inputs": [
        {
          "internalType": "address",
          "name": "user",
          "type": "address"
        }
      ],
      "name": "getTotalNodesNumberOf",
      "outputs": [
        {
          "internalType": "uint256",
          "name": "",
          "type": "uint256"
        }
      ],
      "stateMutability": "view",
      "type": "function"
    },
    {
      "inputs": [],
      "name": "globalTax",
      "outputs": [
        {
          "internalType": "uint256",
          "name": "",
          "type": "uint256"
        }
      ],
      "stateMutability": "view",
      "type": "function"
    },
    {
      "inputs": [],
      "name": "handler",
      "outputs": [
        {
          "internalType": "address",
          "name": "",
          "type": "address"
        }
      ],
      "stateMutability": "view",
      "type": "function"
    },
    {
      "inputs": [
        {
          "internalType": "string",
          "name": "_name",
          "type": "string"
        },
        {
          "internalType": "uint256[]",
          "name": "values",
          "type": "uint256[]"
        },
        {
          "internalType": "address",
          "name": "_handler",
          "type": "address"
        }
      ],
      "name": "initialize",
      "outputs": [],
      "stateMutability": "nonpayable",
      "type": "function"
    },
    {
      "inputs": [
        {
          "internalType": "address",
          "name": "",
          "type": "address"
        }
      ],
      "name": "isOwner",
      "outputs": [
        {
          "internalType": "bool",
          "name": "",
          "type": "bool"
        }
      ],
      "stateMutability": "view",
      "type": "function"
    },
    {
      "inputs": [],
      "name": "maxCount",
      "outputs": [
        {
          "internalType": "uint256",
          "name": "",
          "type": "uint256"
        }
      ],
      "stateMutability": "view",
      "type": "function"
    },
    {
      "inputs": [],
      "name": "name",
      "outputs": [
        {
          "internalType": "string",
          "name": "",
          "type": "string"
        }
      ],
      "stateMutability": "view",
      "type": "function"
    },
    {
      "inputs": [
        {
          "internalType": "uint256",
          "name": "",
          "type": "uint256"
        }
      ],
      "name": "nodeOwners",
      "outputs": [
        {
          "internalType": "address",
          "name": "",
          "type": "address"
        }
      ],
      "stateMutability": "view",
      "type": "function"
    },
    {
      "inputs": [
        {
          "internalType": "address",
          "name": "",
          "type": "address"
        }
      ],
      "name": "nodeOwnersInserted",
      "outputs": [
        {
          "internalType": "bool",
          "name": "",
          "type": "bool"
        }
      ],
      "stateMutability": "view",
      "type": "function"
    },
    {
      "inputs": [],
      "name": "openCreateNodesLevelUp",
      "outputs": [
        {
          "internalType": "bool",
          "name": "",
          "type": "bool"
        }
      ],
      "stateMutability": "view",
      "type": "function"
    },
    {
      "inputs": [],
      "name": "openCreateNodesMigration",
      "outputs": [
        {
          "internalType": "bool",
          "name": "",
          "type": "bool"
        }
      ],
      "stateMutability": "view",
      "type": "function"
    },
    {
      "inputs": [],
      "name": "openCreateNodesWithLuckyBoxes",
      "outputs": [
        {
          "internalType": "bool",
          "name": "",
          "type": "bool"
        }
      ],
      "stateMutability": "view",
      "type": "function"
    },
    {
      "inputs": [],
      "name": "openCreateNodesWithPending",
      "outputs": [
        {
          "internalType": "bool",
          "name": "",
          "type": "bool"
        }
      ],
      "stateMutability": "view",
      "type": "function"
    },
    {
      "inputs": [],
      "name": "openCreateNodesWithTokens",
      "outputs": [
        {
          "internalType": "bool",
          "name": "",
          "type": "bool"
        }
      ],
      "stateMutability": "view",
      "type": "function"
    },
    {
      "inputs": [
        {
          "internalType": "uint256",
          "name": "",
          "type": "uint256"
        }
      ],
      "name": "owners",
      "outputs": [
        {
          "internalType": "address",
          "name": "",
          "type": "address"
        }
      ],
      "stateMutability": "view",
      "type": "function"
    },
    {
      "inputs": [
        {
          "internalType": "address",
          "name": "",
          "type": "address"
        }
      ],
      "name": "ownersMigrated",
      "outputs": [
        {
          "internalType": "uint256",
          "name": "",
          "type": "uint256"
        }
      ],
      "stateMutability": "view",
      "type": "function"
    },
    {
      "inputs": [],
      "name": "price",
      "outputs": [
        {
          "internalType": "uint256",
          "name": "",
          "type": "uint256"
        }
      ],
      "stateMutability": "view",
      "type": "function"
    },
    {
      "inputs": [
        {
          "internalType": "address",
          "name": "_new",
          "type": "address"
        }
      ],
      "name": "removeOwner",
      "outputs": [],
      "stateMutability": "nonpayable",
      "type": "function"
    },
    {
      "inputs": [],
      "name": "rewardAmount",
      "outputs": [
        {
          "internalType": "uint256",
          "name": "",
          "type": "uint256"
        }
      ],
      "stateMutability": "view",
      "type": "function"
    },
    {
      "inputs": [
        {
          "internalType": "uint256",
          "name": "_newPrice",
          "type": "uint256"
        },
        {
          "internalType": "uint256",
          "name": "_claimTime",
          "type": "uint256"
        },
        {
          "internalType": "uint256",
          "name": "_rewardAmount",
          "type": "uint256"
        }
      ],
      "name": "setBasics",
      "outputs": [],
      "stateMutability": "nonpayable",
      "type": "function"
    },
    {
      "inputs": [
        {
          "internalType": "address",
          "name": "_new",
          "type": "address"
        }
      ],
      "name": "setHandler",
      "outputs": [],
      "stateMutability": "nonpayable",
      "type": "function"
    },
    {
      "inputs": [
        {
          "internalType": "bool",
          "name": "_openCreateNodesWithTokens",
          "type": "bool"
        },
        {
          "internalType": "bool",
          "name": "_openCreateNodesLevelUp",
          "type": "bool"
        },
        {
          "internalType": "bool",
          "name": "_openCreateNodesWithPending",
          "type": "bool"
        },
        {
          "internalType": "bool",
          "name": "_openCreateNodesWithLuckyBoxes",
          "type": "bool"
        },
        {
          "internalType": "bool",
          "name": "_openCreateNodesMigration",
          "type": "bool"
        }
      ],
      "name": "setOpenCreate",
      "outputs": [],
      "stateMutability": "nonpayable",
      "type": "function"
    },
    {
      "inputs": [
        {
          "internalType": "address",
          "name": "user",
          "type": "address"
        },
        {
          "internalType": "uint256",
          "name": "tokenId",
          "type": "uint256"
        },
        {
          "internalType": "uint256",
          "name": "amountOfGRP",
          "type": "uint256"
        }
      ],
      "name": "setPlotAdditionalLifetime",
      "outputs": [],
      "stateMutability": "nonpayable",
      "type": "function"
    },
    {
      "inputs": [
        {
          "internalType": "uint256",
          "name": "_claimTaxGRP",
          "type": "uint256"
        },
        {
          "internalType": "uint256",
          "name": "_globalTax",
          "type": "uint256"
        }
      ],
      "name": "setTax",
      "outputs": [],
      "stateMutability": "nonpayable",
      "type": "function"
    },
    {
      "inputs": [
        {
          "internalType": "uint256",
          "name": "tokenId",
          "type": "uint256"
        },
        {
          "internalType": "string",
          "name": "_feature",
          "type": "string"
        }
      ],
      "name": "setTokenIdSpecs",
      "outputs": [],
      "stateMutability": "nonpayable",
      "type": "function"
    },
    {
      "inputs": [
        {
          "internalType": "uint256",
          "name": "",
          "type": "uint256"
        }
      ],
      "name": "tokenIdToOwner",
      "outputs": [
        {
          "internalType": "address",
          "name": "",
          "type": "address"
        }
      ],
      "stateMutability": "view",
      "type": "function"
    },
    {
      "inputs": [],
      "name": "totalCreatedNodes",
      "outputs": [
        {
          "internalType": "uint256",
          "name": "",
          "type": "uint256"
        }
      ],
      "stateMutability": "view",
      "type": "function"
    },
    {
      "inputs": [
        {
          "internalType": "address",
          "name": "from",
          "type": "address"
        },
        {
          "internalType": "address",
          "name": "to",
          "type": "address"
        },
        {
          "internalType": "uint256",
          "name": "tokenId",
          "type": "uint256"
        }
      ],
      "name": "transferFrom",
      "outputs": [],
      "stateMutability": "nonpayable",
      "type": "function"
    },
    {
      "inputs": [
        {
          "internalType": "address",
          "name": "user",
          "type": "address"
        },
        {
          "internalType": "uint256",
          "name": "tokenId",
          "type": "uint256"
        }
      ],
      "name": "getTimeLeftUntilAmmo",
      "outputs": [
        {
          "internalType": "uint256",
          "name": "",
          "type": "uint256"
        }
      ],
      "stateMutability": "view",
      "type": "function"
    },
    {
      "inputs": [
        {
          "internalType": "address",
          "name": "user",
          "type": "address"
        },
        {
          "internalType": "uint256",
          "name": "tokenId",
          "type": "uint256"
        }
      ],
      "name": "nodeIsActive",
      "outputs": [
        {
          "internalType": "bool",
          "name": "",
          "type": "bool"
        }
      ],
      "stateMutability": "view",
      "type": "function"
    },
    {
      "inputs": [
        {
          "internalType": "address",
          "name": "user",
          "type": "address"
        },
        {
          "internalType": "uint256",
          "name": "tokenId",
          "type": "uint256"
        }
      ],
      "name": "nodeIsDead",
      "outputs": [
        {
          "internalType": "bool",
          "name": "",
          "type": "bool"
        }
      ],
      "stateMutability": "view",
      "type": "function"
    },
    {
      "inputs": [
        {
          "internalType": "address",
          "name": "user",
          "type": "address"
        },
        {
          "internalType": "uint256",
          "name": "tokenId",
          "type": "uint256"
        }
      ],
      "name": "getAmmosUsed",
      "outputs": [
        {
          "internalType": "uint8",
          "name": "",
          "type": "uint8"
        }
      ],
      "stateMutability": "view",
      "type": "function"
    },
    {
      "inputs": [
        {
          "internalType": "string",
          "name": "_name",
          "type": "string"
        },
        {
          "internalType": "uint256",
          "name": "_rate",
          "type": "uint256"
        }
      ],
      "name": "updateFeature",
      "outputs": [],
      "stateMutability": "nonpayable",
      "type": "function"
    }
  ],
  "bytecode": "0x608060405234801561001057600080fd5b50615286806100206000396000f3fe608060405234801561001057600080fd5b50600436106103c55760003560e01c80636e9e48ef116101ff578063bfb398e61161011a578063e1248e9a116100ad578063f7b2a7be1161007c578063f7b2a7be1461091d578063fa90d5f714610926578063fd3845041461092e578063ffbf1f7e1461094157600080fd5b8063e1248e9a146108d8578063e3d7e671146108eb578063ee08c0b6146108fe578063f1aaf1e81461090b57600080fd5b8063ca2e1374116100e9578063ca2e137414610896578063d04b30b2146108a9578063daf73bbd146108bd578063db78900d146108d057600080fd5b8063bfb398e61461082f578063c090316614610838578063c23e6f9314610863578063c80916d41461088357600080fd5b806398e556da11610192578063b88d345311610161578063b88d3453146107f8578063bac426d014610801578063bc2c21b714610814578063bca2f4a01461081c57600080fd5b806398e556da146107b25780639ef2d87a146107d3578063a035b1fe146107dc578063b406008e146107e557600080fd5b806389af6107116101ce57806389af6107146107665780638e7614d7146107795780638edc896f1461078c57806397e7a1cf1461079f57600080fd5b80636e9e48ef146106ce5780637914207f146106f7578063842e76691461071757806387e2fded1461073a57600080fd5b80633108614c116102ef578063526cfed8116102825780635f7dabbb116102515780635f7dabbb1461066a578063632203bc1461069557806364262b9b146106a8578063667f6526146106bb57600080fd5b8063526cfed81461061a57806355128f7d1461062d578063551a6d93146106365780635ca3797b1461063e57600080fd5b8063493fe80f116102be578063493fe80f146105ce5780634d4c74e7146105e15780635139839c146105f4578063518e32d31461060757600080fd5b80633108614c1461055f578063381152fb1461057f578063410873421461059257806343a9ac39146105a557600080fd5b806323b872dd1161036757806329e38e5b1161033657806329e38e5b146104f65780632a0b806d146105095780632d22a3e71461051c5780632f54bf6e1461053c57600080fd5b806323b872dd1461049a5780632614c0f8146104ad57806327b3bf11146104cd57806329c659b3146104d657600080fd5b8063079129ba116103a3578063079129ba1461043757806308a075081461045c5780630c7b1d7b1461047d578063173825d91461048557600080fd5b8063025e7c27146103ca57806303eba507146103fa57806306fdde0314610422575b600080fd5b6103dd6103d8366004614613565b610954565b6040516001600160a01b0390911681526020015b60405180910390f35b61040d610408366004614643565b61097e565b604080519283526020830191909152016103f1565b61042a610a25565b6040516103f191906146b6565b600d5461044c90640100000000900460ff1681565b60405190151581526020016103f1565b61046f61046a36600461477e565b610ab3565b6040519081526020016103f1565b60015461046f565b610498610493366004614643565b610ac4565b005b6104986104a83660046147ba565b610d4f565b61046f6104bb366004614643565b60136020526000908152604090205481565b61046f60095481565b6104e96104e43660046147f6565b611134565b6040516103f19190614864565b610498610504366004614877565b6112e0565b61049861051736600461493a565b611438565b61052f61052a3660046149b7565b611595565b6040516103f191906149d9565b61044c61054a366004614643565b60026020526000908152604090205460ff1681565b61057261056d366004614613565b6116e3565b6040516103f19190614b2d565b61049861058d366004614b50565b611939565b6104986105a0366004614bb5565b6119cf565b61046f6105b3366004614643565b6001600160a01b031660009081526003602052604090205490565b61042a6105dc366004614613565b611b2e565b6104986105ef366004614877565b611bf3565b6103dd610602366004614613565b611c73565b610498610615366004614c3c565b611c83565b6104e96106283660046147f6565b611e6d565b61046f600c5481565b60115461046f565b61046f61064c366004614643565b6001600160a01b031660009081526003602052604090206004015490565b61046f61067836600461477e565b8051602081830181018051600f8252928201919093012091525481565b61040d6106a3366004614643565b611f46565b61040d6106b6366004614613565b612049565b6104986106c93660046149b7565b61208d565b6103dd6106dc366004614613565b6004602052600090815260409020546001600160a01b031681565b61070a6107053660046147f6565b6120c7565b6040516103f19190614c6f565b61044c610725366004614643565b60126020526000908152604090205460ff1681565b61046f610748366004614643565b6001600160a01b031660009081526003602052604090206005015490565b61046f610774366004614cc4565b6123ed565b610498610787366004614d11565b612883565b61046f61079a36600461477e565b6129d1565b6104986107ad3660046147f6565b6129dc565b6107c56107c0366004614cc4565b612a83565b6040516103f1929190614d4a565b61046f60075481565b61046f60085481565b6104986107f3366004614d6f565b612c2d565b61046f60065481565b61049861080f366004614643565b612d72565b600e5461046f565b600d5461044c9062010000900460ff1681565b61046f600b5481565b61046f61084636600461477e565b805160208183018101805160108252928201919093012091525481565b6108766108713660046149b7565b612e2a565b6040516103f19190614d9b565b6014546103dd906001600160a01b031681565b6104986108a4366004614de8565b612ef2565b600d5461044c906301000000900460ff1681565b61040d6108cb366004614cc4565b612f6d565b61046f6130bc565b6104986108e6366004614e5b565b6130db565b6104986108f9366004614e97565b61318f565b600d5461044c9060ff1681565b600d5461044c90610100900460ff1681565b61046f600a5481565b61046f61320f565b61049861093c366004614e97565b613229565b61040d61094f366004614613565b6132a1565b6001818154811061096457600080fd5b6000918252602090912001546001600160a01b0316905081565b6001600160a01b0381166000908152600360205260408120819081908190815b8154811015610a19576000806109e68460010160008660000186815481106109c8576109c8614f0a565b906000526020600020015481526020019081526020016000206132e5565b5090925090506109f68287614f36565b9550610a028186614f36565b945050508080610a1190614f4e565b91505061099e565b50919590945092505050565b60058054610a3290614f69565b80601f0160208091040260200160405190810160405280929190818152602001828054610a5e90614f69565b8015610aab5780601f10610a8057610100808354040283529160200191610aab565b820191906000526020600020905b815481529060010190602001808311610a8e57829003601f168201915b505050505081565b6000610abe82613391565b92915050565b336001600160a01b03166001600081548110610ae257610ae2614f0a565b6000918252602090912001546001600160a01b031614610b445760405162461bcd60e51b815260206004820152601860248201527727bbb732b9399d1027b7363c9029bab832b91027bbb732b960411b60448201526064015b60405180910390fd5b6001600160a01b03811660009081526002602052604090205460ff16610ba05760405162461bcd60e51b815260206004820152601160248201527027bbb732b9399d102737ba1037bbb732b960791b6044820152606401610b3b565b6001600081548110610bb457610bb4614f0a565b6000918252602090912001546001600160a01b0382811691161415610c255760405162461bcd60e51b815260206004820152602160248201527f4f776e6572733a2043616e6e6f742072656d6f7665207375706572206f776e656044820152603960f91b6064820152608401610b3b565b60015b600154811015610d2d57816001600160a01b031660018281548110610c4f57610c4f614f0a565b6000918252602090912001546001600160a01b03161415610d1b5760018054610c79908290614fa4565b81548110610c8957610c89614f0a565b600091825260209091200154600180546001600160a01b039092169183908110610cb557610cb5614f0a565b9060005260206000200160006101000a8154816001600160a01b0302191690836001600160a01b031602179055506001805480610cf457610cf4614fbb565b600082815260209020810160001990810180546001600160a01b0319169055019055610d2d565b80610d2581614f4e565b915050610c28565b506001600160a01b03166000908152600260205260409020805460ff19169055565b6014546001600160a01b03163314610d795760405162461bcd60e51b8152600401610b3b90614fd1565b6001600160a01b0383166000908152600360208181526040808420858552909201905290205460ff16610dee5760405162461bcd60e51b815260206004820152601a60248201527f4e6f6465547970653a205472616e73666572206661696c7572650000000000006044820152606401610b3b565b6001600160a01b03821660009081526012602052604090205460ff16610e72576011805460018082019092557f31ecc21a745e3968a04e9570e4425bc18fa8019c68028196b546d1669c200c680180546001600160a01b0319166001600160a01b0385169081179091556000908152601260205260409020805460ff191690911790555b6001600160a01b038381166000908152600360208181526040808420868552600180820180855283872080546001600160a01b031916988b16988917815542818801819055898952968652848820978a905290855283516101c0810185529788529081015493870193909352600283015491860191909152606085019290925260048101805492946110e29493879391926080840191610f1190614f69565b80601f0160208091040260200160405190810160405280929190818152602001828054610f3d90614f69565b8015610f8a5780601f10610f5f57610100808354040283529160200191610f8a565b820191906000526020600020905b815481529060010190602001808311610f6d57829003601f168201915b505050505081526020016005820154815260200160068201548152602001600782015481526020016008820180548060200260200160405190810160405280929190818152602001828054801561100057602002820191906000526020600020905b815481526020019060010190808311610fec575b505050505081526020016009820180548060200260200160405190810160405280929190818152602001828054801561105857602002820191906000526020600020905b815481526020019060010190808311611044575b50505050508152602001600a82018054806020026020016040519081016040528092919081815260200182805480156110b057602002820191906000526020600020905b81548152602001906001019080831161109c575b5050509183525050600b8201546020820152600c8201546040820152600d9091015460ff1615156060909101526133e6565b6001600160a01b03841660009081526003602052604090206111049083613668565b50600090815260046020526040902080546001600160a01b0319166001600160a01b039290921691909117905550565b606060006111428484614fa4565b6001600160401b03811115611159576111596146c9565b604051908082528060200260200182016040528015611182578160200160208202803683370190505b506001600160a01b0386166000908152600360205260408120805492935091600183019082908490899081106111ba576111ba614f0a565b90600052602060002001548152602001908152602001600020905060008690505b858110156112d257600061127a8360040180546111f790614f69565b80601f016020809104026020016040519081016040528092919081815260200182805461122390614f69565b80156112705780601f1061124557610100808354040283529160200191611270565b820191906000526020600020905b81548152906001019060200180831161125357829003601f168201915b5050505050613391565b905082600101548160085461128f9190615001565b6112999190614f36565b856112a48a85614fa4565b815181106112b4576112b4614f0a565b602090810291909101015250806112ca81614f4e565b9150506111db565b5091925050505b9392505050565b3360009081526002602052604090205460ff1661130f5760405162461bcd60e51b8152600401610b3b90615023565b600f6005604051611320919061504f565b90815260200160405180910390205460001461137e5760405162461bcd60e51b815260206004820152601f60248201527f4e6f6465547970653a204665617475726520616c7265616479206578697374006044820152606401610b3b565b60008251116113cf5760405162461bcd60e51b815260206004820152601e60248201527f4e6f6465547970653a204e616d652063616e6e6f7420626520656d70747900006044820152606401610b3b565b600e80546001810182556000919091528251611412917fbb7b4a454dc3493923482f07822329ed19e8244eff582cc204f8554c3620c3fd0190602085019061446f565b5080600f8360405161142491906150eb565b908152604051908190036020019020555050565b6014546001600160a01b031633146114625760405162461bcd60e51b8152600401610b3b90614fd1565b80518351146114af5760405162461bcd60e51b815260206004820152601960248201527809cdec8caa8f2e0ca744098cadccee8d040dad2e6dac2e8c6d603b1b6044820152606401610b3b565b6001600160a01b0384166000908152600360205260408120905b845181101561158d578160030160008683815181106114ea576114ea614f0a565b60209081029190910181015182528101919091526040016000205460ff166115245760405162461bcd60e51b8152600401610b3b90615107565b600082600101600087848151811061153e5761153e614f0a565b60200260200101518152602001908152602001600020905061157a818686858151811061156d5761156d614f0a565b60200260200101516137f7565b508061158581614f4e565b9150506114c9565b505050505050565b606060006115a38484614fa4565b6001600160401b038111156115ba576115ba6146c9565b6040519080825280602002602001820160405280156115ed57816020015b60608152602001906001900390816115d85790505b509050835b838110156116db57600e818154811061160d5761160d614f0a565b90600052602060002001805461162290614f69565b80601f016020809104026020016040519081016040528092919081815260200182805461164e90614f69565b801561169b5780601f106116705761010080835404028352916020019161169b565b820191906000526020600020905b81548152906001019060200180831161167e57829003601f168201915b50505050508286836116ad9190614fa4565b815181106116bd576116bd614f0a565b602002602001018190525080806116d390614f4e565b9150506115f2565b509392505050565b6116eb6144f3565b6000828152600460208181526040808420546001600160a01b0390811685526003808452828620888752600190810185529583902083516101c081018552815490931683529586015493820193909352600285015491810191909152908301546060820152908201805491929160808401919061176790614f69565b80601f016020809104026020016040519081016040528092919081815260200182805461179390614f69565b80156117e05780601f106117b5576101008083540402835291602001916117e0565b820191906000526020600020905b8154815290600101906020018083116117c357829003601f168201915b505050505081526020016005820154815260200160068201548152602001600782015481526020016008820180548060200260200160405190810160405280929190818152602001828054801561185657602002820191906000526020600020905b815481526020019060010190808311611842575b50505050508152602001600982018054806020026020016040519081016040528092919081815260200182805480156118ae57602002820191906000526020600020905b81548152602001906001019080831161189a575b50505050508152602001600a820180548060200260200160405190810160405280929190818152602001828054801561190657602002820191906000526020600020905b8154815260200190600101908083116118f2575b5050509183525050600b8201546020820152600c8201546040820152600d9091015460ff16151560609091015292915050565b3360009081526002602052604090205460ff166119685760405162461bcd60e51b8152600401610b3b90615023565b600d805461ffff191695151561ff00191695909517610100941515949094029390931763ffff00001916620100009215159290920263ff0000001916919091176301000000911515919091021764ff00000000191664010000000091151591909102179055565b6014546001600160a01b031633146119f95760405162461bcd60e51b8152600401610b3b90614fd1565b8051845114611a465760405162461bcd60e51b815260206004820152601960248201527809cdec8caa8f2e0ca744098cadccee8d040dad2e6dac2e8c6d603b1b6044820152606401610b3b565b6001600160a01b0385166000908152600360205260408120905b8551811015611b2557816003016000878381518110611a8157611a81614f0a565b60209081029190910181015182528101919091526040016000205460ff16611abb5760405162461bcd60e51b8152600401610b3b90615107565b6000826001016000888481518110611ad557611ad5614f0a565b602002602001015181526020019081526020016000209050611b12818787878681518110611b0557611b05614f0a565b602002602001015161383e565b5080611b1d81614f4e565b915050611a60565b50505050505050565b6000818152600460208181526040808420546001600160a01b031684526003825280842085855260010190915290912001805460609190611b6e90614f69565b80601f0160208091040260200160405190810160405280929190818152602001828054611b9a90614f69565b8015611be75780601f10611bbc57610100808354040283529160200191611be7565b820191906000526020600020905b815481529060010190602001808311611bca57829003601f168201915b50505050509050919050565b3360009081526002602052604090205460ff16611c225760405162461bcd60e51b8152600401610b3b90615023565b600f6005604051611c33919061504f565b90815260200160405180910390205460001415611c625760405162461bcd60e51b8152600401610b3b9061514a565b80600f8360405161142491906150eb565b6011818154811061096457600080fd5b336001600160a01b03166001600081548110611ca157611ca1614f0a565b6000918252602090912001546001600160a01b031614611cfe5760405162461bcd60e51b815260206004820152601860248201527727bbb732b9399d1027b7363c9029bab832b91027bbb732b960411b6044820152606401610b3b565b6001600160a01b03821660009081526002602052604090205460ff1615611d5f5760405162461bcd60e51b815260206004820152601560248201527427bbb732b9399d1020b63932b0b23c9037bbb732b960591b6044820152606401610b3b565b6001600160a01b0382166000908152600260205260409020805460ff191660011790558015611e1e57600180600081548110611d9d57611d9d614f0a565b600091825260208083209091015483546001818101865594845291832090910180546001600160a01b0319166001600160a01b03909216919091179055815484929190611dec57611dec614f0a565b9060005260206000200160006101000a8154816001600160a01b0302191690836001600160a01b031602179055505050565b6001805480820182556000919091527fb10e2d527612073b26eecdfd717e6a320cf44b4afac2b0732d9fcbe2b7fa0cf60180546001600160a01b0319166001600160a01b0384161790555b5050565b60606000611e7b8484614fa4565b6001600160401b03811115611e9257611e926146c9565b604051908082528060200260200182016040528015611ebb578160200160208202803683370190505b506001600160a01b0386166000908152600360205260409020909150845b84811015611f3b57816000018181548110611ef657611ef6614f0a565b9060005260206000200154838783611f0e9190614fa4565b81518110611f1e57611f1e614f0a565b602090810291909101015280611f3381614f4e565b915050611ed9565b509095945050505050565b60145460009081906001600160a01b03163314611f755760405162461bcd60e51b8152600401610b3b90614fd1565b6001600160a01b03831660009081526003602052604081208190815b8154811015610a19576000826001016000846000018481548110611fb757611fb7614f0a565b9060005260206000200154815260200190815260200160002090506000806000611fe0846132e5565b91945092509050611ff18389614f36565b9750611ffd8288614f36565b9650612008846138b1565b426002850155600060058501819055600c8501805483929061202b908490614f36565b9250508190555050505050808061204190614f4e565b915050611f91565b6000818152600460209081526040808320546001600160a01b03168352600382528083208484526001019091528120819061208381613ae5565b9442945092505050565b3360009081526002602052604090205460ff166120bc5760405162461bcd60e51b8152600401610b3b90615023565b600b91909155600c55565b606060006120d58484614fa4565b6001600160401b038111156120ec576120ec6146c9565b60405190808252806020026020018201604052801561212557816020015b6121126144f3565b81526020019060019003908161210a5790505b506001600160a01b0386166000908152600360205260409020909150845b84811015611f3b5781600101600083600001838154811061216657612166614f0a565b90600052602060002001548152602001908152602001600020604051806101c00160405290816000820160009054906101000a90046001600160a01b03166001600160a01b03166001600160a01b031681526020016001820154815260200160028201548152602001600382015481526020016004820180546121e890614f69565b80601f016020809104026020016040519081016040528092919081815260200182805461221490614f69565b80156122615780601f1061223657610100808354040283529160200191612261565b820191906000526020600020905b81548152906001019060200180831161224457829003601f168201915b50505050508152602001600582015481526020016006820154815260200160078201548152602001600882018054806020026020016040519081016040528092919081815260200182805480156122d757602002820191906000526020600020905b8154815260200190600101908083116122c3575b505050505081526020016009820180548060200260200160405190810160405280929190818152602001828054801561232f57602002820191906000526020600020905b81548152602001906001019080831161231b575b50505050508152602001600a820180548060200260200160405190810160405280929190818152602001828054801561238757602002820191906000526020600020905b815481526020019060010190808311612373575b5050509183525050600b8201546020820152600c8201546040820152600d9091015460ff161515606090910152836123bf8884614fa4565b815181106123cf576123cf614f0a565b602002602001018190525080806123e590614f4e565b915050612143565b6014546000906001600160a01b0316331461241a5760405162461bcd60e51b8152600401610b3b90614fd1565b60005b825181101561285b5760036000856001600160a01b03166001600160a01b03168152602001908152602001600020600301600084838151811061246257612462614f0a565b60209081029190910181015182528101919091526040016000205460ff166124c55760405162461bcd60e51b81526020600482015260166024820152754e6f6465547970653a204275726e206661696c75726560501b6044820152606401610b3b565b600060036000866001600160a01b03166001600160a01b03168152602001908152602001600020600101600085848151811061250357612503614f0a565b60200260200101518152602001908152602001600020604051806101c00160405290816000820160009054906101000a90046001600160a01b03166001600160a01b03166001600160a01b0316815260200160018201548152602001600282015481526020016003820154815260200160048201805461258290614f69565b80601f01602080910402602001604051908101604052809291908181526020018280546125ae90614f69565b80156125fb5780601f106125d0576101008083540402835291602001916125fb565b820191906000526020600020905b8154815290600101906020018083116125de57829003601f168201915b505050505081526020016005820154815260200160068201548152602001600782015481526020016008820180548060200260200160405190810160405280929190818152602001828054801561267157602002820191906000526020600020905b81548152602001906001019080831161265d575b50505050508152602001600982018054806020026020016040519081016040528092919081815260200182805480156126c957602002820191906000526020600020905b8154815260200190600101908083116126b5575b50505050508152602001600a820180548060200260200160405190810160405280929190818152602001828054801561272157602002820191906000526020600020905b81548152602001906001019080831161270d575b5050509183525050600b8201546020820152600c820154604080830191909152600d9092015460ff1615156060909101526080820151905191925060009160109161276b916150eb565b90815260200160405180910390205411156127b7576010816080015160405161279491906150eb565b90815260405190819003602001902080549060006127b183615181565b91905055505b6001600160a01b038516600090815260036020526040902084516127f591908690859081106127e8576127e8614f0a565b6020026020010151613668565b60006004600086858151811061280d5761280d614f0a565b6020026020010151815260200190815260200160002060006101000a8154816001600160a01b0302191690836001600160a01b0316021790555050808061285390614f4e565b91505061241d565b5081516006600082825461286f9190614fa4565b909155505081516008546112d99190615198565b6014546001600160a01b031633146128ad5760405162461bcd60e51b8152600401610b3b90614fd1565b6001600160a01b03841660009081526003602081815260408084208785529283019091529091205460ff166128f45760405162461bcd60e51b8152600401610b3b90615107565b6000848152600182016020526040902060048101805484916129a79187916129a29161291f90614f69565b80601f016020809104026020016040519081016040528092919081815260200182805461294b90614f69565b80156129985780601f1061296d57610100808354040283529160200191612998565b820191906000526020600020905b81548152906001019060200180831161297b57829003601f168201915b5050505050613b0c565b613b1f565b6129b19190615198565b81600b0160008282546129c49190614f36565b9091555050505050505050565b6000610abe82613b0c565b6014546001600160a01b03163314612a065760405162461bcd60e51b8152600401610b3b90614fd1565b6001600160a01b03831660009081526003602081815260408084208685529283019091529091205460ff16612a4d5760405162461bcd60e51b8152600401610b3b90615107565b60008381526001820160205260409020600481018054612a779185916129a2919061291f90614f69565b600b9091015550505050565b606080600083516001600160401b03811115612aa157612aa16146c9565b604051908082528060200260200182016040528015612aca578160200160208202803683370190505b509050600084516001600160401b03811115612ae857612ae86146c9565b604051908082528060200260200182016040528015612b11578160200160208202803683370190505b506001600160a01b03871660009081526003602052604081209192505b8651811015612c2057816003016000888381518110612b4f57612b4f614f0a565b60209081029190910181015182528101919091526040016000205460ff16612b895760405162461bcd60e51b8152600401610b3b90615107565b6000826001016000898481518110612ba357612ba3614f0a565b602002602001015181526020019081526020016000209050600080612bc7836132e5565b509150915081878581518110612bdf57612bdf614f0a565b60200260200101818152505080868581518110612bfe57612bfe614f0a565b6020026020010181815250505050508080612c1890614f4e565b915050612b2e565b5091969095509350505050565b3360009081526002602052604090205460ff16612c5c5760405162461bcd60e51b8152600401610b3b90615023565b60008311612cac5760405162461bcd60e51b815260206004820152601e60248201527f4e6f6465547970653a2050726963652063616e6e6f74206265207a65726f00006044820152606401610b3b565b600883905581612d0a5760405162461bcd60e51b815260206004820152602360248201527f4e6f6465547970653a20436c61696d2054696d652063616e6e6f74206265207a60448201526265726f60e81b6064820152608401610b3b565b600982905580612d6b5760405162461bcd60e51b815260206004820152602660248201527f4e6f6465547970653a2052657761726420416d6f756e742063616e6e6f74206260448201526565207a65726f60d01b6064820152608401610b3b565b600a555050565b3360009081526002602052604090205460ff16612da15760405162461bcd60e51b8152600401610b3b90615023565b6001600160a01b038116612e085760405162461bcd60e51b815260206004820152602860248201527f4e6f6465547970653a2048616e646c65722063616e6e6f742062652061646472604482015267657373207a65726f60c01b6064820152608401610b3b565b601480546001600160a01b0319166001600160a01b0392909216919091179055565b60606000612e388484614fa4565b6001600160401b03811115612e4f57612e4f6146c9565b604051908082528060200260200182016040528015612e78578160200160208202803683370190505b509050835b838110156116db5760118181548110612e9857612e98614f0a565b6000918252602090912001546001600160a01b031682612eb88784614fa4565b81518110612ec857612ec8614f0a565b6001600160a01b039092166020928302919091019091015280612eea81614f4e565b915050612e7d565b6000612efe6001613b38565b90508015612f16576000805461ff0019166101001790555b612f21848484613bc5565b8015612f67576000805461ff0019169055604051600181527f7f26b83ff96e1f2b6a682f133852f6798a09c465da95921460cefb38474024989060200160405180910390a15b50505050565b60145460009081906001600160a01b03163314612f9c5760405162461bcd60e51b8152600401610b3b90614fd1565b6001600160a01b03841660009081526003602052604081208190815b8651811015612c2057816003016000888381518110612fd957612fd9614f0a565b60209081029190910181015182528101919091526040016000205460ff166130135760405162461bcd60e51b8152600401610b3b90615107565b600082600101600089848151811061302d5761302d614f0a565b6020026020010151815260200190815260200160002090506000806000613053846132e5565b919450925090506130648389614f36565b97506130708288614f36565b965061307b846138b1565b426002850155600060058501819055600c8501805483929061309e908490614f36565b925050819055505050505080806130b490614f4e565b915050612fb8565b60006130d660405180602001604052806000815250613b0c565b905090565b3360009081526002602052604090205460ff1661310a5760405162461bcd60e51b8152600401610b3b90615023565b6000828152600460209081526040808320546001600160a01b0316835260038252808320858452600101909152908190209051600f9061314b9084906150eb565b9081526020016040518091039020546000141561317a5760405162461bcd60e51b8152600401610b3b9061514a565b8151612f67906004830190602085019061446f565b6014546001600160a01b031633146131b95760405162461bcd60e51b8152600401610b3b90614fd1565b8051156131ff57600f816040516131d091906150eb565b908152602001604051809103902054600014156131ff5760405162461bcd60e51b8152600401610b3b9061514a565b61320a838383613bff565b505050565b60006130d660405180602001604052806000815250613391565b6014546001600160a01b031633146132535760405162461bcd60e51b8152600401610b3b90614fd1565b600d546301000000900460ff166131ff5760405162461bcd60e51b81526020600482015260126024820152712737b232aa3cb8329d102737ba1037b832b760711b6044820152606401610b3b565b6000818152600460209081526040808320546001600160a01b0316835260038252808320848452600101909152812081906132db81613ddb565b9250925050915091565b6000806000806000806132f787613e13565b90508092506008548188600c015461330f9190614f36565b10801561331e57506000600b54115b1561334b57612710600b54846133349190615198565b61333e9190615001565b6133489084614fa4565b92505b600c541561337b57612710600c54846133649190615198565b61336e9190615001565b6133789083614f36565b91505b6133858284614fa4565b97919650945092505050565b6000600954612710600f846040516133a991906150eb565b908152602001604051809103902054600a546133c59190615198565b6133cf9190615001565b600a546133dc9190614f36565b610abe9190615001565b600082815260038401602052604090205460ff161561351457600082815260018481016020908152604092839020845181546001600160a01b0319166001600160a01b0390911617815584820151928101929092559183015160028201556060830151600382015560808301518051849361346892600485019291019061446f565b5060a0820151600582015560c0820151600682015560e0820151600782015561010082015180516134a391600884019160209091019061456d565b5061012082015180516134c091600984019160209091019061456d565b5061014082015180516134dd91600a84019160209091019061456d565b50610160820151600b820155610180820151600c8201556101a090910151600d909101805460ff1916911515919091179055505050565b60008281526003848101602090815260408084208054600160ff199091168117909155808801835293819020855181546001600160a01b0319166001600160a01b03909116178155858301519481019490945584015160028401556060840151918301919091556080830151805184939261359692600485019291019061446f565b5060a0820151600582015560c0820151600682015560e0820151600782015561010082015180516135d191600884019160209091019061456d565b5061012082015180516135ee91600984019160209091019061456d565b50610140820151805161360b91600a84019160209091019061456d565b50610160820151600b820155610180820151600c8201556101a090910151600d909101805460ff19169115159190911790555081546000828152600284016020908152604082208390556001830185559381529290922090910155565b600081815260038301602052604090205460ff16613684575050565b6000818152600380840160209081526040808420805460ff191690556001808701909252832080546001600160a01b031916815590810183905560028101839055908101829055906136d960048301826145a7565b60058201600090556006820160009055600782016000905560088201600061370191906145e4565b61370f6009830160006145e4565b61371d600a830160006145e4565b506000600b8201819055600c8201819055600d909101805460ff19169055818152600283016020526040812054835490919061375b90600190614fa4565b9050600084600001828154811061377457613774614f0a565b600091825260208083209091015480835260028801909152604080832086905586835282209190915590508183146137c957808560000184815481106137bc576137bc614f0a565b6000918252602090912001555b84548590806137da576137da614fbb565b600190038181906000526020600020016000905590555050505050565b613800836138b1565b80613817836129a286600401805461291f90614f69565b6138219190615198565b8360070160008282546138349190614f36565b9091555050505050565b613847846138b1565b60005b818110156138aa57600885018054600181810183556000928352602080842042930192909255600988018054808301825590845282842001879055600a8801805491820181558352912001839055806138a281614f4e565b91505061384a565b5050505050565b80600501546138bf82613e13565b6138c99190614fa4565b8160050160008282546138dc9190614f36565b925050819055506138fe81600701546138f9428460060154613f3f565b613f3f565b600782015542600682015560005b600a820154811015611e695781600901818154811061392d5761392d614f0a565b906000526020600020015482600801828154811061394d5761394d614f0a565b90600052602060002001546139629190614f36565b421115613ad357600a8201805461397b90600190614fa4565b8154811061398b5761398b614f0a565b906000526020600020015482600a0182815481106139ab576139ab614f0a565b600091825260209091200155600a82018054806139ca576139ca614fbb565b6000828152602081208201600019908101919091550190556008820180546139f490600190614fa4565b81548110613a0457613a04614f0a565b9060005260206000200154826008018281548110613a2457613a24614f0a565b60009182526020909120015560088201805480613a4357613a43614fbb565b600082815260208120820160001990810191909155019055600982018054613a6d90600190614fa4565b81548110613a7d57613a7d614f0a565b9060005260206000200154826009018281548110613a9d57613a9d614f0a565b60009182526020909120015560098201805480613abc57613abc614fbb565b600190038181906000526020600020016000905590555b80613add81614f4e565b91505061390c565b6000610abe82600b01548360070154613afe9190614f36565b6138f9428560060154613f3f565b6000613b1782613391565b6008546133dc565b6000612710613b2e8484615198565b6112d99190615001565b60008054610100900460ff1615613b7f578160ff166001148015613b5b5750303b155b613b775760405162461bcd60e51b8152600401610b3b906151b7565b506000919050565b60005460ff808416911610613ba65760405162461bcd60e51b8152600401610b3b906151b7565b506000805460ff191660ff92909216919091179055600190565b919050565b600054610100900460ff16613bec5760405162461bcd60e51b8152600401610b3b90615205565b613bf4613f61565b61320a838383613fe1565b6000825111613c505760405162461bcd60e51b815260206004820152601b60248201527f4e6f6465547970653a204e6f7468696e6720746f2063726561746500000000006044820152606401610b3b565b6001600160a01b03831660009081526012602052604090205460ff16613cd4576011805460018082019092557f31ecc21a745e3968a04e9570e4425bc18fa8019c68028196b546d1669c200c680180546001600160a01b0319166001600160a01b0386169081179091556000908152601260205260409020805460ff191690911790555b60005b8251811015613d92576000613cec8584614238565b6001600160a01b03861660009081526003602052604090208551919250613d2d91869085908110613d1f57613d1f614f0a565b6020026020010151836133e6565b8460046000868581518110613d4457613d44614f0a565b6020026020010151815260200190815260200160002060006101000a8154816001600160a01b0302191690836001600160a01b03160217905550508080613d8a90614f4e565b915050613cd7565b508151601082604051613da591906150eb565b90815260200160405180910390206000828254613dc29190614f36565b9091555050815160068054600090613834908490614f36565b600080613e0a613dea60085490565b613dfc8560040180546111f790614f69565b613e0586613ae5565b61433b565b93429350915050565b600080613e5b613e2260085490565b613e348560040180546111f790614f69565b85600b01548660070154613e489190614f36565b613e56428860060154613f3f565b614379565b905060005b600a840154811015613f2f576000613f0d613e838660040180546111f790614f69565b86600a018481548110613e9857613e98614f0a565b9060005260206000200154613efa886008018681548110613ebb57613ebb614f0a565b9060005260206000200154896009018781548110613edb57613edb614f0a565b9060005260206000200154613ef09190614f36565b8960060154613f3f565b613f08428a60060154613f3f565b614405565b9050613f198184614f36565b9250508080613f2790614f4e565b915050613e60565b5060058301546112d99082614f36565b6000818310613f5957613f528284614fa4565b9050610abe565b506000610abe565b600054610100900460ff16613f885760405162461bcd60e51b8152600401610b3b90615205565b6001805480820182557fb10e2d527612073b26eecdfd717e6a320cf44b4afac2b0732d9fcbe2b7fa0cf60180546001600160a01b031916339081179091556000908152600260205260409020805460ff19169091179055565b600054610100900460ff166140085760405162461bcd60e51b8152600401610b3b90615205565b60008351116140595760405162461bcd60e51b815260206004820152601e60248201527f4e6f6465547970653a204e616d652063616e6e6f7420626520656d70747900006044820152606401610b3b565b825161406c90600590602086019061446f565b5081516006146140be5760405162461bcd60e51b815260206004820181905260248201527f4e6f6465547970653a2056616c7565732e6c656e677468206d69736d617463686044820152606401610b3b565b816000815181106140d1576140d1614f0a565b6020026020010151600781905550816001815181106140f2576140f2614f0a565b60200260200101516008819055508160028151811061411357614113614f0a565b60200260200101516009819055508160038151811061413457614134614f0a565b6020026020010151600a819055506127108260048151811061415857614158614f0a565b6020026020010151106141c45760405162461bcd60e51b815260206004820152602e60248201527f4e6f6465547970653a20436c61696d546178475250206d757374206265206c6f60448201526d0776572207468616e2031303030360941b6064820152608401610b3b565b816004815181106141d7576141d7614f0a565b6020026020010151600b81905550816005815181106141f8576141f8614f0a565b6020908102919091010151600c55601480546001600160a01b0319166001600160a01b03929092169190911790555050600d805464ffffffffff19169055565b6142406144f3565b604051806101c00160405280846001600160a01b03168152602001428152602001428152602001428152602001838152602001600081526020014281526020016142898461442e565b815260200160006040519080825280602002602001820160405280156142b9578160200160208202803683370190505b50815260200160006040519080825280602002602001820160405280156142ea578160200160208202803683370190505b508152602001600060405190808252806020026020018201604052801561431b578160200160208202803683370190505b508152600060208201819052604082018190526060909101529392505050565b600082816143498287615001565b9050838181111561435f578293505050506112d9565b61436e565b93505050506112d9565b614364601484615001565b600083816143878288615001565b90508484600060146143ab836143a6866143a1818a613f3f565b614446565b61445e565b6143b6906009615198565b6143c4846143a68789613f3f565b6143cf90600a615198565b6143d99085614f36565b6143e39190614f36565b6143ed9087615198565b6143f79190615001565b9a9950505050505050505050565b6000614411828461445e565b61441b8587613b1f565b6144259190615198565b95945050505050565b6000600261443b83613b0c565b6133dc906005615198565b600081831115614457575081610abe565b5080610abe565b600081831015614457575081610abe565b82805461447b90614f69565b90600052602060002090601f01602090048101928261449d57600085556144e3565b82601f106144b657805160ff19168380011785556144e3565b828001600101855582156144e3579182015b828111156144e35782518255916020019190600101906144c8565b506144ef9291506145fe565b5090565b604051806101c0016040528060006001600160a01b031681526020016000815260200160008152602001600081526020016060815260200160008152602001600081526020016000815260200160608152602001606081526020016060815260200160008152602001600081526020016000151581525090565b8280548282559060005260206000209081019282156144e357916020028201828111156144e35782518255916020019190600101906144c8565b5080546145b390614f69565b6000825580601f106145c3575050565b601f0160209004906000526020600020908101906145e191906145fe565b50565b50805460008255906000526020600020908101906145e191905b5b808211156144ef57600081556001016145ff565b60006020828403121561462557600080fd5b5035919050565b80356001600160a01b0381168114613bc057600080fd5b60006020828403121561465557600080fd5b6112d98261462c565b60005b83811015614679578181015183820152602001614661565b83811115612f675750506000910152565b600081518084526146a281602086016020860161465e565b601f01601f19169290920160200192915050565b6020815260006112d9602083018461468a565b634e487b7160e01b600052604160045260246000fd5b604051601f8201601f191681016001600160401b0381118282101715614707576147076146c9565b604052919050565b600082601f83011261472057600080fd5b81356001600160401b03811115614739576147396146c9565b61474c601f8201601f19166020016146df565b81815284602083860101111561476157600080fd5b816020850160208301376000918101602001919091529392505050565b60006020828403121561479057600080fd5b81356001600160401b038111156147a657600080fd5b6147b28482850161470f565b949350505050565b6000806000606084860312156147cf57600080fd5b6147d88461462c565b92506147e66020850161462c565b9150604084013590509250925092565b60008060006060848603121561480b57600080fd5b6148148461462c565b95602085013595506040909401359392505050565b600081518084526020808501945080840160005b838110156148595781518752958201959082019060010161483d565b509495945050505050565b6020815260006112d96020830184614829565b6000806040838503121561488a57600080fd5b82356001600160401b038111156148a057600080fd5b6148ac8582860161470f565b95602094909401359450505050565b600082601f8301126148cc57600080fd5b813560206001600160401b038211156148e7576148e76146c9565b8160051b6148f68282016146df565b928352848101820192828101908785111561491057600080fd5b83870192505b8483101561492f57823582529183019190830190614916565b979650505050505050565b6000806000806080858703121561495057600080fd5b6149598561462c565b935060208501356001600160401b038082111561497557600080fd5b614981888389016148bb565b945060408701359350606087013591508082111561499e57600080fd5b506149ab878288016148bb565b91505092959194509250565b600080604083850312156149ca57600080fd5b50508035926020909101359150565b6000602080830181845280855180835260408601915060408160051b870101925083870160005b82811015614a2e57603f19888603018452614a1c85835161468a565b94509285019290850190600101614a00565b5092979650505050505050565b80516001600160a01b0316825260006101c06020830151602085015260408301516040850152606083015160608501526080830151816080860152614a828286018261468a565b91505060a083015160a085015260c083015160c085015260e083015160e08501526101008084015185830382870152614abb8382614829565b925050506101208084015185830382870152614ad78382614829565b925050506101408084015185830382870152614af38382614829565b925050506101608084015181860152506101808084015181860152506101a080840151614b238287018215159052565b5090949350505050565b6020815260006112d96020830184614a3b565b80358015158114613bc057600080fd5b600080600080600060a08688031215614b6857600080fd5b614b7186614b40565b9450614b7f60208701614b40565b9350614b8d60408701614b40565b9250614b9b60608701614b40565b9150614ba960808701614b40565b90509295509295909350565b600080600080600060a08688031215614bcd57600080fd5b614bd68661462c565b945060208601356001600160401b0380821115614bf257600080fd5b614bfe89838a016148bb565b955060408801359450606088013593506080880135915080821115614c2257600080fd5b50614c2f888289016148bb565b9150509295509295909350565b60008060408385031215614c4f57600080fd5b614c588361462c565b9150614c6660208401614b40565b90509250929050565b6000602080830181845280855180835260408601915060408160051b870101925083870160005b82811015614a2e57603f19888603018452614cb2858351614a3b565b94509285019290850190600101614c96565b60008060408385031215614cd757600080fd5b614ce08361462c565b915060208301356001600160401b03811115614cfb57600080fd5b614d07858286016148bb565b9150509250929050565b60008060008060808587031215614d2757600080fd5b614d308561462c565b966020860135965060408601359560600135945092505050565b604081526000614d5d6040830185614829565b82810360208401526144258185614829565b600080600060608486031215614d8457600080fd5b505081359360208301359350604090920135919050565b6020808252825182820181905260009190848201906040850190845b81811015614ddc5783516001600160a01b031683529284019291840191600101614db7565b50909695505050505050565b600080600060608486031215614dfd57600080fd5b83356001600160401b0380821115614e1457600080fd5b614e208783880161470f565b94506020860135915080821115614e3657600080fd5b50614e43868287016148bb565b925050614e526040850161462c565b90509250925092565b60008060408385031215614e6e57600080fd5b8235915060208301356001600160401b03811115614e8b57600080fd5b614d078582860161470f565b600080600060608486031215614eac57600080fd5b614eb58461462c565b925060208401356001600160401b0380821115614ed157600080fd5b614edd878388016148bb565b93506040860135915080821115614ef357600080fd5b50614f008682870161470f565b9150509250925092565b634e487b7160e01b600052603260045260246000fd5b634e487b7160e01b600052601160045260246000fd5b60008219821115614f4957614f49614f20565b500190565b6000600019821415614f6257614f62614f20565b5060010190565b600181811c90821680614f7d57607f821691505b60208210811415614f9e57634e487b7160e01b600052602260045260246000fd5b50919050565b600082821015614fb657614fb6614f20565b500390565b634e487b7160e01b600052603160045260246000fd5b6020808252601690820152752737b232aa3cb8329d1027b7363c902430b7323632b960511b604082015260600190565b60008261501e57634e487b7160e01b600052601260045260246000fd5b500490565b60208082526012908201527127bbb732b9399d1027b7363c9027bbb732b960711b604082015260600190565b600080835481600182811c91508083168061506b57607f831692505b602080841082141561508b57634e487b7160e01b86526022600452602486fd5b81801561509f57600181146150b0576150dd565b60ff198616895284890196506150dd565b60008a81526020902060005b868110156150d55781548b8201529085019083016150bc565b505084890196505b509498975050505050505050565b600082516150fd81846020870161465e565b9190910192915050565b60208082526023908201527f4e6f6465547970653a205573657220646f65736e74206f776e2074686973206e6040820152626f646560e81b606082015260800190565b6020808252601e908201527f4e6f6465547970653a204665617475726520646f65736e742065786973740000604082015260600190565b60008161519057615190614f20565b506000190190565b60008160001904831182151516156151b2576151b2614f20565b500290565b6020808252602e908201527f496e697469616c697a61626c653a20636f6e747261637420697320616c72656160408201526d191e481a5b9a5d1a585b1a5e995960921b606082015260800190565b6020808252602b908201527f496e697469616c697a61626c653a20636f6e7472616374206973206e6f74206960408201526a6e697469616c697a696e6760a81b60608201526080019056fea2646970667358221220ae819c4dbdafce6ad6a90888b0def82319beafd9f1e115fb021792280229870964736f6c63430008090033",
  "linkReferences": {},
  "deployedLinkReferences": {}
}