{
  "_format": "hh-sol-artifact-1",
  "contractName": "Handler",
  "sourceName": "contracts/Handler.sol",
  "abi": [
    {
      "anonymous": false,
      "inputs": [
        {
          "indexed": false,
          "internalType": "uint8",
          "name": "version",
          "type": "uint8"
        }
      ],
      "name": "Initialized",
      "type": "event"
    },
    {
      "anonymous": false,
      "inputs": [
        {
          "indexed": true,
          "internalType": "address",
          "name": "owner",
          "type": "address"
        },
        {
          "indexed": true,
          "internalType": "string",
          "name": "name",
          "type": "string"
        },
        {
          "indexed": false,
          "internalType": "uint256",
          "name": "count",
          "type": "uint256"
        }
      ],
      "name": "NewNode",
      "type": "event"
    },
    {
      "anonymous": false,
      "inputs": [
        {
          "indexed": true,
          "internalType": "address",
          "name": "owner",
          "type": "address"
        },
        {
          "indexed": true,
          "internalType": "string",
          "name": "name",
          "type": "string"
        },
        {
          "indexed": false,
          "internalType": "uint256",
          "name": "count",
          "type": "uint256"
        }
      ],
      "name": "NewPlot",
      "type": "event"
    },
    {
      "inputs": [
        {
          "internalType": "address[]",
          "name": "_addrs",
          "type": "address[]"
        }
      ],
      "name": "addMultipleNodeTypes",
      "outputs": [],
      "stateMutability": "nonpayable",
      "type": "function"
    },
    {
      "inputs": [
        {
          "internalType": "address",
          "name": "_addr",
          "type": "address"
        }
      ],
      "name": "addNodeType",
      "outputs": [],
      "stateMutability": "nonpayable",
      "type": "function"
    },
    {
      "inputs": [
        {
          "internalType": "address",
          "name": "_new",
          "type": "address"
        },
        {
          "internalType": "bool",
          "name": "_change",
          "type": "bool"
        }
      ],
      "name": "addOwner",
      "outputs": [],
      "stateMutability": "nonpayable",
      "type": "function"
    },
    {
      "inputs": [
        {
          "internalType": "address",
          "name": "tokenIn",
          "type": "address"
        },
        {
          "internalType": "address",
          "name": "user",
          "type": "address"
        },
        {
          "internalType": "string[]",
          "name": "nodeTypesNames",
          "type": "string[]"
        },
        {
          "internalType": "uint256[][]",
          "name": "tokenIds",
          "type": "uint256[][]"
        },
        {
          "internalType": "string",
          "name": "fertilizerTypeName",
          "type": "string"
        },
        {
          "internalType": "uint256[][]",
          "name": "amount",
          "type": "uint256[][]"
        },
        {
          "internalType": "string",
          "name": "sponso",
          "type": "string"
        }
      ],
      "name": "applyFertilizerBatch",
      "outputs": [],
      "stateMutability": "nonpayable",
      "type": "function"
    },
    {
      "inputs": [
        {
          "internalType": "address",
          "name": "tokenIn",
          "type": "address"
        },
        {
          "internalType": "address",
          "name": "user",
          "type": "address"
        },
        {
          "internalType": "uint256[]",
          "name": "tokenIds",
          "type": "uint256[]"
        },
        {
          "internalType": "string",
          "name": "waterpackTypeName",
          "type": "string"
        },
        {
          "internalType": "uint256[]",
          "name": "amounts",
          "type": "uint256[]"
        },
        {
          "internalType": "string",
          "name": "sponso",
          "type": "string"
        }
      ],
      "name": "applyWaterpackBatch",
      "outputs": [],
      "stateMutability": "nonpayable",
      "type": "function"
    },
    {
      "inputs": [
        {
          "internalType": "address",
          "name": "tokenOut",
          "type": "address"
        },
        {
          "internalType": "address",
          "name": "user",
          "type": "address"
        }
      ],
      "name": "claimRewardsAll",
      "outputs": [],
      "stateMutability": "nonpayable",
      "type": "function"
    },
    {
      "inputs": [
        {
          "internalType": "address",
          "name": "tokenOut",
          "type": "address"
        },
        {
          "internalType": "address",
          "name": "user",
          "type": "address"
        },
        {
          "internalType": "string[]",
          "name": "names",
          "type": "string[]"
        },
        {
          "internalType": "uint256[][]",
          "name": "tokenIds",
          "type": "uint256[][]"
        }
      ],
      "name": "claimRewardsBatch",
      "outputs": [],
      "stateMutability": "nonpayable",
      "type": "function"
    },
    {
      "inputs": [
        {
          "internalType": "address",
          "name": "tokenOut",
          "type": "address"
        },
        {
          "internalType": "address",
          "name": "user",
          "type": "address"
        },
        {
          "internalType": "string",
          "name": "name",
          "type": "string"
        }
      ],
      "name": "claimRewardsNodeType",
      "outputs": [],
      "stateMutability": "nonpayable",
      "type": "function"
    },
    {
      "inputs": [
        {
          "internalType": "string",
          "name": "name",
          "type": "string"
        },
        {
          "internalType": "address",
          "name": "user",
          "type": "address"
        },
        {
          "internalType": "uint256",
          "name": "count",
          "type": "uint256"
        }
      ],
      "name": "createLuckyBoxesAirDrop",
      "outputs": [],
      "stateMutability": "nonpayable",
      "type": "function"
    },
    {
      "inputs": [
        {
          "internalType": "address",
          "name": "tokenIn",
          "type": "address"
        },
        {
          "internalType": "address",
          "name": "user",
          "type": "address"
        },
        {
          "internalType": "string",
          "name": "name",
          "type": "string"
        },
        {
          "internalType": "uint256",
          "name": "count",
          "type": "uint256"
        },
        {
          "internalType": "string",
          "name": "sponso",
          "type": "string"
        }
      ],
      "name": "createLuckyBoxesWithTokens",
      "outputs": [],
      "stateMutability": "nonpayable",
      "type": "function"
    },
    {
      "inputs": [
        {
          "internalType": "string",
          "name": "name",
          "type": "string"
        },
        {
          "internalType": "address",
          "name": "user",
          "type": "address"
        },
        {
          "internalType": "string",
          "name": "feature",
          "type": "string"
        },
        {
          "internalType": "uint256",
          "name": "count",
          "type": "uint256"
        }
      ],
      "name": "createNodesAirDrop",
      "outputs": [],
      "stateMutability": "nonpayable",
      "type": "function"
    },
    {
      "inputs": [
        {
          "internalType": "uint256[]",
          "name": "tokenIdsLuckyBoxes",
          "type": "uint256[]"
        },
        {
          "internalType": "uint256[]",
          "name": "tokenIdsPlots",
          "type": "uint256[]"
        }
      ],
      "name": "createNodesWithLuckyBoxes",
      "outputs": [],
      "stateMutability": "nonpayable",
      "type": "function"
    },
    {
      "inputs": [
        {
          "internalType": "address",
          "name": "tokenIn",
          "type": "address"
        },
        {
          "internalType": "string",
          "name": "plotType",
          "type": "string"
        },
        {
          "internalType": "string",
          "name": "sponso",
          "type": "string"
        }
      ],
      "name": "createPlotWithTokens",
      "outputs": [
        {
          "internalType": "uint256",
          "name": "",
          "type": "uint256"
        }
      ],
      "stateMutability": "nonpayable",
      "type": "function"
    },
    {
      "inputs": [
        {
          "internalType": "uint256",
          "name": "tokenId",
          "type": "uint256"
        }
      ],
      "name": "getAttribute",
      "outputs": [
        {
          "internalType": "string",
          "name": "",
          "type": "string"
        }
      ],
      "stateMutability": "view",
      "type": "function"
    },
    {
      "inputs": [
        {
          "internalType": "address",
          "name": "user",
          "type": "address"
        }
      ],
      "name": "getClaimableRewardsOf",
      "outputs": [
        {
          "internalType": "uint256",
          "name": "",
          "type": "uint256"
        },
        {
          "internalType": "uint256",
          "name": "",
          "type": "uint256"
        }
      ],
      "stateMutability": "view",
      "type": "function"
    },
    {
      "inputs": [
        {
          "internalType": "string",
          "name": "key",
          "type": "string"
        }
      ],
      "name": "getNodeTypesAddress",
      "outputs": [
        {
          "internalType": "address",
          "name": "",
          "type": "address"
        }
      ],
      "stateMutability": "view",
      "type": "function"
    },
    {
      "inputs": [
        {
          "internalType": "uint256",
          "name": "iStart",
          "type": "uint256"
        },
        {
          "internalType": "uint256",
          "name": "iEnd",
          "type": "uint256"
        }
      ],
      "name": "getNodeTypesBetweenIndexes",
      "outputs": [
        {
          "internalType": "string[]",
          "name": "",
          "type": "string[]"
        }
      ],
      "stateMutability": "view",
      "type": "function"
    },
    {
      "inputs": [],
      "name": "getNodeTypesNames",
      "outputs": [
        {
          "internalType": "string[]",
          "name": "",
          "type": "string[]"
        }
      ],
      "stateMutability": "view",
      "type": "function"
    },
    {
      "inputs": [],
      "name": "getNodeTypesSize",
      "outputs": [
        {
          "internalType": "uint256",
          "name": "",
          "type": "uint256"
        }
      ],
      "stateMutability": "view",
      "type": "function"
    },
    {
      "inputs": [],
      "name": "getOwnersSize",
      "outputs": [
        {
          "internalType": "uint256",
          "name": "",
          "type": "uint256"
        }
      ],
      "stateMutability": "view",
      "type": "function"
    },
    {
      "inputs": [
        {
          "internalType": "uint256",
          "name": "key",
          "type": "uint256"
        }
      ],
      "name": "getTokenIdNodeTypeName",
      "outputs": [
        {
          "internalType": "string",
          "name": "",
          "type": "string"
        }
      ],
      "stateMutability": "view",
      "type": "function"
    },
    {
      "inputs": [
        {
          "internalType": "uint256",
          "name": "iStart",
          "type": "uint256"
        },
        {
          "internalType": "uint256",
          "name": "iEnd",
          "type": "uint256"
        }
      ],
      "name": "getTokenIdsBetweenIndexes",
      "outputs": [
        {
          "internalType": "uint256[]",
          "name": "",
          "type": "uint256[]"
        }
      ],
      "stateMutability": "view",
      "type": "function"
    },
    {
      "inputs": [
        {
          "internalType": "uint256",
          "name": "iStart",
          "type": "uint256"
        },
        {
          "internalType": "uint256",
          "name": "iEnd",
          "type": "uint256"
        }
      ],
      "name": "getTokenIdsNodeTypeBetweenIndexes",
      "outputs": [
        {
          "internalType": "string[]",
          "name": "",
          "type": "string[]"
        }
      ],
      "stateMutability": "view",
      "type": "function"
    },
    {
      "inputs": [],
      "name": "getTokenIdsSize",
      "outputs": [
        {
          "internalType": "uint256",
          "name": "",
          "type": "uint256"
        }
      ],
      "stateMutability": "view",
      "type": "function"
    },
    {
      "inputs": [],
      "name": "getTotalCreatedNodes",
      "outputs": [
        {
          "internalType": "uint256",
          "name": "",
          "type": "uint256"
        }
      ],
      "stateMutability": "view",
      "type": "function"
    },
    {
      "inputs": [
        {
          "internalType": "address",
          "name": "user",
          "type": "address"
        }
      ],
      "name": "getTotalNodesOf",
      "outputs": [
        {
          "internalType": "uint256",
          "name": "",
          "type": "uint256"
        }
      ],
      "stateMutability": "view",
      "type": "function"
    },
    {
      "inputs": [],
      "name": "initialize",
      "outputs": [],
      "stateMutability": "nonpayable",
      "type": "function"
    },
    {
      "inputs": [
        {
          "internalType": "address",
          "name": "",
          "type": "address"
        }
      ],
      "name": "isOwner",
      "outputs": [
        {
          "internalType": "bool",
          "name": "",
          "type": "bool"
        }
      ],
      "stateMutability": "view",
      "type": "function"
    },
    {
      "inputs": [
        {
          "internalType": "uint256[]",
          "name": "plotTokenIds",
          "type": "uint256[]"
        },
        {
          "internalType": "uint256[][]",
          "name": "nodeTokenIds",
          "type": "uint256[][]"
        }
      ],
      "name": "moveNodesToPlots",
      "outputs": [],
      "stateMutability": "nonpayable",
      "type": "function"
    },
    {
      "inputs": [],
      "name": "nft",
      "outputs": [
        {
          "internalType": "address",
          "name": "",
          "type": "address"
        }
      ],
      "stateMutability": "view",
      "type": "function"
    },
    {
      "inputs": [
        {
          "internalType": "string",
          "name": "name",
          "type": "string"
        },
        {
          "internalType": "address",
          "name": "user",
          "type": "address"
        },
        {
          "internalType": "uint256[]",
          "name": "tokenIds",
          "type": "uint256[]"
        },
        {
          "internalType": "string",
          "name": "feature",
          "type": "string"
        }
      ],
      "name": "nodeEvolution",
      "outputs": [],
      "stateMutability": "nonpayable",
      "type": "function"
    },
    {
      "inputs": [
        {
          "internalType": "address",
          "name": "from",
          "type": "address"
        },
        {
          "internalType": "address",
          "name": "to",
          "type": "address"
        },
        {
          "internalType": "uint256",
          "name": "tokenId",
          "type": "uint256"
        }
      ],
      "name": "nodeTransferFrom",
      "outputs": [],
      "stateMutability": "nonpayable",
      "type": "function"
    },
    {
      "inputs": [
        {
          "internalType": "uint256",
          "name": "",
          "type": "uint256"
        }
      ],
      "name": "owners",
      "outputs": [
        {
          "internalType": "address",
          "name": "",
          "type": "address"
        }
      ],
      "stateMutability": "view",
      "type": "function"
    },
    {
      "inputs": [
        {
          "internalType": "address",
          "name": "from",
          "type": "address"
        },
        {
          "internalType": "address",
          "name": "to",
          "type": "address"
        },
        {
          "internalType": "uint256",
          "name": "plotTokenId",
          "type": "uint256"
        }
      ],
      "name": "plotTransferFrom",
      "outputs": [],
      "stateMutability": "nonpayable",
      "type": "function"
    },
    {
      "inputs": [
        {
          "internalType": "address",
          "name": "_new",
          "type": "address"
        }
      ],
      "name": "removeOwner",
      "outputs": [],
      "stateMutability": "nonpayable",
      "type": "function"
    },
    {
      "inputs": [
        {
          "internalType": "contract Addons",
          "name": "_new",
          "type": "address"
        }
      ],
      "name": "setAddons",
      "outputs": [],
      "stateMutability": "nonpayable",
      "type": "function"
    },
    {
      "inputs": [
        {
          "internalType": "string",
          "name": "name",
          "type": "string"
        },
        {
          "internalType": "uint256",
          "name": "durationEffect",
          "type": "uint256"
        },
        {
          "internalType": "uint256",
          "name": "rewardBoost",
          "type": "uint256"
        },
        {
          "internalType": "uint256[]",
          "name": "limits",
          "type": "uint256[]"
        },
        {
          "internalType": "uint256[]",
          "name": "prices",
          "type": "uint256[]"
        }
      ],
      "name": "setFertilizerType",
      "outputs": [],
      "stateMutability": "nonpayable",
      "type": "function"
    },
    {
      "inputs": [
        {
          "internalType": "address",
          "name": "_new",
          "type": "address"
        }
      ],
      "name": "setLucky",
      "outputs": [],
      "stateMutability": "nonpayable",
      "type": "function"
    },
    {
      "inputs": [
        {
          "internalType": "address",
          "name": "_new",
          "type": "address"
        }
      ],
      "name": "setNft",
      "outputs": [],
      "stateMutability": "nonpayable",
      "type": "function"
    },
    {
      "inputs": [
        {
          "internalType": "address",
          "name": "_new",
          "type": "address"
        }
      ],
      "name": "setPlot",
      "outputs": [],
      "stateMutability": "nonpayable",
      "type": "function"
    },
    {
      "inputs": [
        {
          "internalType": "string",
          "name": "name",
          "type": "string"
        },
        {
          "internalType": "uint256",
          "name": "price",
          "type": "uint256"
        },
        {
          "internalType": "uint256",
          "name": "maxNodes",
          "type": "uint256"
        },
        {
          "internalType": "string[]",
          "name": "allowedNodeTypes",
          "type": "string[]"
        },
        {
          "internalType": "uint256",
          "name": "additionalGRPTime",
          "type": "uint256"
        },
        {
          "internalType": "uint256",
          "name": "waterpackGRPBoost",
          "type": "uint256"
        }
      ],
      "name": "setPlotType",
      "outputs": [],
      "stateMutability": "nonpayable",
      "type": "function"
    },
    {
      "inputs": [
        {
          "internalType": "address",
          "name": "_new",
          "type": "address"
        }
      ],
      "name": "setSwapper",
      "outputs": [],
      "stateMutability": "nonpayable",
      "type": "function"
    },
    {
      "inputs": [
        {
          "internalType": "string",
          "name": "name",
          "type": "string"
        },
        {
          "internalType": "uint256",
          "name": "ratioOfGRP",
          "type": "uint256"
        },
        {
          "internalType": "uint256[]",
          "name": "prices",
          "type": "uint256[]"
        }
      ],
      "name": "setWaterpackType",
      "outputs": [],
      "stateMutability": "nonpayable",
      "type": "function"
    },
    {
      "inputs": [
        {
          "internalType": "string",
          "name": "name",
          "type": "string"
        },
        {
          "internalType": "address",
          "name": "_addr",
          "type": "address"
        }
      ],
      "name": "updateNodeTypeAddress",
      "outputs": [],
      "stateMutability": "nonpayable",
      "type": "function"
    }
  ],
  "bytecode": "0x608060405234801561001057600080fd5b50615f0480620000216000396000f3fe608060405234801561001057600080fd5b50600436106102745760003560e01c8063a4a74c4911610151578063d567383f116100c3578063eba86d2911610087578063eba86d291461058e578063ec52dc11146105a1578063f3c13387146105b4578063f6008948146105c7578063f76e72ae146105da578063fd4acf7f146105ed57600080fd5b8063d567383f1461053a578063d6a0d2ee1461054d578063e15e66d014610555578063e1ca019b14610568578063e9897f871461057b57600080fd5b8063be78ae5b11610115578063be78ae5b146104b3578063bf035e11146104c6578063bf442d23146104ee578063c299d38014610501578063c708c72c14610514578063d4df0af41461052757600080fd5b8063a4a74c4914610447578063a650ac0d1461045a578063a880f1a91461047a578063b836c5f51461048d578063b9415566146104a057600080fd5b8063518e32d3116101ea5780637741696d116101ae5780637741696d146103f65780638129fc1c1461040957806383715476146104115780638f309880146104195780639c82f2a41461042c578063a0a8fe651461043f57600080fd5b8063518e32d31461039757806353a755ae146103aa57806362663f18146103bd57806362829b20146103d057806365246930146103e357600080fd5b806324056bce1161023c57806324056bce146102f65780632f54bf6e14610309578063321f86741461033c578063335faa091461034f57806347ccca0214610364578063493fe80f1461037757600080fd5b8063025e7c27146102795780630c7b1d7b146102a9578063173825d9146102bb5780631d6cc397146102d05780631fb895f8146102e3575b600080fd5b61028c610287366004614585565b610600565b6040516001600160a01b0390911681526020015b60405180910390f35b6001545b6040519081526020016102a0565b6102ce6102c93660046145be565b61062a565b005b6102ce6102de36600461466e565b6108b5565b6102ce6102f13660046147d2565b610955565b6102ce61030436600461492b565b610a0b565b61032c6103173660046145be565b60026020526000908152604090205460ff1681565b60405190151581526020016102a0565b6102ce61034a36600461498e565b610b43565b610357610c3b565b6040516102a09190614acd565b600b5461028c906001600160a01b031681565b61038a610385366004614585565b610d17565b6040516102a09190614ae0565b6102ce6103a5366004614b01565b610dcf565b6102ce6103b8366004614b2f565b610fb9565b6102ce6103cb366004614bcb565b6112f5565b6102ce6103de366004614c64565b6113f8565b61028c6103f1366004614c92565b61156e565b6102ce610404366004614d4d565b611609565b6102ce611b86565b6007546102ad565b6102ce610427366004614e44565b611bfb565b6102ce61043a3660046145be565b611e0d565b6102ad611ec4565b61038a610455366004614585565b611fa9565b61046d610468366004614ec0565b61209f565b6040516102a09190614f1d565b6102ad6104883660046145be565b61215b565b6102ce61049b366004614f30565b612244565b6102ad6104ae366004614f71565b612392565b6102ce6104c1366004614f30565b6124e2565b6104d96104d43660046145be565b61267f565b604080519283526020830191909152016102a0565b6102ce6104fc366004614fe6565b612788565b61035761050f366004614ec0565b612831565b6102ce6105223660046145be565b612978565b6102ce610535366004615092565b612a9c565b6102ce6105483660046145be565b612aa6565b6003546102ad565b610357610563366004614ec0565b612b5b565b6102ce6105763660046145be565b612cb7565b6102ce6105893660046150eb565b612d6a565b6102ce61059c366004615142565b612ec2565b6102ce6105af36600461518a565b612f25565b6102ce6105c23660046145be565b612f8e565b6102ce6105d53660046145be565b613041565b6102ce6105e8366004615212565b6130f4565b6102ce6105fb3660046152e5565b613821565b6001818154811061061057600080fd5b6000918252602090912001546001600160a01b0316905081565b336001600160a01b0316600160008154811061064857610648615364565b6000918252602090912001546001600160a01b0316146106aa5760405162461bcd60e51b815260206004820152601860248201527727bbb732b9399d1027b7363c9029bab832b91027bbb732b960411b60448201526064015b60405180910390fd5b6001600160a01b03811660009081526002602052604090205460ff166107065760405162461bcd60e51b815260206004820152601160248201527027bbb732b9399d102737ba1037bbb732b960791b60448201526064016106a1565b600160008154811061071a5761071a615364565b6000918252602090912001546001600160a01b038281169116141561078b5760405162461bcd60e51b815260206004820152602160248201527f4f776e6572733a2043616e6e6f742072656d6f7665207375706572206f776e656044820152603960f91b60648201526084016106a1565b60015b60015481101561089357816001600160a01b0316600182815481106107b5576107b5615364565b6000918252602090912001546001600160a01b0316141561088157600180546107df908290615390565b815481106107ef576107ef615364565b600091825260209091200154600180546001600160a01b03909216918390811061081b5761081b615364565b9060005260206000200160006101000a8154816001600160a01b0302191690836001600160a01b03160217905550600180548061085a5761085a6153a7565b600082815260209020810160001990810180546001600160a01b0319169055019055610893565b8061088b816153bd565b91505061078e565b506001600160a01b03166000908152600260205260409020805460ff19169055565b3360009081526002602052604090205460ff166108e45760405162461bcd60e51b81526004016106a1906153d8565b600f54604051631d6cc39760e01b81526001600160a01b0390911690631d6cc3979061091c9088908890889088908890600401615463565b600060405180830381600087803b15801561093657600080fd5b505af115801561094a573d6000803e3d6000fd5b505050505050505050565b3360009081526002602052604090205460ff166109845760405162461bcd60e51b81526004016106a1906153d8565b60405160069061099590849061549c565b9081526040519081900360200190205460ff166109c45760405162461bcd60e51b81526004016106a1906154b8565b806003600101836040516109d8919061549c565b90815260405190819003602001902080546001600160a01b03929092166001600160a01b03199092169190911790555050565b8051825114610a2c5760405162461bcd60e51b81526004016106a1906154ef565b600e546040516379381ad360e11b81526001600160a01b039091169063f27035a690610a6090339085908790600401615526565b600060405180830381600087803b158015610a7a57600080fd5b505af1158015610a8e573d6000803e3d6000fd5b5050505060005b8251811015610b3e5760005b828281518110610ab357610ab3615364565b602002602001015151811015610b2b57610b1933848481518110610ad957610ad9615364565b60200260200101518381518110610af257610af2615364565b6020026020010151868581518110610b0c57610b0c615364565b6020026020010151613af7565b80610b23816153bd565b915050610aa1565b5080610b36816153bd565b915050610a95565b505050565b600c54604051636454a0fd60e01b81526000916001600160a01b031690636454a0fd90610b7890879087908a906004016155ab565b602060405180830381600087803b158015610b9257600080fd5b505af1158015610ba6573d6000803e3d6000fd5b505050506040513d601f19601f82011682018060405250810190610bca91906155de565b600d5460405163a77f789b60e01b81529192506001600160a01b03169063a77f789b90610c019089903390869088906004016155f7565b600060405180830381600087803b158015610c1b57600080fd5b505af1158015610c2f573d6000803e3d6000fd5b50505050505050505050565b60606003600001805480602002602001604051908101604052809291908181526020016000905b82821015610d0e578382906000526020600020018054610c819061562a565b80601f0160208091040260200160405190810160405280929190818152602001828054610cad9061562a565b8015610cfa5780601f10610ccf57610100808354040283529160200191610cfa565b820191906000526020600020905b815481529060010190602001808311610cdd57829003601f168201915b505050505081526020019060010190610c62565b50505050905090565b600081815260086020526040908190209051606091600491610d39919061565f565b9081526040519081900360200181205463493fe80f60e01b82526001600160a01b03169063493fe80f90610d7590859060040190815260200190565b60006040518083038186803b158015610d8d57600080fd5b505afa158015610da1573d6000803e3d6000fd5b505050506040513d6000823e601f3d908101601f19168201604052610dc99190810190615740565b92915050565b336001600160a01b03166001600081548110610ded57610ded615364565b6000918252602090912001546001600160a01b031614610e4a5760405162461bcd60e51b815260206004820152601860248201527727bbb732b9399d1027b7363c9029bab832b91027bbb732b960411b60448201526064016106a1565b6001600160a01b03821660009081526002602052604090205460ff1615610eab5760405162461bcd60e51b815260206004820152601560248201527427bbb732b9399d1020b63932b0b23c9037bbb732b960591b60448201526064016106a1565b6001600160a01b0382166000908152600260205260409020805460ff191660011790558015610f6a57600180600081548110610ee957610ee9615364565b600091825260208083209091015483546001818101865594845291832090910180546001600160a01b0319166001600160a01b03909216919091179055815484929190610f3857610f38615364565b9060005260206000200160006101000a8154816001600160a01b0302191690836001600160a01b031602179055505050565b6001805480820182556000919091527fb10e2d527612073b26eecdfd717e6a320cf44b4afac2b0732d9fcbe2b7fa0cf60180546001600160a01b0319166001600160a01b0384161790555b5050565b3360009081526002602052604090205460ff16610fe85760405162461bcd60e51b81526004016106a1906153d8565b81516001146110395760405162461bcd60e51b815260206004820152601a60248201527f48616e646c65723a2045766f6c7665206f6e65206279206f6e6500000000000060448201526064016106a1565b60405160069061104a90869061549c565b9081526040519081900360200190205460ff166110795760405162461bcd60e51b81526004016106a1906154b8565b600760030160008360008151811061109357611093615364565b60209081029190910181015182528101919091526040016000205460ff166110fd5760405162461bcd60e51b815260206004820152601b60248201527f48616e646c65723a20546f6b656e20646f65736e74206578697374000000000060448201526064016106a1565b6003600101600760010160008460008151811061111c5761111c615364565b6020026020010151815260200190815260200160002060405161113f919061565f565b908152604051908190036020018120546389af610760e01b82526001600160a01b0316906389af6107906111799086908690600401615774565b602060405180830381600087803b15801561119357600080fd5b505af11580156111a7573d6000803e3d6000fd5b505050506040513d601f19601f820116820180604052508101906111cb91906155de565b506111f0826000815181106111e2576111e2615364565b602002602001015185613c28565b60405160049061120190869061549c565b9081526040519081900360200181205463e3d7e67160e01b82526001600160a01b03169063e3d7e6719061123d90869086908690600401615798565b600060405180830381600087803b15801561125757600080fd5b505af115801561126b573d6000803e3d6000fd5b5050600b5484516001600160a01b03909116925063aff930e69150849060009061129757611297615364565b6020026020010151866040518363ffffffff1660e01b81526004016112bd9291906157ce565b600060405180830381600087803b1580156112d757600080fd5b505af11580156112eb573d6000803e3d6000fd5b5050505050505050565b3360009081526002602052604090205460ff166113245760405162461bcd60e51b81526004016106a1906153d8565b60005b8151811015610fb557600082828151811061134457611344615364565b60200260200101516001600160a01b03166306fdde036040518163ffffffff1660e01b815260040160006040518083038186803b15801561138457600080fd5b505afa158015611398573d6000803e3d6000fd5b505050506040513d6000823e601f3d908101601f191682016040526113c09190810190615740565b90506113e5818484815181106113d8576113d8615364565b6020026020010151613cd5565b50806113f0816153bd565b915050611327565b6001600160a01b03811633148061141e57503360009081526002602052604090205460ff165b61143a5760405162461bcd60e51b81526004016106a1906157e7565b60008060005b6003548110156115375760008060036001016003600001848154811061146857611468615364565b9060005260206000200160405161147f919061565f565b908152604051908190036020018120546318c880ef60e21b82526001600160a01b038881166004840152169063632203bc906024016040805180830381600087803b1580156114cd57600080fd5b505af11580156114e1573d6000803e3d6000fd5b505050506040513d601f19601f82011682018060405250810190611505919061582b565b9092509050611514828661584f565b9450611520818561584f565b93505050808061152f906153bd565b915050611440565b50600d5460405163658793a360e01b81526001600160a01b039091169063658793a3906112bd908790879087908790600401615867565b60006003800182604051611582919061549c565b9081526040519081900360200190205460ff166115d95760405162461bcd60e51b8152602060048201526015602482015274139bd919551e5c1948191bd95cdb9d08195e1a5cdd605a1b60448201526064016106a1565b6040516004906115ea90849061549c565b908152604051908190036020019020546001600160a01b031692915050565b6001600160a01b03871633148061162f57503360009081526002602052604090205460ff165b61164b5760405162461bcd60e51b81526004016106a1906157e7565b600f546040516336e8e86760e21b81526001600160a01b039091169063dba3a19c9061167d9087908790600401615890565b60206040518083038186803b15801561169557600080fd5b505afa1580156116a9573d6000803e3d6000fd5b505050506040513d601f19601f820116820180604052508101906116cd91906158a4565b6117295760405162461bcd60e51b815260206004820152602760248201527f48616e646c65723a2046657274696c697a6572207479706520646f65736e27746044820152662065786973747360c81b60648201526084016106a1565b845186511461174a5760405162461bcd60e51b81526004016106a1906154ef565b600f546040516335e00d9760e11b81526000916001600160a01b031690636bc01b2e9061177d9088908890600401615890565b60c06040518083038186803b15801561179557600080fd5b505afa1580156117a9573d6000803e3d6000fd5b505050506040513d601f19601f820116820180604052508101906117cd91906158c1565b90506000805b8851811015611b115760008982815181106117f0576117f0615364565b60200260200101519050600380018160405161180c919061549c565b9081526040519081900360200190205460ff1661183b5760405162461bcd60e51b81526004016106a1906154b8565b85828151811061184d5761184d615364565b60200260200101515189838151811061186857611868615364565b6020026020010151511461188e5760405162461bcd60e51b81526004016106a1906154ef565b60405160049061189f90839061549c565b9081526040519081900360200190205489516001600160a01b03909116906341087342908d908c90869081106118d7576118d7615364565b6020026020010151876000015188602001518b88815181106118fb576118fb615364565b60200260200101516040518663ffffffff1660e01b815260040161192395949392919061593a565b600060405180830381600087803b15801561193d57600080fd5b505af1158015611951573d6000803e3d6000fd5b5050505060005b89838151811061196a5761196a615364565b602002602001015151811015611a5c5786838151811061198c5761198c615364565b602002602001015181815181106119a5576119a5615364565b6020908102919091010151600f5460405163410923f560e11b81526001600160a01b039091169063821247ea906119e4908d908d90889060040161597c565b60206040518083038186803b1580156119fc57600080fd5b505afa158015611a10573d6000803e3d6000fd5b505050506040513d601f19601f82011682018060405250810190611a3491906155de565b611a3e91906159a2565b611a48908561584f565b935080611a54816153bd565b915050611958565b50600f5489516001600160a01b03909116906318a63f31908b9085908110611a8657611a86615364565b60200260200101518a8a428b8881518110611aa357611aa3615364565b60200260200101516040518663ffffffff1660e01b8152600401611acb9594939291906159c1565b600060405180830381600087803b158015611ae557600080fd5b505af1158015611af9573d6000803e3d6000fd5b50505050508080611b09906153bd565b9150506117d3565b50600d54604051630bfe982960e01b81526001600160a01b0390911690630bfe982990611b48908d908d90869089906004016155f7565b600060405180830381600087803b158015611b6257600080fd5b505af1158015611b76573d6000803e3d6000fd5b5050505050505050505050505050565b6000611b926001613df0565b90508015611baa576000805461ff0019166101001790555b611bb2613e7d565b8015611bf8576000805461ff0019169055604051600181527f7f26b83ff96e1f2b6a682f133852f6798a09c465da95921460cefb38474024989060200160405180910390a15b50565b6001600160a01b038316331480611c2157503360009081526002602052604090205460ff165b611c3d5760405162461bcd60e51b81526004016106a1906157e7565b6000808251845114611c615760405162461bcd60e51b81526004016106a1906154ef565b60005b8451811015611dd65760038001858281518110611c8357611c83615364565b6020026020010151604051611c98919061549c565b9081526040519081900360200190205460ff16611cc75760405162461bcd60e51b81526004016106a1906154b8565b6000806003600101878481518110611ce157611ce1615364565b6020026020010151604051611cf6919061549c565b9081526040519081900360200190205486516001600160a01b039091169063daf73bbd908a90899087908110611d2e57611d2e615364565b60200260200101516040518363ffffffff1660e01b8152600401611d53929190615774565b6040805180830381600087803b158015611d6c57600080fd5b505af1158015611d80573d6000803e3d6000fd5b505050506040513d601f19601f82011682018060405250810190611da4919061582b565b9092509050611db3828661584f565b9450611dbf818561584f565b935050508080611dce906153bd565b915050611c64565b50600d546040516336ed57cd60e01b81526001600160a01b03909116906336ed57cd90610c01908990899087908790600401615867565b3360009081526002602052604090205460ff16611e3c5760405162461bcd60e51b81526004016106a1906153d8565b6001600160a01b038116611ea25760405162461bcd60e51b815260206004820152602760248201527f48616e646c65723a20537761707065722063616e6e6f742062652061646472656044820152667373207a65726f60c81b60648201526084016106a1565b600d80546001600160a01b0319166001600160a01b0392909216919091179055565b60008060005b600354811015611fa357600380546004919083908110611eec57611eec615364565b90600052602060002001604051611f03919061565f565b90815260408051602092819003830181205463b88d345360e01b825291516001600160a01b039092169263b88d345392600480840193829003018186803b158015611f4d57600080fd5b505afa158015611f61573d6000803e3d6000fd5b505050506040513d601f19601f82011682018060405250810190611f8591906155de565b611f8f908361584f565b915080611f9b816153bd565b915050611eca565b50919050565b6000818152600a602052604090205460609060ff166120015760405162461bcd60e51b8152602060048201526014602482015273151bdad95b925908191bd95cdb9d08195e1a5cdd60621b60448201526064016106a1565b6000828152600860205260409020805461201a9061562a565b80601f01602080910402602001604051908101604052809291908181526020018280546120469061562a565b80156120935780601f1061206857610100808354040283529160200191612093565b820191906000526020600020905b81548152906001019060200180831161207657829003601f168201915b50505050509050919050565b606060006120ad8484615390565b6001600160401b038111156120c4576120c46146e7565b6040519080825280602002602001820160405280156120ed578160200160208202803683370190505b509050835b8381101561215357600780548290811061210e5761210e615364565b90600052602060002001548286836121269190615390565b8151811061213657612136615364565b60209081029190910101528061214b816153bd565b9150506120f2565b509392505050565b60008060005b60035481101561223d5760038054600491908390811061218357612183615364565b9060005260206000200160405161219a919061565f565b908152604051908190036020018120546343a9ac3960e01b82526001600160a01b03868116600484015216906343a9ac399060240160206040518083038186803b1580156121e757600080fd5b505afa1580156121fb573d6000803e3d6000fd5b505050506040513d601f19601f8201168201806040525081019061221f91906155de565b612229908361584f565b915080612235816153bd565b915050612161565b5092915050565b600b546001600160a01b031633146122925760405162461bcd60e51b815260206004820152601160248201527012185b991b195c8e8813db9b1e4813999d607a1b60448201526064016106a1565b6000818152600860205260409081902090516004916122b09161565f565b908152604051908190036020018120546323b872dd60e01b82526001600160a01b03858116600484015284811660248401526044830184905216906323b872dd90606401600060405180830381600087803b15801561230e57600080fd5b505af1158015612322573d6000803e3d6000fd5b5050600e546010546040516360c458b360e01b81526001600160a01b0390921693506360c458b3925061235b9186918691600401615a01565b600060405180830381600087803b15801561237557600080fd5b505af1158015612389573d6000803e3d6000fd5b50505050505050565b600e54604051630ee6181960e11b8152600091829182916001600160a01b031690631dcc3032906123c99033908990600401615a22565b6040805180830381600087803b1580156123e257600080fd5b505af11580156123f6573d6000803e3d6000fd5b505050506040513d601f19601f8201168201806040525081019061241a919061582b565b9092509050811561248e57600d5460405163f6d33c8360e01b81526001600160a01b039091169063f6d33c839061245b908990339087908a906004016155f7565b600060405180830381600087803b15801561247557600080fd5b505af1158015612489573d6000803e3d6000fd5b505050505b8460405161249c919061549c565b604051908190038120600182529033907fa599d473c60be79067fe359df2d6b97d2074afb762310ada0041a70aecf22d8a9060200160405180910390a395945050505050565b6010819055600e5481906001600160a01b031633146125385760405162461bcd60e51b815260206004820152601260248201527112185b991b195c8e8813db9b1e48141b1bdd60721b60448201526064016106a1565b600e54604051633483413b60e01b8152600481018490526000916001600160a01b031690633483413b9060240160006040518083038186803b15801561257d57600080fd5b505afa158015612591573d6000803e3d6000fd5b505050506040513d6000823e601f3d908101601f191682016040526125b99190810190615aa1565b905060005b816040015151811015612672576000826040015182815181106125e3576125e3615364565b6020908102919091010151600b546040516323b872dd60e01b81526001600160a01b038a811660048301528981166024830152604482018490529293509116906323b872dd90606401600060405180830381600087803b15801561264657600080fd5b505af115801561265a573d6000803e3d6000fd5b5050505050808061266a906153bd565b9150506125be565b5050600060105550505050565b60008060008060005b60035481101561277d576000806003600101600360000184815481106126b0576126b0615364565b906000526020600020016040516126c7919061565f565b908152604051908190036020018120546303eba50760e01b82526001600160a01b038a8116600484015216906303eba50790602401604080518083038186803b15801561271357600080fd5b505afa158015612727573d6000803e3d6000fd5b505050506040513d601f19601f8201168201806040525081019061274b919061582b565b909250905061275a828661584f565b9450612766818561584f565b935050508080612775906153bd565b915050612688565b509094909350915050565b3360009081526002602052604090205460ff166127b75760405162461bcd60e51b81526004016106a1906153d8565b600f5460405163bf442d2360e01b81526001600160a01b039091169063bf442d23906127f5908b908b908b908b908b908b908b908b90600401615b5a565b600060405180830381600087803b15801561280f57600080fd5b505af1158015612823573d6000803e3d6000fd5b505050505050505050505050565b6060600061283f8484615390565b6001600160401b03811115612856576128566146e7565b60405190808252806020026020018201604052801561288957816020015b60608152602001906001900390816128745790505b509050835b838110156121535760038054829081106128aa576128aa615364565b9060005260206000200180546128bf9061562a565b80601f01602080910402602001604051908101604052809291908181526020018280546128eb9061562a565b80156129385780601f1061290d57610100808354040283529160200191612938565b820191906000526020600020905b81548152906001019060200180831161291b57829003601f168201915b505050505082868361294a9190615390565b8151811061295a5761295a615364565b60200260200101819052508080612970906153bd565b91505061288e565b3360009081526002602052604090205460ff166129a75760405162461bcd60e51b81526004016106a1906153d8565b6000816001600160a01b03166306fdde036040518163ffffffff1660e01b815260040160006040518083038186803b1580156129e257600080fd5b505afa1580156129f6573d6000803e3d6000fd5b505050506040513d6000823e601f3d908101601f19168201604052612a1e9190810190615740565b90506003800181604051612a32919061549c565b9081526040519081900360200190205460ff1615612a925760405162461bcd60e51b815260206004820181905260248201527f48616e646c65723a204e6f64655479706520616c72656164792065786973747360448201526064016106a1565b610fb58183613cd5565b610fb58282613f41565b3360009081526002602052604090205460ff16612ad55760405162461bcd60e51b81526004016106a1906153d8565b6001600160a01b038116612b395760405162461bcd60e51b815260206004820152602560248201527f48616e646c65723a204164646f6e2063616e6e6f742062652061646472657373604482015264207a65726f60d81b60648201526084016106a1565b600f80546001600160a01b0319166001600160a01b0392909216919091179055565b60606000612b698484615390565b6001600160401b03811115612b8057612b806146e7565b604051908082528060200260200182016040528015612bb357816020015b6060815260200190600190039081612b9e5790505b509050835b83811015612153576007805460089160009184908110612bda57612bda615364565b906000526020600020015481526020019081526020016000208054612bfe9061562a565b80601f0160208091040260200160405190810160405280929190818152602001828054612c2a9061562a565b8015612c775780601f10612c4c57610100808354040283529160200191612c77565b820191906000526020600020905b815481529060010190602001808311612c5a57829003601f168201915b5050505050828683612c899190615390565b81518110612c9957612c99615364565b60200260200101819052508080612caf906153bd565b915050612bb8565b3360009081526002602052604090205460ff16612ce65760405162461bcd60e51b81526004016106a1906153d8565b6001600160a01b038116612d485760405162461bcd60e51b8152602060048201526024808201527f48616e646c65723a204c6f6f742063616e6e6f742062652061646472657373206044820152637a65726f60e01b60648201526084016106a1565b600c80546001600160a01b0319166001600160a01b0392909216919091179055565b6001600160a01b038216331480612d9057503360009081526002602052604090205460ff165b612dac5760405162461bcd60e51b81526004016106a1906157e7565b604051600690612dbd90839061549c565b9081526040519081900360200190205460ff16612dec5760405162461bcd60e51b81526004016106a1906154b8565b600080600360010183604051612e02919061549c565b908152604051908190036020018120546318c880ef60e21b82526001600160a01b038681166004840152169063632203bc906024016040805180830381600087803b158015612e5057600080fd5b505af1158015612e64573d6000803e3d6000fd5b505050506040513d601f19601f82011682018060405250810190612e88919061582b565b600d5460405163fbe12f1d60e01b81529294509092506001600160a01b03169063fbe12f1d9061091c908890889087908790600401615867565b3360009081526002602052604090205460ff16612ef15760405162461bcd60e51b81526004016106a1906153d8565b600c546040516343836c7f60e11b81526001600160a01b0390911690638706d8fe9061235b908690859087906004016155ab565b3360009081526002602052604090205460ff16612f545760405162461bcd60e51b81526004016106a1906153d8565b600e5460405163ec52dc1160e01b81526001600160a01b039091169063ec52dc1190610c0190899089908990899089908990600401615bb1565b3360009081526002602052604090205460ff16612fbd5760405162461bcd60e51b81526004016106a1906153d8565b6001600160a01b03811661301f5760405162461bcd60e51b815260206004820152602360248201527f48616e646c65723a204e66742063616e6e6f742062652061646472657373207a60448201526265726f60e81b60648201526084016106a1565b600b80546001600160a01b0319166001600160a01b0392909216919091179055565b3360009081526002602052604090205460ff166130705760405162461bcd60e51b81526004016106a1906153d8565b6001600160a01b0381166130d25760405162461bcd60e51b8152602060048201526024808201527f48616e646c65723a20506c6f742063616e6e6f742062652061646472657373206044820152637a65726f60e01b60648201526084016106a1565b600e80546001600160a01b0319166001600160a01b0392909216919091179055565b6001600160a01b03861633148061311a57503360009081526002602052604090205460ff165b6131365760405162461bcd60e51b81526004016106a1906157e7565b600f5460405163018d0c5d60e21b81526001600160a01b03909116906306343174906131689087908790600401615890565b60206040518083038186803b15801561318057600080fd5b505afa158015613194573d6000803e3d6000fd5b505050506040513d601f19601f820116820180604052508101906131b891906158a4565b6132135760405162461bcd60e51b815260206004820152602660248201527f48616e646c65723a2057617465727061636b207479706520646f65736e27742060448201526565786973747360d01b60648201526084016106a1565b81518551146132345760405162461bcd60e51b81526004016106a1906154ef565b600f54604051632f04dc6960e21b81526000916001600160a01b03169063bc1371a4906132679088908890600401615890565b60206040518083038186803b15801561327f57600080fd5b505afa158015613293573d6000803e3d6000fd5b505050506040513d601f19601f820116820180604052508101906132b79190615bf8565b90506000805b875181101561374357600b5488516000916001600160a01b03169063b3ad18e2908b90859081106132f0576132f0615364565b60200260200101516040518263ffffffff1660e01b815260040161331691815260200190565b60006040518083038186803b15801561332e57600080fd5b505afa158015613342573d6000803e3d6000fd5b505050506040513d6000823e601f3d908101601f1916820160405261336a9190810190615740565b9050600380018160405161337e919061549c565b9081526040519081900360200190205460ff1661339d5761339d615c39565b6040805160018082528183019092526000916020808301908036833750506040805160018082528183019092529293506000929150602080830190803683370190505090508a84815181106133f4576133f4615364565b60200260200101518260008151811061340f5761340f615364565b60200260200101818152505087848151811061342d5761342d615364565b60200260200101518160008151811061344857613448615364565b602090810291909101015260405160049061346490859061549c565b908152602001604051809103902060009054906101000a90046001600160a01b03166001600160a01b0316632a0b806d8d848960000151856040518563ffffffff1660e01b81526004016134bb9493929190615c4f565b600060405180830381600087803b1580156134d557600080fd5b505af11580156134e9573d6000803e3d6000fd5b5050600e548d51600093506001600160a01b0390911691506382da6739908e908890811061351957613519615364565b60200260200101516040518263ffffffff1660e01b815260040161353f91815260200190565b60006040518083038186803b15801561355757600080fd5b505afa15801561356b573d6000803e3d6000fd5b505050506040513d6000823e601f3d908101601f191682016040526135939190810190615d0a565b60a0015190506003600101846040516135ac919061549c565b908152604051908190036020019020548c516001600160a01b0390911690638e7614d7908f908f90899081106135e4576135e4615364565b6020026020010151848d8a815181106135ff576135ff615364565b60209081029190910101516040516001600160e01b031960e087901b1681526001600160a01b039094166004850152602484019290925260448301526064820152608401600060405180830381600087803b15801561365d57600080fd5b505af1158015613671573d6000803e3d6000fd5b5050505088858151811061368757613687615364565b6020908102919091010151600f54604051633da607a560e01b81526001600160a01b0390911690633da607a5906136c6908f908f908a9060040161597c565b60206040518083038186803b1580156136de57600080fd5b505afa1580156136f2573d6000803e3d6000fd5b505050506040513d601f19601f8201168201806040525081019061371691906155de565b61372091906159a2565b61372a908761584f565b955050505050808061373b906153bd565b9150506132bd565b50600f546040516304915be160e51b81526001600160a01b039091169063922b7c209061377c908a908a908a9042908b906004016159c1565b600060405180830381600087803b15801561379657600080fd5b505af11580156137aa573d6000803e3d6000fd5b5050600d54604051634ca47d4560e11b81526001600160a01b039091169250639948fa8a91506137e4908c908c90869089906004016155f7565b600060405180830381600087803b1580156137fe57600080fd5b505af1158015613812573d6000803e3d6000fd5b50505050505050505050505050565b3360009081526002602052604090205460ff166138505760405162461bcd60e51b81526004016106a1906153d8565b600081116138ae5760405162461bcd60e51b815260206004820152602560248201527f48616e646c65723a20436f756e74206d75737420626520677265617465722074604482015264068616e20360dc1b60648201526084016106a1565b60005b81811015613a975760006138c786866001614324565b905080516001146138da576138da615c39565b6040516004906138eb90889061549c565b9081526040519081900360200181205463e3d7e67160e01b82526001600160a01b03169063e3d7e6719061392790889085908990600401615798565b600060405180830381600087803b15801561394157600080fd5b505af1158015613955573d6000803e3d6000fd5b5050600e5460405163dde8bd0d60e01b8152336004820152600093506001600160a01b03909116915063dde8bd0d90602401602060405180830381600087803b1580156139a157600080fd5b505af11580156139b5573d6000803e3d6000fd5b505050506040513d601f19601f820116820180604052508101906139d991906155de565b600e5483519192506001600160a01b0316906360c458b39033908590600090613a0457613a04615364565b6020026020010151846040518463ffffffff1660e01b8152600401613a2b93929190615a01565b600060405180830381600087803b158015613a4557600080fd5b505af1158015613a59573d6000803e3d6000fd5b50505050613a823383600081518110613a7457613a74615364565b602002602001015183613af7565b50508080613a8f906153bd565b9150506138b1565b5083604051613aa6919061549c565b6040518091039020836001600160a01b03167f3c8006180c21a8a3a5910855aaa92c2043f55f5a5cc6d89097bfafdfc5fe18ec83604051613ae991815260200190565b60405180910390a350505050565b600b546040516359d68c7160e11b8152600481018490526000916001600160a01b03169063b3ad18e29060240160006040518083038186803b158015613b3c57600080fd5b505afa158015613b50573d6000803e3d6000fd5b505050506040513d6000823e601f3d908101601f19168201604052613b789190810190615740565b90506003800181604051613b8c919061549c565b9081526040519081900360200190205460ff16613beb5760405162461bcd60e51b815260206004820152601f60248201527f48616e646c65723a204e6f64655479706520646f65736e27742065786973740060448201526064016106a1565b613c22848484600360010185604051613c04919061549c565b908152604051908190036020019020546001600160a01b031661443e565b50505050565b6000828152600a602052604090205460ff1615613c5e5760008281526008602090815260409091208251610b3e928401906144ec565b6000828152600a60209081526040808320805460ff19166001179055600882529091208251613c8f928401906144ec565b5050600780546000838152600960205260408120829055600182018355919091527fa66cc928b5edb82af9bd49922954155ab7b0942694bea4ce44661d9a8736c6880155565b604051600690613ce690849061549c565b9081526040519081900360200190205460ff1615613d1257806003600101836040516109d8919061549c565b60016003800183604051613d26919061549c565b908152604051908190036020018120805492151560ff19909316929092179091558190600490613d5790859061549c565b90815260405190819003602001812080546001600160a01b03939093166001600160a01b03199093169290921790915560035490600590613d9990859061549c565b9081526040516020918190038201902091909155600380546001810182556000919091528351610b3e927fc2575a0e9e593c00f959f8c92f12db2869c3395a3b0502d05e2516446f71f85b909201918501906144ec565b60008054610100900460ff1615613e37578160ff166001148015613e135750303b155b613e2f5760405162461bcd60e51b81526004016106a190615dc5565b506000919050565b60005460ff808416911610613e5e5760405162461bcd60e51b81526004016106a190615dc5565b506000805460ff191660ff92909216919091179055600190565b919050565b600054610100900460ff16613ee85760405162461bcd60e51b815260206004820152602b60248201527f496e697469616c697a61626c653a20636f6e7472616374206973206e6f74206960448201526a6e697469616c697a696e6760a81b60648201526084016106a1565b6001805480820182557fb10e2d527612073b26eecdfd717e6a320cf44b4afac2b0732d9fcbe2b7fa0cf60180546001600160a01b031916339081179091556000908152600260205260409020805460ff19169091179055565b8051825114613f625760405162461bcd60e51b81526004016106a1906154ef565b600c5460405163a933c20f60e01b815260609182916001600160a01b039091169063a933c20f90613f999033908890600401615774565b600060405180830381600087803b158015613fb357600080fd5b505af1158015613fc7573d6000803e3d6000fd5b505050506040513d6000823e601f3d908101601f19168201604052613fef9190810190615e13565b845182519294509092501461400657614006615c39565b60005b825181101561431d57600061403984838151811061402957614029615364565b6020026020010151336001614324565b9050805160011461404c5761404c615c39565b6000600360010185848151811061406557614065615364565b602002602001015160405161407a919061549c565b908152602001604051809103902060009054906101000a90046001600160a01b03169050806001600160a01b031663fd38450433848787815181106140c1576140c1615364565b60200260200101516040518463ffffffff1660e01b81526004016140e793929190615798565b600060405180830381600087803b15801561410157600080fd5b505af1158015614115573d6000803e3d6000fd5b5050505085838151811061412b5761412b615364565b6020026020010151600014156141d757600e5460405163dde8bd0d60e01b81523360048201526001600160a01b039091169063dde8bd0d90602401602060405180830381600087803b15801561418057600080fd5b505af1158015614194573d6000803e3d6000fd5b505050506040513d601f19601f820116820180604052508101906141b891906155de565b8684815181106141ca576141ca615364565b6020026020010181815250505b600e5482516001600160a01b03909116906360c458b3903390859060009061420157614201615364565b602002602001015189878151811061421b5761421b615364565b60200260200101516040518463ffffffff1660e01b815260040161424193929190615a01565b600060405180830381600087803b15801561425b57600080fd5b505af115801561426f573d6000803e3d6000fd5b505050506142a4338360008151811061428a5761428a615364565b6020026020010151888681518110610b0c57610b0c615364565b8483815181106142b6576142b6615364565b60200260200101516040516142cb919061549c565b604051908190038120600182529033907f3c8006180c21a8a3a5910855aaa92c2043f55f5a5cc6d89097bfafdfc5fe18ec9060200160405180910390a350508080614315906153bd565b915050614009565b5050505050565b60606003800184604051614338919061549c565b9081526040519081900360200190205460ff166143675760405162461bcd60e51b81526004016106a1906154b8565b600b54604051635181db2b60e01b81526000916001600160a01b031690635181db2b9061439c90889088908890600401615e6c565b600060405180830381600087803b1580156143b657600080fd5b505af11580156143ca573d6000803e3d6000fd5b505050506040513d6000823e601f3d908101601f191682016040526143f29190810190615e9a565b905060005b81518110156144355761442382828151811061441557614415615364565b602002602001015187613c28565b8061442d816153bd565b9150506143f7565b50949350505050565b600e54604051636c5a67e960e01b8152600481018490526001600160a01b03838116926397e7a1cf92889288921690636c5a67e99060240160006040518083038186803b15801561448e57600080fd5b505afa1580156144a2573d6000803e3d6000fd5b505050506040513d6000823e601f3d908101601f191682016040526144ca9190810190615d0a565b608001516040518463ffffffff1660e01b81526004016112bd93929190615a01565b8280546144f89061562a565b90600052602060002090601f01602090048101928261451a5760008555614560565b82601f1061453357805160ff1916838001178555614560565b82800160010185558215614560579182015b82811115614560578251825591602001919060010190614545565b5061456c929150614570565b5090565b5b8082111561456c5760008155600101614571565b60006020828403121561459757600080fd5b5035919050565b6001600160a01b0381168114611bf857600080fd5b8035613e788161459e565b6000602082840312156145d057600080fd5b81356145db8161459e565b9392505050565b60008083601f8401126145f457600080fd5b5081356001600160401b0381111561460b57600080fd5b60208301915083602082850101111561462357600080fd5b9250929050565b60008083601f84011261463c57600080fd5b5081356001600160401b0381111561465357600080fd5b6020830191508360208260051b850101111561462357600080fd5b60008060008060006060868803121561468657600080fd5b85356001600160401b038082111561469d57600080fd5b6146a989838a016145e2565b90975095506020880135945060408801359150808211156146c957600080fd5b506146d68882890161462a565b969995985093965092949392505050565b634e487b7160e01b600052604160045260246000fd5b60405160c081016001600160401b038111828210171561471f5761471f6146e7565b60405290565b604051601f8201601f191681016001600160401b038111828210171561474d5761474d6146e7565b604052919050565b60006001600160401b0382111561476e5761476e6146e7565b50601f01601f191660200190565b600082601f83011261478d57600080fd5b81356147a061479b82614755565b614725565b8181528460208386010111156147b557600080fd5b816020850160208301376000918101602001919091529392505050565b600080604083850312156147e557600080fd5b82356001600160401b038111156147fb57600080fd5b6148078582860161477c565b92505060208301356148188161459e565b809150509250929050565b60006001600160401b0382111561483c5761483c6146e7565b5060051b60200190565b600082601f83011261485757600080fd5b8135602061486761479b83614823565b82815260059290921b8401810191818101908684111561488657600080fd5b8286015b848110156148a1578035835291830191830161488a565b509695505050505050565b600082601f8301126148bd57600080fd5b813560206148cd61479b83614823565b82815260059290921b840181019181810190868411156148ec57600080fd5b8286015b848110156148a15780356001600160401b0381111561490f5760008081fd5b61491d8986838b0101614846565b8452509183019183016148f0565b6000806040838503121561493e57600080fd5b82356001600160401b038082111561495557600080fd5b61496186838701614846565b9350602085013591508082111561497757600080fd5b50614984858286016148ac565b9150509250929050565b600080600080600060a086880312156149a657600080fd5b85356149b18161459e565b945060208601356149c18161459e565b935060408601356001600160401b03808211156149dd57600080fd5b6149e989838a0161477c565b9450606088013593506080880135915080821115614a0657600080fd5b50614a138882890161477c565b9150509295509295909350565b60005b83811015614a3b578181015183820152602001614a23565b83811115613c225750506000910152565b60008151808452614a64816020860160208601614a20565b601f01601f19169290920160200192915050565b600081518084526020808501808196508360051b8101915082860160005b85811015614ac0578284038952614aae848351614a4c565b98850198935090840190600101614a96565b5091979650505050505050565b6020815260006145db6020830184614a78565b6020815260006145db6020830184614a4c565b8015158114611bf857600080fd5b60008060408385031215614b1457600080fd5b8235614b1f8161459e565b9150602083013561481881614af3565b60008060008060808587031215614b4557600080fd5b84356001600160401b0380821115614b5c57600080fd5b614b688883890161477c565b955060208701359150614b7a8261459e565b90935060408601359080821115614b9057600080fd5b614b9c88838901614846565b93506060870135915080821115614bb257600080fd5b50614bbf8782880161477c565b91505092959194509250565b60006020808385031215614bde57600080fd5b82356001600160401b03811115614bf457600080fd5b8301601f81018513614c0557600080fd5b8035614c1361479b82614823565b81815260059190911b82018301908381019087831115614c3257600080fd5b928401925b82841015614c59578335614c4a8161459e565b82529284019290840190614c37565b979650505050505050565b60008060408385031215614c7757600080fd5b8235614c828161459e565b915060208301356148188161459e565b600060208284031215614ca457600080fd5b81356001600160401b03811115614cba57600080fd5b614cc68482850161477c565b949350505050565b600082601f830112614cdf57600080fd5b81356020614cef61479b83614823565b82815260059290921b84018101918181019086841115614d0e57600080fd5b8286015b848110156148a15780356001600160401b03811115614d315760008081fd5b614d3f8986838b010161477c565b845250918301918301614d12565b60008060008060008060008060e0898b031215614d6957600080fd5b614d72896145b3565b9750614d8060208a016145b3565b965060408901356001600160401b0380821115614d9c57600080fd5b614da88c838d01614cce565b975060608b0135915080821115614dbe57600080fd5b614dca8c838d016148ac565b965060808b0135915080821115614de057600080fd5b614dec8c838d016145e2565b909650945060a08b0135915080821115614e0557600080fd5b614e118c838d016148ac565b935060c08b0135915080821115614e2757600080fd5b50614e348b828c0161477c565b9150509295985092959890939650565b60008060008060808587031215614e5a57600080fd5b8435614e658161459e565b93506020850135614e758161459e565b925060408501356001600160401b0380821115614e9157600080fd5b614e9d88838901614cce565b93506060870135915080821115614eb357600080fd5b50614bbf878288016148ac565b60008060408385031215614ed357600080fd5b50508035926020909101359150565b600081518084526020808501945080840160005b83811015614f1257815187529582019590820190600101614ef6565b509495945050505050565b6020815260006145db6020830184614ee2565b600080600060608486031215614f4557600080fd5b8335614f508161459e565b92506020840135614f608161459e565b929592945050506040919091013590565b600080600060608486031215614f8657600080fd5b8335614f918161459e565b925060208401356001600160401b0380821115614fad57600080fd5b614fb98783880161477c565b93506040860135915080821115614fcf57600080fd5b50614fdc8682870161477c565b9150509250925092565b60008060008060008060008060a0898b03121561500257600080fd5b88356001600160401b038082111561501957600080fd5b6150258c838d016145e2565b909a50985060208b0135975060408b0135965060608b013591508082111561504c57600080fd5b6150588c838d0161462a565b909650945060808b013591508082111561507157600080fd5b5061507e8b828c0161462a565b999c989b5096995094979396929594505050565b600080604083850312156150a557600080fd5b82356001600160401b03808211156150bc57600080fd5b6150c886838701614846565b935060208501359150808211156150de57600080fd5b5061498485828601614846565b60008060006060848603121561510057600080fd5b833561510b8161459e565b9250602084013561511b8161459e565b915060408401356001600160401b0381111561513657600080fd5b614fdc8682870161477c565b60008060006060848603121561515757600080fd5b83356001600160401b0381111561516d57600080fd5b6151798682870161477c565b9350506020840135614f608161459e565b60008060008060008060c087890312156151a357600080fd5b86356001600160401b03808211156151ba57600080fd5b6151c68a838b0161477c565b9750602089013596506040890135955060608901359150808211156151ea57600080fd5b506151f789828a01614cce565b9350506080870135915060a087013590509295509295509295565b600080600080600080600060c0888a03121561522d57600080fd5b615236886145b3565b9650615244602089016145b3565b955060408801356001600160401b038082111561526057600080fd5b61526c8b838c01614846565b965060608a013591508082111561528257600080fd5b61528e8b838c016145e2565b909650945060808a01359150808211156152a757600080fd5b6152b38b838c01614846565b935060a08a01359150808211156152c957600080fd5b506152d68a828b0161477c565b91505092959891949750929550565b600080600080608085870312156152fb57600080fd5b84356001600160401b038082111561531257600080fd5b61531e8883890161477c565b9550602087013591506153308261459e565b9093506040860135908082111561534657600080fd5b506153538782880161477c565b949793965093946060013593505050565b634e487b7160e01b600052603260045260246000fd5b634e487b7160e01b600052601160045260246000fd5b6000828210156153a2576153a261537a565b500390565b634e487b7160e01b600052603160045260246000fd5b60006000198214156153d1576153d161537a565b5060010190565b60208082526012908201527127bbb732b9399d1027b7363c9027bbb732b960711b604082015260600190565b81835281816020850137506000828201602090810191909152601f909101601f19169091010190565b81835260006001600160fb1b0383111561544657600080fd5b8260051b8083602087013760009401602001938452509192915050565b606081526000615477606083018789615404565b856020840152828103604084015261549081858761542d565b98975050505050505050565b600082516154ae818460208701614a20565b9190910192915050565b6020808252601e908201527f48616e646c65723a204e6f64655479706520646f65736e742065786973740000604082015260600190565b60208082526018908201527f48616e646c65723a204c656e677468206d69736d617463680000000000000000604082015260600190565b60006060820160018060a01b0386168352602060608185015281865180845260808601915060808160051b870101935082880160005b8281101561558a57607f19888703018452615578868351614ee2565b9550928401929084019060010161555c565b505050505082810360408401526155a18185614ee2565b9695505050505050565b6060815260006155be6060830186614a4c565b6020830194909452506001600160a01b0391909116604090910152919050565b6000602082840312156155f057600080fd5b5051919050565b6001600160a01b03858116825284166020820152604081018390526080606082018190526000906155a190830184614a4c565b600181811c9082168061563e57607f821691505b60208210811415611fa357634e487b7160e01b600052602260045260246000fd5b600080835481600182811c91508083168061567b57607f831692505b602080841082141561569b57634e487b7160e01b86526022600452602486fd5b8180156156af57600181146156c0576156ed565b60ff198616895284890196506156ed565b60008a81526020902060005b868110156156e55781548b8201529085019083016156cc565b505084890196505b509498975050505050505050565b600082601f83011261570c57600080fd5b815161571a61479b82614755565b81815284602083860101111561572f57600080fd5b614cc6826020830160208701614a20565b60006020828403121561575257600080fd5b81516001600160401b0381111561576857600080fd5b614cc6848285016156fb565b6001600160a01b0383168152604060208201819052600090614cc690830184614ee2565b6001600160a01b03841681526060602082018190526000906157bc90830185614ee2565b82810360408401526155a18185614a4c565b828152604060208201526000614cc66040830184614a4c565b60208082526024908201527f48616e646c65723a20446f6e74206d6573732077697468206f7468657220636c60408201526361696d7360e01b606082015260800190565b6000806040838503121561583e57600080fd5b505080516020909101519092909150565b600082198211156158625761586261537a565b500190565b6001600160a01b0394851681529290931660208301526040820152606081019190915260800190565b602081526000614cc6602083018486615404565b6000602082840312156158b657600080fd5b81516145db81614af3565b600060c082840312156158d357600080fd5b60405160c081018181106001600160401b03821117156158f5576158f56146e7565b8060405250825181526020830151602082015260408301516040820152606083015160608201526080830151608082015260a083015160a08201528091505092915050565b6001600160a01b038616815260a06020820181905260009061595e90830187614ee2565b85604084015284606084015282810360808401526154908185614ee2565b604081526000615990604083018587615404565b82810360208401526155a18185614a4c565b60008160001904831182151516156159bc576159bc61537a565b500290565b6080815260006159d46080830188614ee2565b82810360208401526159e7818789615404565b905084604084015282810360608401526154908185614ee2565b6001600160a01b039390931683526020830191909152604082015260600190565b6001600160a01b0383168152604060208201819052600090614cc690830184614a4c565b600082601f830112615a5757600080fd5b81516020615a6761479b83614823565b82815260059290921b84018101918181019086841115615a8657600080fd5b8286015b848110156148a15780518352918301918301615a8a565b600060208284031215615ab357600080fd5b81516001600160401b0380821115615aca57600080fd5b9083019060608286031215615ade57600080fd5b604051606081018181108382111715615af957615af96146e7565b604052825182811115615b0b57600080fd5b615b17878286016156fb565b8252506020830151615b288161459e565b6020820152604083015182811115615b3f57600080fd5b615b4b87828601615a46565b60408301525095945050505050565b60a081526000615b6e60a083018a8c615404565b8860208401528760408401528281036060840152615b8d81878961542d565b90508281036080840152615ba281858761542d565b9b9a5050505050505050505050565b60c081526000615bc460c0830189614a4c565b8760208401528660408401528281036060840152615be28187614a78565b6080840195909552505060a00152949350505050565b600060208284031215615c0a57600080fd5b604051602081018181106001600160401b0382111715615c2c57615c2c6146e7565b6040529151825250919050565b634e487b7160e01b600052600160045260246000fd5b6001600160a01b0385168152608060208201819052600090615c7390830186614ee2565b8460408401528281036060840152614c598185614ee2565b600082601f830112615c9c57600080fd5b81516020615cac61479b83614823565b82815260059290921b84018101918181019086841115615ccb57600080fd5b8286015b848110156148a15780516001600160401b03811115615cee5760008081fd5b615cfc8986838b01016156fb565b845250918301918301615ccf565b600060208284031215615d1c57600080fd5b81516001600160401b0380821115615d3357600080fd5b9083019060c08286031215615d4757600080fd5b615d4f6146fd565b825182811115615d5e57600080fd5b615d6a878286016156fb565b8252506020830151602082015260408301516040820152606083015182811115615d9357600080fd5b615d9f87828601615c8b565b6060830152506080830151608082015260a083015160a082015280935050505092915050565b6020808252602e908201527f496e697469616c697a61626c653a20636f6e747261637420697320616c72656160408201526d191e481a5b9a5d1a585b1a5e995960921b606082015260800190565b60008060408385031215615e2657600080fd5b82516001600160401b0380821115615e3d57600080fd5b615e4986838701615c8b565b93506020850151915080821115615e5f57600080fd5b5061498485828601615c8b565b606081526000615e7f6060830186614a4c565b6001600160a01b039490941660208301525060400152919050565b600060208284031215615eac57600080fd5b81516001600160401b03811115615ec257600080fd5b614cc684828501615a4656fea264697066735822122029c5f11e8245d2ed3d9e46a6044206425d466d4d2950adfd81ea553e18a87d5c64736f6c63430008090033",
  "linkReferences": {},
  "deployedLinkReferences": {}
}