{
  "_format": "hh-sol-artifact-1",
  "contractName": "Handler_NFTFacet",
  "sourceName": "contracts/handler/NFTFacet.sol",
  "abi": [
    {
      "inputs": [
        {
          "internalType": "address",
          "name": "from",
          "type": "address"
        },
        {
          "internalType": "address",
          "name": "to",
          "type": "address"
        },
        {
          "internalType": "uint256",
          "name": "tokenId",
          "type": "uint256"
        }
      ],
      "name": "nodeTransferFrom",
      "outputs": [],
      "stateMutability": "nonpayable",
      "type": "function"
    },
    {
      "inputs": [
        {
          "internalType": "address",
          "name": "from",
          "type": "address"
        },
        {
          "internalType": "address",
          "name": "to",
          "type": "address"
        },
        {
          "internalType": "uint256",
          "name": "plotTokenId",
          "type": "uint256"
        }
      ],
      "name": "plotTransferFrom",
      "outputs": [],
      "stateMutability": "nonpayable",
      "type": "function"
    }
  ],
  "bytecode": "0x608060405234801561001057600080fd5b50610735806100206000396000f3fe608060405234801561001057600080fd5b50600436106100365760003560e01c8063b836c5f51461003b578063be78ae5b14610050575b600080fd5b61004e6100493660046103d1565b610063565b005b61004e61005e3660046103d1565b6101f4565b6008546000906001600160a01b031633146100b95760405162461bcd60e51b815260206004820152601160248201527012185b991b195c8e8813db9b1e481b999d607a1b60448201526064015b60405180910390fd5b600082815260058201602052604090819020905160018301916100db91610412565b908152604051908190036020018120546323b872dd60e01b82526001600160a01b03868116600484015285811660248401526044830185905216906323b872dd90606401600060405180830381600087803b15801561013957600080fd5b505af115801561014d573d6000803e3d6000fd5b50505050600061017a7f5e59f641de6905c7677c89d9f8b917c2522dbee0e1d8a51f6a380234830a392190565b600b83015481546040516360c458b360e01b81526001600160a01b03888116600483015260248201889052604482019290925292935016906360c458b390606401600060405180830381600087803b1580156101d557600080fd5b505af11580156101e9573d6000803e3d6000fd5b505050505050505050565b7f5e59f641de6905c7677c89d9f8b917c2522dbee0e1d8a51f6a380234830a3921818155600b548291906000906001600160a01b0316331461026d5760405162461bcd60e51b815260206004820152601260248201527112185b991b195c8e8813db9b1e48141b1bdd60721b60448201526064016100b0565b600b810154604051633483413b60e01b8152600481018690526000916001600160a01b031690633483413b9060240160006040518083038186803b1580156102b457600080fd5b505afa1580156102c8573d6000803e3d6000fd5b505050506040513d6000823e601f3d908101601f191682016040526102f091908101906105ae565b905060005b8160400151518110156103ab5760008260400151828151811061031a5761031a6106c0565b602090810291909101015160088501546040516323b872dd60e01b81526001600160a01b038c811660048301528b81166024830152604482018490529293509116906323b872dd90606401600060405180830381600087803b15801561037f57600080fd5b505af1158015610393573d6000803e3d6000fd5b505050505080806103a3906106d6565b9150506102f5565b505060009091555050505050565b6001600160a01b03811681146103ce57600080fd5b50565b6000806000606084860312156103e657600080fd5b83356103f1816103b9565b92506020840135610401816103b9565b929592945050506040919091013590565b600080835481600182811c91508083168061042e57607f831692505b602080841082141561044e57634e487b7160e01b86526022600452602486fd5b8180156104625760018114610473576104a0565b60ff198616895284890196506104a0565b60008a81526020902060005b868110156104985781548b82015290850190830161047f565b505084890196505b509498975050505050505050565b634e487b7160e01b600052604160045260246000fd5b6040516060810167ffffffffffffffff811182821017156104e7576104e76104ae565b60405290565b604051601f8201601f1916810167ffffffffffffffff81118282101715610516576105166104ae565b604052919050565b8051610529816103b9565b919050565b600082601f83011261053f57600080fd5b8151602067ffffffffffffffff82111561055b5761055b6104ae565b8160051b61056a8282016104ed565b928352848101820192828101908785111561058457600080fd5b83870192505b848310156105a35782518252918301919083019061058a565b979650505050505050565b600060208083850312156105c157600080fd5b825167ffffffffffffffff808211156105d957600080fd5b90840190606082870312156105ed57600080fd5b6105f56104c4565b82518281111561060457600080fd5b8301601f8101881361061557600080fd5b805183811115610627576106276104ae565b610639601f8201601f191687016104ed565b818152898783850101111561064d57600080fd5b60005b8281101561066b578381018801518282018901528701610650565b8281111561067c5760008884840101525b5083525061068d905083850161051e565b8482015260408301519350818411156106a557600080fd5b6106b18785850161052e565b60408201529695505050505050565b634e487b7160e01b600052603260045260246000fd5b60006000198214156106f857634e487b7160e01b600052601160045260246000fd5b506001019056fea2646970667358221220b04354a461bfbc803894010e81142b3ac5d7ac2cf04016089f944518fbc3d8ee64736f6c63430008090033",
  "linkReferences": {},
  "deployedLinkReferences": {}
}