{
  "_format": "hh-sol-artifact-1",
  "contractName": "Spring",
  "sourceName": "contracts/Spring.sol",
  "abi": [
    {
      "inputs": [],
      "stateMutability": "nonpayable",
      "type": "constructor"
    },
    {
      "anonymous": false,
      "inputs": [
        {
          "indexed": true,
          "internalType": "address",
          "name": "owner",
          "type": "address"
        },
        {
          "indexed": true,
          "internalType": "address",
          "name": "spender",
          "type": "address"
        },
        {
          "indexed": false,
          "internalType": "uint256",
          "name": "value",
          "type": "uint256"
        }
      ],
      "name": "Approval",
      "type": "event"
    },
    {
      "anonymous": false,
      "inputs": [
        {
          "indexed": true,
          "internalType": "address",
          "name": "from",
          "type": "address"
        },
        {
          "indexed": true,
          "internalType": "address",
          "name": "to",
          "type": "address"
        },
        {
          "indexed": false,
          "internalType": "uint256",
          "name": "value",
          "type": "uint256"
        }
      ],
      "name": "Transfer",
      "type": "event"
    },
    {
      "inputs": [
        {
          "internalType": "address",
          "name": "_new",
          "type": "address"
        },
        {
          "internalType": "bool",
          "name": "_change",
          "type": "bool"
        }
      ],
      "name": "addOwner",
      "outputs": [],
      "stateMutability": "nonpayable",
      "type": "function"
    },
    {
      "inputs": [
        {
          "internalType": "address",
          "name": "owner",
          "type": "address"
        },
        {
          "internalType": "address",
          "name": "spender",
          "type": "address"
        }
      ],
      "name": "allowance",
      "outputs": [
        {
          "internalType": "uint256",
          "name": "",
          "type": "uint256"
        }
      ],
      "stateMutability": "view",
      "type": "function"
    },
    {
      "inputs": [
        {
          "internalType": "address",
          "name": "spender",
          "type": "address"
        },
        {
          "internalType": "uint256",
          "name": "amount",
          "type": "uint256"
        }
      ],
      "name": "approve",
      "outputs": [
        {
          "internalType": "bool",
          "name": "",
          "type": "bool"
        }
      ],
      "stateMutability": "nonpayable",
      "type": "function"
    },
    {
      "inputs": [
        {
          "internalType": "address",
          "name": "account",
          "type": "address"
        }
      ],
      "name": "balanceOf",
      "outputs": [
        {
          "internalType": "uint256",
          "name": "",
          "type": "uint256"
        }
      ],
      "stateMutability": "view",
      "type": "function"
    },
    {
      "inputs": [
        {
          "internalType": "address",
          "name": "",
          "type": "address"
        }
      ],
      "name": "blacklist",
      "outputs": [
        {
          "internalType": "bool",
          "name": "",
          "type": "bool"
        }
      ],
      "stateMutability": "view",
      "type": "function"
    },
    {
      "inputs": [],
      "name": "decimals",
      "outputs": [
        {
          "internalType": "uint8",
          "name": "",
          "type": "uint8"
        }
      ],
      "stateMutability": "view",
      "type": "function"
    },
    {
      "inputs": [
        {
          "internalType": "address",
          "name": "spender",
          "type": "address"
        },
        {
          "internalType": "uint256",
          "name": "subtractedValue",
          "type": "uint256"
        }
      ],
      "name": "decreaseAllowance",
      "outputs": [
        {
          "internalType": "bool",
          "name": "",
          "type": "bool"
        }
      ],
      "stateMutability": "nonpayable",
      "type": "function"
    },
    {
      "inputs": [],
      "name": "getOwnersSize",
      "outputs": [
        {
          "internalType": "uint256",
          "name": "",
          "type": "uint256"
        }
      ],
      "stateMutability": "view",
      "type": "function"
    },
    {
      "inputs": [
        {
          "internalType": "address",
          "name": "spender",
          "type": "address"
        },
        {
          "internalType": "uint256",
          "name": "addedValue",
          "type": "uint256"
        }
      ],
      "name": "increaseAllowance",
      "outputs": [
        {
          "internalType": "bool",
          "name": "",
          "type": "bool"
        }
      ],
      "stateMutability": "nonpayable",
      "type": "function"
    },
    {
      "inputs": [],
      "name": "isOpenToTrading",
      "outputs": [
        {
          "internalType": "bool",
          "name": "",
          "type": "bool"
        }
      ],
      "stateMutability": "view",
      "type": "function"
    },
    {
      "inputs": [
        {
          "internalType": "address",
          "name": "",
          "type": "address"
        }
      ],
      "name": "isOwner",
      "outputs": [
        {
          "internalType": "bool",
          "name": "",
          "type": "bool"
        }
      ],
      "stateMutability": "view",
      "type": "function"
    },
    {
      "inputs": [
        {
          "internalType": "uint256",
          "name": "_amount",
          "type": "uint256"
        },
        {
          "internalType": "address",
          "name": "_to",
          "type": "address"
        }
      ],
      "name": "mint",
      "outputs": [],
      "stateMutability": "nonpayable",
      "type": "function"
    },
    {
      "inputs": [],
      "name": "name",
      "outputs": [
        {
          "internalType": "string",
          "name": "",
          "type": "string"
        }
      ],
      "stateMutability": "view",
      "type": "function"
    },
    {
      "inputs": [
        {
          "internalType": "uint256",
          "name": "",
          "type": "uint256"
        }
      ],
      "name": "owners",
      "outputs": [
        {
          "internalType": "address",
          "name": "",
          "type": "address"
        }
      ],
      "stateMutability": "view",
      "type": "function"
    },
    {
      "inputs": [
        {
          "internalType": "address",
          "name": "_new",
          "type": "address"
        }
      ],
      "name": "removeOwner",
      "outputs": [],
      "stateMutability": "nonpayable",
      "type": "function"
    },
    {
      "inputs": [
        {
          "internalType": "address[]",
          "name": "_addresses",
          "type": "address[]"
        },
        {
          "internalType": "bool",
          "name": "_new",
          "type": "bool"
        }
      ],
      "name": "setBlacklist",
      "outputs": [],
      "stateMutability": "nonpayable",
      "type": "function"
    },
    {
      "inputs": [
        {
          "internalType": "bool",
          "name": "_isOpen",
          "type": "bool"
        }
      ],
      "name": "setOpenToTrading",
      "outputs": [],
      "stateMutability": "nonpayable",
      "type": "function"
    },
    {
      "inputs": [
        {
          "internalType": "address[]",
          "name": "_addresses",
          "type": "address[]"
        },
        {
          "internalType": "bool",
          "name": "_new",
          "type": "bool"
        }
      ],
      "name": "setWhitelist",
      "outputs": [],
      "stateMutability": "nonpayable",
      "type": "function"
    },
    {
      "inputs": [],
      "name": "symbol",
      "outputs": [
        {
          "internalType": "string",
          "name": "",
          "type": "string"
        }
      ],
      "stateMutability": "view",
      "type": "function"
    },
    {
      "inputs": [],
      "name": "totalSupply",
      "outputs": [
        {
          "internalType": "uint256",
          "name": "",
          "type": "uint256"
        }
      ],
      "stateMutability": "view",
      "type": "function"
    },
    {
      "inputs": [
        {
          "internalType": "address",
          "name": "to",
          "type": "address"
        },
        {
          "internalType": "uint256",
          "name": "amount",
          "type": "uint256"
        }
      ],
      "name": "transfer",
      "outputs": [
        {
          "internalType": "bool",
          "name": "",
          "type": "bool"
        }
      ],
      "stateMutability": "nonpayable",
      "type": "function"
    },
    {
      "inputs": [
        {
          "internalType": "address",
          "name": "from",
          "type": "address"
        },
        {
          "internalType": "address",
          "name": "to",
          "type": "address"
        },
        {
          "internalType": "uint256",
          "name": "amount",
          "type": "uint256"
        }
      ],
      "name": "transferFrom",
      "outputs": [
        {
          "internalType": "bool",
          "name": "",
          "type": "bool"
        }
      ],
      "stateMutability": "nonpayable",
      "type": "function"
    },
    {
      "inputs": [
        {
          "internalType": "address",
          "name": "",
          "type": "address"
        }
      ],
      "name": "whitelist",
      "outputs": [
        {
          "internalType": "bool",
          "name": "",
          "type": "bool"
        }
      ],
      "stateMutability": "view",
      "type": "function"
    }
  ],
  "bytecode": "0x60806040526007805460ff191690553480156200001b57600080fd5b5060405180604001604052806006815260200165537072696e6760d01b8152506040518060400160405280600381526020016229a82960e91b81525081600390805190602001906200006f929190620000e8565b50805162000085906004906020840190620000e8565b50506005805460018181019092557f036b6384b5eca791c62761152d0c79bb0604c104a5fb6f4eb0703f3154bb3db00180546001600160a01b031916339081179091556000908152600660205260409020805460ff1916909117905550620001cb565b828054620000f6906200018e565b90600052602060002090601f0160209004810192826200011a576000855562000165565b82601f106200013557805160ff191683800117855562000165565b8280016001018555821562000165579182015b828111156200016557825182559160200191906001019062000148565b506200017392915062000177565b5090565b5b8082111562000173576000815560010162000178565b600181811c90821680620001a357607f821691505b60208210811415620001c557634e487b7160e01b600052602260045260246000fd5b50919050565b6114ce80620001db6000396000f3fe608060405234801561001057600080fd5b506004361061014d5760003560e01c806339509351116100c357806395d89b411161007c57806395d89b41146102d65780639b19251a146102de578063a457c2d714610301578063a9059cbb14610314578063dd62ed3e14610327578063f9f92be41461033a57600080fd5b806339509351146102545780633c271a0514610267578063424564df1461027a578063518e32d31461028757806370a082311461029a57806394bf804d146102c357600080fd5b80630e85d1e3116101155780630e85d1e3146101e1578063173825d9146101f457806318160ddd1461020757806323b872dd1461020f5780632f54bf6e14610222578063313ce5671461024557600080fd5b8063025e7c271461015257806306d053951461018257806306fdde0314610197578063095ea7b3146101ac5780630c7b1d7b146101cf575b600080fd5b610165610160366004611164565b61035d565b6040516001600160a01b0390911681526020015b60405180910390f35b610195610190366004611192565b610387565b005b61019f6103d2565b60405161017991906111b4565b6101bf6101ba366004611220565b610464565b6040519015158152602001610179565b6005545b604051908152602001610179565b6101956101ef36600461124a565b61047c565b6101956102023660046112ce565b610522565b6002546101d3565b6101bf61021d3660046112e9565b6107a9565b6101bf6102303660046112ce565b60066020526000908152604090205460ff1681565b60405160128152602001610179565b6101bf610262366004611220565b6107cd565b61019561027536600461124a565b6107ef565b6007546101bf9060ff1681565b610195610295366004611325565b61088f565b6101d36102a83660046112ce565b6001600160a01b031660009081526020819052604090205490565b6101956102d1366004611358565b610a7b565b61019f610af5565b6101bf6102ec3660046112ce565b60096020526000908152604090205460ff1681565b6101bf61030f366004611220565b610b04565b6101bf610322366004611220565b610b7f565b6101d361033536600461137b565b610b8d565b6101bf6103483660046112ce565b60086020526000908152604090205460ff1681565b6005818154811061036d57600080fd5b6000918252602090912001546001600160a01b0316905081565b3360009081526006602052604090205460ff166103bf5760405162461bcd60e51b81526004016103b6906113a5565b60405180910390fd5b6007805460ff1916911515919091179055565b6060600380546103e1906113d1565b80601f016020809104026020016040519081016040528092919081815260200182805461040d906113d1565b801561045a5780601f1061042f5761010080835404028352916020019161045a565b820191906000526020600020905b81548152906001019060200180831161043d57829003601f168201915b5050505050905090565b600033610472818585610bb8565b5060019392505050565b3360009081526006602052604090205460ff166104ab5760405162461bcd60e51b81526004016103b6906113a5565b60005b8281101561051c5781600860008686858181106104cd576104cd61140c565b90506020020160208101906104e291906112ce565b6001600160a01b031681526020810191909152604001600020805460ff19169115159190911790558061051481611438565b9150506104ae565b50505050565b336001600160a01b031660056000815481106105405761054061140c565b6000918252602090912001546001600160a01b03161461059d5760405162461bcd60e51b815260206004820152601860248201527727bbb732b9399d1027b7363c9029bab832b91027bbb732b960411b60448201526064016103b6565b6001600160a01b03811660009081526006602052604090205460ff166105f95760405162461bcd60e51b815260206004820152601160248201527027bbb732b9399d102737ba1037bbb732b960791b60448201526064016103b6565b600560008154811061060d5761060d61140c565b6000918252602090912001546001600160a01b038281169116141561067e5760405162461bcd60e51b815260206004820152602160248201527f4f776e6572733a2043616e6e6f742072656d6f7665207375706572206f776e656044820152603960f91b60648201526084016103b6565b60015b60055481101561078757816001600160a01b0316600582815481106106a8576106a861140c565b6000918252602090912001546001600160a01b0316141561077557600580546106d390600190611453565b815481106106e3576106e361140c565b600091825260209091200154600580546001600160a01b03909216918390811061070f5761070f61140c565b9060005260206000200160006101000a8154816001600160a01b0302191690836001600160a01b03160217905550600580548061074e5761074e61146a565b600082815260209020810160001990810180546001600160a01b0319169055019055610787565b8061077f81611438565b915050610681565b506001600160a01b03166000908152600660205260409020805460ff19169055565b6000336107b7858285610cdc565b6107c2858585610d50565b506001949350505050565b6000336104728185856107e08383610b8d565b6107ea9190611480565b610bb8565b3360009081526006602052604090205460ff1661081e5760405162461bcd60e51b81526004016103b6906113a5565b60005b8281101561051c5781600960008686858181106108405761084061140c565b905060200201602081019061085591906112ce565b6001600160a01b031681526020810191909152604001600020805460ff19169115159190911790558061088781611438565b915050610821565b336001600160a01b031660056000815481106108ad576108ad61140c565b6000918252602090912001546001600160a01b03161461090a5760405162461bcd60e51b815260206004820152601860248201527727bbb732b9399d1027b7363c9029bab832b91027bbb732b960411b60448201526064016103b6565b6001600160a01b03821660009081526006602052604090205460ff161561096b5760405162461bcd60e51b815260206004820152601560248201527427bbb732b9399d1020b63932b0b23c9037bbb732b960591b60448201526064016103b6565b6001600160a01b0382166000908152600660205260409020805460ff191660011790558015610a2b576005806000815481106109a9576109a961140c565b6000918252602080832090910154835460018101855593835290822090920180546001600160a01b0319166001600160a01b0390931692909217909155600580548492906109f9576109f961140c565b9060005260206000200160006101000a8154816001600160a01b0302191690836001600160a01b031602179055505050565b600580546001810182556000919091527f036b6384b5eca791c62761152d0c79bb0604c104a5fb6f4eb0703f3154bb3db00180546001600160a01b0319166001600160a01b0384161790555b5050565b3360009081526006602052604090205460ff16610aaa5760405162461bcd60e51b81526004016103b6906113a5565b60008211610aeb5760405162461bcd60e51b815260206004820152600e60248201526d416d6f756e7420746f6f206c6f7760901b60448201526064016103b6565b610a778183610f29565b6060600480546103e1906113d1565b60003381610b128286610b8d565b905083811015610b725760405162461bcd60e51b815260206004820152602560248201527f45524332303a2064656372656173656420616c6c6f77616e63652062656c6f77604482015264207a65726f60d81b60648201526084016103b6565b6107c28286868403610bb8565b600033610472818585610d50565b6001600160a01b03918216600090815260016020908152604080832093909416825291909152205490565b6001600160a01b038316610c1a5760405162461bcd60e51b8152602060048201526024808201527f45524332303a20617070726f76652066726f6d20746865207a65726f206164646044820152637265737360e01b60648201526084016103b6565b6001600160a01b038216610c7b5760405162461bcd60e51b815260206004820152602260248201527f45524332303a20617070726f766520746f20746865207a65726f206164647265604482015261737360f01b60648201526084016103b6565b6001600160a01b0383811660008181526001602090815260408083209487168084529482529182902085905590518481527f8c5be1e5ebec7d5bd14f71427d1e84f3dd0314c0f7b2291e5b200ac8c7c3b925910160405180910390a3505050565b6000610ce88484610b8d565b9050600019811461051c5781811015610d435760405162461bcd60e51b815260206004820152601d60248201527f45524332303a20696e73756666696369656e7420616c6c6f77616e636500000060448201526064016103b6565b61051c8484848403610bb8565b6001600160a01b038316610db45760405162461bcd60e51b815260206004820152602560248201527f45524332303a207472616e736665722066726f6d20746865207a65726f206164604482015264647265737360d81b60648201526084016103b6565b6001600160a01b038216610e165760405162461bcd60e51b815260206004820152602360248201527f45524332303a207472616e7366657220746f20746865207a65726f206164647260448201526265737360e81b60648201526084016103b6565b610e21838383611014565b6001600160a01b03831660009081526020819052604090205481811015610e995760405162461bcd60e51b815260206004820152602660248201527f45524332303a207472616e7366657220616d6f756e7420657863656564732062604482015265616c616e636560d01b60648201526084016103b6565b6001600160a01b03808516600090815260208190526040808220858503905591851681529081208054849290610ed0908490611480565b92505081905550826001600160a01b0316846001600160a01b03167fddf252ad1be2c89b69c2b068fc378daa952ba7f163c4a11628f55a4df523b3ef84604051610f1c91815260200190565b60405180910390a361051c565b6001600160a01b038216610f7f5760405162461bcd60e51b815260206004820152601f60248201527f45524332303a206d696e7420746f20746865207a65726f20616464726573730060448201526064016103b6565b610f8b60008383611014565b8060026000828254610f9d9190611480565b90915550506001600160a01b03821660009081526020819052604081208054839290610fca908490611480565b90915550506040518181526001600160a01b038316906000907fddf252ad1be2c89b69c2b068fc378daa952ba7f163c4a11628f55a4df523b3ef9060200160405180910390a35050565b6001600160a01b038316158061104257506001600160a01b03831660009081526006602052604090205460ff165b1561104c57505050565b6001600160a01b03831660009081526008602052604090205460ff1615801561108e57506001600160a01b03821660009081526008602052604090205460ff16155b6110d05760405162461bcd60e51b815260206004820152601360248201527214dc1c9a5b99ce88109b1858dadb1a5cdd1959606a1b60448201526064016103b6565b60075460ff1661115f576001600160a01b03831660009081526009602052604090205460ff16801561111a57506001600160a01b03821660009081526009602052604090205460ff165b61115f5760405162461bcd60e51b815260206004820152601660248201527514dc1c9a5b99ce88151c98591a5b99c818db1bdcd95960521b60448201526064016103b6565b505050565b60006020828403121561117657600080fd5b5035919050565b8035801515811461118d57600080fd5b919050565b6000602082840312156111a457600080fd5b6111ad8261117d565b9392505050565b600060208083528351808285015260005b818110156111e1578581018301518582016040015282016111c5565b818111156111f3576000604083870101525b50601f01601f1916929092016040019392505050565b80356001600160a01b038116811461118d57600080fd5b6000806040838503121561123357600080fd5b61123c83611209565b946020939093013593505050565b60008060006040848603121561125f57600080fd5b833567ffffffffffffffff8082111561127757600080fd5b818601915086601f83011261128b57600080fd5b81358181111561129a57600080fd5b8760208260051b85010111156112af57600080fd5b6020928301955093506112c5918601905061117d565b90509250925092565b6000602082840312156112e057600080fd5b6111ad82611209565b6000806000606084860312156112fe57600080fd5b61130784611209565b925061131560208501611209565b9150604084013590509250925092565b6000806040838503121561133857600080fd5b61134183611209565b915061134f6020840161117d565b90509250929050565b6000806040838503121561136b57600080fd5b8235915061134f60208401611209565b6000806040838503121561138e57600080fd5b61139783611209565b915061134f60208401611209565b60208082526012908201527127bbb732b9399d1027b7363c9027bbb732b960711b604082015260600190565b600181811c908216806113e557607f821691505b6020821081141561140657634e487b7160e01b600052602260045260246000fd5b50919050565b634e487b7160e01b600052603260045260246000fd5b634e487b7160e01b600052601160045260246000fd5b600060001982141561144c5761144c611422565b5060010190565b60008282101561146557611465611422565b500390565b634e487b7160e01b600052603160045260246000fd5b6000821982111561149357611493611422565b50019056fea2646970667358221220601a9c83532365a8e57ca51a8c9faa95756de92020ae49570633b2669e85e6a364736f6c63430008090033",
  "linkReferences": {},
  "deployedLinkReferences": {}
}