{
  "_format": "hh-sol-artifact-1",
  "contractName": "Handler_GameLogicFacet",
  "sourceName": "contracts/handler/GameLogicFacet.sol",
  "abi": [
    {
      "anonymous": false,
      "inputs": [
        {
          "indexed": true,
          "internalType": "address",
          "name": "owner",
          "type": "address"
        },
        {
          "indexed": true,
          "internalType": "string",
          "name": "fertilizerType",
          "type": "string"
        },
        {
          "indexed": false,
          "internalType": "uint256",
          "name": "nodeTokenId",
          "type": "uint256"
        },
        {
          "indexed": false,
          "internalType": "uint256",
          "name": "count",
          "type": "uint256"
        },
        {
          "indexed": false,
          "internalType": "uint256",
          "name": "price",
          "type": "uint256"
        }
      ],
      "name": "FertilizerApplied",
      "type": "event"
    },
    {
      "anonymous": false,
      "inputs": [
        {
          "indexed": true,
          "internalType": "address",
          "name": "owner",
          "type": "address"
        },
        {
          "indexed": true,
          "internalType": "string",
          "name": "luckyBoxType",
          "type": "string"
        },
        {
          "indexed": false,
          "internalType": "uint256",
          "name": "amount",
          "type": "uint256"
        },
        {
          "indexed": false,
          "internalType": "uint256",
          "name": "price",
          "type": "uint256"
        }
      ],
      "name": "NewLuckyBox",
      "type": "event"
    },
    {
      "anonymous": false,
      "inputs": [
        {
          "indexed": true,
          "internalType": "address",
          "name": "owner",
          "type": "address"
        },
        {
          "indexed": true,
          "internalType": "string",
          "name": "nodeType",
          "type": "string"
        }
      ],
      "name": "NewNode",
      "type": "event"
    },
    {
      "anonymous": false,
      "inputs": [
        {
          "indexed": true,
          "internalType": "address",
          "name": "owner",
          "type": "address"
        },
        {
          "indexed": true,
          "internalType": "string",
          "name": "plotType",
          "type": "string"
        },
        {
          "indexed": false,
          "internalType": "uint256",
          "name": "price",
          "type": "uint256"
        }
      ],
      "name": "NewPlot",
      "type": "event"
    },
    {
      "anonymous": false,
      "inputs": [
        {
          "indexed": true,
          "internalType": "address",
          "name": "owner",
          "type": "address"
        },
        {
          "indexed": true,
          "internalType": "string",
          "name": "waterpackType",
          "type": "string"
        },
        {
          "indexed": false,
          "internalType": "uint256",
          "name": "nodeTokenId",
          "type": "uint256"
        },
        {
          "indexed": false,
          "internalType": "uint256",
          "name": "count",
          "type": "uint256"
        },
        {
          "indexed": false,
          "internalType": "uint256",
          "name": "price",
          "type": "uint256"
        }
      ],
      "name": "WaterpackApplied",
      "type": "event"
    },
    {
      "inputs": [
        {
          "internalType": "address",
          "name": "tokenIn",
          "type": "address"
        },
        {
          "internalType": "address",
          "name": "user",
          "type": "address"
        },
        {
          "internalType": "string[]",
          "name": "nodeTypesNames",
          "type": "string[]"
        },
        {
          "internalType": "uint256[][]",
          "name": "tokenIds",
          "type": "uint256[][]"
        },
        {
          "internalType": "string",
          "name": "fertilizerTypeName",
          "type": "string"
        },
        {
          "internalType": "uint256[][]",
          "name": "amount",
          "type": "uint256[][]"
        },
        {
          "internalType": "string",
          "name": "sponso",
          "type": "string"
        }
      ],
      "name": "applyFertilizerBatch",
      "outputs": [],
      "stateMutability": "nonpayable",
      "type": "function"
    },
    {
      "inputs": [
        {
          "internalType": "address",
          "name": "tokenIn",
          "type": "address"
        },
        {
          "internalType": "address",
          "name": "user",
          "type": "address"
        },
        {
          "internalType": "uint256[]",
          "name": "tokenIds",
          "type": "uint256[]"
        },
        {
          "internalType": "string",
          "name": "waterpackTypeName",
          "type": "string"
        },
        {
          "internalType": "uint256[]",
          "name": "amounts",
          "type": "uint256[]"
        },
        {
          "internalType": "string",
          "name": "sponso",
          "type": "string"
        }
      ],
      "name": "applyWaterpackBatch",
      "outputs": [],
      "stateMutability": "nonpayable",
      "type": "function"
    },
    {
      "inputs": [
        {
          "internalType": "address",
          "name": "tokenOut",
          "type": "address"
        },
        {
          "internalType": "address",
          "name": "user",
          "type": "address"
        }
      ],
      "name": "claimRewardsAll",
      "outputs": [],
      "stateMutability": "nonpayable",
      "type": "function"
    },
    {
      "inputs": [
        {
          "internalType": "address",
          "name": "tokenOut",
          "type": "address"
        },
        {
          "internalType": "address",
          "name": "user",
          "type": "address"
        },
        {
          "internalType": "string[]",
          "name": "names",
          "type": "string[]"
        },
        {
          "internalType": "uint256[][]",
          "name": "tokenIds",
          "type": "uint256[][]"
        }
      ],
      "name": "claimRewardsBatch",
      "outputs": [],
      "stateMutability": "nonpayable",
      "type": "function"
    },
    {
      "inputs": [
        {
          "internalType": "address",
          "name": "tokenOut",
          "type": "address"
        },
        {
          "internalType": "address",
          "name": "user",
          "type": "address"
        },
        {
          "internalType": "string",
          "name": "name",
          "type": "string"
        }
      ],
      "name": "claimRewardsNodeType",
      "outputs": [],
      "stateMutability": "nonpayable",
      "type": "function"
    },
    {
      "inputs": [
        {
          "internalType": "string",
          "name": "name",
          "type": "string"
        },
        {
          "internalType": "address",
          "name": "user",
          "type": "address"
        },
        {
          "internalType": "uint256",
          "name": "count",
          "type": "uint256"
        }
      ],
      "name": "createLuckyBoxesAirDrop",
      "outputs": [],
      "stateMutability": "nonpayable",
      "type": "function"
    },
    {
      "inputs": [
        {
          "internalType": "address",
          "name": "tokenIn",
          "type": "address"
        },
        {
          "internalType": "address",
          "name": "user",
          "type": "address"
        },
        {
          "internalType": "string",
          "name": "name",
          "type": "string"
        },
        {
          "internalType": "uint256",
          "name": "count",
          "type": "uint256"
        },
        {
          "internalType": "string",
          "name": "sponso",
          "type": "string"
        }
      ],
      "name": "createLuckyBoxesWithTokens",
      "outputs": [],
      "stateMutability": "nonpayable",
      "type": "function"
    },
    {
      "inputs": [
        {
          "internalType": "string",
          "name": "name",
          "type": "string"
        },
        {
          "internalType": "address",
          "name": "user",
          "type": "address"
        },
        {
          "internalType": "string",
          "name": "feature",
          "type": "string"
        },
        {
          "internalType": "uint256",
          "name": "count",
          "type": "uint256"
        }
      ],
      "name": "createNodesAirDrop",
      "outputs": [],
      "stateMutability": "nonpayable",
      "type": "function"
    },
    {
      "inputs": [
        {
          "internalType": "uint256[]",
          "name": "tokenIdsLuckyBoxes",
          "type": "uint256[]"
        },
        {
          "internalType": "uint256[]",
          "name": "tokenIdsPlots",
          "type": "uint256[]"
        }
      ],
      "name": "createNodesWithLuckyBoxes",
      "outputs": [],
      "stateMutability": "nonpayable",
      "type": "function"
    },
    {
      "inputs": [
        {
          "internalType": "address",
          "name": "tokenIn",
          "type": "address"
        },
        {
          "internalType": "string",
          "name": "plotType",
          "type": "string"
        },
        {
          "internalType": "string",
          "name": "sponso",
          "type": "string"
        }
      ],
      "name": "createPlotWithTokens",
      "outputs": [
        {
          "internalType": "uint256",
          "name": "",
          "type": "uint256"
        }
      ],
      "stateMutability": "nonpayable",
      "type": "function"
    },
    {
      "inputs": [
        {
          "internalType": "uint256[]",
          "name": "plotTokenIds",
          "type": "uint256[]"
        },
        {
          "internalType": "uint256[][]",
          "name": "nodeTokenIds",
          "type": "uint256[][]"
        }
      ],
      "name": "moveNodesToPlots",
      "outputs": [],
      "stateMutability": "nonpayable",
      "type": "function"
    }
  ],
  "bytecode": "0x608060405234801561001057600080fd5b5061404d806100206000396000f3fe608060405234801561001057600080fd5b50600436106100a95760003560e01c8063b941556611610071578063b94155661461010f578063d4df0af414610134578063e9897f8714610147578063eba86d291461015a578063f76e72ae1461016d578063fd4acf7f1461018057600080fd5b806324056bce146100ae578063321f8674146100c357806362829b20146100d65780637741696d146100e95780638f309880146100fc575b600080fd5b6100c16100bc3660046130ac565b610193565b005b6100c16100d13660046131ac565b6102d6565b6100c16100e436600461323e565b61042f565b6100c16100f736600461333e565b6105d5565b6100c161010a366004613435565b610b78565b61012261011d3660046134bd565b610d87565b60405190815260200160405180910390f35b6100c1610142366004613532565b610edd565b6100c161015536600461358b565b6112d6565b6100c16101683660046135e2565b611464565b6100c161017b36600461363b565b611532565b6100c161018e36600461370e565b611cc3565b80518251146101bd5760405162461bcd60e51b81526004016101b49061378d565b60405180910390fd5b600b546040516379381ad360e11b81526000916001600160a01b03169063f27035a6906101f2903390869088906004016137ff565b600060405180830381600087803b15801561020c57600080fd5b505af1158015610220573d6000803e3d6000fd5b5050505060005b83518110156102d05760005b838281518110610245576102456138ac565b6020026020010151518110156102bd576102ab3385848151811061026b5761026b6138ac565b60200260200101518381518110610284576102846138ac565b602002602001015187858151811061029e5761029e6138ac565b6020026020010151611f7f565b806102b5816138d8565b915050610233565b50806102c8816138d8565b915050610227565b50505050565b600954604051636454a0fd60e01b815260009182916001600160a01b0390911690636454a0fd9061030f90889088908b9060040161394b565b602060405180830381600087803b15801561032957600080fd5b505af115801561033d573d6000803e3d6000fd5b505050506040513d601f19601f82011682018060405250810190610361919061397e565b9050846040516103719190613997565b6040805191829003822086835260208301849052916001600160a01b038916917f11bde067441f09df3e9125f247f8d784cc2926cf25a5e011c81d32762a3cd345910160405180910390a3600a82015460405163a77f789b60e01b81526001600160a01b039091169063a77f789b906103f4908a903390869089906004016139b3565b600060405180830381600087803b15801561040e57600080fd5b505af1158015610422573d6000803e3d6000fd5b5050505050505050505050565b6001600160a01b03811633148061044a575061044a336120c0565b6104665760405162461bcd60e51b81526004016101b4906139e6565b6000808060005b835481101561056357835460009081906001870190879085908110610494576104946138ac565b906000526020600020016040516104ab9190613a65565b908152604051908190036020018120546318c880ef60e21b82526001600160a01b038981166004840152169063632203bc906024016040805180830381600087803b1580156104f957600080fd5b505af115801561050d573d6000803e3d6000fd5b505050506040513d601f19601f820116820180604052508101906105319190613b01565b90925090506105408286613b25565b945061054c8185613b25565b93505050808061055b906138d8565b91505061046d565b50600a83015460405163658793a360e01b81526001600160a01b039091169063658793a39061059c908890889087908790600401613b3d565b600060405180830381600087803b1580156105b657600080fd5b505af11580156105ca573d6000803e3d6000fd5b505050505050505050565b60006105e0336120c0565b90506001600160a01b0388163314806105f65750805b6106125760405162461bcd60e51b81526004016101b4906139e6565b600061065386868080601f0160208091040260200160405190810160405280939291908181526020018383808284376000920191909152506120fd92505050565b6106af5760405162461bcd60e51b815260206004820152602760248201527f48616e646c65723a2046657274696c697a6572207479706520646f65736e27746044820152662065786973747360c81b60648201526084016101b4565b86518851146106d05760405162461bcd60e51b81526004016101b49061378d565b600061071187878080601f01602080910402602001604051908101604052809392919081815260200183838082843760009201919091525061213d92505050565b6040805160c0810182528254815260018301546020820152600283015491810191909152600382015460608201526004820154608082015260059091015460a082015290506000805b8a51811015610af95760008b8281518110610777576107776138ac565b6020026020010151905084600001600301816040516107969190613997565b9081526040519081900360200190205460ff166107c55760405162461bcd60e51b81526004016101b490613b66565b8782815181106107d7576107d76138ac565b6020026020010151518b83815181106107f2576107f26138ac565b602002602001015151146108185760405162461bcd60e51b81526004016101b49061378d565b604051600186019061082b908390613997565b908152604051908190036020019020548b516001600160a01b03909116906341087342908f908e9086908110610863576108636138ac565b6020026020010151876000015188602001518d8881518110610887576108876138ac565b60200260200101516040518663ffffffff1660e01b81526004016108af959493929190613b9d565b600060405180830381600087803b1580156108c957600080fd5b505af11580156108dd573d6000803e3d6000fd5b5050505060005b8b83815181106108f6576108f66138ac565b602002602001015151811015610a6f57600089848151811061091a5761091a6138ac565b60200260200101518281518110610933576109336138ac565b602002602001015161097c8d8d8080601f016020809104026020016040519081016040528093929190818152602001838380828437600092019190915250889250612217915050565b6109869190613beb565b90506109928186613b25565b94508b8b6040516109a4929190613c0a565b60405180910390208f6001600160a01b03167f5007ee2b62c480343d6fec6c8695bff81b7b79643a67cc3b1c5f1b129a35e1218f87815181106109e9576109e96138ac565b60200260200101518581518110610a0257610a026138ac565b60200260200101518d8881518110610a1c57610a1c6138ac565b60200260200101518681518110610a3557610a356138ac565b6020908102919091018101516040805193845291830152810185905260600160405180910390a35080610a67816138d8565b9150506108e4565b50610ae68b8381518110610a8557610a856138ac565b60200260200101518b8b8080601f016020809104026020016040519081016040528093929190818152602001838380828437600092019190915250508c514292508d915087908110610ad957610ad96138ac565b60200260200101516122c8565b5080610af1816138d8565b91505061075a565b5083610b6a57600a830154604051630bfe982960e01b81526001600160a01b0390911690630bfe982990610b37908f908f9086908b906004016139b3565b600060405180830381600087803b158015610b5157600080fd5b505af1158015610b65573d6000803e3d6000fd5b505050505b505050505050505050505050565b6001600160a01b038316331480610b935750610b93336120c0565b610baf5760405162461bcd60e51b81526004016101b4906139e6565b600080808351855114610bd45760405162461bcd60e51b81526004016101b49061378d565b60005b8551811015610d4e5783600001600301868281518110610bf957610bf96138ac565b6020026020010151604051610c0e9190613997565b9081526040519081900360200190205460ff16610c3d5760405162461bcd60e51b81526004016101b490613b66565b60008085600001600101888481518110610c5957610c596138ac565b6020026020010151604051610c6e9190613997565b9081526040519081900360200190205487516001600160a01b039091169063daf73bbd908b908a9087908110610ca657610ca66138ac565b60200260200101516040518363ffffffff1660e01b8152600401610ccb929190613c1a565b6040805180830381600087803b158015610ce457600080fd5b505af1158015610cf8573d6000803e3d6000fd5b505050506040513d601f19601f82011682018060405250810190610d1c9190613b01565b9092509050610d2b8286613b25565b9450610d378185613b25565b935050508080610d46906138d8565b915050610bd7565b50600a8301546040516336ed57cd60e01b81526001600160a01b03909116906336ed57cd906103f4908a908a9087908790600401613b3d565b600b54604051630ee6181960e11b81526000918291829182916001600160a01b0390911690631dcc303290610dc29033908a90600401613c46565b6040805180830381600087803b158015610ddb57600080fd5b505af1158015610def573d6000803e3d6000fd5b505050506040513d601f19601f82011682018060405250810190610e139190613b01565b90925090508115610e8957600a83015460405163f6d33c8360e01b81526001600160a01b039091169063f6d33c8390610e56908a90339087908b906004016139b3565b600060405180830381600087803b158015610e7057600080fd5b505af1158015610e84573d6000803e3d6000fd5b505050505b85604051610e979190613997565b6040519081900381208382529033907fa599d473c60be79067fe359df2d6b97d2074afb762310ada0041a70aecf22d8a9060200160405180910390a39695505050505050565b8051825114610efe5760405162461bcd60e51b81526004016101b49061378d565b60095460405163a933c20f60e01b815260009160609182916001600160a01b03169063a933c20f90610f369033908990600401613c1a565b600060405180830381600087803b158015610f5057600080fd5b505af1158015610f64573d6000803e3d6000fd5b505050506040513d6000823e601f3d908101601f19168201604052610f8c9190810190613d2e565b8551825192945090925014610fa357610fa3613d87565b60005b82518110156112ce576000610fd6848381518110610fc657610fc66138ac565b60200260200101513360016123ec565b90508051600114610fe957610fe9613d87565b600085600001600101858481518110611004576110046138ac565b60200260200101516040516110199190613997565b908152602001604051809103902060009054906101000a90046001600160a01b03169050806001600160a01b031663fd3845043384878781518110611060576110606138ac565b60200260200101516040518463ffffffff1660e01b815260040161108693929190613d9d565b600060405180830381600087803b1580156110a057600080fd5b505af11580156110b4573d6000803e3d6000fd5b505050508683815181106110ca576110ca6138ac565b60200260200101516000141561117857600b86015460405163dde8bd0d60e01b81523360048201526001600160a01b039091169063dde8bd0d90602401602060405180830381600087803b15801561112157600080fd5b505af1158015611135573d6000803e3d6000fd5b505050506040513d601f19601f82011682018060405250810190611159919061397e565b87848151811061116b5761116b6138ac565b6020026020010181815250505b600b86015482516001600160a01b03909116906360c458b390339085906000906111a4576111a46138ac565b60200260200101518a87815181106111be576111be6138ac565b60209081029190910101516040516001600160e01b031960e086901b1681526001600160a01b03909316600484015260248301919091526044820152606401600060405180830381600087803b15801561121757600080fd5b505af115801561122b573d6000803e3d6000fd5b505050506112603383600081518110611246576112466138ac565b602002602001015189868151811061029e5761029e6138ac565b848381518110611272576112726138ac565b60200260200101516040516112879190613997565b6040519081900381209033907f77355ba99bad07729d891699edc0bc9b092c689e53e99ec0a75f10eb7764c4ff90600090a3505080806112c6906138d8565b915050610fa6565b505050505050565b6001600160a01b0382163314806112f157506112f1336120c0565b61130d5760405162461bcd60e51b81526004016101b4906139e6565b604051600090600390611321908490613997565b9081526040519081900360200190205460ff166113505760405162461bcd60e51b81526004016101b490613b66565b60008082600001600101846040516113689190613997565b908152604051908190036020018120546318c880ef60e21b82526001600160a01b038781166004840152169063632203bc906024016040805180830381600087803b1580156113b657600080fd5b505af11580156113ca573d6000803e3d6000fd5b505050506040513d601f19601f820116820180604052508101906113ee9190613b01565b600a85015460405163fbe12f1d60e01b81529294509092506001600160a01b03169063fbe12f1d9061142a908990899087908790600401613b3d565b600060405180830381600087803b15801561144457600080fd5b505af1158015611458573d6000803e3d6000fd5b50505050505050505050565b61146c61250d565b6009546040516343836c7f60e11b81526000916001600160a01b031690638706d8fe906114a19087908690889060040161394b565b600060405180830381600087803b1580156114bb57600080fd5b505af11580156114cf573d6000803e3d6000fd5b50505050836040516114e19190613997565b6040805191829003822084835260006020840152916001600160a01b038616917f11bde067441f09df3e9125f247f8d784cc2926cf25a5e011c81d32762a3cd345910160405180910390a350505050565b6001600160a01b03861633148061154d575061154d336120c0565b6115695760405162461bcd60e51b81526004016101b4906139e6565b60006115aa85858080601f0160208091040260200160405190810160405280939291908181526020018383808284376000920191909152506125a592505050565b6116055760405162461bcd60e51b815260206004820152602660248201527f48616e646c65723a2057617465727061636b207479706520646f65736e27742060448201526565786973747360d01b60648201526084016101b4565b82518651146116265760405162461bcd60e51b81526004016101b49061378d565b6116586040518060a0016040528060608152602001606081526020016000815260200160608152602001600081525090565b6040805160018082528183019092529060208083019080368337505050815260408051600180825281830190925290602080830190803683370190505081602001819052506116dc86868080601f0160208091040260200160405190810160405280939291908181526020018383808284376000920191909152506125ce92505050565b5460408201526000805b8851811015611bfb57600884015489516001600160a01b039091169063b3ad18e2908b908490811061171a5761171a6138ac565b60200260200101516040518263ffffffff1660e01b815260040161174091815260200190565b60006040518083038186803b15801561175857600080fd5b505afa15801561176c573d6000803e3d6000fd5b505050506040513d6000823e601f3d908101601f191682016040526117949190810190613dd3565b6060840181905260405160038601916117ac91613997565b9081526040519081900360200190205460ff166117cb576117cb613d87565b8881815181106117dd576117dd6138ac565b602002602001015183600001516000815181106117fc576117fc6138ac565b60200260200101818152505085818151811061181a5761181a6138ac565b60200260200101518360200151600081518110611839576118396138ac565b60209081029190910101526060830151604051600186019161185a91613997565b908152602001604051809103902060009054906101000a90046001600160a01b03166001600160a01b0316632a0b806d8b8560000151866040015187602001516040518563ffffffff1660e01b81526004016118b99493929190613e07565b600060405180830381600087803b1580156118d357600080fd5b505af11580156118e7573d6000803e3d6000fd5b50505050600b84015489516000916001600160a01b0316906382da6739908c9085908110611917576119176138ac565b60200260200101516040518263ffffffff1660e01b815260040161193d91815260200190565b60006040518083038186803b15801561195557600080fd5b505afa158015611969573d6000803e3d6000fd5b505050506040513d6000823e601f3d908101601f191682016040526119919190810190613e4e565b60a0015190508460000160010184606001516040516119b09190613997565b908152604051908190036020019020548a516001600160a01b0390911690638e7614d7908d908d90869081106119e8576119e86138ac565b6020026020010151848b8781518110611a0357611a036138ac565b60209081029190910101516040516001600160e01b031960e087901b1681526001600160a01b039094166004850152602484019290925260448301526064820152608401600060405180830381600087803b158015611a6157600080fd5b505af1158015611a75573d6000803e3d6000fd5b50505050868281518110611a8b57611a8b6138ac565b6020026020010151611ad68a8a8080601f01602080910402602001604051908101604052809392919081815260200183838082843760009201919091525050505060608701516126b6565b611ae09190613beb565b611aea9084613b25565b92508888604051611afc929190613c0a565b60405180910390208b6001600160a01b03167fbe5aaf2f63823311ce657447dd878deac2d3013a22c51dfe91c75cce5a484efc8c8581518110611b4157611b416138ac565b60200260200101518a8681518110611b5b57611b5b6138ac565b60200260200101518b8781518110611b7557611b756138ac565b6020026020010151611bc08f8f8080601f01602080910402602001604051908101604052809392919081815260200183838082843760009201919091525050505060608c01516126b6565b611bca9190613beb565b6040805193845260208401929092529082015260600160405180910390a35080611bf3816138d8565b9150506116e6565b50611c408888888080601f0160208091040260200160405190810160405280939291908181526020018383808284376000920191909152504292508a91506127359050565b611c49336120c0565b61145857600a830154604051634ca47d4560e11b81526001600160a01b0390911690639948fa8a90611c85908d908d9086908a906004016139b3565b600060405180830381600087803b158015611c9f57600080fd5b505af1158015611cb3573d6000803e3d6000fd5b5050505050505050505050505050565b611ccb61250d565b60008111611d295760405162461bcd60e51b815260206004820152602560248201527f48616e646c65723a20436f756e74206d75737420626520677265617465722074604482015264068616e20360dc1b60648201526084016101b4565b6000805b82811015611f2e576000611d43878760016123ec565b90508051600114611d5657611d56613d87565b6040516001840190611d69908990613997565b9081526040519081900360200181205463e3d7e67160e01b82526001600160a01b03169063e3d7e67190611da590899085908a90600401613d9d565b600060405180830381600087803b158015611dbf57600080fd5b505af1158015611dd3573d6000803e3d6000fd5b50505050600b83015460405163dde8bd0d60e01b81523360048201526000916001600160a01b03169063dde8bd0d90602401602060405180830381600087803b158015611e1f57600080fd5b505af1158015611e33573d6000803e3d6000fd5b505050506040513d601f19601f82011682018060405250810190611e57919061397e565b600b85015483519192506001600160a01b0316906360c458b39033908590600090611e8457611e846138ac565b60209081029190910101516040516001600160e01b031960e085901b1681526001600160a01b039092166004830152602482015260448101849052606401600060405180830381600087803b158015611edc57600080fd5b505af1158015611ef0573d6000803e3d6000fd5b50505050611f193383600081518110611f0b57611f0b6138ac565b602002602001015183611f7f565b50508080611f26906138d8565b915050611d2d565b5084604051611f3d9190613997565b604051908190038120906001600160a01b038616907f77355ba99bad07729d891699edc0bc9b092c689e53e99ec0a75f10eb7764c4ff90600090a35050505050565b60008060088101546040516359d68c7160e11b8152600481018690529192506000916001600160a01b039091169063b3ad18e29060240160006040518083038186803b158015611fce57600080fd5b505afa158015611fe2573d6000803e3d6000fd5b505050506040513d6000823e601f3d908101601f1916820160405261200a9190810190613dd3565b905081600001600301816040516120219190613997565b9081526040519081900360200190205460ff166120805760405162461bcd60e51b815260206004820152601f60248201527f48616e646c65723a204e6f64655479706520646f65736e27742065786973740060448201526064016101b4565b6120b9858585856000016001018560405161209b9190613997565b908152604051908190036020019020546001600160a01b031661281b565b5050505050565b6001600160a01b031660009081527f268ac4c2b4d4a4c12e71a80c18e7ac5f6fdd526f1a6f30d4c2f8836daedf1053602052604090205460ff1690565b600080600080516020613ff88339815191525b905080600201836040516121249190613997565b9081526040519081900360200190205415159392505050565b604051600090600080516020613ff88339815191529082907f87e1fbeddd51183bf8b543eba737e1308597e167e4320ca5858ddc4f2780b43d90612182908690613997565b908152602001604051809103902054905080600014156121e45760405162461bcd60e51b815260206004820152601c60248201527f46657274696c697a6572733a206e6f6e6578697374616e74206b65790000000060448201526064016101b4565b816121f0600183613f09565b81548110612200576122006138ac565b906000526020600020906006020192505050919050565b6000612222836120fd565b61226e5760405162461bcd60e51b815260206004820152601e60248201527f46657274696c697a6572207479706520646f6573206e6f74206578697374000060448201526064016101b4565b6000600080516020613ff88339815191525b905080600301846040516122949190613997565b9081526020016040518091039020836040516122b09190613997565b90815260200160405180910390205491505092915050565b80518451146123135760405162461bcd60e51b8152602060048201526017602482015276082c8c8dedce6744098cadccee8d040dad2e6dac2e8c6d604b1b60448201526064016101b4565b60005b84518110156120b95761235c84868381518110612335576123356138ac565b602002602001015184848151811061234f5761234f6138ac565b60200260200101516128ed565b60005b828281518110612371576123716138ac565b60200260200101518110156123d9576123c7868381518110612395576123956138ac565b60200260200101516040518060400160405280600a8152602001692332b93a34b634bd32b960b11b8152508787612c20565b806123d1816138d8565b91505061235f565b50806123e4816138d8565b915050612316565b604051606090600090600390612403908790613997565b9081526040519081900360200190205460ff166124325760405162461bcd60e51b81526004016101b490613b66565b6008810154604051635181db2b60e01b81526000916001600160a01b031690635181db2b9061246990899089908990600401613f20565b600060405180830381600087803b15801561248357600080fd5b505af1158015612497573d6000803e3d6000fd5b505050506040513d6000823e601f3d908101601f191682016040526124bf9190810190613f4e565b905060005b8151811015612503576124f1838383815181106124e3576124e36138ac565b602002602001015189612d00565b806124fb816138d8565b9150506124c4565b5095945050505050565b3360009081527f268ac4c2b4d4a4c12e71a80c18e7ac5f6fdd526f1a6f30d4c2f8836daedf105360205260409020547f268ac4c2b4d4a4c12e71a80c18e7ac5f6fdd526f1a6f30d4c2f8836daedf10519060ff166125a25760405162461bcd60e51b815260206004820152601260248201527127bbb732b9399d1027b7363c9027bbb732b960711b60448201526064016101b4565b50565b6000807fae290eb28aab8105e055b657aeea4e3b7eeed3fbe32f123b18998ab2907937b3612110565b6040516000907fae290eb28aab8105e055b657aeea4e3b7eeed3fbe32f123b18998ab2907937b39082907fae290eb28aab8105e055b657aeea4e3b7eeed3fbe32f123b18998ab2907937b590612625908690613997565b908152602001604051809103902054905080600014156126875760405162461bcd60e51b815260206004820152601b60248201527f57617465727061636b733a206e6f6e6578697374616e74206b6579000000000060448201526064016101b4565b81612693600183613f09565b815481106126a3576126a36138ac565b9060005260206000200192505050919050565b60006126c1836125a5565b61270d5760405162461bcd60e51b815260206004820152601d60248201527f57617465727061636b207479706520646f6573206e6f7420657869737400000060448201526064016101b4565b60007fae290eb28aab8105e055b657aeea4e3b7eeed3fbe32f123b18998ab2907937b3612280565b80518451146127805760405162461bcd60e51b8152602060048201526017602482015276082c8c8dedce6744098cadccee8d040dad2e6dac2e8c6d604b1b60448201526064016101b4565b60005b84518110156120b95760005b8282815181106127a1576127a16138ac565b6020026020010151811015612808576127f68683815181106127c5576127c56138ac565b60200260200101516040518060400160405280600981526020016857617465727061636b60b81b8152508787612c20565b80612800816138d8565b91505061278f565b5080612813816138d8565b915050612783565b600080600b810154604051636c5a67e960e01b8152600481018690529192506001600160a01b03848116926397e7a1cf9289928992911690636c5a67e99060240160006040518083038186803b15801561287457600080fd5b505afa158015612888573d6000803e3d6000fd5b505050506040513d6000823e601f3d908101601f191682016040526128b09190810190613e4e565b608001516040516001600160e01b031960e086901b1681526001600160a01b0390931660048401526024830191909152604482015260640161059c565b600080516020613ff883398151915260006129078561213d565b6040805160c0810182528254815260018301546020820152600283015491810191909152600382015460608201526004820154608082015260059091015460a08201529050600061295785612d9e565b9050600061296d6008546001600160a01b031690565b6001600160a01b0316636352211e876040518263ffffffff1660e01b815260040161299a91815260200190565b60206040518083038186803b1580156129b257600080fd5b505afa1580156129c6573d6000803e3d6000fd5b505050506040513d601f19601f820116820180604052508101906129ea9190613fd3565b90508484600401886040516129ff9190613997565b90815260200160405180910390206000828254612a1c9190613b25565b9250508190555082604001518460040188604051612a3a9190613997565b9081526020016040518091039020541115612aa25760405162461bcd60e51b815260206004820152602260248201527f46657274696c697a6572733a20476c6f62616c206c696d697420657863656564604482015261195960f21b60648201526084016101b4565b6001600160a01b0381166000908152600585016020526040908190209051869190612ace908590613997565b90815260200160405180910390206000828254612aeb9190613b25565b909155505060808301516001600160a01b0382166000908152600586016020526040908190209051612b1e908590613997565b9081526020016040518091039020541115612b8e5760405162461bcd60e51b815260206004820152602a60248201527f46657274696c697a6572733a2055736572206e6f64652074797065206c696d696044820152691d08195e18d95959195960b21b60648201526084016101b4565b600086815260068501602052604081208054879290612bae908490613b25565b909155505060a083015160008781526006860160205260409020541115612c175760405162461bcd60e51b815260206004820181905260248201527f46657274696c697a6572733a204e6f6465206c696d697420657863656564656460448201526064016101b4565b50505050505050565b60008481527f5f31d4ea3d8e55e9180c4761659d517974342fa39f09c7cae6c78dd83934a2c36020818152604083208054600180820183558286528386209091018690559081018054918201815584529281902086519293612c8793910191870190612e98565b5060008581526020828152604082206002018054600181018255908352918190208551612cbb939190910191860190612e98565b5060008581526020829052604090206001810154905414612cde57612cde613d87565b600085815260208290526040902060028101549054146120b9576120b9613d87565b600082815260078401602052604090205460ff1615612d3a576000828152600584016020908152604090912082516102d092840190612e98565b60008281526007840160209081526040808320805460ff191660011790556005860182529091208251612d6f92840190612e98565b505060048201805460008381526006909401602090815260408520829055600182018355918452922090910155565b6000818152600760205260408120546060919060ff16612df75760405162461bcd60e51b8152602060048201526014602482015273151bdad95b925908191bd95cdb9d08195e1a5cdd60621b60448201526064016101b4565b600083815260058201602052604090208054612e1290613a2a565b80601f0160208091040260200160405190810160405280929190818152602001828054612e3e90613a2a565b8015612e8b5780601f10612e6057610100808354040283529160200191612e8b565b820191906000526020600020905b815481529060010190602001808311612e6e57829003601f168201915b5050505050915050919050565b828054612ea490613a2a565b90600052602060002090601f016020900481019282612ec65760008555612f0c565b82601f10612edf57805160ff1916838001178555612f0c565b82800160010185558215612f0c579182015b82811115612f0c578251825591602001919060010190612ef1565b50612f18929150612f1c565b5090565b5b80821115612f185760008155600101612f1d565b634e487b7160e01b600052604160045260246000fd5b60405160c081016001600160401b0381118282101715612f6957612f69612f31565b60405290565b604051601f8201601f191681016001600160401b0381118282101715612f9757612f97612f31565b604052919050565b60006001600160401b03821115612fb857612fb8612f31565b5060051b60200190565b600082601f830112612fd357600080fd5b81356020612fe8612fe383612f9f565b612f6f565b82815260059290921b8401810191818101908684111561300757600080fd5b8286015b84811015613022578035835291830191830161300b565b509695505050505050565b600082601f83011261303e57600080fd5b8135602061304e612fe383612f9f565b82815260059290921b8401810191818101908684111561306d57600080fd5b8286015b848110156130225780356001600160401b038111156130905760008081fd5b61309e8986838b0101612fc2565b845250918301918301613071565b600080604083850312156130bf57600080fd5b82356001600160401b03808211156130d657600080fd5b6130e286838701612fc2565b935060208501359150808211156130f857600080fd5b506131058582860161302d565b9150509250929050565b6001600160a01b03811681146125a257600080fd5b803561312f8161310f565b919050565b60006001600160401b0382111561314d5761314d612f31565b50601f01601f191660200190565b600082601f83011261316c57600080fd5b813561317a612fe382613134565b81815284602083860101111561318f57600080fd5b816020850160208301376000918101602001919091529392505050565b600080600080600060a086880312156131c457600080fd5b85356131cf8161310f565b945060208601356131df8161310f565b935060408601356001600160401b03808211156131fb57600080fd5b61320789838a0161315b565b945060608801359350608088013591508082111561322457600080fd5b506132318882890161315b565b9150509295509295909350565b6000806040838503121561325157600080fd5b823561325c8161310f565b9150602083013561326c8161310f565b809150509250929050565b600082601f83011261328857600080fd5b81356020613298612fe383612f9f565b82815260059290921b840181019181810190868411156132b757600080fd5b8286015b848110156130225780356001600160401b038111156132da5760008081fd5b6132e88986838b010161315b565b8452509183019183016132bb565b60008083601f84011261330857600080fd5b5081356001600160401b0381111561331f57600080fd5b60208301915083602082850101111561333757600080fd5b9250929050565b60008060008060008060008060e0898b03121561335a57600080fd5b61336389613124565b975061337160208a01613124565b965060408901356001600160401b038082111561338d57600080fd5b6133998c838d01613277565b975060608b01359150808211156133af57600080fd5b6133bb8c838d0161302d565b965060808b01359150808211156133d157600080fd5b6133dd8c838d016132f6565b909650945060a08b01359150808211156133f657600080fd5b6134028c838d0161302d565b935060c08b013591508082111561341857600080fd5b506134258b828c0161315b565b9150509295985092959890939650565b6000806000806080858703121561344b57600080fd5b84356134568161310f565b935060208501356134668161310f565b925060408501356001600160401b038082111561348257600080fd5b61348e88838901613277565b935060608701359150808211156134a457600080fd5b506134b18782880161302d565b91505092959194509250565b6000806000606084860312156134d257600080fd5b83356134dd8161310f565b925060208401356001600160401b03808211156134f957600080fd5b6135058783880161315b565b9350604086013591508082111561351b57600080fd5b506135288682870161315b565b9150509250925092565b6000806040838503121561354557600080fd5b82356001600160401b038082111561355c57600080fd5b61356886838701612fc2565b9350602085013591508082111561357e57600080fd5b5061310585828601612fc2565b6000806000606084860312156135a057600080fd5b83356135ab8161310f565b925060208401356135bb8161310f565b915060408401356001600160401b038111156135d657600080fd5b6135288682870161315b565b6000806000606084860312156135f757600080fd5b83356001600160401b0381111561360d57600080fd5b6136198682870161315b565b935050602084013561362a8161310f565b929592945050506040919091013590565b600080600080600080600060c0888a03121561365657600080fd5b61365f88613124565b965061366d60208901613124565b955060408801356001600160401b038082111561368957600080fd5b6136958b838c01612fc2565b965060608a01359150808211156136ab57600080fd5b6136b78b838c016132f6565b909650945060808a01359150808211156136d057600080fd5b6136dc8b838c01612fc2565b935060a08a01359150808211156136f257600080fd5b506136ff8a828b0161315b565b91505092959891949750929550565b6000806000806080858703121561372457600080fd5b84356001600160401b038082111561373b57600080fd5b6137478883890161315b565b9550602087013591506137598261310f565b9093506040860135908082111561376f57600080fd5b5061377c8782880161315b565b949793965093946060013593505050565b60208082526018908201527f48616e646c65723a204c656e677468206d69736d617463680000000000000000604082015260600190565b600081518084526020808501945080840160005b838110156137f4578151875295820195908201906001016137d8565b509495945050505050565b60006060820160018060a01b0386168352602060608185015281865180845260808601915060808160051b87010193508288016000805b8381101561388a57888703607f19018552825180518089529087019087890190845b8181101561387457835183529289019291890191600101613858565b5090985050509385019391850191600101613836565b50505050505082810360408401526138a281856137c4565b9695505050505050565b634e487b7160e01b600052603260045260246000fd5b634e487b7160e01b600052601160045260246000fd5b60006000198214156138ec576138ec6138c2565b5060010190565b60005b8381101561390e5781810151838201526020016138f6565b838111156102d05750506000910152565b600081518084526139378160208601602086016138f3565b601f01601f19169290920160200192915050565b60608152600061395e606083018661391f565b6020830194909452506001600160a01b0391909116604090910152919050565b60006020828403121561399057600080fd5b5051919050565b600082516139a98184602087016138f3565b9190910192915050565b6001600160a01b03858116825284166020820152604081018390526080606082018190526000906138a29083018461391f565b60208082526024908201527f48616e646c65723a20446f6e74206d6573732077697468206f7468657220636c60408201526361696d7360e01b606082015260800190565b600181811c90821680613a3e57607f821691505b60208210811415613a5f57634e487b7160e01b600052602260045260246000fd5b50919050565b600080835481600182811c915080831680613a8157607f831692505b6020808410821415613aa157634e487b7160e01b86526022600452602486fd5b818015613ab55760018114613ac657613af3565b60ff19861689528489019650613af3565b60008a81526020902060005b86811015613aeb5781548b820152908501908301613ad2565b505084890196505b509498975050505050505050565b60008060408385031215613b1457600080fd5b505080516020909101519092909150565b60008219821115613b3857613b386138c2565b500190565b6001600160a01b0394851681529290931660208301526040820152606081019190915260800190565b6020808252601e908201527f48616e646c65723a204e6f64655479706520646f65736e742065786973740000604082015260600190565b6001600160a01b038616815260a060208201819052600090613bc1908301876137c4565b8560408401528460608401528281036080840152613bdf81856137c4565b98975050505050505050565b6000816000190483118215151615613c0557613c056138c2565b500290565b8183823760009101908152919050565b6001600160a01b0383168152604060208201819052600090613c3e908301846137c4565b949350505050565b6001600160a01b0383168152604060208201819052600090613c3e9083018461391f565b600082601f830112613c7b57600080fd5b8151613c89612fe382613134565b818152846020838601011115613c9e57600080fd5b613c3e8260208301602087016138f3565b600082601f830112613cc057600080fd5b81516020613cd0612fe383612f9f565b82815260059290921b84018101918181019086841115613cef57600080fd5b8286015b848110156130225780516001600160401b03811115613d125760008081fd5b613d208986838b0101613c6a565b845250918301918301613cf3565b60008060408385031215613d4157600080fd5b82516001600160401b0380821115613d5857600080fd5b613d6486838701613caf565b93506020850151915080821115613d7a57600080fd5b5061310585828601613caf565b634e487b7160e01b600052600160045260246000fd5b6001600160a01b0384168152606060208201819052600090613dc1908301856137c4565b82810360408401526138a2818561391f565b600060208284031215613de557600080fd5b81516001600160401b03811115613dfb57600080fd5b613c3e84828501613c6a565b6001600160a01b0385168152608060208201819052600090613e2b908301866137c4565b8460408401528281036060840152613e4381856137c4565b979650505050505050565b600060208284031215613e6057600080fd5b81516001600160401b0380821115613e7757600080fd5b9083019060c08286031215613e8b57600080fd5b613e93612f47565b825182811115613ea257600080fd5b613eae87828601613c6a565b8252506020830151602082015260408301516040820152606083015182811115613ed757600080fd5b613ee387828601613caf565b6060830152506080830151608082015260a083015160a082015280935050505092915050565b600082821015613f1b57613f1b6138c2565b500390565b606081526000613f33606083018661391f565b6001600160a01b039490941660208301525060400152919050565b60006020808385031215613f6157600080fd5b82516001600160401b03811115613f7757600080fd5b8301601f81018513613f8857600080fd5b8051613f96612fe382612f9f565b81815260059190911b82018301908381019087831115613fb557600080fd5b928401925b82841015613e4357835182529284019290840190613fba565b600060208284031215613fe557600080fd5b8151613ff08161310f565b939250505056fe87e1fbeddd51183bf8b543eba737e1308597e167e4320ca5858ddc4f2780b43ba26469706673582212208c8ed52d42d8f25c572b368f2e0ec6bc2720c8f1e433000c31e6c1ac2fd6fb1d64736f6c63430008090033",
  "linkReferences": {},
  "deployedLinkReferences": {}
}