{
  "_format": "hh-sol-artifact-1",
  "contractName": "OwnersUpgradeable",
  "sourceName": "contracts/OwnersUpgradeable.sol",
  "abi": [
    {
      "anonymous": false,
      "inputs": [
        {
          "indexed": false,
          "internalType": "uint8",
          "name": "version",
          "type": "uint8"
        }
      ],
      "name": "Initialized",
      "type": "event"
    },
    {
      "inputs": [
        {
          "internalType": "address",
          "name": "_new",
          "type": "address"
        },
        {
          "internalType": "bool",
          "name": "_change",
          "type": "bool"
        }
      ],
      "name": "addOwner",
      "outputs": [],
      "stateMutability": "nonpayable",
      "type": "function"
    },
    {
      "inputs": [],
      "name": "getOwnersSize",
      "outputs": [
        {
          "internalType": "uint256",
          "name": "",
          "type": "uint256"
        }
      ],
      "stateMutability": "view",
      "type": "function"
    },
    {
      "inputs": [
        {
          "internalType": "address",
          "name": "",
          "type": "address"
        }
      ],
      "name": "isOwner",
      "outputs": [
        {
          "internalType": "bool",
          "name": "",
          "type": "bool"
        }
      ],
      "stateMutability": "view",
      "type": "function"
    },
    {
      "inputs": [
        {
          "internalType": "uint256",
          "name": "",
          "type": "uint256"
        }
      ],
      "name": "owners",
      "outputs": [
        {
          "internalType": "address",
          "name": "",
          "type": "address"
        }
      ],
      "stateMutability": "view",
      "type": "function"
    },
    {
      "inputs": [
        {
          "internalType": "address",
          "name": "_new",
          "type": "address"
        }
      ],
      "name": "removeOwner",
      "outputs": [],
      "stateMutability": "nonpayable",
      "type": "function"
    }
  ],
  "bytecode": "0x608060405234801561001057600080fd5b506106d5806100206000396000f3fe608060405234801561001057600080fd5b50600436106100575760003560e01c8063025e7c271461005c5780630c7b1d7b1461008c578063173825d91461009d5780632f54bf6e146100b2578063518e32d3146100e5575b600080fd5b61006f61006a366004610598565b6100f8565b6040516001600160a01b0390911681526020015b60405180910390f35b600154604051908152602001610083565b6100b06100ab3660046105cd565b610122565b005b6100d56100c03660046105cd565b60026020526000908152604090205460ff1681565b6040519015158152602001610083565b6100b06100f33660046105ef565b6103ad565b6001818154811061010857600080fd5b6000918252602090912001546001600160a01b0316905081565b336001600160a01b031660016000815481106101405761014061062b565b6000918252602090912001546001600160a01b0316146101a25760405162461bcd60e51b815260206004820152601860248201527727bbb732b9399d1027b7363c9029bab832b91027bbb732b960411b60448201526064015b60405180910390fd5b6001600160a01b03811660009081526002602052604090205460ff166101fe5760405162461bcd60e51b815260206004820152601160248201527027bbb732b9399d102737ba1037bbb732b960791b6044820152606401610199565b60016000815481106102125761021261062b565b6000918252602090912001546001600160a01b03828116911614156102835760405162461bcd60e51b815260206004820152602160248201527f4f776e6572733a2043616e6e6f742072656d6f7665207375706572206f776e656044820152603960f91b6064820152608401610199565b60015b60015481101561038b57816001600160a01b0316600182815481106102ad576102ad61062b565b6000918252602090912001546001600160a01b0316141561037957600180546102d7908290610657565b815481106102e7576102e761062b565b600091825260209091200154600180546001600160a01b0390921691839081106103135761031361062b565b9060005260206000200160006101000a8154816001600160a01b0302191690836001600160a01b0316021790555060018054806103525761035261066e565b600082815260209020810160001990810180546001600160a01b031916905501905561038b565b8061038381610684565b915050610286565b506001600160a01b03166000908152600260205260409020805460ff19169055565b336001600160a01b031660016000815481106103cb576103cb61062b565b6000918252602090912001546001600160a01b0316146104285760405162461bcd60e51b815260206004820152601860248201527727bbb732b9399d1027b7363c9029bab832b91027bbb732b960411b6044820152606401610199565b6001600160a01b03821660009081526002602052604090205460ff16156104895760405162461bcd60e51b815260206004820152601560248201527427bbb732b9399d1020b63932b0b23c9037bbb732b960591b6044820152606401610199565b6001600160a01b0382166000908152600260205260409020805460ff191660011790558015610548576001806000815481106104c7576104c761062b565b600091825260208083209091015483546001818101865594845291832090910180546001600160a01b0319166001600160a01b039092169190911790558154849291906105165761051661062b565b9060005260206000200160006101000a8154816001600160a01b0302191690836001600160a01b031602179055505050565b6001805480820182556000919091527fb10e2d527612073b26eecdfd717e6a320cf44b4afac2b0732d9fcbe2b7fa0cf60180546001600160a01b0384166001600160a01b03199091161790555050565b6000602082840312156105aa57600080fd5b5035919050565b80356001600160a01b03811681146105c857600080fd5b919050565b6000602082840312156105df57600080fd5b6105e8826105b1565b9392505050565b6000806040838503121561060257600080fd5b61060b836105b1565b91506020830135801515811461062057600080fd5b809150509250929050565b634e487b7160e01b600052603260045260246000fd5b634e487b7160e01b600052601160045260246000fd5b60008282101561066957610669610641565b500390565b634e487b7160e01b600052603160045260246000fd5b600060001982141561069857610698610641565b506001019056fea2646970667358221220596f44db6f1b74209111e8d7bb99a0a641f6cbd935448a05e3294f73d30652a664736f6c63430008090033",
  "linkReferences": {},
  "deployedLinkReferences": {}
}