{
  "_format": "hh-sol-artifact-1",
  "contractName": "SpringLuckyBox",
  "sourceName": "contracts/SpringLuckyBox.sol",
  "abi": [
    {
      "anonymous": false,
      "inputs": [
        {
          "indexed": true,
          "internalType": "address",
          "name": "owner",
          "type": "address"
        },
        {
          "indexed": true,
          "internalType": "address",
          "name": "approved",
          "type": "address"
        },
        {
          "indexed": true,
          "internalType": "uint256",
          "name": "tokenId",
          "type": "uint256"
        }
      ],
      "name": "Approval",
      "type": "event"
    },
    {
      "anonymous": false,
      "inputs": [
        {
          "indexed": true,
          "internalType": "address",
          "name": "owner",
          "type": "address"
        },
        {
          "indexed": true,
          "internalType": "address",
          "name": "operator",
          "type": "address"
        },
        {
          "indexed": false,
          "internalType": "bool",
          "name": "approved",
          "type": "bool"
        }
      ],
      "name": "ApprovalForAll",
      "type": "event"
    },
    {
      "anonymous": false,
      "inputs": [
        {
          "indexed": false,
          "internalType": "uint8",
          "name": "version",
          "type": "uint8"
        }
      ],
      "name": "Initialized",
      "type": "event"
    },
    {
      "anonymous": false,
      "inputs": [
        {
          "indexed": true,
          "internalType": "address",
          "name": "from",
          "type": "address"
        },
        {
          "indexed": true,
          "internalType": "address",
          "name": "to",
          "type": "address"
        },
        {
          "indexed": true,
          "internalType": "uint256",
          "name": "tokenId",
          "type": "uint256"
        }
      ],
      "name": "Transfer",
      "type": "event"
    },
    {
      "inputs": [
        {
          "internalType": "address",
          "name": "_new",
          "type": "address"
        },
        {
          "internalType": "bool",
          "name": "_change",
          "type": "bool"
        }
      ],
      "name": "addOwner",
      "outputs": [],
      "stateMutability": "nonpayable",
      "type": "function"
    },
    {
      "inputs": [
        {
          "internalType": "address",
          "name": "to",
          "type": "address"
        },
        {
          "internalType": "uint256",
          "name": "tokenId",
          "type": "uint256"
        }
      ],
      "name": "approve",
      "outputs": [],
      "stateMutability": "nonpayable",
      "type": "function"
    },
    {
      "inputs": [
        {
          "internalType": "address",
          "name": "owner",
          "type": "address"
        }
      ],
      "name": "balanceOf",
      "outputs": [
        {
          "internalType": "uint256",
          "name": "",
          "type": "uint256"
        }
      ],
      "stateMutability": "view",
      "type": "function"
    },
    {
      "inputs": [],
      "name": "baseURI",
      "outputs": [
        {
          "internalType": "string",
          "name": "",
          "type": "string"
        }
      ],
      "stateMutability": "view",
      "type": "function"
    },
    {
      "inputs": [
        {
          "internalType": "string",
          "name": "",
          "type": "string"
        },
        {
          "internalType": "address",
          "name": "",
          "type": "address"
        }
      ],
      "name": "boxesUserCount",
      "outputs": [
        {
          "internalType": "uint256",
          "name": "",
          "type": "uint256"
        }
      ],
      "stateMutability": "view",
      "type": "function"
    },
    {
      "inputs": [
        {
          "internalType": "string",
          "name": "name",
          "type": "string"
        },
        {
          "internalType": "uint256",
          "name": "count",
          "type": "uint256"
        },
        {
          "internalType": "address",
          "name": "user",
          "type": "address"
        }
      ],
      "name": "createLuckyBoxesAirDrop",
      "outputs": [],
      "stateMutability": "nonpayable",
      "type": "function"
    },
    {
      "inputs": [
        {
          "internalType": "string",
          "name": "name",
          "type": "string"
        },
        {
          "internalType": "uint256",
          "name": "count",
          "type": "uint256"
        },
        {
          "internalType": "address",
          "name": "user",
          "type": "address"
        }
      ],
      "name": "createLuckyBoxesWithTokens",
      "outputs": [
        {
          "internalType": "uint256",
          "name": "",
          "type": "uint256"
        }
      ],
      "stateMutability": "nonpayable",
      "type": "function"
    },
    {
      "inputs": [
        {
          "internalType": "address",
          "name": "user",
          "type": "address"
        },
        {
          "internalType": "uint256[]",
          "name": "tokenIds",
          "type": "uint256[]"
        }
      ],
      "name": "createNodesWithLuckyBoxes",
      "outputs": [
        {
          "internalType": "string[]",
          "name": "",
          "type": "string[]"
        },
        {
          "internalType": "string[]",
          "name": "",
          "type": "string[]"
        }
      ],
      "stateMutability": "nonpayable",
      "type": "function"
    },
    {
      "inputs": [
        {
          "internalType": "uint256",
          "name": "tokenId",
          "type": "uint256"
        }
      ],
      "name": "getApproved",
      "outputs": [
        {
          "internalType": "address",
          "name": "",
          "type": "address"
        }
      ],
      "stateMutability": "view",
      "type": "function"
    },
    {
      "inputs": [
        {
          "internalType": "uint256",
          "name": "tokenId",
          "type": "uint256"
        }
      ],
      "name": "getAttribute",
      "outputs": [
        {
          "internalType": "string",
          "name": "",
          "type": "string"
        }
      ],
      "stateMutability": "view",
      "type": "function"
    },
    {
      "inputs": [],
      "name": "getBoxSize",
      "outputs": [
        {
          "internalType": "uint256",
          "name": "",
          "type": "uint256"
        }
      ],
      "stateMutability": "view",
      "type": "function"
    },
    {
      "inputs": [
        {
          "internalType": "uint256",
          "name": "iStart",
          "type": "uint256"
        },
        {
          "internalType": "uint256",
          "name": "iEnd",
          "type": "uint256"
        }
      ],
      "name": "getMapBetweenIndexes",
      "outputs": [
        {
          "components": [
            {
              "internalType": "uint256",
              "name": "priceTokens",
              "type": "uint256"
            },
            {
              "internalType": "uint256[]",
              "name": "probability",
              "type": "uint256[]"
            },
            {
              "internalType": "string[]",
              "name": "nodeType",
              "type": "string[]"
            },
            {
              "internalType": "string[]",
              "name": "feature",
              "type": "string[]"
            },
            {
              "internalType": "uint256[]",
              "name": "counter",
              "type": "uint256[]"
            },
            {
              "internalType": "uint256[]",
              "name": "remaining",
              "type": "uint256[]"
            },
            {
              "internalType": "uint256",
              "name": "createdBox",
              "type": "uint256"
            },
            {
              "internalType": "uint256",
              "name": "openBox",
              "type": "uint256"
            },
            {
              "internalType": "uint256",
              "name": "maxBox",
              "type": "uint256"
            },
            {
              "internalType": "uint256",
              "name": "maxUser",
              "type": "uint256"
            },
            {
              "internalType": "string",
              "name": "attribute",
              "type": "string"
            }
          ],
          "internalType": "struct SpringLuckyBox.Box[]",
          "name": "",
          "type": "tuple[]"
        }
      ],
      "stateMutability": "view",
      "type": "function"
    },
    {
      "inputs": [
        {
          "internalType": "string",
          "name": "key",
          "type": "string"
        }
      ],
      "name": "getMapForKey",
      "outputs": [
        {
          "components": [
            {
              "internalType": "uint256",
              "name": "priceTokens",
              "type": "uint256"
            },
            {
              "internalType": "uint256[]",
              "name": "probability",
              "type": "uint256[]"
            },
            {
              "internalType": "string[]",
              "name": "nodeType",
              "type": "string[]"
            },
            {
              "internalType": "string[]",
              "name": "feature",
              "type": "string[]"
            },
            {
              "internalType": "uint256[]",
              "name": "counter",
              "type": "uint256[]"
            },
            {
              "internalType": "uint256[]",
              "name": "remaining",
              "type": "uint256[]"
            },
            {
              "internalType": "uint256",
              "name": "createdBox",
              "type": "uint256"
            },
            {
              "internalType": "uint256",
              "name": "openBox",
              "type": "uint256"
            },
            {
              "internalType": "uint256",
              "name": "maxBox",
              "type": "uint256"
            },
            {
              "internalType": "uint256",
              "name": "maxUser",
              "type": "uint256"
            },
            {
              "internalType": "string",
              "name": "attribute",
              "type": "string"
            }
          ],
          "internalType": "struct SpringLuckyBox.Box",
          "name": "",
          "type": "tuple"
        }
      ],
      "stateMutability": "view",
      "type": "function"
    },
    {
      "inputs": [
        {
          "internalType": "uint256",
          "name": "iStart",
          "type": "uint256"
        },
        {
          "internalType": "uint256",
          "name": "iEnd",
          "type": "uint256"
        }
      ],
      "name": "getMapKeysBetweenIndexes",
      "outputs": [
        {
          "internalType": "string[]",
          "name": "",
          "type": "string[]"
        }
      ],
      "stateMutability": "view",
      "type": "function"
    },
    {
      "inputs": [],
      "name": "getOwnersSize",
      "outputs": [
        {
          "internalType": "uint256",
          "name": "",
          "type": "uint256"
        }
      ],
      "stateMutability": "view",
      "type": "function"
    },
    {
      "inputs": [],
      "name": "handler",
      "outputs": [
        {
          "internalType": "address",
          "name": "",
          "type": "address"
        }
      ],
      "stateMutability": "view",
      "type": "function"
    },
    {
      "inputs": [
        {
          "internalType": "string",
          "name": "uri",
          "type": "string"
        },
        {
          "internalType": "address",
          "name": "_handler",
          "type": "address"
        }
      ],
      "name": "initialize",
      "outputs": [],
      "stateMutability": "nonpayable",
      "type": "function"
    },
    {
      "inputs": [
        {
          "internalType": "address",
          "name": "owner",
          "type": "address"
        },
        {
          "internalType": "address",
          "name": "operator",
          "type": "address"
        }
      ],
      "name": "isApprovedForAll",
      "outputs": [
        {
          "internalType": "bool",
          "name": "",
          "type": "bool"
        }
      ],
      "stateMutability": "view",
      "type": "function"
    },
    {
      "inputs": [
        {
          "internalType": "address",
          "name": "",
          "type": "address"
        }
      ],
      "name": "isAuthorized",
      "outputs": [
        {
          "internalType": "bool",
          "name": "",
          "type": "bool"
        }
      ],
      "stateMutability": "view",
      "type": "function"
    },
    {
      "inputs": [
        {
          "internalType": "address",
          "name": "",
          "type": "address"
        }
      ],
      "name": "isBlacklisted",
      "outputs": [
        {
          "internalType": "bool",
          "name": "",
          "type": "bool"
        }
      ],
      "stateMutability": "view",
      "type": "function"
    },
    {
      "inputs": [
        {
          "internalType": "address",
          "name": "",
          "type": "address"
        }
      ],
      "name": "isOwner",
      "outputs": [
        {
          "internalType": "bool",
          "name": "",
          "type": "bool"
        }
      ],
      "stateMutability": "view",
      "type": "function"
    },
    {
      "inputs": [],
      "name": "name",
      "outputs": [
        {
          "internalType": "string",
          "name": "",
          "type": "string"
        }
      ],
      "stateMutability": "view",
      "type": "function"
    },
    {
      "inputs": [],
      "name": "openCreateLuckyBoxesAirDrop",
      "outputs": [
        {
          "internalType": "bool",
          "name": "",
          "type": "bool"
        }
      ],
      "stateMutability": "view",
      "type": "function"
    },
    {
      "inputs": [],
      "name": "openCreateLuckyBoxesWithTokens",
      "outputs": [
        {
          "internalType": "bool",
          "name": "",
          "type": "bool"
        }
      ],
      "stateMutability": "view",
      "type": "function"
    },
    {
      "inputs": [
        {
          "internalType": "uint256",
          "name": "tokenId",
          "type": "uint256"
        }
      ],
      "name": "ownerOf",
      "outputs": [
        {
          "internalType": "address",
          "name": "",
          "type": "address"
        }
      ],
      "stateMutability": "view",
      "type": "function"
    },
    {
      "inputs": [
        {
          "internalType": "uint256",
          "name": "",
          "type": "uint256"
        }
      ],
      "name": "owners",
      "outputs": [
        {
          "internalType": "address",
          "name": "",
          "type": "address"
        }
      ],
      "stateMutability": "view",
      "type": "function"
    },
    {
      "inputs": [
        {
          "internalType": "address",
          "name": "_new",
          "type": "address"
        }
      ],
      "name": "removeOwner",
      "outputs": [],
      "stateMutability": "nonpayable",
      "type": "function"
    },
    {
      "inputs": [
        {
          "internalType": "address",
          "name": "from",
          "type": "address"
        },
        {
          "internalType": "address",
          "name": "to",
          "type": "address"
        },
        {
          "internalType": "uint256",
          "name": "tokenId",
          "type": "uint256"
        }
      ],
      "name": "safeTransferFrom",
      "outputs": [],
      "stateMutability": "nonpayable",
      "type": "function"
    },
    {
      "inputs": [
        {
          "internalType": "address",
          "name": "from",
          "type": "address"
        },
        {
          "internalType": "address",
          "name": "to",
          "type": "address"
        },
        {
          "internalType": "uint256",
          "name": "tokenId",
          "type": "uint256"
        },
        {
          "internalType": "bytes",
          "name": "_data",
          "type": "bytes"
        }
      ],
      "name": "safeTransferFrom",
      "outputs": [],
      "stateMutability": "nonpayable",
      "type": "function"
    },
    {
      "inputs": [
        {
          "internalType": "address",
          "name": "operator",
          "type": "address"
        },
        {
          "internalType": "bool",
          "name": "approved",
          "type": "bool"
        }
      ],
      "name": "setApprovalForAll",
      "outputs": [],
      "stateMutability": "nonpayable",
      "type": "function"
    },
    {
      "inputs": [
        {
          "internalType": "string",
          "name": "_new",
          "type": "string"
        }
      ],
      "name": "setBaseURI",
      "outputs": [],
      "stateMutability": "nonpayable",
      "type": "function"
    },
    {
      "inputs": [
        {
          "internalType": "address",
          "name": "_new",
          "type": "address"
        }
      ],
      "name": "setHandler",
      "outputs": [],
      "stateMutability": "nonpayable",
      "type": "function"
    },
    {
      "inputs": [
        {
          "internalType": "address",
          "name": "_new",
          "type": "address"
        },
        {
          "internalType": "bool",
          "name": "_value",
          "type": "bool"
        }
      ],
      "name": "setIsAuthorized",
      "outputs": [],
      "stateMutability": "nonpayable",
      "type": "function"
    },
    {
      "inputs": [
        {
          "internalType": "address",
          "name": "_new",
          "type": "address"
        },
        {
          "internalType": "bool",
          "name": "_value",
          "type": "bool"
        }
      ],
      "name": "setIsBlacklisted",
      "outputs": [],
      "stateMutability": "nonpayable",
      "type": "function"
    },
    {
      "inputs": [
        {
          "internalType": "bool",
          "name": "_open",
          "type": "bool"
        }
      ],
      "name": "setOpenCreate",
      "outputs": [],
      "stateMutability": "nonpayable",
      "type": "function"
    },
    {
      "inputs": [
        {
          "internalType": "string",
          "name": "name",
          "type": "string"
        },
        {
          "internalType": "uint256",
          "name": "_new",
          "type": "uint256"
        }
      ],
      "name": "setSpringLuckyBoxMaxUser",
      "outputs": [],
      "stateMutability": "nonpayable",
      "type": "function"
    },
    {
      "inputs": [
        {
          "internalType": "string",
          "name": "name",
          "type": "string"
        },
        {
          "internalType": "uint256",
          "name": "_new",
          "type": "uint256"
        }
      ],
      "name": "setSpringLuckyBoxPrice",
      "outputs": [],
      "stateMutability": "nonpayable",
      "type": "function"
    },
    {
      "inputs": [
        {
          "internalType": "bytes4",
          "name": "interfaceId",
          "type": "bytes4"
        }
      ],
      "name": "supportsInterface",
      "outputs": [
        {
          "internalType": "bool",
          "name": "",
          "type": "bool"
        }
      ],
      "stateMutability": "view",
      "type": "function"
    },
    {
      "inputs": [],
      "name": "symbol",
      "outputs": [
        {
          "internalType": "string",
          "name": "",
          "type": "string"
        }
      ],
      "stateMutability": "view",
      "type": "function"
    },
    {
      "inputs": [
        {
          "internalType": "uint256",
          "name": "index",
          "type": "uint256"
        }
      ],
      "name": "tokenByIndex",
      "outputs": [
        {
          "internalType": "uint256",
          "name": "",
          "type": "uint256"
        }
      ],
      "stateMutability": "view",
      "type": "function"
    },
    {
      "inputs": [
        {
          "internalType": "uint256",
          "name": "",
          "type": "uint256"
        }
      ],
      "name": "tokenIdsToType",
      "outputs": [
        {
          "internalType": "string",
          "name": "",
          "type": "string"
        }
      ],
      "stateMutability": "view",
      "type": "function"
    },
    {
      "inputs": [
        {
          "internalType": "address",
          "name": "owner",
          "type": "address"
        },
        {
          "internalType": "uint256",
          "name": "index",
          "type": "uint256"
        }
      ],
      "name": "tokenOfOwnerByIndex",
      "outputs": [
        {
          "internalType": "uint256",
          "name": "",
          "type": "uint256"
        }
      ],
      "stateMutability": "view",
      "type": "function"
    },
    {
      "inputs": [
        {
          "internalType": "uint256",
          "name": "tokenId",
          "type": "uint256"
        }
      ],
      "name": "tokenURI",
      "outputs": [
        {
          "internalType": "string",
          "name": "",
          "type": "string"
        }
      ],
      "stateMutability": "view",
      "type": "function"
    },
    {
      "inputs": [
        {
          "internalType": "address",
          "name": "user",
          "type": "address"
        }
      ],
      "name": "tokensOfOwner",
      "outputs": [
        {
          "internalType": "uint256[]",
          "name": "",
          "type": "uint256[]"
        }
      ],
      "stateMutability": "view",
      "type": "function"
    },
    {
      "inputs": [
        {
          "internalType": "address",
          "name": "user",
          "type": "address"
        },
        {
          "internalType": "uint256",
          "name": "iStart",
          "type": "uint256"
        },
        {
          "internalType": "uint256",
          "name": "iEnd",
          "type": "uint256"
        }
      ],
      "name": "tokensOfOwnerByIndexesBetween",
      "outputs": [
        {
          "internalType": "uint256[]",
          "name": "",
          "type": "uint256[]"
        }
      ],
      "stateMutability": "view",
      "type": "function"
    },
    {
      "inputs": [],
      "name": "totalSupply",
      "outputs": [
        {
          "internalType": "uint256",
          "name": "",
          "type": "uint256"
        }
      ],
      "stateMutability": "view",
      "type": "function"
    },
    {
      "inputs": [
        {
          "internalType": "address",
          "name": "from",
          "type": "address"
        },
        {
          "internalType": "address",
          "name": "to",
          "type": "address"
        },
        {
          "internalType": "uint256",
          "name": "tokenId",
          "type": "uint256"
        }
      ],
      "name": "transferFrom",
      "outputs": [],
      "stateMutability": "nonpayable",
      "type": "function"
    },
    {
      "inputs": [
        {
          "internalType": "string",
          "name": "name",
          "type": "string"
        },
        {
          "internalType": "uint256",
          "name": "priceTokens",
          "type": "uint256"
        },
        {
          "internalType": "uint256[]",
          "name": "probability",
          "type": "uint256[]"
        },
        {
          "internalType": "string[]",
          "name": "nodeType",
          "type": "string[]"
        },
        {
          "internalType": "string[]",
          "name": "feature",
          "type": "string[]"
        },
        {
          "internalType": "uint256[]",
          "name": "remaining",
          "type": "uint256[]"
        },
        {
          "internalType": "uint256",
          "name": "maxBox",
          "type": "uint256"
        },
        {
          "internalType": "uint256",
          "name": "maxUser",
          "type": "uint256"
        },
        {
          "internalType": "string",
          "name": "attribute",
          "type": "string"
        }
      ],
      "name": "updateSpringLuckyBox",
      "outputs": [],
      "stateMutability": "nonpayable",
      "type": "function"
    }
  ],
  "bytecode": "0x608060405234801561001057600080fd5b50615c7c80620000216000396000f3fe608060405234801561001057600080fd5b50600436106102a05760003560e01c80636c0360eb11610167578063a56f1f3f116100ce578063c87b56dd11610087578063c87b56dd14610645578063ce7180fb14610658578063e2f410ee14610660578063e985e9c514610673578063fe575a87146106af578063fe9fbb80146106d257600080fd5b8063a56f1f3f146105b8578063a933c20f146105d8578063b3ad18e2146105f9578063b88d4fde1461060c578063bac426d01461061f578063c80916d41461063257600080fd5b806387a654f81161012057806387a654f8146105455780638d0357dd1461055857806394ded0ee1461057857806395d89b411461058a578063a0e3849214610592578063a22cb465146105a557600080fd5b80636c0360eb146104b657806370a08231146104be5780637ab4339d146104d15780638462151c146104e45780638706d8fe146104f757806387568fd01461050a57600080fd5b8063493fe80f1161020b5780635a96ca09116101c45780635a96ca091461044a5780635d23273f146104575780635eec9c081461046a5780635f69ac3c1461047d5780636352211e146104905780636454a0fd146104a357600080fd5b8063493fe80f146103be5780634cee1e3b146103d15780634f6ccce7146103f15780635134fea614610404578063518e32d31461042457806355f804b31461043757600080fd5b8063173825d91161025d578063173825d91461034757806318160ddd1461035a57806323b872dd146103625780632f54bf6e146103755780632f745c591461039857806342842e0e146103ab57600080fd5b806301ffc9a7146102a5578063025e7c27146102cd57806306fdde03146102f8578063081812fc1461030d578063095ea7b3146103205780630c7b1d7b14610335575b600080fd5b6102b86102b3366004614e44565b6106f5565b60405190151581526020015b60405180910390f35b6102e06102db366004614e61565b610706565b6040516001600160a01b0390911681526020016102c4565b610300610730565b6040516102c49190614ed2565b6102e061031b366004614e61565b6107c2565b61033361032e366004614efc565b61085c565b005b60c9545b6040519081526020016102c4565b610333610355366004614f26565b610972565b609954610339565b610333610370366004614f41565b610bf9565b6102b8610383366004614f26565b60ca6020526000908152604090205460ff1681565b6103396103a6366004614efc565b610c2a565b6103336103b9366004614f41565b610cc0565b6103006103cc366004614e61565b610cdb565b6103e46103df366004614f7d565b610d9e565b6040516102c49190614fb0565b6103396103ff366004614e61565b610e44565b610417610412366004614ff4565b610ed7565b6040516102c4919061506b565b61033361043236600461508e565b611026565b61033361044536600461517e565b611212565b60d6546102b89060ff1681565b61033361046536600461508e565b611254565b6103336104783660046151b2565b6112ae565b61033361048b3660046152da565b6112ff565b6102e061049e366004614e61565b611d41565b6103396104b13660046153ed565b611db8565b610300611fb4565b6103396104cc366004614f26565b611fc3565b6103336104df366004615443565b61204a565b6103e46104f2366004614f26565b6120c2565b6103336105053660046153ed565b612165565b610339610518366004615443565b815160208184018101805160d2825292820194820194909420919093529091526000908152604090205481565b610333610553366004615487565b612428565b61056b610566366004614ff4565b6124bf565b6040516102c491906155df565b60d6546102b890610100900460ff1681565b61030061292c565b6103336105a036600461508e565b61293b565b6103336105b336600461508e565b612995565b6105cb6105c636600461517e565b6129a0565b6040516102c49190615641565b6105eb6105e6366004615654565b612dc8565b6040516102c49291906156a1565b610300610607366004614e61565b613338565b61033361061a3660046156c6565b6133d2565b61033361062d366004614f26565b61340a565b60d0546102e0906001600160a01b031681565b610300610653366004614e61565b61345b565b60cb54610339565b61033361066e366004615487565b613536565b6102b8610681366004615741565b6001600160a01b039182166000908152606a6020908152604080832093909416825291909152205460ff1690565b6102b86106bd366004614f26565b60d56020526000908152604090205460ff1681565b6102b86106e0366004614f26565b60d76020526000908152604090205460ff1681565b6000610700826135d0565b92915050565b60c9818154811061071657600080fd5b6000918252602090912001546001600160a01b0316905081565b60606065805461073f9061576b565b80601f016020809104026020016040519081016040528092919081815260200182805461076b9061576b565b80156107b85780601f1061078d576101008083540402835291602001916107b8565b820191906000526020600020905b81548152906001019060200180831161079b57829003601f168201915b5050505050905090565b6000818152606760205260408120546001600160a01b03166108405760405162461bcd60e51b815260206004820152602c60248201527f4552433732313a20617070726f76656420717565727920666f72206e6f6e657860448201526b34b9ba32b73a103a37b5b2b760a11b60648201526084015b60405180910390fd5b506000908152606960205260409020546001600160a01b031690565b600061086782611d41565b9050806001600160a01b0316836001600160a01b031614156108d55760405162461bcd60e51b815260206004820152602160248201527f4552433732313a20617070726f76616c20746f2063757272656e74206f776e656044820152603960f91b6064820152608401610837565b336001600160a01b03821614806108f157506108f18133610681565b6109635760405162461bcd60e51b815260206004820152603860248201527f4552433732313a20617070726f76652063616c6c6572206973206e6f74206f7760448201527f6e6572206e6f7220617070726f76656420666f7220616c6c00000000000000006064820152608401610837565b61096d83836135f5565b505050565b336001600160a01b031660c9600081548110610990576109906157a6565b6000918252602090912001546001600160a01b0316146109ed5760405162461bcd60e51b815260206004820152601860248201527727bbb732b9399d1027b7363c9029bab832b91027bbb732b960411b6044820152606401610837565b6001600160a01b038116600090815260ca602052604090205460ff16610a495760405162461bcd60e51b815260206004820152601160248201527027bbb732b9399d102737ba1037bbb732b960791b6044820152606401610837565b60c9600081548110610a5d57610a5d6157a6565b6000918252602090912001546001600160a01b0382811691161415610ace5760405162461bcd60e51b815260206004820152602160248201527f4f776e6572733a2043616e6e6f742072656d6f7665207375706572206f776e656044820152603960f91b6064820152608401610837565b60015b60c954811015610bd757816001600160a01b031660c98281548110610af857610af86157a6565b6000918252602090912001546001600160a01b03161415610bc55760c98054610b23906001906157d2565b81548110610b3357610b336157a6565b60009182526020909120015460c980546001600160a01b039092169183908110610b5f57610b5f6157a6565b9060005260206000200160006101000a8154816001600160a01b0302191690836001600160a01b0316021790555060c9805480610b9e57610b9e6157e9565b600082815260209020810160001990810180546001600160a01b0319169055019055610bd7565b80610bcf816157ff565b915050610ad1565b506001600160a01b0316600090815260ca60205260409020805460ff19169055565b610c033382613663565b610c1f5760405162461bcd60e51b81526004016108379061581a565b61096d83838361375a565b6000610c3583611fc3565b8210610c975760405162461bcd60e51b815260206004820152602b60248201527f455243373231456e756d657261626c653a206f776e657220696e646578206f7560448201526a74206f6620626f756e647360a81b6064820152608401610837565b506001600160a01b03919091166000908152609760209081526040808320938352929052205490565b61096d838383604051806020016040528060008152506133d2565b600081815260d1602052604090819020905160609160cc91610cfd919061586b565b9081526020016040518091039020600a018054610d199061576b565b80601f0160208091040260200160405190810160405280929190818152602001828054610d459061576b565b8015610d925780601f10610d6757610100808354040283529160200191610d92565b820191906000526020600020905b815481529060010190602001808311610d7557829003601f168201915b50505050509050919050565b60606000610dac84846157d2565b6001600160401b03811115610dc357610dc36150c1565b604051908082528060200260200182016040528015610dec578160200160208202803683370190505b509050835b83811015610e3b57610e038682610c2a565b82610e0e87846157d2565b81518110610e1e57610e1e6157a6565b602090810291909101015280610e33816157ff565b915050610df1565b50949350505050565b6000610e4f60995490565b8210610eb25760405162461bcd60e51b815260206004820152602c60248201527f455243373231456e756d657261626c653a20676c6f62616c20696e646578206f60448201526b7574206f6620626f756e647360a01b6064820152608401610837565b60998281548110610ec557610ec56157a6565b90600052602060002001549050919050565b60606000610ee584846157d2565b6001600160401b03811115610efc57610efc6150c1565b604051908082528060200260200182016040528015610f2f57816020015b6060815260200190600190039081610f1a5790505b509050835b8381101561101e5760cb805482908110610f5057610f506157a6565b906000526020600020018054610f659061576b565b80601f0160208091040260200160405190810160405280929190818152602001828054610f919061576b565b8015610fde5780601f10610fb357610100808354040283529160200191610fde565b820191906000526020600020905b815481529060010190602001808311610fc157829003601f168201915b5050505050828683610ff091906157d2565b81518110611000576110006157a6565b60200260200101819052508080611016906157ff565b915050610f34565b509392505050565b336001600160a01b031660c9600081548110611044576110446157a6565b6000918252602090912001546001600160a01b0316146110a15760405162461bcd60e51b815260206004820152601860248201527727bbb732b9399d1027b7363c9029bab832b91027bbb732b960411b6044820152606401610837565b6001600160a01b038216600090815260ca602052604090205460ff16156111025760405162461bcd60e51b815260206004820152601560248201527427bbb732b9399d1020b63932b0b23c9037bbb732b960591b6044820152606401610837565b6001600160a01b038216600090815260ca60205260409020805460ff1916600117905580156111c25760c980600081548110611140576111406157a6565b6000918252602080832090910154835460018101855593835290822090920180546001600160a01b0319166001600160a01b039093169290921790915560c98054849290611190576111906157a6565b9060005260206000200160006101000a8154816001600160a01b0302191690836001600160a01b031602179055505050565b60c980546001810182556000919091527f66be4f155c5ef2ebd3772b228f2f00681e4ed5826cdb3b1943cc11ad15ad1d280180546001600160a01b0319166001600160a01b0384161790555b5050565b33600090815260ca602052604090205460ff166112415760405162461bcd60e51b815260040161083790615907565b805161120e9060d4906020840190614c4e565b33600090815260ca602052604090205460ff166112835760405162461bcd60e51b815260040161083790615907565b6001600160a01b0391909116600090815260d760205260409020805460ff1916911515919091179055565b33600090815260ca602052604090205460ff166112dd5760405162461bcd60e51b815260040161083790615907565b60d6805461ffff191661ff001992151592831617610100909202919091179055565b33600090815260ca602052604090205460ff1661132e5760405162461bcd60e51b815260040161083790615907565b855187511461134f5760405162461bcd60e51b815260040161083790615933565b84518651146113705760405162461bcd60e51b815260040161083790615933565b83518551146113915760405162461bcd60e51b815260040161083790615933565b60018551116113f85760405162461bcd60e51b815260206004820152602d60248201527f537072696e674c75636b79426f783a204c656e677468206d757374206265206760448201526c726561746572207468616e203160981b6064820152608401610837565b600086516001600160401b03811115611413576114136150c1565b60405190808252806020026020018201604052801561143c578160200160208202803683370190505b509050600060cb6001018b604051611454919061596a565b90815260200160405180910390206040518061016001604052908160008201548152602001600182018054806020026020016040519081016040528092919081815260200182805480156114c757602002820191906000526020600020905b8154815260200190600101908083116114b3575b5050505050815260200160028201805480602002602001604051908101604052809291908181526020016000905b828210156115a15783829060005260206000200180546115149061576b565b80601f01602080910402602001604051908101604052809291908181526020018280546115409061576b565b801561158d5780601f106115625761010080835404028352916020019161158d565b820191906000526020600020905b81548152906001019060200180831161157057829003601f168201915b5050505050815260200190600101906114f5565b50505050815260200160038201805480602002602001604051908101604052809291908181526020016000905b8282101561167a5783829060005260206000200180546115ed9061576b565b80601f01602080910402602001604051908101604052809291908181526020018280546116199061576b565b80156116665780601f1061163b57610100808354040283529160200191611666565b820191906000526020600020905b81548152906001019060200180831161164957829003601f168201915b5050505050815260200190600101906115ce565b505050508152602001600482018054806020026020016040519081016040528092919081815260200182805480156116d157602002820191906000526020600020905b8154815260200190600101908083116116bd575b505050505081526020016005820180548060200260200160405190810160405280929190818152602001828054801561172957602002820191906000526020600020905b815481526020019060010190808311611715575b5050505050815260200160068201548152602001600782015481526020016008820154815260200160098201548152602001600a8201805461176a9061576b565b80601f01602080910402602001604051908101604052809291908181526020018280546117969061576b565b80156117e35780601f106117b8576101008083540402835291602001916117e3565b820191906000526020600020905b8154815290600101906020018083116117c657829003601f168201915b505050505081525050905060cb6003018b604051611801919061596a565b9081526040519081900360200190205460ff161561191c5760005b885181101561191a5760005b826040015151811015611907576118758a838151811061184a5761184a6157a6565b602002602001015184604001518381518110611868576118686157a6565b60200260200101516137c3565b80156118af57506118af898381518110611891576118916157a6565b602002602001015184606001518381518110611868576118686157a6565b156118f557826080015181815181106118ca576118ca6157a6565b60200260200101518483815181106118e4576118e46157a6565b602002602001018181525050611907565b806118ff816157ff565b915050611828565b5080611912816157ff565b91505061181c565b505b6119818b6040518061016001604052808d815260200161193b8d61381c565b81526020018b81526020018a81526020018581526020018981526020018460c0015181526020018460e00151815260200188815260200187815260200186815250613939565b611d3460cb6001018c604051611997919061596a565b9081526020016040518091039020604051806101600160405290816000820154815260200160018201805480602002602001604051908101604052809291908181526020018280548015611a0a57602002820191906000526020600020905b8154815260200190600101908083116119f6575b5050505050815260200160028201805480602002602001604051908101604052809291908181526020016000905b82821015611ae4578382906000526020600020018054611a579061576b565b80601f0160208091040260200160405190810160405280929190818152602001828054611a839061576b565b8015611ad05780601f10611aa557610100808354040283529160200191611ad0565b820191906000526020600020905b815481529060010190602001808311611ab357829003601f168201915b505050505081526020019060010190611a38565b50505050815260200160038201805480602002602001604051908101604052809291908181526020016000905b82821015611bbd578382906000526020600020018054611b309061576b565b80601f0160208091040260200160405190810160405280929190818152602001828054611b5c9061576b565b8015611ba95780601f10611b7e57610100808354040283529160200191611ba9565b820191906000526020600020905b815481529060010190602001808311611b8c57829003601f168201915b505050505081526020019060010190611b11565b50505050815260200160048201805480602002602001604051908101604052809291908181526020018280548015611c1457602002820191906000526020600020905b815481526020019060010190808311611c00575b5050505050815260200160058201805480602002602001604051908101604052809291908181526020018280548015611c6c57602002820191906000526020600020905b815481526020019060010190808311611c58575b5050505050815260200160068201548152602001600782015481526020016008820154815260200160098201548152602001600a82018054611cad9061576b565b80601f0160208091040260200160405190810160405280929190818152602001828054611cd99061576b565b8015611d265780601f10611cfb57610100808354040283529160200191611d26565b820191906000526020600020905b815481529060010190602001808311611d0957829003601f168201915b505050505081525050613c09565b5050505050505050505050565b6000818152606760205260408120546001600160a01b0316806107005760405162461bcd60e51b815260206004820152602960248201527f4552433732313a206f776e657220717565727920666f72206e6f6e657869737460448201526832b73a103a37b5b2b760b91b6064820152608401610837565b60d0546000906001600160a01b03163314611de55760405162461bcd60e51b815260040161083790615986565b60d65460ff16611e325760405162461bcd60e51b815260206004820152601860248201527729b83934b733a63ab1b5bca137bc1d102737ba1037b832b760411b6044820152606401610837565b600060cb60010185604051611e47919061596a565b90815260200160405180910390209050806008015481600601541115611eaf5760405162461bcd60e51b815260206004820152601c60248201527f537072696e674c75636b79426f783a204f7574206f662073746f636b000000006044820152606401610837565b60405160cc90611ec090879061596a565b90815260200160405180910390206009015460d286604051611ee2919061596a565b90815260408051602092819003830190206001600160a01b038716600090815292529020541115611f725760405162461bcd60e51b815260206004820152603460248201527f537072696e674c75636b79426f783a205573657220676f7420746f6f206d616e6044820152737920626f786573206f662074686973207479706560601b6064820152608401610837565b611f7d858486613dbd565b8360cb60010186604051611f91919061596a565b90815260405190819003602001902054611fab91906159cc565b95945050505050565b6060611fbe613f63565b905090565b60006001600160a01b03821661202e5760405162461bcd60e51b815260206004820152602a60248201527f4552433732313a2062616c616e636520717565727920666f7220746865207a65604482015269726f206164647265737360b01b6064820152608401610837565b506001600160a01b031660009081526068602052604090205490565b60006120566001613f72565b9050801561206e576000805461ff0019166101001790555b6120788383613fff565b801561096d576000805461ff0019169055604051600181527f7f26b83ff96e1f2b6a682f133852f6798a09c465da95921460cefb38474024989060200160405180910390a1505050565b606060006120cf83611fc3565b6001600160401b038111156120e6576120e66150c1565b60405190808252806020026020018201604052801561210f578160200160208202803683370190505b50905060005b61211e84611fc3565b81101561215e5761212f8482610c2a565b828281518110612141576121416157a6565b602090810291909101015280612156816157ff565b915050612115565b5092915050565b60d0546001600160a01b0316331461218f5760405162461bcd60e51b815260040161083790615986565b60d654610100900460ff166121e15760405162461bcd60e51b815260206004820152601860248201527729b83934b733a63ab1b5bca137bc1d102737ba1037b832b760411b6044820152606401610837565b6121ec838284613dbd565b61096d60cb60010184604051612202919061596a565b908152602001604051809103902060405180610160016040529081600082015481526020016001820180548060200260200160405190810160405280929190818152602001828054801561227557602002820191906000526020600020905b815481526020019060010190808311612261575b5050505050815260200160028201805480602002602001604051908101604052809291908181526020016000905b8282101561234f5783829060005260206000200180546122c29061576b565b80601f01602080910402602001604051908101604052809291908181526020018280546122ee9061576b565b801561233b5780601f106123105761010080835404028352916020019161233b565b820191906000526020600020905b81548152906001019060200180831161231e57829003601f168201915b5050505050815260200190600101906122a3565b50505050815260200160038201805480602002602001604051908101604052809291908181526020016000905b82821015611bbd57838290600052602060002001805461239b9061576b565b80601f01602080910402602001604051908101604052809291908181526020018280546123c79061576b565b80156124145780601f106123e957610100808354040283529160200191612414565b820191906000526020600020905b8154815290600101906020018083116123f757829003601f168201915b50505050508152602001906001019061237c565b33600090815260ca602052604090205460ff166124575760405162461bcd60e51b815260040161083790615907565b60405160ce9061246890849061596a565b9081526040519081900360200190205460ff166124975760405162461bcd60e51b8152600401610837906159eb565b8060cb600101836040516124ab919061596a565b908152604051908190036020019020555050565b606060006124cd84846157d2565b6001600160401b038111156124e4576124e46150c1565b60405190808252806020026020018201604052801561251d57816020015b61250a614cd2565b8152602001906001900390816125025790505b509050835b8381101561101e5760cb805460cc919083908110612542576125426157a6565b90600052602060002001604051612559919061586b565b90815260200160405180910390206040518061016001604052908160008201548152602001600182018054806020026020016040519081016040528092919081815260200182805480156125cc57602002820191906000526020600020905b8154815260200190600101908083116125b8575b5050505050815260200160028201805480602002602001604051908101604052809291908181526020016000905b828210156126a65783829060005260206000200180546126199061576b565b80601f01602080910402602001604051908101604052809291908181526020018280546126459061576b565b80156126925780601f1061266757610100808354040283529160200191612692565b820191906000526020600020905b81548152906001019060200180831161267557829003601f168201915b5050505050815260200190600101906125fa565b50505050815260200160038201805480602002602001604051908101604052809291908181526020016000905b8282101561277f5783829060005260206000200180546126f29061576b565b80601f016020809104026020016040519081016040528092919081815260200182805461271e9061576b565b801561276b5780601f106127405761010080835404028352916020019161276b565b820191906000526020600020905b81548152906001019060200180831161274e57829003601f168201915b5050505050815260200190600101906126d3565b505050508152602001600482018054806020026020016040519081016040528092919081815260200182805480156127d657602002820191906000526020600020905b8154815260200190600101908083116127c2575b505050505081526020016005820180548060200260200160405190810160405280929190818152602001828054801561282e57602002820191906000526020600020905b81548152602001906001019080831161281a575b5050505050815260200160068201548152602001600782015481526020016008820154815260200160098201548152602001600a8201805461286f9061576b565b80601f016020809104026020016040519081016040528092919081815260200182805461289b9061576b565b80156128e85780601f106128bd576101008083540402835291602001916128e8565b820191906000526020600020905b8154815290600101906020018083116128cb57829003601f168201915b5050505050815250508286836128fe91906157d2565b8151811061290e5761290e6157a6565b60200260200101819052508080612924906157ff565b915050612522565b60606066805461073f9061576b565b33600090815260ca602052604090205460ff1661296a5760405162461bcd60e51b815260040161083790615907565b6001600160a01b0391909116600090815260d560205260409020805460ff1916911515919091179055565b61120e338383614085565b6129a8614cd2565b60405160ce906129b990849061596a565b9081526040519081900360200190205460ff16612a185760405162461bcd60e51b815260206004820181905260248201527f537072696e674c75636b79426f783a204b657920646f65736e742065786973746044820152606401610837565b60405160cc90612a2990849061596a565b9081526020016040518091039020604051806101600160405290816000820154815260200160018201805480602002602001604051908101604052809291908181526020018280548015612a9c57602002820191906000526020600020905b815481526020019060010190808311612a88575b5050505050815260200160028201805480602002602001604051908101604052809291908181526020016000905b82821015612b76578382906000526020600020018054612ae99061576b565b80601f0160208091040260200160405190810160405280929190818152602001828054612b159061576b565b8015612b625780601f10612b3757610100808354040283529160200191612b62565b820191906000526020600020905b815481529060010190602001808311612b4557829003601f168201915b505050505081526020019060010190612aca565b50505050815260200160038201805480602002602001604051908101604052809291908181526020016000905b82821015612c4f578382906000526020600020018054612bc29061576b565b80601f0160208091040260200160405190810160405280929190818152602001828054612bee9061576b565b8015612c3b5780601f10612c1057610100808354040283529160200191612c3b565b820191906000526020600020905b815481529060010190602001808311612c1e57829003601f168201915b505050505081526020019060010190612ba3565b50505050815260200160048201805480602002602001604051908101604052809291908181526020018280548015612ca657602002820191906000526020600020905b815481526020019060010190808311612c92575b5050505050815260200160058201805480602002602001604051908101604052809291908181526020018280548015612cfe57602002820191906000526020600020905b815481526020019060010190808311612cea575b5050505050815260200160068201548152602001600782015481526020016008820154815260200160098201548152602001600a82018054612d3f9061576b565b80601f0160208091040260200160405190810160405280929190818152602001828054612d6b9061576b565b8015612db85780601f10612d8d57610100808354040283529160200191612db8565b820191906000526020600020905b815481529060010190602001808311612d9b57829003601f168201915b5050505050815250509050919050565b60d05460609081906001600160a01b03163314612df75760405162461bcd60e51b815260040161083790615986565b600083516001600160401b03811115612e1257612e126150c1565b604051908082528060200260200182016040528015612e4557816020015b6060815260200190600190039081612e305790505b509050600084516001600160401b03811115612e6357612e636150c1565b604051908082528060200260200182016040528015612e9657816020015b6060815260200190600190039081612e815790505b50905060005b855181101561332c576000868281518110612eb957612eb96157a6565b60200260200101519050876001600160a01b0316612ed682611d41565b6001600160a01b031614612f2c5760405162461bcd60e51b815260206004820152601d60248201527f537072696e674c75636b79426f783a204e6f74206e6674206f776e65720000006044820152606401610837565b600081815260d16020526040808220905160cc91612f499161586b565b9081526040519081900360200190206007810180549192506000612f6c836157ff565b91905055506000612f7c8a614154565b905060005b600183015481101561331557826001018181548110612fa257612fa26157a6565b906000526020600020015482101561329957612fbd846141be565b826004018181548110612fd257612fd26157a6565b60009182526020822001805491612fe8836157ff565b9190505550826005018181548110613002576130026157a6565b6000918252602082200180549161301883615a2c565b9190505550826005018181548110613032576130326157a6565b90600052602060002001546000141561310a5780156130e65760006130586001836157d2565b90505b836001018181548110613070576130706157a6565b90600052602060002001546000146130c857836001018281548110613097576130976157a6565b90600052602060002001548460010182815481106130b7576130b76157a6565b6000918252602090912001556130e4565b806130d2576130e4565b806130dc81615a2c565b91505061305b565b505b60008360010182815481106130fd576130fd6157a6565b6000918252602090912001555b82600201818154811061311f5761311f6157a6565b9060005260206000200180546131349061576b565b80601f01602080910402602001604051908101604052809291908181526020018280546131609061576b565b80156131ad5780601f10613182576101008083540402835291602001916131ad565b820191906000526020600020905b81548152906001019060200180831161319057829003601f168201915b50505050508786815181106131c4576131c46157a6565b60200260200101819052508260030181815481106131e4576131e46157a6565b9060005260206000200180546131f99061576b565b80601f01602080910402602001604051908101604052809291908181526020018280546132259061576b565b80156132725780601f1061324757610100808354040283529160200191613272565b820191906000526020600020905b81548152906001019060200180831161325557829003601f168201915b5050505050868681518110613289576132896157a6565b6020026020010181905250613315565b600180840154906132ab908390615a43565b14156133035760405162461bcd60e51b815260206004820152602160248201527f537072696e674c75636b79426f783a20556e6578706563746564206f757470756044820152601d60fa1b6064820152608401610837565b8061330d816157ff565b915050612f81565b505050508080613324906157ff565b915050612e9c565b50909590945092505050565b60d160205260009081526040902080546133519061576b565b80601f016020809104026020016040519081016040528092919081815260200182805461337d9061576b565b80156133ca5780601f1061339f576101008083540402835291602001916133ca565b820191906000526020600020905b8154815290600101906020018083116133ad57829003601f168201915b505050505081565b6133dc3383613663565b6133f85760405162461bcd60e51b81526004016108379061581a565b61340484848484614265565b50505050565b33600090815260ca602052604090205460ff166134395760405162461bcd60e51b815260040161083790615907565b60d080546001600160a01b0319166001600160a01b0392909216919091179055565b6000818152606760205260409020546060906001600160a01b03166134da5760405162461bcd60e51b815260206004820152602f60248201527f4552433732314d657461646174613a2055524920717565727920666f72206e6f60448201526e3732bc34b9ba32b73a103a37b5b2b760891b6064820152608401610837565b60006134e4613f63565b90506000815111613504576040518060200160405280600081525061352f565b8061350e84614298565b60405160200161351f929190615a5b565b6040516020818303038152906040525b9392505050565b33600090815260ca602052604090205460ff166135655760405162461bcd60e51b815260040161083790615907565b60405160ce9061357690849061596a565b9081526040519081900360200190205460ff166135a55760405162461bcd60e51b8152600401610837906159eb565b8060cb600101836040516135b9919061596a565b908152604051908190036020019020600901555050565b60006001600160e01b0319821663780e9d6360e01b1480610700575061070082614395565b600081815260696020526040902080546001600160a01b0319166001600160a01b038416908117909155819061362a82611d41565b6001600160a01b03167f8c5be1e5ebec7d5bd14f71427d1e84f3dd0314c0f7b2291e5b200ac8c7c3b92560405160405180910390a45050565b6000818152606760205260408120546001600160a01b03166136dc5760405162461bcd60e51b815260206004820152602c60248201527f4552433732313a206f70657261746f7220717565727920666f72206e6f6e657860448201526b34b9ba32b73a103a37b5b2b760a11b6064820152608401610837565b60006136e783611d41565b9050806001600160a01b0316846001600160a01b0316148061372e57506001600160a01b038082166000908152606a602090815260408083209388168352929052205460ff165b806137525750836001600160a01b0316613747846107c2565b6001600160a01b0316145b949350505050565b6001600160a01b038316600090815260d5602052604090205460ff1615801561379c57506001600160a01b038216600090815260d5602052604090205460ff16155b6137b85760405162461bcd60e51b815260040161083790615a8a565b61096d8383836143e5565b6000816040516020016137d6919061596a565b60405160208183030381529060405280519060200120836040516020016137fd919061596a565b6040516020818303038152906040528051906020012014905092915050565b6060600082600081518110613833576138336157a6565b602002602001015190506000600190505b83518110156138c95783818151811061385f5761385f6157a6565b60200260200101516000146138b75781848281518110613881576138816157a6565b602002602001018181516138959190615a43565b90525083518490829081106138ac576138ac6157a6565b602002602001015191505b806138c1816157ff565b915050613844565b5080612710146139325760405162461bcd60e51b815260206004820152602e60248201527f537072696e674c75636b79426f783a20546f74616c2070726f626162696c697460448201526d79206d757374206265203130302560901b6064820152608401610837565b5090919050565b60405160ce9061394a90849061596a565b9081526040519081900360200190205460ff1615613a68578060cb60010183604051613976919061596a565b90815260200160405180910390206000820151816000015560208201518160010190805190602001906139aa929190614d2c565b50604082015180516139c6916002840191602090910190614d66565b50606082015180516139e2916003840191602090910190614d66565b50608082015180516139fe916004840191602090910190614d2c565b5060a08201518051613a1a916005840191602090910190614d2c565b5060c0820151600682015560e08201516007820155610100820151600882015561012082015160098201556101408201518051613a6191600a840191602090910190614c4e565b5050505050565b600160cb60030183604051613a7d919061596a565b908152604051908190036020018120805492151560ff1990931692909217909155819060cc90613aae90859061596a565b9081526020016040518091039020600082015181600001556020820151816001019080519060200190613ae2929190614d2c565b5060408201518051613afe916002840191602090910190614d66565b5060608201518051613b1a916003840191602090910190614d66565b5060808201518051613b36916004840191602090910190614d2c565b5060a08201518051613b52916005840191602090910190614d2c565b5060c0820151600682015560e08201516007820155610100820151600882015561012082015160098201556101408201518051613b9991600a840191602090910190614c4e565b505060cb5460405190915060cd90613bb290859061596a565b908152604051602091819003820190209190915560cb8054600181018255600091909152835161096d927fa7ce836d032b2bf62b7e2097a8e0a6d8aeb35405ad15271e96d3b0188a1d06fb90920191850190614c4e565b6000805b8260a0015151811015613d1157600083602001518281518110613c3257613c326157a6565b60200260200101511115613cff5760008360a001518281518110613c5857613c586157a6565b602002602001015111613cd35760405162461bcd60e51b815260206004820152603960248201527f537072696e674c75636b79426f783a2050726f626162696c697479206d75737460448201527f2062652030206966206e6f20626f782072656d61696e696e67000000000000006064820152608401610837565b8260a001518181518110613ce957613ce96157a6565b602002602001015182613cfc9190615a43565b91505b80613d09816157ff565b915050613c0d565b5060008260c001518361010001511015613d2f578260c00151613d36565b8261010001515b90508260e0015181613d4891906157d2565b82101561096d5760405162461bcd60e51b815260206004820152603760248201527f537072696e674c75636b79426f783a2053756d2072656d61696e696e67206c6f60448201527f776572207468616e206d6178202d206f70656e20626f780000000000000000006064820152608401610837565b6001600160a01b038216600090815260d5602052604090205460ff1615613df65760405162461bcd60e51b815260040161083790615a8a565b60405160ce90613e0790859061596a565b9081526040519081900360200190205460ff16613e665760405162461bcd60e51b815260206004820181905260248201527f537072696e674c75636b79426f783a20426f7820646f65736e742065786973746044820152606401610837565b60005b81811015613ecc576000613e7c60d35490565b600081815260d1602090815260409091208751929350613ea0929091880190614c4e565b50613eab848261458c565b613eb960d380546001019055565b5080613ec4816157ff565b915050613e69565b508060cb60010184604051613ee1919061596a565b90815260200160405180910390206006016000828254613f019190615a43565b925050819055508060d284604051613f19919061596a565b90815260200160405180910390206000846001600160a01b03166001600160a01b031681526020019081526020016000206000828254613f599190615a43565b9091555050505050565b606060d4805461073f9061576b565b60008054610100900460ff1615613fb9578160ff166001148015613f955750303b155b613fb15760405162461bcd60e51b815260040161083790615acd565b506000919050565b60005460ff808416911610613fe05760405162461bcd60e51b815260040161083790615acd565b506000805460ff191660ff92909216919091179055600190565b919050565b600054610100900460ff166140265760405162461bcd60e51b815260040161083790615b1b565b61402e6145a6565b61407b6040518060400160405280601081526020016f0a6e0e4d2dcce4098eac6d6f24084def60831b8152506040518060400160405280600381526020016229a62160e91b815250614629565b61120e8282614677565b816001600160a01b0316836001600160a01b031614156140e75760405162461bcd60e51b815260206004820152601960248201527f4552433732313a20617070726f766520746f2063616c6c6572000000000000006044820152606401610837565b6001600160a01b038381166000818152606a6020908152604080832094871680845294825291829020805460ff191686151590811790915591519182527f17307eab39ab6107e8899845ad3d59bd9653f200f220920489ca2b5937696c31910160405180910390a3505050565b60cf546040805160208101929092526bffffffffffffffffffffffff19606084901b1690820152446054820152426074820152600090819060940160408051601f19818403018152919052805160209091012060cf80546001019055905061352f61271082615b7c565b60006141c982611d41565b90506141d7816000846146e0565b6141e26000836135f5565b6001600160a01b038116600090815260686020526040812080546001929061420b9084906157d2565b909155505060008281526067602052604080822080546001600160a01b0319169055518391906001600160a01b038416907fddf252ad1be2c89b69c2b068fc378daa952ba7f163c4a11628f55a4df523b3ef908390a45050565b61427084848461375a565b61427c84848484614778565b6134045760405162461bcd60e51b815260040161083790615b90565b6060816142bc5750506040805180820190915260018152600360fc1b602082015290565b8160005b81156142e657806142d0816157ff565b91506142df9050600a83615be2565b91506142c0565b6000816001600160401b03811115614300576143006150c1565b6040519080825280601f01601f19166020018201604052801561432a576020820181803683370190505b5090505b84156137525761433f6001836157d2565b915061434c600a86615b7c565b614357906030615a43565b60f81b81838151811061436c5761436c6157a6565b60200101906001600160f81b031916908160001a90535061438e600a86615be2565b945061432e565b60006001600160e01b031982166380ac58cd60e01b14806143c657506001600160e01b03198216635b5e139f60e01b145b8061070057506301ffc9a760e01b6001600160e01b0319831614610700565b826001600160a01b03166143f882611d41565b6001600160a01b03161461445c5760405162461bcd60e51b815260206004820152602560248201527f4552433732313a207472616e736665722066726f6d20696e636f72726563742060448201526437bbb732b960d91b6064820152608401610837565b6001600160a01b0382166144be5760405162461bcd60e51b8152602060048201526024808201527f4552433732313a207472616e7366657220746f20746865207a65726f206164646044820152637265737360e01b6064820152608401610837565b6144c98383836146e0565b6144d46000826135f5565b6001600160a01b03831660009081526068602052604081208054600192906144fd9084906157d2565b90915550506001600160a01b038216600090815260686020526040812080546001929061452b908490615a43565b909155505060008181526067602052604080822080546001600160a01b0319166001600160a01b0386811691821790925591518493918716917fddf252ad1be2c89b69c2b068fc378daa952ba7f163c4a11628f55a4df523b3ef91a4505050565b61120e828260405180602001604052806000815250614885565b600054610100900460ff166145cd5760405162461bcd60e51b815260040161083790615b1b565b60c9805460018181019092557f66be4f155c5ef2ebd3772b228f2f00681e4ed5826cdb3b1943cc11ad15ad1d280180546001600160a01b03191633908117909155600090815260ca60205260409020805460ff19169091179055565b600054610100900460ff166146505760405162461bcd60e51b815260040161083790615b1b565b8151614663906065906020850190614c4e565b50805161096d906066906020840190614c4e565b600054610100900460ff1661469e5760405162461bcd60e51b815260040161083790615b1b565b81516146b19060d4906020850190614c4e565b5060d080546001600160a01b0319166001600160a01b03929092169190911790555060d6805461ffff19169055565b6001600160a01b0382163b1515801561471257506001600160a01b038216600090815260d7602052604090205460ff16155b1561476d5760405162461bcd60e51b815260206004820152602560248201527f537072696e674c75636b79426f783a20756e617574686f72697a656420636f6e6044820152641d1c9858dd60da1b6064820152608401610837565b61096d8383836148b8565b60006001600160a01b0384163b1561487a57604051630a85bd0160e11b81526001600160a01b0385169063150b7a02906147bc903390899088908890600401615bf6565b602060405180830381600087803b1580156147d657600080fd5b505af1925050508015614806575060408051601f3d908101601f1916820190925261480391810190615c29565b60015b614860573d808015614834576040519150601f19603f3d011682016040523d82523d6000602084013e614839565b606091505b5080516148585760405162461bcd60e51b815260040161083790615b90565b805181602001fd5b6001600160e01b031916630a85bd0160e11b149050613752565b506001949350505050565b61488f8383614970565b61489c6000848484614778565b61096d5760405162461bcd60e51b815260040161083790615b90565b6001600160a01b0383166149135761490e81609980546000838152609a60205260408120829055600182018355919091527f72a152ddfb8e864297c917af52ea6c1c68aead0fee1a62673fcc7e0c94979d000155565b614936565b816001600160a01b0316836001600160a01b031614614936576149368382614abe565b6001600160a01b03821661494d5761096d81614b5b565b826001600160a01b0316826001600160a01b03161461096d5761096d8282614c0a565b6001600160a01b0382166149c65760405162461bcd60e51b815260206004820181905260248201527f4552433732313a206d696e7420746f20746865207a65726f20616464726573736044820152606401610837565b6000818152606760205260409020546001600160a01b031615614a2b5760405162461bcd60e51b815260206004820152601c60248201527f4552433732313a20746f6b656e20616c7265616479206d696e746564000000006044820152606401610837565b614a37600083836146e0565b6001600160a01b0382166000908152606860205260408120805460019290614a60908490615a43565b909155505060008181526067602052604080822080546001600160a01b0319166001600160a01b03861690811790915590518392907fddf252ad1be2c89b69c2b068fc378daa952ba7f163c4a11628f55a4df523b3ef908290a45050565b60006001614acb84611fc3565b614ad591906157d2565b600083815260986020526040902054909150808214614b28576001600160a01b03841660009081526097602090815260408083208584528252808320548484528184208190558352609890915290208190555b5060009182526098602090815260408084208490556001600160a01b039094168352609781528383209183525290812055565b609954600090614b6d906001906157d2565b6000838152609a602052604081205460998054939450909284908110614b9557614b956157a6565b906000526020600020015490508060998381548110614bb657614bb66157a6565b6000918252602080832090910192909255828152609a90915260408082208490558582528120556099805480614bee57614bee6157e9565b6001900381819060005260206000200160009055905550505050565b6000614c1583611fc3565b6001600160a01b039093166000908152609760209081526040808320868452825280832085905593825260989052919091209190915550565b828054614c5a9061576b565b90600052602060002090601f016020900481019282614c7c5760008555614cc2565b82601f10614c9557805160ff1916838001178555614cc2565b82800160010185558215614cc2579182015b82811115614cc2578251825591602001919060010190614ca7565b50614cce929150614dbf565b5090565b60405180610160016040528060008152602001606081526020016060815260200160608152602001606081526020016060815260200160008152602001600081526020016000815260200160008152602001606081525090565b828054828255906000526020600020908101928215614cc25791602002820182811115614cc2578251825591602001919060010190614ca7565b828054828255906000526020600020908101928215614db3579160200282015b82811115614db35782518051614da3918491602090910190614c4e565b5091602001919060010190614d86565b50614cce929150614dd4565b5b80821115614cce5760008155600101614dc0565b80821115614cce576000614de88282614df1565b50600101614dd4565b508054614dfd9061576b565b6000825580601f10614e0d575050565b601f016020900490600052602060002090810190614e2b9190614dbf565b50565b6001600160e01b031981168114614e2b57600080fd5b600060208284031215614e5657600080fd5b813561352f81614e2e565b600060208284031215614e7357600080fd5b5035919050565b60005b83811015614e95578181015183820152602001614e7d565b838111156134045750506000910152565b60008151808452614ebe816020860160208601614e7a565b601f01601f19169290920160200192915050565b60208152600061352f6020830184614ea6565b80356001600160a01b0381168114613ffa57600080fd5b60008060408385031215614f0f57600080fd5b614f1883614ee5565b946020939093013593505050565b600060208284031215614f3857600080fd5b61352f82614ee5565b600080600060608486031215614f5657600080fd5b614f5f84614ee5565b9250614f6d60208501614ee5565b9150604084013590509250925092565b600080600060608486031215614f9257600080fd5b614f9b84614ee5565b95602085013595506040909401359392505050565b6020808252825182820181905260009190848201906040850190845b81811015614fe857835183529284019291840191600101614fcc565b50909695505050505050565b6000806040838503121561500757600080fd5b50508035926020909101359150565b600081518084526020808501808196508360051b8101915082860160005b8581101561505e57828403895261504c848351614ea6565b98850198935090840190600101615034565b5091979650505050505050565b60208152600061352f6020830184615016565b80358015158114613ffa57600080fd5b600080604083850312156150a157600080fd5b6150aa83614ee5565b91506150b86020840161507e565b90509250929050565b634e487b7160e01b600052604160045260246000fd5b604051601f8201601f191681016001600160401b03811182821017156150ff576150ff6150c1565b604052919050565b60006001600160401b03831115615120576151206150c1565b615133601f8401601f19166020016150d7565b905082815283838301111561514757600080fd5b828260208301376000602084830101529392505050565b600082601f83011261516f57600080fd5b61352f83833560208501615107565b60006020828403121561519057600080fd5b81356001600160401b038111156151a657600080fd5b6137528482850161515e565b6000602082840312156151c457600080fd5b61352f8261507e565b60006001600160401b038211156151e6576151e66150c1565b5060051b60200190565b600082601f83011261520157600080fd5b81356020615216615211836151cd565b6150d7565b82815260059290921b8401810191818101908684111561523557600080fd5b8286015b848110156152505780358352918301918301615239565b509695505050505050565b600082601f83011261526c57600080fd5b8135602061527c615211836151cd565b82815260059290921b8401810191818101908684111561529b57600080fd5b8286015b848110156152505780356001600160401b038111156152be5760008081fd5b6152cc8986838b010161515e565b84525091830191830161529f565b60008060008060008060008060006101208a8c0312156152f957600080fd5b89356001600160401b038082111561531057600080fd5b61531c8d838e0161515e565b9a5060208c0135995060408c013591508082111561533957600080fd5b6153458d838e016151f0565b985060608c013591508082111561535b57600080fd5b6153678d838e0161525b565b975060808c013591508082111561537d57600080fd5b6153898d838e0161525b565b965060a08c013591508082111561539f57600080fd5b6153ab8d838e016151f0565b955060c08c0135945060e08c013593506101008c01359150808211156153d057600080fd5b506153dd8c828d0161515e565b9150509295985092959850929598565b60008060006060848603121561540257600080fd5b83356001600160401b0381111561541857600080fd5b6154248682870161515e565b9350506020840135915061543a60408501614ee5565b90509250925092565b6000806040838503121561545657600080fd5b82356001600160401b0381111561546c57600080fd5b6154788582860161515e565b9250506150b860208401614ee5565b6000806040838503121561549a57600080fd5b82356001600160401b038111156154b057600080fd5b6154bc8582860161515e565b95602094909401359450505050565b600081518084526020808501945080840160005b838110156154fb578151875295820195908201906001016154df565b509495945050505050565b6000610160825184526020830151816020860152615526828601826154cb565b915050604083015184820360408601526155408282615016565b9150506060830151848203606086015261555a8282615016565b9150506080830151848203608086015261557482826154cb565b91505060a083015184820360a086015261558e82826154cb565b91505060c083015160c085015260e083015160e085015261010080840151818601525061012080840151818601525061014080840151858303828701526155d58382614ea6565b9695505050505050565b6000602080830181845280855180835260408601915060408160051b870101925083870160005b8281101561563457603f19888603018452615622858351615506565b94509285019290850190600101615606565b5092979650505050505050565b60208152600061352f6020830184615506565b6000806040838503121561566757600080fd5b61567083614ee5565b915060208301356001600160401b0381111561568b57600080fd5b615697858286016151f0565b9150509250929050565b6040815260006156b46040830185615016565b8281036020840152611fab8185615016565b600080600080608085870312156156dc57600080fd5b6156e585614ee5565b93506156f360208601614ee5565b92506040850135915060608501356001600160401b0381111561571557600080fd5b8501601f8101871361572657600080fd5b61573587823560208401615107565b91505092959194509250565b6000806040838503121561575457600080fd5b61575d83614ee5565b91506150b860208401614ee5565b600181811c9082168061577f57607f821691505b602082108114156157a057634e487b7160e01b600052602260045260246000fd5b50919050565b634e487b7160e01b600052603260045260246000fd5b634e487b7160e01b600052601160045260246000fd5b6000828210156157e4576157e46157bc565b500390565b634e487b7160e01b600052603160045260246000fd5b6000600019821415615813576158136157bc565b5060010190565b60208082526031908201527f4552433732313a207472616e736665722063616c6c6572206973206e6f74206f6040820152701ddb995c881b9bdc88185c1c1c9bdd9959607a1b606082015260800190565b600080835481600182811c91508083168061588757607f831692505b60208084108214156158a757634e487b7160e01b86526022600452602486fd5b8180156158bb57600181146158cc576158f9565b60ff198616895284890196506158f9565b60008a81526020902060005b868110156158f15781548b8201529085019083016158d8565b505084890196505b509498975050505050505050565b60208082526012908201527127bbb732b9399d1027b7363c9027bbb732b960711b604082015260600190565b6020808252601f908201527f537072696e674c75636b79426f783a204c656e677468206d69736d6174636800604082015260600190565b6000825161597c818460208701614e7a565b9190910192915050565b60208082526026908201527f537072696e674c75636b79426f783a20476f64206d6f6465206e6f74206163746040820152651a5d985d195960d21b606082015260800190565b60008160001904831182151516156159e6576159e66157bc565b500290565b60208082526021908201527f537072696e674c75636b79426f783a204e616d6520646f65736e7420657869736040820152601d60fa1b606082015260800190565b600081615a3b57615a3b6157bc565b506000190190565b60008219821115615a5657615a566157bc565b500190565b60008351615a6d818460208801614e7a565b835190830190615a81818360208801614e7a565b01949350505050565b60208082526023908201527f537072696e674c75636b79426f783a20426c61636b6c6973746564206164647260408201526265737360e81b606082015260800190565b6020808252602e908201527f496e697469616c697a61626c653a20636f6e747261637420697320616c72656160408201526d191e481a5b9a5d1a585b1a5e995960921b606082015260800190565b6020808252602b908201527f496e697469616c697a61626c653a20636f6e7472616374206973206e6f74206960408201526a6e697469616c697a696e6760a81b606082015260800190565b634e487b7160e01b600052601260045260246000fd5b600082615b8b57615b8b615b66565b500690565b60208082526032908201527f4552433732313a207472616e7366657220746f206e6f6e20455243373231526560408201527131b2b4bb32b91034b6b83632b6b2b73a32b960711b606082015260800190565b600082615bf157615bf1615b66565b500490565b6001600160a01b03858116825284166020820152604081018390526080606082018190526000906155d590830184614ea6565b600060208284031215615c3b57600080fd5b815161352f81614e2e56fea264697066735822122016e5a2c74eec21af4e09bf6a1de21ffec2349e50f6d2b4d00e3e5deb9b50da6864736f6c63430008090033",
  "linkReferences": {},
  "deployedLinkReferences": {}
}