{
  "_format": "hh-sol-artifact-1",
  "contractName": "PreSale",
  "sourceName": "contracts/PreSale.sol",
  "abi": [
    {
      "inputs": [
        {
          "internalType": "contract IERC20",
          "name": "_paymentToken",
          "type": "address"
        },
        {
          "internalType": "string[]",
          "name": "itemNames",
          "type": "string[]"
        },
        {
          "internalType": "uint256[]",
          "name": "itemRegularPrices",
          "type": "uint256[]"
        },
        {
          "internalType": "uint256[]",
          "name": "itemWLPrices",
          "type": "uint256[]"
        },
        {
          "internalType": "address",
          "name": "_multisig",
          "type": "address"
        },
        {
          "internalType": "uint256[]",
          "name": "_maxTVLs",
          "type": "uint256[]"
        }
      ],
      "stateMutability": "nonpayable",
      "type": "constructor"
    },
    {
      "anonymous": false,
      "inputs": [
        {
          "indexed": false,
          "internalType": "address",
          "name": "user",
          "type": "address"
        },
        {
          "indexed": false,
          "internalType": "uint256",
          "name": "itemType",
          "type": "uint256"
        },
        {
          "indexed": false,
          "internalType": "uint256",
          "name": "itemAmount",
          "type": "uint256"
        },
        {
          "indexed": false,
          "internalType": "uint256",
          "name": "tokenAmount",
          "type": "uint256"
        }
      ],
      "name": "OrderBurned",
      "type": "event"
    },
    {
      "anonymous": false,
      "inputs": [
        {
          "indexed": false,
          "internalType": "address",
          "name": "user",
          "type": "address"
        },
        {
          "indexed": false,
          "internalType": "uint256",
          "name": "itemType",
          "type": "uint256"
        },
        {
          "indexed": false,
          "internalType": "uint256",
          "name": "itemAmount",
          "type": "uint256"
        },
        {
          "indexed": false,
          "internalType": "uint256",
          "name": "tokenAmount",
          "type": "uint256"
        }
      ],
      "name": "PreOrder",
      "type": "event"
    },
    {
      "inputs": [
        {
          "internalType": "address",
          "name": "_new",
          "type": "address"
        },
        {
          "internalType": "bool",
          "name": "_change",
          "type": "bool"
        }
      ],
      "name": "addOwner",
      "outputs": [],
      "stateMutability": "nonpayable",
      "type": "function"
    },
    {
      "inputs": [
        {
          "internalType": "uint256",
          "name": "",
          "type": "uint256"
        }
      ],
      "name": "amountByItemIdx",
      "outputs": [
        {
          "internalType": "uint256",
          "name": "regular",
          "type": "uint256"
        },
        {
          "internalType": "uint256",
          "name": "whitelisted",
          "type": "uint256"
        }
      ],
      "stateMutability": "view",
      "type": "function"
    },
    {
      "inputs": [
        {
          "internalType": "address",
          "name": "user",
          "type": "address"
        },
        {
          "internalType": "uint256",
          "name": "itemIdx",
          "type": "uint256"
        }
      ],
      "name": "burnItemTypeFrom",
      "outputs": [
        {
          "internalType": "uint256",
          "name": "tokenAmount",
          "type": "uint256"
        },
        {
          "internalType": "uint256",
          "name": "itemAmount",
          "type": "uint256"
        },
        {
          "internalType": "string",
          "name": "itemName",
          "type": "string"
        }
      ],
      "stateMutability": "nonpayable",
      "type": "function"
    },
    {
      "inputs": [],
      "name": "emergencyRedeem",
      "outputs": [],
      "stateMutability": "nonpayable",
      "type": "function"
    },
    {
      "inputs": [
        {
          "internalType": "uint256",
          "name": "itemIdx",
          "type": "uint256"
        }
      ],
      "name": "emergencyRedeemByItem",
      "outputs": [],
      "stateMutability": "nonpayable",
      "type": "function"
    },
    {
      "inputs": [],
      "name": "getItems",
      "outputs": [
        {
          "components": [
            {
              "internalType": "string",
              "name": "name",
              "type": "string"
            },
            {
              "internalType": "uint256",
              "name": "priceRegular",
              "type": "uint256"
            },
            {
              "internalType": "uint256",
              "name": "priceWhitelisted",
              "type": "uint256"
            },
            {
              "internalType": "uint256",
              "name": "amountCreated",
              "type": "uint256"
            },
            {
              "internalType": "uint256",
              "name": "tvl",
              "type": "uint256"
            }
          ],
          "internalType": "struct PreSale.ItemView[]",
          "name": "",
          "type": "tuple[]"
        }
      ],
      "stateMutability": "view",
      "type": "function"
    },
    {
      "inputs": [],
      "name": "getItemsSize",
      "outputs": [
        {
          "internalType": "uint256",
          "name": "",
          "type": "uint256"
        }
      ],
      "stateMutability": "view",
      "type": "function"
    },
    {
      "inputs": [],
      "name": "getOwnersSize",
      "outputs": [
        {
          "internalType": "uint256",
          "name": "",
          "type": "uint256"
        }
      ],
      "stateMutability": "view",
      "type": "function"
    },
    {
      "inputs": [
        {
          "internalType": "address",
          "name": "user",
          "type": "address"
        }
      ],
      "name": "getPreOrdersByUser",
      "outputs": [
        {
          "components": [
            {
              "internalType": "string",
              "name": "itemName",
              "type": "string"
            },
            {
              "internalType": "uint256",
              "name": "amount",
              "type": "uint256"
            },
            {
              "internalType": "uint256",
              "name": "lockedValue",
              "type": "uint256"
            }
          ],
          "internalType": "struct PreSale.PreOrderView[]",
          "name": "",
          "type": "tuple[]"
        }
      ],
      "stateMutability": "view",
      "type": "function"
    },
    {
      "inputs": [],
      "name": "getTotalPreOrderedItems",
      "outputs": [
        {
          "internalType": "uint256",
          "name": "total",
          "type": "uint256"
        }
      ],
      "stateMutability": "view",
      "type": "function"
    },
    {
      "inputs": [
        {
          "internalType": "address",
          "name": "user",
          "type": "address"
        }
      ],
      "name": "getTotalPreOrderedItemsByUser",
      "outputs": [
        {
          "internalType": "uint256",
          "name": "amount",
          "type": "uint256"
        }
      ],
      "stateMutability": "view",
      "type": "function"
    },
    {
      "inputs": [],
      "name": "getTotalPreOrderedItemsForRegularUsers",
      "outputs": [
        {
          "internalType": "uint256",
          "name": "total",
          "type": "uint256"
        }
      ],
      "stateMutability": "view",
      "type": "function"
    },
    {
      "inputs": [],
      "name": "getTotalPreOrderedItemsForWhitelistedUsers",
      "outputs": [
        {
          "internalType": "uint256",
          "name": "total",
          "type": "uint256"
        }
      ],
      "stateMutability": "view",
      "type": "function"
    },
    {
      "inputs": [
        {
          "internalType": "uint256",
          "name": "itemIdx",
          "type": "uint256"
        }
      ],
      "name": "getTotalPreOrdersByItem",
      "outputs": [
        {
          "internalType": "uint256",
          "name": "total",
          "type": "uint256"
        }
      ],
      "stateMutability": "view",
      "type": "function"
    },
    {
      "inputs": [],
      "name": "getTotalValueLocked",
      "outputs": [
        {
          "internalType": "uint256",
          "name": "total",
          "type": "uint256"
        }
      ],
      "stateMutability": "view",
      "type": "function"
    },
    {
      "inputs": [
        {
          "internalType": "address",
          "name": "user",
          "type": "address"
        }
      ],
      "name": "getTotalValueLockedByUser",
      "outputs": [
        {
          "internalType": "uint256",
          "name": "amount",
          "type": "uint256"
        }
      ],
      "stateMutability": "view",
      "type": "function"
    },
    {
      "inputs": [],
      "name": "getTotalValueLockedForRegularUsers",
      "outputs": [
        {
          "internalType": "uint256",
          "name": "total",
          "type": "uint256"
        }
      ],
      "stateMutability": "view",
      "type": "function"
    },
    {
      "inputs": [],
      "name": "getTotalValueLockedForWhitelistedUsers",
      "outputs": [
        {
          "internalType": "uint256",
          "name": "total",
          "type": "uint256"
        }
      ],
      "stateMutability": "view",
      "type": "function"
    },
    {
      "inputs": [],
      "name": "isEmergencyMode",
      "outputs": [
        {
          "internalType": "bool",
          "name": "",
          "type": "bool"
        }
      ],
      "stateMutability": "view",
      "type": "function"
    },
    {
      "inputs": [
        {
          "internalType": "address",
          "name": "",
          "type": "address"
        }
      ],
      "name": "isOwner",
      "outputs": [
        {
          "internalType": "bool",
          "name": "",
          "type": "bool"
        }
      ],
      "stateMutability": "view",
      "type": "function"
    },
    {
      "inputs": [
        {
          "internalType": "uint256",
          "name": "",
          "type": "uint256"
        }
      ],
      "name": "items",
      "outputs": [
        {
          "internalType": "string",
          "name": "name",
          "type": "string"
        },
        {
          "internalType": "uint256",
          "name": "priceRegular",
          "type": "uint256"
        },
        {
          "internalType": "uint256",
          "name": "priceWhitelisted",
          "type": "uint256"
        }
      ],
      "stateMutability": "view",
      "type": "function"
    },
    {
      "inputs": [],
      "name": "maxTVLPerRegularUser",
      "outputs": [
        {
          "internalType": "uint256",
          "name": "",
          "type": "uint256"
        }
      ],
      "stateMutability": "view",
      "type": "function"
    },
    {
      "inputs": [],
      "name": "maxTVLPerWhitelistedUser",
      "outputs": [
        {
          "internalType": "uint256",
          "name": "",
          "type": "uint256"
        }
      ],
      "stateMutability": "view",
      "type": "function"
    },
    {
      "inputs": [],
      "name": "multisig",
      "outputs": [
        {
          "internalType": "address",
          "name": "",
          "type": "address"
        }
      ],
      "stateMutability": "view",
      "type": "function"
    },
    {
      "inputs": [],
      "name": "openPreOrderToRegular",
      "outputs": [
        {
          "internalType": "bool",
          "name": "",
          "type": "bool"
        }
      ],
      "stateMutability": "view",
      "type": "function"
    },
    {
      "inputs": [],
      "name": "openPreOrderToWhitelist",
      "outputs": [
        {
          "internalType": "bool",
          "name": "",
          "type": "bool"
        }
      ],
      "stateMutability": "view",
      "type": "function"
    },
    {
      "inputs": [],
      "name": "openToBurn",
      "outputs": [
        {
          "internalType": "bool",
          "name": "",
          "type": "bool"
        }
      ],
      "stateMutability": "view",
      "type": "function"
    },
    {
      "inputs": [
        {
          "internalType": "uint256",
          "name": "",
          "type": "uint256"
        }
      ],
      "name": "owners",
      "outputs": [
        {
          "internalType": "address",
          "name": "",
          "type": "address"
        }
      ],
      "stateMutability": "view",
      "type": "function"
    },
    {
      "inputs": [],
      "name": "paymentToken",
      "outputs": [
        {
          "internalType": "contract IERC20",
          "name": "",
          "type": "address"
        }
      ],
      "stateMutability": "view",
      "type": "function"
    },
    {
      "inputs": [
        {
          "internalType": "uint256",
          "name": "itemIdx",
          "type": "uint256"
        },
        {
          "internalType": "uint256",
          "name": "amount",
          "type": "uint256"
        }
      ],
      "name": "preOrder",
      "outputs": [],
      "stateMutability": "nonpayable",
      "type": "function"
    },
    {
      "inputs": [],
      "name": "refill",
      "outputs": [],
      "stateMutability": "nonpayable",
      "type": "function"
    },
    {
      "inputs": [
        {
          "internalType": "address",
          "name": "_new",
          "type": "address"
        }
      ],
      "name": "removeOwner",
      "outputs": [],
      "stateMutability": "nonpayable",
      "type": "function"
    },
    {
      "inputs": [],
      "name": "resetAllowance",
      "outputs": [],
      "stateMutability": "nonpayable",
      "type": "function"
    },
    {
      "inputs": [
        {
          "internalType": "address",
          "name": "_burner",
          "type": "address"
        }
      ],
      "name": "setBurner",
      "outputs": [],
      "stateMutability": "nonpayable",
      "type": "function"
    },
    {
      "inputs": [
        {
          "internalType": "bool",
          "name": "_emergency",
          "type": "bool"
        }
      ],
      "name": "setEmergencyMode",
      "outputs": [],
      "stateMutability": "nonpayable",
      "type": "function"
    },
    {
      "inputs": [
        {
          "internalType": "uint256",
          "name": "maxTVL",
          "type": "uint256"
        }
      ],
      "name": "setMaxTVLByRegularUser",
      "outputs": [],
      "stateMutability": "nonpayable",
      "type": "function"
    },
    {
      "inputs": [
        {
          "internalType": "uint256",
          "name": "maxTVL",
          "type": "uint256"
        }
      ],
      "name": "setMaxTVLByWhitelistedUser",
      "outputs": [],
      "stateMutability": "nonpayable",
      "type": "function"
    },
    {
      "inputs": [
        {
          "internalType": "bool",
          "name": "isOpen",
          "type": "bool"
        }
      ],
      "name": "setOpenPreOrderForAll",
      "outputs": [],
      "stateMutability": "nonpayable",
      "type": "function"
    },
    {
      "inputs": [
        {
          "internalType": "bool",
          "name": "isOpen",
          "type": "bool"
        }
      ],
      "name": "setOpenPreOrderForRegular",
      "outputs": [],
      "stateMutability": "nonpayable",
      "type": "function"
    },
    {
      "inputs": [
        {
          "internalType": "bool",
          "name": "isOpen",
          "type": "bool"
        }
      ],
      "name": "setOpenPreOrderForWhitelist",
      "outputs": [],
      "stateMutability": "nonpayable",
      "type": "function"
    },
    {
      "inputs": [
        {
          "internalType": "bool",
          "name": "isOpen",
          "type": "bool"
        }
      ],
      "name": "setOpenToBurn",
      "outputs": [],
      "stateMutability": "nonpayable",
      "type": "function"
    },
    {
      "inputs": [
        {
          "internalType": "address[]",
          "name": "users",
          "type": "address[]"
        },
        {
          "internalType": "bool",
          "name": "isWhitelisted",
          "type": "bool"
        }
      ],
      "name": "setWhitelist",
      "outputs": [],
      "stateMutability": "nonpayable",
      "type": "function"
    },
    {
      "inputs": [
        {
          "internalType": "uint256",
          "name": "",
          "type": "uint256"
        }
      ],
      "name": "tvlByItemIdx",
      "outputs": [
        {
          "internalType": "uint256",
          "name": "regular",
          "type": "uint256"
        },
        {
          "internalType": "uint256",
          "name": "whitelisted",
          "type": "uint256"
        }
      ],
      "stateMutability": "view",
      "type": "function"
    },
    {
      "inputs": [
        {
          "internalType": "address",
          "name": "",
          "type": "address"
        }
      ],
      "name": "whitelist",
      "outputs": [
        {
          "internalType": "bool",
          "name": "",
          "type": "bool"
        }
      ],
      "stateMutability": "view",
      "type": "function"
    },
    {
      "inputs": [],
      "name": "whithdraw",
      "outputs": [],
      "stateMutability": "nonpayable",
      "type": "function"
    }
  ],
  "bytecode": "0x60c06040526002805460ff191690556008805462ffffff60a01b191690553480156200002a57600080fd5b5060405162003d2c38038062003d2c8339810160408190526200004d9162000add565b60008054600181810183557f290decd9548b62a8d60345a988386fc84ba6bc95484008f6362f93160ef3e56390910180546001600160a01b03191633908117909155825260208190526040909120805460ff1916909117905583518551148015620000b9575082518451145b6200010b5760405162461bcd60e51b815260206004820181905260248201527f417272617973206d7573742068617665207468652073616d65206c656e67746860448201526064015b60405180910390fd5b80516002146200015e5760405162461bcd60e51b815260206004820152601760248201527f496e76616c696420617267756d656e74206c656e677468000000000000000000604482015260640162000102565b6001600160a01b038216620001c15760405162461bcd60e51b815260206004820152602260248201527f4d756c74697369672063616e277420626520746865207a65726f206164647265604482015261737360f01b606482015260840162000102565b60005b85518110156200029c5760036040518060600160405280888481518110620001f057620001f062000bbb565b6020026020010151815260200187848151811062000212576200021262000bbb565b6020026020010151815260200186848151811062000234576200023462000bbb565b60209081029190910181015190915282546001810184556000938452928190208251805193946003029091019262000270928492019062000811565b506020820151600182015560409091015160029091015580620002938162000bd1565b915050620001c4565b506001600160a01b03808716608052821660a05260005b600354811015620003bf57604080518082018252600080825260208083018281526004805460018181018355918552945160029586027f8a35acfbc15ff81a39ae7d344fd709f28e8600b4aa8c65c6b64bfe7fe36bd19b81019190915591517f8a35acfbc15ff81a39ae7d344fd709f28e8600b4aa8c65c6b64bfe7fe36bd19c9092019190915584518086019095528285529084018281526005805492830181559092529251929091027f036b6384b5eca791c62761152d0c79bb0604c104a5fb6f4eb0703f3154bb3db0810192909255517f036b6384b5eca791c62761152d0c79bb0604c104a5fb6f4eb0703f3154bb3db19091015580620003b68162000bd1565b915050620002b3565b50620003eb60a0516000196080516001600160a01b03166200043f60201b6200213b179092919060201c565b8060008151811062000401576200040162000bbb565b60200260200101516009819055508060018151811062000425576200042562000bbb565b6020026020010151600a8190555050505050505062000cc9565b801580620004cd5750604051636eb1769f60e11b81523060048201526001600160a01b03838116602483015284169063dd62ed3e9060440160206040518083038186803b1580156200049057600080fd5b505afa158015620004a5573d6000803e3d6000fd5b505050506040513d601f19601f82011682018060405250810190620004cb919062000bfb565b155b620005415760405162461bcd60e51b815260206004820152603660248201527f5361666545524332303a20617070726f76652066726f6d206e6f6e2d7a65726f60448201527f20746f206e6f6e2d7a65726f20616c6c6f77616e636500000000000000000000606482015260840162000102565b604080516001600160a01b038416602482015260448082018490528251808303909101815260649091019091526020810180516001600160e01b0390811663095ea7b360e01b17909152620005999185916200059e16565b505050565b6000620005fa826040518060400160405280602081526020017f5361666545524332303a206c6f772d6c6576656c2063616c6c206661696c6564815250856001600160a01b03166200067c60201b62002297179092919060201c565b8051909150156200059957808060200190518101906200061b919062000c15565b620005995760405162461bcd60e51b815260206004820152602a60248201527f5361666545524332303a204552433230206f7065726174696f6e20646964206e6044820152691bdd081cdd58d8d9595960b21b606482015260840162000102565b60606200068d848460008562000697565b90505b9392505050565b606082471015620006fa5760405162461bcd60e51b815260206004820152602660248201527f416464726573733a20696e73756666696369656e742062616c616e636520666f6044820152651c8818d85b1b60d21b606482015260840162000102565b6001600160a01b0385163b620007535760405162461bcd60e51b815260206004820152601d60248201527f416464726573733a2063616c6c20746f206e6f6e2d636f6e7472616374000000604482015260640162000102565b600080866001600160a01b0316858760405162000771919062000c39565b60006040518083038185875af1925050503d8060008114620007b0576040519150601f19603f3d011682016040523d82523d6000602084013e620007b5565b606091505b509092509050620007c8828286620007d3565b979650505050505050565b60608315620007e457508162000690565b825115620007f55782518084602001fd5b8160405162461bcd60e51b815260040162000102919062000c57565b8280546200081f9062000c8c565b90600052602060002090601f0160209004810192826200084357600085556200088e565b82601f106200085e57805160ff19168380011785556200088e565b828001600101855582156200088e579182015b828111156200088e57825182559160200191906001019062000871565b506200089c929150620008a0565b5090565b5b808211156200089c5760008155600101620008a1565b80516001600160a01b0381168114620008cf57600080fd5b919050565b634e487b7160e01b600052604160045260246000fd5b604051601f8201601f191681016001600160401b0381118282101715620009155762000915620008d4565b604052919050565b60006001600160401b03821115620009395762000939620008d4565b5060051b60200190565b60005b838110156200096057818101518382015260200162000946565b8381111562000970576000848401525b50505050565b6000601f83818401126200098957600080fd5b82516020620009a26200099c836200091d565b620008ea565b82815260059290921b85018101918181019087841115620009c257600080fd5b8287015b8481101562000a645780516001600160401b0380821115620009e85760008081fd5b818a0191508a603f830112620009fe5760008081fd5b8582015160408282111562000a175762000a17620008d4565b62000a2a828b01601f19168901620008ea565b92508183528c8183860101111562000a425760008081fd5b62000a538289850183870162000943565b5050845250918301918301620009c6565b50979650505050505050565b600082601f83011262000a8257600080fd5b8151602062000a956200099c836200091d565b82815260059290921b8401810191818101908684111562000ab557600080fd5b8286015b8481101562000ad2578051835291830191830162000ab9565b509695505050505050565b60008060008060008060c0878903121562000af757600080fd5b62000b0287620008b7565b60208801519096506001600160401b038082111562000b2057600080fd5b62000b2e8a838b0162000976565b9650604089015191508082111562000b4557600080fd5b62000b538a838b0162000a70565b9550606089015191508082111562000b6a57600080fd5b62000b788a838b0162000a70565b945062000b8860808a01620008b7565b935060a089015191508082111562000b9f57600080fd5b5062000bae89828a0162000a70565b9150509295509295509295565b634e487b7160e01b600052603260045260246000fd5b600060001982141562000bf457634e487b7160e01b600052601160045260246000fd5b5060010190565b60006020828403121562000c0e57600080fd5b5051919050565b60006020828403121562000c2857600080fd5b815180151581146200069057600080fd5b6000825162000c4d81846020870162000943565b9190910192915050565b602081526000825180602084015262000c7881604085016020870162000943565b601f01601f19169190910160400192915050565b600181811c9082168062000ca157607f821691505b6020821081141562000cc357634e487b7160e01b600052602260045260246000fd5b50919050565b60805160a051612fd462000d58600039600081816103d9015281816111a2015281816112940152818161134d01528181611779015281816117cf015261240e015260008181610362015281816111f7015281816112c8015281816116a9015281816117f90152818161187d015281816119e4015281816120340152818161243801526124c80152612fd46000f3fe608060405234801561001057600080fd5b506004361061027f5760003560e01c80637fe95ffb1161015c578063b26025aa116100ce578063bfb231d211610087578063bfb231d21461058d578063c046e5cb146105af578063c73f127f146105b7578063cb4ebf46146105ca578063d382b368146105dd578063dc3b21c1146105f057600080fd5b8063b26025aa14610530578063b76d693a14610538578063ba6c873114610540578063bb23091214610553578063be32b3f814610567578063bee7f6321461057a57600080fd5b80638b46693b116101205780638b46693b146104aa5780638f52d286146104ca57806399ae7d11146104de57806399e383d8146104f25780639b19251a146104fa578063a996d6ce1461051d57600080fd5b80637fe95ffb146104765780638280d3fb1461047e57806383883bb2146104915780638954b3e01461049a578063895b26bd146104a257600080fd5b8063410d59cc116101f557806353001999116101b95780635300199914610416578063538e0759146104385780636629fbdb1461044057806366eeef5214610448578063716274241461045057806375d22e7d1461046357600080fd5b8063410d59cc14610397578063475dc5cf146103ac5780634783c35b146103d45780634ba32eb1146103fb578063518e32d31461040357600080fd5b806320a194b81161024757806320a194b81461030157806320bd38081461031e5780632672f15f146103275780632f54bf6e1461033a5780633013ce291461035d5780633c271a051461038457600080fd5b8063025e7c271461028457806306b2312f146102b45780630c7b1d7b146102c9578063173825d9146102db5780631aabc73f146102ee575b600080fd5b610297610292366004612ab6565b610603565b6040516001600160a01b0390911681526020015b60405180910390f35b6102c76102c2366004612ab6565b61062d565b005b6000545b6040519081526020016102ab565b6102c76102e9366004612aeb565b61066a565b6102c76102fc366004612b14565b6108e6565b60025461030e9060ff1681565b60405190151581526020016102ab565b6102cd600a5481565b6102cd610335366004612ab6565b610933565b61030e610348366004612aeb565b60016020526000908152604090205460ff1681565b6102977f000000000000000000000000000000000000000000000000000000000000000081565b6102c7610392366004612b31565b6109af565b61039f610a55565b6040516102ab9190612c0f565b6103bf6103ba366004612ab6565b610c64565b604080519283526020830191909152016102ab565b6102977f000000000000000000000000000000000000000000000000000000000000000081565b6102cd610c92565b6102c7610411366004612ca4565b610ce8565b610429610424366004612cdb565b610ed3565b6040516102ab93929190612d05565b6102c7611197565b6102cd6112f0565b6102c7611342565b6102c761045e366004612d2d565b611394565b6102c7610471366004612b14565b611721565b6102c761176e565b6102cd61048c366004612aeb565b6118a4565b6102cd60095481565b6102c7611928565b6102cd611a0e565b6104bd6104b8366004612aeb565b611a50565b6040516102ab9190612d4f565b60085461030e90600160a81b900460ff1681565b60085461030e90600160b01b900460ff1681565b6102cd611c53565b61030e610508366004612aeb565b60066020526000908152604090205460ff1681565b6102c761052b366004612aeb565b611ca5565b6102cd611cf6565b6102cd611d38565b6103bf61054e366004612ab6565b611d8a565b60085461030e90600160a01b900460ff1681565b6102c7610575366004612b14565b611d9a565b6102cd610588366004612aeb565b611ddc565b6105a061059b366004612ab6565b611e63565b6040516102ab93929190612dc2565b6003546102cd565b6102c76105c5366004612ab6565b611f25565b6102c76105d8366004612ab6565b61205b565b6102c76105eb366004612b14565b61208f565b6102c76105fe366004612b14565b6120dc565b6000818154811061061357600080fd5b6000918252602090912001546001600160a01b0316905081565b3360009081526001602052604090205460ff166106655760405162461bcd60e51b815260040161065c90612de7565b60405180910390fd5b600955565b336001600160a01b03166000808154811061068757610687612e13565b6000918252602090912001546001600160a01b0316146106e45760405162461bcd60e51b815260206004820152601860248201527727bbb732b9399d1027b7363c9029bab832b91027bbb732b960411b604482015260640161065c565b6001600160a01b03811660009081526001602052604090205460ff166107405760405162461bcd60e51b815260206004820152601160248201527027bbb732b9399d102737ba1037bbb732b960791b604482015260640161065c565b6000808154811061075357610753612e13565b6000918252602090912001546001600160a01b03828116911614156107c45760405162461bcd60e51b815260206004820152602160248201527f4f776e6572733a2043616e6e6f742072656d6f7665207375706572206f776e656044820152603960f91b606482015260840161065c565b60015b6000548110156108c457816001600160a01b0316600082815481106107ee576107ee612e13565b6000918252602090912001546001600160a01b031614156108b2576000805461081990600190612e3f565b8154811061082957610829612e13565b600091825260208220015481546001600160a01b0390911691908390811061085357610853612e13565b6000918252602082200180546001600160a01b0319166001600160a01b03939093169290921790915580548061088b5761088b612e56565b600082815260209020810160001990810180546001600160a01b03191690550190556108c4565b806108bc81612e6c565b9150506107c7565b506001600160a01b03166000908152600160205260409020805460ff19169055565b3360009081526001602052604090205460ff166109155760405162461bcd60e51b815260040161065c90612de7565b60088054911515600160b01b0260ff60b01b19909216919091179055565b60035460009082106109805760405162461bcd60e51b815260206004820152601660248201527550726553616c653a206f7574206f6620626f756e647360501b604482015260640161065c565b6109a96004838154811061099657610996612e13565b90600052602060002090600202016122b0565b92915050565b3360009081526001602052604090205460ff166109de5760405162461bcd60e51b815260040161065c90612de7565b60005b82811015610a4f578160066000868685818110610a0057610a00612e13565b9050602002016020810190610a159190612aeb565b6001600160a01b031681526020810191909152604001600020805460ff191691151591909117905580610a4781612e6c565b9150506109e1565b50505050565b60035460609060009067ffffffffffffffff811115610a7657610a76612e87565b604051908082528060200260200182016040528015610ad957816020015b610ac66040518060a0016040528060608152602001600081526020016000815260200160008152602001600081525090565b815260200190600190039081610a945790505b50905060005b600354811015610c5e576040518060a0016040528060038381548110610b0757610b07612e13565b90600052602060002090600302016000018054610b2390612e9d565b80601f0160208091040260200160405190810160405280929190818152602001828054610b4f90612e9d565b8015610b9c5780601f10610b7157610100808354040283529160200191610b9c565b820191906000526020600020905b815481529060010190602001808311610b7f57829003601f168201915b5050505050815260200160038381548110610bb957610bb9612e13565b906000526020600020906003020160010154815260200160038381548110610be357610be3612e13565b9060005260206000209060030201600201548152602001610c106004848154811061099657610996612e13565b8152602001610c2b6005848154811061099657610996612e13565b815250828281518110610c4057610c40612e13565b60200260200101819052508080610c5690612e6c565b915050610adf565b50919050565b60048181548110610c7457600080fd5b60009182526020909120600290910201805460019091015490915082565b6000805b600454811015610ce45760048181548110610cb357610cb3612e13565b90600052602060002090600202016001015482610cd09190612ed2565b915080610cdc81612e6c565b915050610c96565b5090565b336001600160a01b031660008081548110610d0557610d05612e13565b6000918252602090912001546001600160a01b031614610d625760405162461bcd60e51b815260206004820152601860248201527727bbb732b9399d1027b7363c9029bab832b91027bbb732b960411b604482015260640161065c565b6001600160a01b03821660009081526001602052604090205460ff1615610dc35760405162461bcd60e51b815260206004820152601560248201527427bbb732b9399d1020b63932b0b23c9037bbb732b960591b604482015260640161065c565b6001600160a01b0382166000908152600160208190526040909120805460ff191690911790558015610e8657600080600081548110610e0457610e04612e13565b6000918252602080832090910154835460018101855593835290822090920180546001600160a01b0319166001600160a01b039093169290921790915580548391908190610e5457610e54612e13565b9060005260206000200160006101000a8154816001600160a01b0302191690836001600160a01b031602179055505050565b600080546001810182559080527f290decd9548b62a8d60345a988386fc84ba6bc95484008f6362f93160ef3e5630180546001600160a01b0319166001600160a01b0384161790555b5050565b600254600090819060609060ff1615610f2e5760405162461bcd60e51b815260206004820152601b60248201527f456d657267656e6379206d6f6465206973206163746976617465640000000000604482015260640161065c565b600854600160b01b900460ff16610f875760405162461bcd60e51b815260206004820152601960248201527f50726553616c653a206e6f74206f70656e20746f206275726e00000000000000604482015260640161065c565b6008546001600160a01b03163314610fe15760405162461bcd60e51b815260206004820152601760248201527f50726553616c653a206f6e6c79206279204275726e6572000000000000000000604482015260640161065c565b6001600160a01b03851661102f5760405162461bcd60e51b815260206004820152601560248201527450726553616c653a206e756c6c206164647265737360581b604482015260640161065c565b60035484106110805760405162461bcd60e51b815260206004820152601e60248201527f50726553616c653a206974656d496478206f7574206f6620626f756e64730000604482015260640161065c565b6003848154811061109357611093612e13565b906000526020600020906003020160000180546110af90612e9d565b80601f01602080910402602001604051908101604052809291908181526020018280546110db90612e9d565b80156111285780601f106110fd57610100808354040283529160200191611128565b820191906000526020600020905b81548152906001019060200180831161110b57829003601f168201915b5050505050905061113985856122c3565b604080516001600160a01b038916815260208101889052908101839052606081018290529094509092507f8bfee7c6624e60c298653663ab25d1f9bb7b0b7d764a02ad6664be2ea0e7a8b79060800160405180910390a19250925092565b336001600160a01b037f000000000000000000000000000000000000000000000000000000000000000016146111df5760405162461bcd60e51b815260040161065c90612eea565b6040516370a0823160e01b81523060048201526000907f00000000000000000000000000000000000000000000000000000000000000006001600160a01b0316906370a082319060240160206040518083038186803b15801561124157600080fd5b505afa158015611255573d6000803e3d6000fd5b505050506040513d601f19601f820116820180604052508101906112799190612f1a565b90506000611285611cf6565b905080821015610ecf57610ecf7f0000000000000000000000000000000000000000000000000000000000000000306112be8585612e3f565b6001600160a01b037f0000000000000000000000000000000000000000000000000000000000000000169291906123b7565b6000805b600454811015610ce4576004818154811061131157611311612e13565b9060005260206000209060020201600001548261132e9190612ed2565b91508061133a81612e6c565b9150506112f4565b336001600160a01b037f0000000000000000000000000000000000000000000000000000000000000000161461138a5760405162461bcd60e51b815260040161065c90612eea565b6113926123ef565b565b60025460ff16156113e75760405162461bcd60e51b815260206004820152601b60248201527f456d657267656e6379206d6f6465206973206163746976617465640000000000604482015260640161065c565b3360009081526006602052604090205460ff168080156114105750600854600160a81b900460ff165b8061142d57508015801561142d5750600854600160a01b900460ff165b6114795760405162461bcd60e51b815260206004820152601c60248201527f50726553616c653a205072652d6f7264657220697320636c6f73656400000000604482015260640161065c565b60035483106114ca5760405162461bcd60e51b815260206004820152601c60248201527f50726553616c653a20696e646578206f7574206f6620626f756e647300000000604482015260640161065c565b6000821161151a5760405162461bcd60e51b815260206004820152601d60248201527f50726553616c653a20616d6f756e742063616e2774206265207a65726f000000604482015260640161065c565b60006003848154811061152f5761152f612e13565b906000526020600020906003020160405180606001604052908160008201805461155890612e9d565b80601f016020809104026020016040519081016040528092919081815260200182805461158490612e9d565b80156115d15780601f106115a6576101008083540402835291602001916115d1565b820191906000526020600020905b8154815290600101906020018083116115b457829003601f168201915b5050509183525050600182015460208201526002909101546040909101529050600083831561161657600a54915082604001518161160f9190612f33565b905061162e565b600954915082602001518161162b9190612f33565b90505b8161163833611ddc565b6116429083612ed2565b11156116905760405162461bcd60e51b815260206004820152601c60248201527f50726553616c653a204d6178696d756d2054564c207265616368656400000000604482015260640161065c565b61169c338787846124ef565b6116d16001600160a01b037f0000000000000000000000000000000000000000000000000000000000000000163330846123b7565b6040805133815260208101889052908101869052606081018290527fea967a038e366ee2f8fc61d059bf0b3a807d647724c99084488f81908f10e01f9060800160405180910390a1505050505050565b3360009081526001602052604090205460ff166117505760405162461bcd60e51b815260040161065c90612de7565b60088054911515600160a01b0260ff60a01b19909216919091179055565b336001600160a01b037f000000000000000000000000000000000000000000000000000000000000000016146117b65760405162461bcd60e51b815260040161065c90612eea565b6040516370a0823160e01b8152306004820152611392907f0000000000000000000000000000000000000000000000000000000000000000906001600160a01b037f000000000000000000000000000000000000000000000000000000000000000016906370a082319060240160206040518083038186803b15801561183b57600080fd5b505afa15801561184f573d6000803e3d6000fd5b505050506040513d601f19601f820116820180604052508101906118739190612f1a565b6001600160a01b037f00000000000000000000000000000000000000000000000000000000000000001691906125ae565b6000805b600354811015610c5e576001600160a01b03831660009081526007602090815260408083208484529091529020546118e09083612ed2565b6001600160a01b03841660009081526007602090815260408083208584529091529020600101549092506119149083612ed2565b91508061192081612e6c565b9150506118a8565b60025460ff1661197a5760405162461bcd60e51b815260206004820152601f60248201527f456d657267656e6379206d6f6465206973206e6f742061637469766174656400604482015260640161065c565b6000611985336125de565b9050600081116119d75760405162461bcd60e51b815260206004820152601e60248201527f50726553616c6520456d657267656e63793a206e6f206465706f736974730000604482015260640161065c565b611a0b6001600160a01b037f00000000000000000000000000000000000000000000000000000000000000001633836125ae565b50565b6000805b600454811015610ce457611a326004828154811061099657610996612e13565b611a3c9083612ed2565b915080611a4881612e6c565b915050611a12565b60035460609060009067ffffffffffffffff811115611a7157611a71612e87565b604051908082528060200260200182016040528015611ac657816020015b611ab360405180606001604052806060815260200160008152602001600081525090565b815260200190600190039081611a8f5790505b50905060005b600354811015611c4c5760038181548110611ae957611ae9612e13565b90600052602060002090600302016000018054611b0590612e9d565b80601f0160208091040260200160405190810160405280929190818152602001828054611b3190612e9d565b8015611b7e5780601f10611b5357610100808354040283529160200191611b7e565b820191906000526020600020905b815481529060010190602001808311611b6157829003601f168201915b5050505050828281518110611b9557611b95612e13565b602090810291909101810151919091526001600160a01b038516600090815260078252604080822084835290925220611bcd906122b0565b828281518110611bdf57611bdf612e13565b6020908102919091018101518101919091526001600160a01b038516600090815260078252604080822084835290925220611c19906126b7565b828281518110611c2b57611c2b612e13565b60209081029190910101516040015280611c4481612e6c565b915050611acc565b5092915050565b6000805b600554811015610ce45760058181548110611c7457611c74612e13565b90600052602060002090600202016000015482611c919190612ed2565b915080611c9d81612e6c565b915050611c57565b3360009081526001602052604090205460ff16611cd45760405162461bcd60e51b815260040161065c90612de7565b600880546001600160a01b0319166001600160a01b0392909216919091179055565b6000805b600554811015610ce457611d1a6005828154811061099657610996612e13565b611d249083612ed2565b915080611d3081612e6c565b915050611cfa565b6000805b600554811015610ce45760058181548110611d5957611d59612e13565b90600052602060002090600202016001015482611d769190612ed2565b915080611d8281612e6c565b915050611d3c565b60058181548110610c7457600080fd5b3360009081526001602052604090205460ff16611dc95760405162461bcd60e51b815260040161065c90612de7565b6002805460ff1916911515919091179055565b6000805b600354811015610c5e576001600160a01b0383166000908152600760209081526040808320848452909152902060020154611e1b9083612ed2565b6001600160a01b0384166000908152600760209081526040808320858452909152902060030154909250611e4f9083612ed2565b915080611e5b81612e6c565b915050611de0565b60038181548110611e7357600080fd5b9060005260206000209060030201600091509050806000018054611e9690612e9d565b80601f0160208091040260200160405190810160405280929190818152602001828054611ec290612e9d565b8015611f0f5780601f10611ee457610100808354040283529160200191611f0f565b820191906000526020600020905b815481529060010190602001808311611ef257829003601f168201915b5050505050908060010154908060020154905083565b60025460ff16611f775760405162461bcd60e51b815260206004820152601f60248201527f456d657267656e6379206d6f6465206973206e6f742061637469766174656400604482015260640161065c565b6003548110611fc85760405162461bcd60e51b815260206004820181905260248201527f50726553616c6520456d657267656e63793a206f7574206f6620626f756e6473604482015260640161065c565b6000611fd433836122c3565b915050600081116120275760405162461bcd60e51b815260206004820152601e60248201527f50726553616c6520456d657267656e63793a206e6f206465706f736974730000604482015260640161065c565b610ecf6001600160a01b037f00000000000000000000000000000000000000000000000000000000000000001633836125ae565b3360009081526001602052604090205460ff1661208a5760405162461bcd60e51b815260040161065c90612de7565b600a55565b3360009081526001602052604090205460ff166120be5760405162461bcd60e51b815260040161065c90612de7565b60088054911515600160a81b0260ff60a81b19909216919091179055565b3360009081526001602052604090205460ff1661210b5760405162461bcd60e51b815260040161065c90612de7565b6008805461ffff60a01b1916600160a01b92151592830260ff60a81b191617600160a81b92909202919091179055565b8015806121c45750604051636eb1769f60e11b81523060048201526001600160a01b03838116602483015284169063dd62ed3e9060440160206040518083038186803b15801561218a57600080fd5b505afa15801561219e573d6000803e3d6000fd5b505050506040513d601f19601f820116820180604052508101906121c29190612f1a565b155b61222f5760405162461bcd60e51b815260206004820152603660248201527f5361666545524332303a20617070726f76652066726f6d206e6f6e2d7a65726f60448201527520746f206e6f6e2d7a65726f20616c6c6f77616e636560501b606482015260840161065c565b6040516001600160a01b03831660248201526044810182905261229290849063095ea7b360e01b906064015b60408051601f198184030181529190526020810180516001600160e01b03166001600160e01b0319909316929092179091526126cd565b505050565b60606122a6848460008561279f565b90505b9392505050565b600181015481546000916109a991612ed2565b6001600160a01b038216600090815260076020908152604080832084845290915281206001808201546004805485949361232893909290918890811061230b5761230b612e13565b90600052602060002090600202016128d09092919063ffffffff16565b612345600082600001546004878154811061230b5761230b612e13565b612362600182600301546005878154811061230b5761230b612e13565b61237f600082600201546005878154811061230b5761230b612e13565b6001600160a01b038516600090815260076020908152604080832087845290915290206123ab90612913565b90969095509350505050565b6040516001600160a01b0380851660248301528316604482015260648101829052610a4f9085906323b872dd60e01b9060840161225b565b604051636eb1769f60e11b8152306004820152336024820152611392907f0000000000000000000000000000000000000000000000000000000000000000906001600160a01b037f0000000000000000000000000000000000000000000000000000000000000000169063dd62ed3e9060440160206040518083038186803b15801561247a57600080fd5b505afa15801561248e573d6000803e3d6000fd5b505050506040513d601f19601f820116820180604052508101906124b29190612f1a565b6124be90600019612e3f565b6001600160a01b037f0000000000000000000000000000000000000000000000000000000000000000169190612960565b6001600160a01b0384166000908152600660209081526040808320546007835281842087855290925290912060ff9091169061252c908285612a21565b6001600160a01b0385166000908152600760209081526040808320878452909152902061255a908284612a4f565b61258f81846004878154811061257257612572612e13565b9060005260206000209060020201612a219092919063ffffffff16565b6125a781836005878154811061257257612572612e13565b5050505050565b6040516001600160a01b03831660248201526044810182905261229290849063a9059cbb60e01b9060640161225b565b6000805b600354811015610c5e576001600160a01b0383166000908152600760209081526040808320848452909152902060018082015460048054612630939291908690811061230b5761230b612e13565b61264d600082600001546004858154811061230b5761230b612e13565b61266a600182600301546005858154811061230b5761230b612e13565b612687600082600201546005858154811061230b5761230b612e13565b600061269282612913565b91506126a090508185612ed2565b9350505080806126af90612e6c565b9150506125e2565b6000816003015482600201546109a99190612ed2565b6000612722826040518060400160405280602081526020017f5361666545524332303a206c6f772d6c6576656c2063616c6c206661696c6564815250856001600160a01b03166122979092919063ffffffff16565b80519091501561229257808060200190518101906127409190612f52565b6122925760405162461bcd60e51b815260206004820152602a60248201527f5361666545524332303a204552433230206f7065726174696f6e20646964206e6044820152691bdd081cdd58d8d9595960b21b606482015260840161065c565b6060824710156128005760405162461bcd60e51b815260206004820152602660248201527f416464726573733a20696e73756666696369656e742062616c616e636520666f6044820152651c8818d85b1b60d21b606482015260840161065c565b6001600160a01b0385163b6128575760405162461bcd60e51b815260206004820152601d60248201527f416464726573733a2063616c6c20746f206e6f6e2d636f6e7472616374000000604482015260640161065c565b600080866001600160a01b031685876040516128739190612f6f565b60006040518083038185875af1925050503d80600081146128b0576040519150601f19603f3d011682016040523d82523d6000602084013e6128b5565b606091505b50915091506128c5828286612a7d565b979650505050505050565b81156128f557808360010160008282546128ea9190612e3f565b909155506122929050565b808360000160008282546129099190612e3f565b9091555050505050565b6000808260010154836000015461292a9190612ed2565b9150826003015483600201546129409190612ed2565b600080855560018501819055600285018190556003909401939093555091565b604051636eb1769f60e11b81523060048201526001600160a01b038381166024830152600091839186169063dd62ed3e9060440160206040518083038186803b1580156129ac57600080fd5b505afa1580156129c0573d6000803e3d6000fd5b505050506040513d601f19601f820116820180604052508101906129e49190612f1a565b6129ee9190612ed2565b6040516001600160a01b038516602482015260448101829052909150610a4f90859063095ea7b360e01b9060640161225b565b8115612a3b57808360010160008282546128ea9190612ed2565b808360000160008282546129099190612ed2565b8115612a6957808360030160008282546128ea9190612ed2565b808360020160008282546129099190612ed2565b60608315612a8c5750816122a9565b825115612a9c5782518084602001fd5b8160405162461bcd60e51b815260040161065c9190612f8b565b600060208284031215612ac857600080fd5b5035919050565b80356001600160a01b0381168114612ae657600080fd5b919050565b600060208284031215612afd57600080fd5b6122a982612acf565b8015158114611a0b57600080fd5b600060208284031215612b2657600080fd5b81356122a981612b06565b600080600060408486031215612b4657600080fd5b833567ffffffffffffffff80821115612b5e57600080fd5b818601915086601f830112612b7257600080fd5b813581811115612b8157600080fd5b8760208260051b8501011115612b9657600080fd5b60209283019550935050840135612bac81612b06565b809150509250925092565b60005b83811015612bd2578181015183820152602001612bba565b83811115610a4f5750506000910152565b60008151808452612bfb816020860160208601612bb7565b601f01601f19169290920160200192915050565b60006020808301818452808551808352604092508286019150828160051b87010184880160005b83811015612c9657603f19898403018552815160a08151818652612c5c82870182612be3565b838b0151878c0152898401518a88015260608085015190880152608093840151939096019290925250509386019390860190600101612c36565b509098975050505050505050565b60008060408385031215612cb757600080fd5b612cc083612acf565b91506020830135612cd081612b06565b809150509250929050565b60008060408385031215612cee57600080fd5b612cf783612acf565b946020939093013593505050565b838152826020820152606060408201526000612d246060830184612be3565b95945050505050565b60008060408385031215612d4057600080fd5b50508035926020909101359150565b60006020808301818452808551808352604092508286019150828160051b87010184880160005b83811015612c9657603f19898403018552815160608151818652612d9c82870182612be3565b838b0151878c015292890151958901959095525094870194925090860190600101612d76565b606081526000612dd56060830186612be3565b60208301949094525060400152919050565b60208082526012908201527127bbb732b9399d1027b7363c9027bbb732b960711b604082015260600190565b634e487b7160e01b600052603260045260246000fd5b634e487b7160e01b600052601160045260246000fd5b600082821015612e5157612e51612e29565b500390565b634e487b7160e01b600052603160045260246000fd5b6000600019821415612e8057612e80612e29565b5060010190565b634e487b7160e01b600052604160045260246000fd5b600181811c90821680612eb157607f821691505b60208210811415610c5e57634e487b7160e01b600052602260045260246000fd5b60008219821115612ee557612ee5612e29565b500190565b60208082526016908201527550726553616c653a206f6e6c79206d756c746973696760501b604082015260600190565b600060208284031215612f2c57600080fd5b5051919050565b6000816000190483118215151615612f4d57612f4d612e29565b500290565b600060208284031215612f6457600080fd5b81516122a981612b06565b60008251612f81818460208701612bb7565b9190910192915050565b6020815260006122a96020830184612be356fea264697066735822122040f41b0bc63d3011284152d4c717820eb7179e21c878f0a60bafac2cab847edb64736f6c63430008090033",
  "linkReferences": {},
  "deployedLinkReferences": {}
}