{
  "_format": "hh-sol-artifact-1",
  "contractName": "SpringPlot",
  "sourceName": "contracts/SpringPlot.sol",
  "abi": [
    {
      "anonymous": false,
      "inputs": [
        {
          "indexed": true,
          "internalType": "address",
          "name": "owner",
          "type": "address"
        },
        {
          "indexed": true,
          "internalType": "address",
          "name": "approved",
          "type": "address"
        },
        {
          "indexed": true,
          "internalType": "uint256",
          "name": "tokenId",
          "type": "uint256"
        }
      ],
      "name": "Approval",
      "type": "event"
    },
    {
      "anonymous": false,
      "inputs": [
        {
          "indexed": true,
          "internalType": "address",
          "name": "owner",
          "type": "address"
        },
        {
          "indexed": true,
          "internalType": "address",
          "name": "operator",
          "type": "address"
        },
        {
          "indexed": false,
          "internalType": "bool",
          "name": "approved",
          "type": "bool"
        }
      ],
      "name": "ApprovalForAll",
      "type": "event"
    },
    {
      "anonymous": false,
      "inputs": [
        {
          "indexed": false,
          "internalType": "uint8",
          "name": "version",
          "type": "uint8"
        }
      ],
      "name": "Initialized",
      "type": "event"
    },
    {
      "anonymous": false,
      "inputs": [
        {
          "indexed": true,
          "internalType": "address",
          "name": "from",
          "type": "address"
        },
        {
          "indexed": true,
          "internalType": "address",
          "name": "to",
          "type": "address"
        },
        {
          "indexed": true,
          "internalType": "uint256",
          "name": "tokenId",
          "type": "uint256"
        }
      ],
      "name": "Transfer",
      "type": "event"
    },
    {
      "inputs": [
        {
          "internalType": "address",
          "name": "_new",
          "type": "address"
        },
        {
          "internalType": "bool",
          "name": "_change",
          "type": "bool"
        }
      ],
      "name": "addOwner",
      "outputs": [],
      "stateMutability": "nonpayable",
      "type": "function"
    },
    {
      "inputs": [
        {
          "internalType": "address",
          "name": "to",
          "type": "address"
        },
        {
          "internalType": "uint256",
          "name": "tokenId",
          "type": "uint256"
        }
      ],
      "name": "approve",
      "outputs": [],
      "stateMutability": "nonpayable",
      "type": "function"
    },
    {
      "inputs": [
        {
          "internalType": "address",
          "name": "owner",
          "type": "address"
        }
      ],
      "name": "balanceOf",
      "outputs": [
        {
          "internalType": "uint256",
          "name": "",
          "type": "uint256"
        }
      ],
      "stateMutability": "view",
      "type": "function"
    },
    {
      "inputs": [
        {
          "internalType": "address",
          "name": "user",
          "type": "address"
        },
        {
          "internalType": "string",
          "name": "plotTypeName",
          "type": "string"
        }
      ],
      "name": "createNewPlot",
      "outputs": [
        {
          "internalType": "uint256",
          "name": "",
          "type": "uint256"
        },
        {
          "internalType": "uint256",
          "name": "",
          "type": "uint256"
        }
      ],
      "stateMutability": "nonpayable",
      "type": "function"
    },
    {
      "inputs": [
        {
          "internalType": "address",
          "name": "user",
          "type": "address"
        }
      ],
      "name": "findOrCreateDefaultPlot",
      "outputs": [
        {
          "internalType": "uint256",
          "name": "",
          "type": "uint256"
        }
      ],
      "stateMutability": "nonpayable",
      "type": "function"
    },
    {
      "inputs": [
        {
          "internalType": "uint256",
          "name": "tokenId",
          "type": "uint256"
        }
      ],
      "name": "getApproved",
      "outputs": [
        {
          "internalType": "address",
          "name": "",
          "type": "address"
        }
      ],
      "stateMutability": "view",
      "type": "function"
    },
    {
      "inputs": [],
      "name": "getOwnersSize",
      "outputs": [
        {
          "internalType": "uint256",
          "name": "",
          "type": "uint256"
        }
      ],
      "stateMutability": "view",
      "type": "function"
    },
    {
      "inputs": [
        {
          "internalType": "uint256",
          "name": "tokenId",
          "type": "uint256"
        }
      ],
      "name": "getPlotByTokenId",
      "outputs": [
        {
          "components": [
            {
              "internalType": "string",
              "name": "plotType",
              "type": "string"
            },
            {
              "internalType": "address",
              "name": "owner",
              "type": "address"
            },
            {
              "internalType": "uint256[]",
              "name": "nodeTokenIds",
              "type": "uint256[]"
            }
          ],
          "internalType": "struct PlotInstanceView",
          "name": "",
          "type": "tuple"
        }
      ],
      "stateMutability": "view",
      "type": "function"
    },
    {
      "inputs": [
        {
          "internalType": "uint256",
          "name": "startIndex",
          "type": "uint256"
        },
        {
          "internalType": "uint256",
          "name": "endIndex",
          "type": "uint256"
        }
      ],
      "name": "getPlotTypeBetweenIndexes",
      "outputs": [
        {
          "components": [
            {
              "internalType": "string",
              "name": "name",
              "type": "string"
            },
            {
              "internalType": "uint256",
              "name": "maxNodes",
              "type": "uint256"
            },
            {
              "internalType": "uint256",
              "name": "price",
              "type": "uint256"
            },
            {
              "internalType": "string[]",
              "name": "allowedNodeTypes",
              "type": "string[]"
            },
            {
              "internalType": "uint256",
              "name": "additionalGRPTime",
              "type": "uint256"
            },
            {
              "internalType": "uint256",
              "name": "waterpackGRPBoost",
              "type": "uint256"
            }
          ],
          "internalType": "struct PlotTypeView[]",
          "name": "",
          "type": "tuple[]"
        }
      ],
      "stateMutability": "view",
      "type": "function"
    },
    {
      "inputs": [
        {
          "internalType": "uint256",
          "name": "nodeTokenId",
          "type": "uint256"
        }
      ],
      "name": "getPlotTypeByNodeTokenId",
      "outputs": [
        {
          "components": [
            {
              "internalType": "string",
              "name": "name",
              "type": "string"
            },
            {
              "internalType": "uint256",
              "name": "maxNodes",
              "type": "uint256"
            },
            {
              "internalType": "uint256",
              "name": "price",
              "type": "uint256"
            },
            {
              "internalType": "string[]",
              "name": "allowedNodeTypes",
              "type": "string[]"
            },
            {
              "internalType": "uint256",
              "name": "additionalGRPTime",
              "type": "uint256"
            },
            {
              "internalType": "uint256",
              "name": "waterpackGRPBoost",
              "type": "uint256"
            }
          ],
          "internalType": "struct PlotTypeView",
          "name": "",
          "type": "tuple"
        }
      ],
      "stateMutability": "view",
      "type": "function"
    },
    {
      "inputs": [
        {
          "internalType": "uint256",
          "name": "tokenId",
          "type": "uint256"
        }
      ],
      "name": "getPlotTypeByTokenId",
      "outputs": [
        {
          "components": [
            {
              "internalType": "string",
              "name": "name",
              "type": "string"
            },
            {
              "internalType": "uint256",
              "name": "maxNodes",
              "type": "uint256"
            },
            {
              "internalType": "uint256",
              "name": "price",
              "type": "uint256"
            },
            {
              "internalType": "string[]",
              "name": "allowedNodeTypes",
              "type": "string[]"
            },
            {
              "internalType": "uint256",
              "name": "additionalGRPTime",
              "type": "uint256"
            },
            {
              "internalType": "uint256",
              "name": "waterpackGRPBoost",
              "type": "uint256"
            }
          ],
          "internalType": "struct PlotTypeView",
          "name": "",
          "type": "tuple"
        }
      ],
      "stateMutability": "view",
      "type": "function"
    },
    {
      "inputs": [],
      "name": "getPlotTypeSize",
      "outputs": [
        {
          "internalType": "uint256",
          "name": "",
          "type": "uint256"
        }
      ],
      "stateMutability": "view",
      "type": "function"
    },
    {
      "inputs": [
        {
          "internalType": "contract IHandler",
          "name": "_handler",
          "type": "address"
        },
        {
          "internalType": "contract ISpringNode",
          "name": "springNode",
          "type": "address"
        },
        {
          "internalType": "string",
          "name": "defaultPlotTypeName",
          "type": "string"
        },
        {
          "internalType": "uint256",
          "name": "defaultMaxNodes",
          "type": "uint256"
        }
      ],
      "name": "initialize",
      "outputs": [],
      "stateMutability": "nonpayable",
      "type": "function"
    },
    {
      "inputs": [
        {
          "internalType": "address",
          "name": "owner",
          "type": "address"
        },
        {
          "internalType": "address",
          "name": "operator",
          "type": "address"
        }
      ],
      "name": "isApprovedForAll",
      "outputs": [
        {
          "internalType": "bool",
          "name": "",
          "type": "bool"
        }
      ],
      "stateMutability": "view",
      "type": "function"
    },
    {
      "inputs": [
        {
          "internalType": "address",
          "name": "",
          "type": "address"
        }
      ],
      "name": "isOwner",
      "outputs": [
        {
          "internalType": "bool",
          "name": "",
          "type": "bool"
        }
      ],
      "stateMutability": "view",
      "type": "function"
    },
    {
      "inputs": [
        {
          "internalType": "address",
          "name": "user",
          "type": "address"
        },
        {
          "internalType": "uint256",
          "name": "nodeTokenId",
          "type": "uint256"
        },
        {
          "internalType": "uint256",
          "name": "plotTokenId",
          "type": "uint256"
        }
      ],
      "name": "moveNodeToPlot",
      "outputs": [],
      "stateMutability": "nonpayable",
      "type": "function"
    },
    {
      "inputs": [
        {
          "internalType": "address",
          "name": "user",
          "type": "address"
        },
        {
          "internalType": "uint256[][]",
          "name": "nodeTokenIds",
          "type": "uint256[][]"
        },
        {
          "internalType": "uint256[]",
          "name": "plotTokenIds",
          "type": "uint256[]"
        }
      ],
      "name": "moveNodesToPlots",
      "outputs": [],
      "stateMutability": "nonpayable",
      "type": "function"
    },
    {
      "inputs": [],
      "name": "name",
      "outputs": [
        {
          "internalType": "string",
          "name": "",
          "type": "string"
        }
      ],
      "stateMutability": "view",
      "type": "function"
    },
    {
      "inputs": [
        {
          "internalType": "uint256",
          "name": "",
          "type": "uint256"
        }
      ],
      "name": "nodeTokenIdToPlotTokenId",
      "outputs": [
        {
          "internalType": "uint256",
          "name": "",
          "type": "uint256"
        }
      ],
      "stateMutability": "view",
      "type": "function"
    },
    {
      "inputs": [
        {
          "internalType": "uint256",
          "name": "tokenId",
          "type": "uint256"
        }
      ],
      "name": "ownerOf",
      "outputs": [
        {
          "internalType": "address",
          "name": "",
          "type": "address"
        }
      ],
      "stateMutability": "view",
      "type": "function"
    },
    {
      "inputs": [
        {
          "internalType": "uint256",
          "name": "",
          "type": "uint256"
        }
      ],
      "name": "owners",
      "outputs": [
        {
          "internalType": "address",
          "name": "",
          "type": "address"
        }
      ],
      "stateMutability": "view",
      "type": "function"
    },
    {
      "inputs": [
        {
          "internalType": "address",
          "name": "_new",
          "type": "address"
        }
      ],
      "name": "removeOwner",
      "outputs": [],
      "stateMutability": "nonpayable",
      "type": "function"
    },
    {
      "inputs": [
        {
          "internalType": "address",
          "name": "from",
          "type": "address"
        },
        {
          "internalType": "address",
          "name": "to",
          "type": "address"
        },
        {
          "internalType": "uint256",
          "name": "tokenId",
          "type": "uint256"
        }
      ],
      "name": "safeTransferFrom",
      "outputs": [],
      "stateMutability": "nonpayable",
      "type": "function"
    },
    {
      "inputs": [
        {
          "internalType": "address",
          "name": "from",
          "type": "address"
        },
        {
          "internalType": "address",
          "name": "to",
          "type": "address"
        },
        {
          "internalType": "uint256",
          "name": "tokenId",
          "type": "uint256"
        },
        {
          "internalType": "bytes",
          "name": "_data",
          "type": "bytes"
        }
      ],
      "name": "safeTransferFrom",
      "outputs": [],
      "stateMutability": "nonpayable",
      "type": "function"
    },
    {
      "inputs": [
        {
          "internalType": "address",
          "name": "operator",
          "type": "address"
        },
        {
          "internalType": "bool",
          "name": "approved",
          "type": "bool"
        }
      ],
      "name": "setApprovalForAll",
      "outputs": [],
      "stateMutability": "nonpayable",
      "type": "function"
    },
    {
      "inputs": [
        {
          "internalType": "string",
          "name": "plotTypeName",
          "type": "string"
        },
        {
          "internalType": "uint256",
          "name": "price",
          "type": "uint256"
        },
        {
          "internalType": "uint256",
          "name": "maxNodes",
          "type": "uint256"
        },
        {
          "internalType": "string[]",
          "name": "allowedNodeTypes",
          "type": "string[]"
        },
        {
          "internalType": "uint256",
          "name": "additionalGRPTime",
          "type": "uint256"
        },
        {
          "internalType": "uint256",
          "name": "waterpackGRPBoost",
          "type": "uint256"
        }
      ],
      "name": "setPlotType",
      "outputs": [],
      "stateMutability": "nonpayable",
      "type": "function"
    },
    {
      "inputs": [
        {
          "internalType": "bytes4",
          "name": "interfaceId",
          "type": "bytes4"
        }
      ],
      "name": "supportsInterface",
      "outputs": [
        {
          "internalType": "bool",
          "name": "",
          "type": "bool"
        }
      ],
      "stateMutability": "view",
      "type": "function"
    },
    {
      "inputs": [],
      "name": "symbol",
      "outputs": [
        {
          "internalType": "string",
          "name": "",
          "type": "string"
        }
      ],
      "stateMutability": "view",
      "type": "function"
    },
    {
      "inputs": [
        {
          "internalType": "uint256",
          "name": "index",
          "type": "uint256"
        }
      ],
      "name": "tokenByIndex",
      "outputs": [
        {
          "internalType": "uint256",
          "name": "",
          "type": "uint256"
        }
      ],
      "stateMutability": "view",
      "type": "function"
    },
    {
      "inputs": [
        {
          "internalType": "uint256",
          "name": "",
          "type": "uint256"
        }
      ],
      "name": "tokenIdToType",
      "outputs": [
        {
          "internalType": "string",
          "name": "",
          "type": "string"
        }
      ],
      "stateMutability": "view",
      "type": "function"
    },
    {
      "inputs": [
        {
          "internalType": "address",
          "name": "owner",
          "type": "address"
        },
        {
          "internalType": "uint256",
          "name": "index",
          "type": "uint256"
        }
      ],
      "name": "tokenOfOwnerByIndex",
      "outputs": [
        {
          "internalType": "uint256",
          "name": "",
          "type": "uint256"
        }
      ],
      "stateMutability": "view",
      "type": "function"
    },
    {
      "inputs": [
        {
          "internalType": "uint256",
          "name": "tokenId",
          "type": "uint256"
        }
      ],
      "name": "tokenURI",
      "outputs": [
        {
          "internalType": "string",
          "name": "",
          "type": "string"
        }
      ],
      "stateMutability": "view",
      "type": "function"
    },
    {
      "inputs": [
        {
          "internalType": "address",
          "name": "user",
          "type": "address"
        }
      ],
      "name": "tokensOfOwner",
      "outputs": [
        {
          "internalType": "uint256[]",
          "name": "",
          "type": "uint256[]"
        }
      ],
      "stateMutability": "view",
      "type": "function"
    },
    {
      "inputs": [],
      "name": "totalSupply",
      "outputs": [
        {
          "internalType": "uint256",
          "name": "",
          "type": "uint256"
        }
      ],
      "stateMutability": "view",
      "type": "function"
    },
    {
      "inputs": [
        {
          "internalType": "address",
          "name": "from",
          "type": "address"
        },
        {
          "internalType": "address",
          "name": "to",
          "type": "address"
        },
        {
          "internalType": "uint256",
          "name": "tokenId",
          "type": "uint256"
        }
      ],
      "name": "transferFrom",
      "outputs": [],
      "stateMutability": "nonpayable",
      "type": "function"
    }
  ],
  "bytecode": "0x608060405234801561001057600080fd5b50614442806100206000396000f3fe608060405234801561001057600080fd5b50600436106102115760003560e01c80634f6ccce711610125578063a22cb465116100ad578063d2a200ee1161007c578063d2a200ee146104c5578063dde8bd0d146104d8578063e985e9c5146104eb578063ec52dc1114610527578063f27035a61461053a57600080fd5b8063a22cb4651461046c578063b88d4fde1461047f578063c87b56dd14610492578063d19496f5146104a557600080fd5b80636c5a67e9116100f45780636c5a67e9146103fe57806370a082311461041e57806382da6739146104315780638462151c1461044457806395d89b411461046457600080fd5b80634f6ccce7146103b2578063518e32d3146103c557806360c458b3146103d85780636352211e146103eb57600080fd5b80631dcc3032116101a85780632fa0154e116101775780632fa0154e146103445780633483413b14610364578063356ee335146103845780634201c9211461039757806342842e0e1461039f57600080fd5b80631dcc3032146102d357806323b872dd146102fb5780632f54bf6e1461030e5780632f745c591461033157600080fd5b8063095ea7b3116101e4578063095ea7b3146102915780630c7b1d7b146102a6578063173825d9146102b857806318160ddd146102cb57600080fd5b806301ffc9a714610216578063025e7c271461023e57806306fdde0314610269578063081812fc1461027e575b600080fd5b610229610224366004613707565b61054d565b60405190151581526020015b60405180910390f35b61025161024c366004613724565b610578565b6040516001600160a01b039091168152602001610235565b6102716105a2565b6040516102359190613795565b61025161028c366004613724565b610634565b6102a461029f3660046137bd565b6106c1565b005b60c9545b604051908152602001610235565b6102a46102c63660046137e9565b6107d7565b6099546102aa565b6102e66102e13660046138d1565b610a5e565b60408051928352602083019190915201610235565b6102a4610309366004613920565b610ae5565b61022961031c3660046137e9565b60ca6020526000908152604090205460ff1681565b6102aa61033f3660046137bd565b610b16565b610357610352366004613961565b610bac565b6040516102359190613a28565b610377610372366004613724565b610f65565b6040516102359190613ac5565b610271610392366004613724565b6110c6565b60ce546102aa565b6102a46103ad366004613920565b611160565b6102aa6103c0366004613724565b61117b565b6102a46103d3366004613b1d565b61120e565b6102a46103e6366004613b5b565b6113fa565b6102516103f9366004613724565b611452565b61041161040c366004613724565b6114c9565b6040516102359190613b90565b6102aa61042c3660046137e9565b6116f2565b61041161043f366004613724565b611779565b6104576104523660046137e9565b611803565b6040516102359190613ba3565b6102716118a6565b6102a461047a366004613b1d565b6118b5565b6102a461048d366004613bb6565b6118c0565b6102716104a0366004613724565b6118f8565b6102aa6104b3366004613724565b60d16020526000908152604090205481565b6102a46104d3366004613c35565b6119cf565b6102aa6104e63660046137e9565b611a4c565b6102296104f9366004613c9e565b6001600160a01b039182166000908152606a6020908152604080832093909416825291909152205460ff1690565b6102a4610535366004613cef565b611bc1565b6102a4610548366004613e48565b611c10565b60006001600160e01b0319821663780e9d6360e01b1480610572575061057282611dfd565b92915050565b60c9818154811061058857600080fd5b6000918252602090912001546001600160a01b0316905081565b6060606580546105b190613f2f565b80601f01602080910402602001604051908101604052809291908181526020018280546105dd90613f2f565b801561062a5780601f106105ff5761010080835404028352916020019161062a565b820191906000526020600020905b81548152906001019060200180831161060d57829003601f168201915b5050505050905090565b600061063f82611e4d565b6106a55760405162461bcd60e51b815260206004820152602c60248201527f4552433732313a20617070726f76656420717565727920666f72206e6f6e657860448201526b34b9ba32b73a103a37b5b2b760a11b60648201526084015b60405180910390fd5b506000908152606960205260409020546001600160a01b031690565b60006106cc82611452565b9050806001600160a01b0316836001600160a01b0316141561073a5760405162461bcd60e51b815260206004820152602160248201527f4552433732313a20617070726f76616c20746f2063757272656e74206f776e656044820152603960f91b606482015260840161069c565b336001600160a01b0382161480610756575061075681336104f9565b6107c85760405162461bcd60e51b815260206004820152603860248201527f4552433732313a20617070726f76652063616c6c6572206973206e6f74206f7760448201527f6e6572206e6f7220617070726f76656420666f7220616c6c0000000000000000606482015260840161069c565b6107d28383611e6a565b505050565b336001600160a01b031660c96000815481106107f5576107f5613f6a565b6000918252602090912001546001600160a01b0316146108525760405162461bcd60e51b815260206004820152601860248201527727bbb732b9399d1027b7363c9029bab832b91027bbb732b960411b604482015260640161069c565b6001600160a01b038116600090815260ca602052604090205460ff166108ae5760405162461bcd60e51b815260206004820152601160248201527027bbb732b9399d102737ba1037bbb732b960791b604482015260640161069c565b60c96000815481106108c2576108c2613f6a565b6000918252602090912001546001600160a01b03828116911614156109335760405162461bcd60e51b815260206004820152602160248201527f4f776e6572733a2043616e6e6f742072656d6f7665207375706572206f776e656044820152603960f91b606482015260840161069c565b60015b60c954811015610a3c57816001600160a01b031660c9828154811061095d5761095d613f6a565b6000918252602090912001546001600160a01b03161415610a2a5760c9805461098890600190613f96565b8154811061099857610998613f6a565b60009182526020909120015460c980546001600160a01b0390921691839081106109c4576109c4613f6a565b9060005260206000200160006101000a8154816001600160a01b0302191690836001600160a01b0316021790555060c9805480610a0357610a03613fad565b600082815260209020810160001990810180546001600160a01b0319169055019055610a3c565b80610a3481613fc3565b915050610936565b506001600160a01b0316600090815260ca60205260409020805460ff19169055565b60cb5460009081906001600160a01b03163314610a7a57600080fd5b6001600160a01b038416610acb5760405162461bcd60e51b8152602060048201526018602482015277537072696e67506c6f743a204e756c6c206164647265737360401b604482015260640161069c565b600080610ad88686611ed8565b5497909650945050505050565b610aef3382611f88565b610b0b5760405162461bcd60e51b815260040161069c90613fde565b6107d2838383612072565b6000610b21836116f2565b8210610b835760405162461bcd60e51b815260206004820152602b60248201527f455243373231456e756d657261626c653a206f776e657220696e646578206f7560448201526a74206f6620626f756e647360a81b606482015260840161069c565b506001600160a01b03919091166000908152609760209081526040808320938352929052205490565b606081831115610c245760405162461bcd60e51b815260206004820152603d60248201527f537072696e67506c6f743a207374617274496e646578206d757374206265206c60448201527f657373207468616e206f7220657175616c20746f20656e64496e646578000000606482015260840161069c565b60ce54821115610cb05760405162461bcd60e51b815260206004820152604b60248201527f537072696e67506c6f743a20656e64496e646578206d757374206265206c657360448201527f73207468616e206f7220657175616c20746f20746865206e756d626572206f6660648201526a20706c6f7420747970657360a81b608482015260a40161069c565b6000610cbc8484613f96565b6001600160401b03811115610cd357610cd3613806565b604051908082528060200260200182016040528015610d0c57816020015b610cf961356f565b815260200190600190039081610cf15790505b509050835b83811015610f5d57600060ce6000018281548110610d3157610d31613f6a565b906000526020600020018054610d4690613f2f565b80601f0160208091040260200160405190810160405280929190818152602001828054610d7290613f2f565b8015610dbf5780601f10610d9457610100808354040283529160200191610dbf565b820191906000526020600020905b815481529060010190602001808311610da257829003601f168201915b505050505090506000610dd18261221f565b6040518060a0016040529081600082015481526020016001820154815260200160028201805480602002602001604051908101604052809291908181526020016000905b82821015610ec1578382906000526020600020018054610e3490613f2f565b80601f0160208091040260200160405190810160405280929190818152602001828054610e6090613f2f565b8015610ead5780601f10610e8257610100808354040283529160200191610ead565b820191906000526020600020905b815481529060010190602001808311610e9057829003601f168201915b505050505081526020019060010190610e15565b5050505081526020016003820154815260200160048201548152505090506040518060c00160405280838152602001826020015181526020018260000151815260200182604001518152602001826060015181526020018260800151815250848885610f2d9190613f96565b81518110610f3d57610f3d613f6a565b602002602001018190525050508080610f5590613fc3565b915050610d11565b509392505050565b60408051606080820183528082526000602083015291810191909152610f8a82611e4d565b610fa65760405162461bcd60e51b815260040161069c9061402f565b600082815260d260209081526040808320815160608101835260d390935292208054829190610fd490613f2f565b80601f016020809104026020016040519081016040528092919081815260200182805461100090613f2f565b801561104d5780601f106110225761010080835404028352916020019161104d565b820191906000526020600020905b81548152906001019060200180831161103057829003601f168201915b5050505050815260200161106085611452565b6001600160a01b03168152825460408051602083810282018101909252828152928101929185918301828280156110b657602002820191906000526020600020905b8154815260200190600101908083116110a2575b5050505050815250915050919050565b60d360205260009081526040902080546110df90613f2f565b80601f016020809104026020016040519081016040528092919081815260200182805461110b90613f2f565b80156111585780601f1061112d57610100808354040283529160200191611158565b820191906000526020600020905b81548152906001019060200180831161113b57829003601f168201915b505050505081565b6107d2838383604051806020016040528060008152506118c0565b600061118660995490565b82106111e95760405162461bcd60e51b815260206004820152602c60248201527f455243373231456e756d657261626c653a20676c6f62616c20696e646578206f60448201526b7574206f6620626f756e647360a01b606482015260840161069c565b609982815481106111fc576111fc613f6a565b90600052602060002001549050919050565b336001600160a01b031660c960008154811061122c5761122c613f6a565b6000918252602090912001546001600160a01b0316146112895760405162461bcd60e51b815260206004820152601860248201527727bbb732b9399d1027b7363c9029bab832b91027bbb732b960411b604482015260640161069c565b6001600160a01b038216600090815260ca602052604090205460ff16156112ea5760405162461bcd60e51b815260206004820152601560248201527427bbb732b9399d1020b63932b0b23c9037bbb732b960591b604482015260640161069c565b6001600160a01b038216600090815260ca60205260409020805460ff1916600117905580156113aa5760c98060008154811061132857611328613f6a565b6000918252602080832090910154835460018101855593835290822090920180546001600160a01b0319166001600160a01b039093169290921790915560c9805484929061137857611378613f6a565b9060005260206000200160006101000a8154816001600160a01b0302191690836001600160a01b031602179055505050565b60c980546001810182556000919091527f66be4f155c5ef2ebd3772b228f2f00681e4ed5826cdb3b1943cc11ad15ad1d280180546001600160a01b0319166001600160a01b0384161790555b5050565b60cb546001600160a01b0316331461141157600080fd5b806114225761141f83611a4c565b90505b61142d838383612289565b61143681612804565b6107d25760405162461bcd60e51b815260040161069c90614064565b6000818152606760205260408120546001600160a01b0316806105725760405162461bcd60e51b815260206004820152602960248201527f4552433732313a206f776e657220717565727920666f72206e6f6e657869737460448201526832b73a103a37b5b2b760b91b606482015260840161069c565b6114d161356f565b6114da82611e4d565b6114f65760405162461bcd60e51b815260040161069c9061402f565b600082815260d360205260408120805461150f90613f2f565b80601f016020809104026020016040519081016040528092919081815260200182805461153b90613f2f565b80156115885780601f1061155d57610100808354040283529160200191611588565b820191906000526020600020905b81548152906001019060200180831161156b57829003601f168201915b50505050509050600061159a8261221f565b6040518060a0016040529081600082015481526020016001820154815260200160028201805480602002602001604051908101604052809291908181526020016000905b8282101561168a5783829060005260206000200180546115fd90613f2f565b80601f016020809104026020016040519081016040528092919081815260200182805461162990613f2f565b80156116765780601f1061164b57610100808354040283529160200191611676565b820191906000526020600020905b81548152906001019060200180831161165957829003601f168201915b5050505050815260200190600101906115de565b5050505081526020016003820154815260200160048201548152505090506040518060c0016040528083815260200182602001518152602001826000015181526020018260400151815260200182606001518152602001826080015181525092505050919050565b60006001600160a01b03821661175d5760405162461bcd60e51b815260206004820152602a60248201527f4552433732313a2062616c616e636520717565727920666f7220746865207a65604482015269726f206164647265737360b01b606482015260840161069c565b506001600160a01b031660009081526068602052604090205490565b61178161356f565b61178a82612876565b6117e45760405162461bcd60e51b815260206004820152602560248201527f537072696e67506c6f743a206e6f6e6578697374616e74206e6f646520746f6b604482015264195b88125160da1b606482015260840161069c565b600082815260d160205260409020546117fc816114c9565b9392505050565b60606000611810836116f2565b6001600160401b0381111561182757611827613806565b604051908082528060200260200182016040528015611850578160200160208202803683370190505b50905060005b61185f846116f2565b81101561189f576118708482610b16565b82828151811061188257611882613f6a565b60209081029190910101528061189781613fc3565b915050611856565b5092915050565b6060606680546105b190613f2f565b6113f633838361288a565b6118ca3383611f88565b6118e65760405162461bcd60e51b815260040161069c90613fde565b6118f284848484612959565b50505050565b606061190382611e4d565b6119675760405162461bcd60e51b815260206004820152602f60248201527f4552433732314d657461646174613a2055524920717565727920666f72206e6f60448201526e3732bc34b9ba32b73a103a37b5b2b760891b606482015260840161069c565b600061197e60408051602081019091526000815290565b9050600081511161199e57604051806020016040528060008152506117fc565b806119a88461298c565b6040516020016119b99291906140a9565b6040516020818303038152906040529392505050565b60006119db6001612a89565b905080156119f3576000805461ff0019166101001790555b6119ff85858585612b11565b8015611a45576000805461ff0019169055604051600181527f7f26b83ff96e1f2b6a682f133852f6798a09c465da95921460cefb38474024989060200160405180910390a15b5050505050565b60cb546000906001600160a01b03163314611a6657600080fd5b6001600160a01b038216611ab75760405162461bcd60e51b8152602060048201526018602482015277537072696e67506c6f743a204e756c6c206164647265737360401b604482015260640161069c565b6001600160a01b038216600090815260d460205260408082209051611ade9060d5906140d8565b90815260200160405180910390205490508060001480611b025750611b0281612b9b565b1561057257600080611b9e8560d58054611b1b90613f2f565b80601f0160208091040260200160405190810160405280929190818152602001828054611b4790613f2f565b8015611b945780601f10611b6957610100808354040283529160200191611b94565b820191906000526020600020905b815481529060010190602001808311611b7757829003601f168201915b5050505050610a5e565b9150915081600014611bb257611bb2614174565b9250611bbc915050565b919050565b60cb546001600160a01b03163314611bd857600080fd5b611c08866040518060a0016040528088815260200187815260200186815260200185815260200184815250612c0d565b505050505050565b60cb546001600160a01b03163314611c2757600080fd5b8051825114611caa5760405162461bcd60e51b815260206004820152604360248201527f537072696e67506c6f743a206e6f6465546f6b656e49647320616e6420706c6f60448201527f74546f6b656e496473206d7573742068617665207468652073616d65206c656e6064820152620cee8d60eb1b608482015260a40161069c565b60005b8151811015611da057818181518110611cc857611cc8613f6a565b602002602001015160001415611d0057611ce184611a4c565b828281518110611cf357611cf3613f6a565b6020026020010181815250505b60005b838281518110611d1557611d15613f6a565b602002602001015151811015611d8d57611d7b85858481518110611d3b57611d3b613f6a565b60200260200101518381518110611d5457611d54613f6a565b6020026020010151858581518110611d6e57611d6e613f6a565b6020026020010151612289565b80611d8581613fc3565b915050611d03565b5080611d9881613fc3565b915050611cad565b5060005b81518110156118f257611dcf828281518110611dc257611dc2613f6a565b6020026020010151612804565b611deb5760405162461bcd60e51b815260040161069c90614064565b80611df581613fc3565b915050611da4565b60006001600160e01b031982166380ac58cd60e01b1480611e2e57506001600160e01b03198216635b5e139f60e01b145b8061057257506301ffc9a760e01b6001600160e01b0319831614610572565b6000908152606760205260409020546001600160a01b0316151590565b600081815260696020526040902080546001600160a01b0319166001600160a01b0384169081179091558190611e9f82611452565b6001600160a01b03167f8c5be1e5ebec7d5bd14f71427d1e84f3dd0314c0f7b2291e5b200ac8c7c3b92560405160405180910390a45050565b6000806000611ee684612cf3565b9250905080611f075760405162461bcd60e51b815260040161069c9061418a565b60cd549250611f1a60cd80546001019055565b611f248584612d41565b600083815260d3602090815260409091208551611f43928701906135a5565b506001600160a01b038516600090815260d46020526040908190209051849190611f6e9087906141cb565b908152602001604051809103902081905550509250929050565b6000611f9382611e4d565b611ff45760405162461bcd60e51b815260206004820152602c60248201527f4552433732313a206f70657261746f7220717565727920666f72206e6f6e657860448201526b34b9ba32b73a103a37b5b2b760a11b606482015260840161069c565b6000611fff83611452565b9050806001600160a01b0316846001600160a01b0316148061204657506001600160a01b038082166000908152606a602090815260408083209388168352929052205460ff165b8061206a5750836001600160a01b031661205f84610634565b6001600160a01b0316145b949350505050565b826001600160a01b031661208582611452565b6001600160a01b0316146120e95760405162461bcd60e51b815260206004820152602560248201527f4552433732313a207472616e736665722066726f6d20696e636f72726563742060448201526437bbb732b960d91b606482015260840161069c565b6001600160a01b03821661214b5760405162461bcd60e51b8152602060048201526024808201527f4552433732313a207472616e7366657220746f20746865207a65726f206164646044820152637265737360e01b606482015260840161069c565b612156838383612d5b565b612161600082611e6a565b6001600160a01b038316600090815260686020526040812080546001929061218a908490613f96565b90915550506001600160a01b03821660009081526068602052604081208054600192906121b89084906141e7565b909155505060008181526067602052604080822080546001600160a01b0319166001600160a01b0386811691821790925591518493918716917fddf252ad1be2c89b69c2b068fc378daa952ba7f163c4a11628f55a4df523b3ef91a46107d2838383612e13565b600060ce6002018260405161223491906141cb565b9081526040519081900360200190205460ff166122635760405162461bcd60e51b815260040161069c9061418a565b60405160cf906122749084906141cb565b90815260200160405180910390209050919050565b61229282612876565b6122de5760405162461bcd60e51b815260206004820152601f60248201527f537072696e67506c6f743a204e6f646520646f6573206e6f7420657869737400604482015260640161069c565b6122e781611e4d565b6123035760405162461bcd60e51b815260040161069c9061402f565b826001600160a01b031661231682611452565b6001600160a01b0316146123645760405162461bcd60e51b815260206004820152601560248201527429b83934b733a83637ba1d102737ba1037bbb732b960591b604482015260640161069c565b60cc546040516331a9108f60e11b8152600481018490526001600160a01b03858116921690636352211e9060240160206040518083038186803b1580156123aa57600080fd5b505afa1580156123be573d6000803e3d6000fd5b505050506040513d601f19601f820116820180604052508101906123e291906141ff565b6001600160a01b0316146124305760405162461bcd60e51b815260206004820152601560248201527429b83934b733a83637ba1d102737ba1037bbb732b960591b604482015260640161069c565b600081815260d36020526040812080546124d1919061244e90613f2f565b80601f016020809104026020016040519081016040528092919081815260200182805461247a90613f2f565b80156124c75780601f1061249c576101008083540402835291602001916124c7565b820191906000526020600020905b8154815290600101906020018083116124aa57829003601f168201915b505050505061221f565b60cc546040516359d68c7160e11b8152600481018690529192506000916001600160a01b039091169063b3ad18e29060240160006040518083038186803b15801561251b57600080fd5b505afa15801561252f573d6000803e3d6000fd5b505050506040513d6000823e601f3d908101601f19168201604052612557919081019061421c565b60028301549091501560005b600284015481101561264757600084600201828154811061258657612586613f6a565b90600052602060002001805461259b90613f2f565b80601f01602080910402602001604051908101604052809291908181526020018280546125c790613f2f565b80156126145780601f106125e957610100808354040283529160200191612614565b820191906000526020600020905b8154815290600101906020018083116125f757829003601f168201915b505050505090506126258185612e86565b15612634576001925050612647565b508061263f81613fc3565b915050612563565b508061269f5760405162461bcd60e51b815260206004820152602160248201527f537072696e67506c6f743a204e6f64652074797065206e6f7420616c6c6f77656044820152601960fa1b606482015260840161069c565b600085815260d1602090815260408083205480845260d2909252909120811561279f576000878152600182016020526040902054801561279d5781546000906126ea90600190613f96565b90506126f7600183613f96565b811461276157600083600001828154811061271457612714613f6a565b6000918252602090912001549050808461272f600186613f96565b8154811061273f5761273f613f6a565b6000918252602080832090910192909255918252600185019052604090208290555b825483908061277257612772613fad565b6000828152602080822083016000199081018390559092019092558a82526001850190526040812055505b505b600086815260d2602090815260408083208a845260018101909252909120546127f957805460018181018355600083815260208082209093018b905583548b8252918401835260408082209290925560d190925290208790555b505050505050505050565b600061280f82611e4d565b61282b5760405162461bcd60e51b815260040161069c9061402f565b600082815260d26020908152604080832060d3909252808320905191929160cf91612855916140d8565b90815260405190819003602001902060010154915491909111159392505050565b600061288182612edf565b51151592915050565b816001600160a01b0316836001600160a01b031614156128ec5760405162461bcd60e51b815260206004820152601960248201527f4552433732313a20617070726f766520746f2063616c6c657200000000000000604482015260640161069c565b6001600160a01b038381166000818152606a6020908152604080832094871680845294825291829020805460ff191686151590811790915591519182527f17307eab39ab6107e8899845ad3d59bd9653f200f220920489ca2b5937696c31910160405180910390a3505050565b612964848484612072565b61297084848484612f60565b6118f25760405162461bcd60e51b815260040161069c90614289565b6060816129b05750506040805180820190915260018152600360fc1b602082015290565b8160005b81156129da57806129c481613fc3565b91506129d39050600a836142f1565b91506129b4565b6000816001600160401b038111156129f4576129f4613806565b6040519080825280601f01601f191660200182016040528015612a1e576020820181803683370190505b5090505b841561206a57612a33600183613f96565b9150612a40600a86614305565b612a4b9060306141e7565b60f81b818381518110612a6057612a60613f6a565b60200101906001600160f81b031916908160001a905350612a82600a866142f1565b9450612a22565b60008054610100900460ff1615612ad0578160ff166001148015612aac5750303b155b612ac85760405162461bcd60e51b815260040161069c90614319565b506000919050565b60005460ff808416911610612af75760405162461bcd60e51b815260040161069c90614319565b506000805460ff191660ff92909216919091179055600190565b600054610100900460ff16612b385760405162461bcd60e51b815260040161069c90614367565b612b418461306d565b612b496130b6565b612b906040518060400160405280600b81526020016a14dc1c9a5b99c8141b1bdd60aa1b81525060405180604001604052806002815260200161053560f41b815250613139565b6118f2838383613187565b6000612ba682611e4d565b612bc25760405162461bcd60e51b815260040161069c9061402f565b600082815260d26020908152604080832060d3909252808320905191929160cf91612bec916140d8565b90815260405190819003602001902060010154915491909110159392505050565b8060ce60010183604051612c2191906141cb565b908152602001604051809103902060008201518160000155602082015181600101556040820151816002019080519060200190612c5f929190613629565b506060820151600382015560809091015160049091015560ce80546001810182556000919091528251612cb9917fd36cd1c74ef8d7326d8021b776c18fb5a5724b7f7bc93c2f42e43e10ef27d12a019060208501906135a5565b50600160ce60020183604051612ccf91906141cb565b908152604051908190036020019020805491151560ff199092169190911790555050565b60008060ce60020183604051612d0991906141cb565b9081526040519081900360200181205460ff16925060cf90612d2c9085906141cb565b90815260200160405180910390209050915091565b6113f6828260405180602001604052806000815250613265565b6001600160a01b038316612db657612db181609980546000838152609a60205260408120829055600182018355919091527f72a152ddfb8e864297c917af52ea6c1c68aead0fee1a62673fcc7e0c94979d000155565b612dd9565b816001600160a01b0316836001600160a01b031614612dd957612dd98382613298565b6001600160a01b038216612df0576107d281613335565b826001600160a01b0316826001600160a01b0316146107d2576107d282826133e4565b60cb5460405163be78ae5b60e01b81526001600160a01b0385811660048301528481166024830152604482018490529091169063be78ae5b90606401600060405180830381600087803b158015612e6957600080fd5b505af1158015612e7d573d6000803e3d6000fd5b50505050505050565b600081604051602001612e9991906141cb565b6040516020818303038152906040528051906020012083604051602001612ec091906141cb565b6040516020818303038152906040528051906020012014905092915050565b60cc546040516359d68c7160e11b8152600481018390526060916001600160a01b03169063b3ad18e29060240160006040518083038186803b158015612f2457600080fd5b505afa158015612f38573d6000803e3d6000fd5b505050506040513d6000823e601f3d908101601f19168201604052610572919081019061421c565b60006001600160a01b0384163b1561306257604051630a85bd0160e11b81526001600160a01b0385169063150b7a0290612fa49033908990889088906004016143b2565b602060405180830381600087803b158015612fbe57600080fd5b505af1925050508015612fee575060408051601f3d908101601f19168201909252612feb918101906143ef565b60015b613048573d80801561301c576040519150601f19603f3d011682016040523d82523d6000602084013e613021565b606091505b5080516130405760405162461bcd60e51b815260040161069c90614289565b805181602001fd5b6001600160e01b031916630a85bd0160e11b14905061206a565b506001949350505050565b600054610100900460ff166130945760405162461bcd60e51b815260040161069c90614367565b60cb80546001600160a01b0319166001600160a01b0392909216919091179055565b600054610100900460ff166130dd5760405162461bcd60e51b815260040161069c90614367565b60c9805460018181019092557f66be4f155c5ef2ebd3772b228f2f00681e4ed5826cdb3b1943cc11ad15ad1d280180546001600160a01b03191633908117909155600090815260ca60205260409020805460ff19169091179055565b600054610100900460ff166131605760405162461bcd60e51b815260040161069c90614367565b81516131739060659060208501906135a5565b5080516107d29060669060208401906135a5565b600054610100900460ff166131ae5760405162461bcd60e51b815260040161069c90614367565b60cc80546001600160a01b0319166001600160a01b03851617905560cd8054600101905581516131e59060d59060208501906135a5565b506107d2826040518060a001604052806000815260200184815260200160006001600160401b0381111561321b5761321b613806565b60405190808252806020026020018201604052801561324e57816020015b60608152602001906001900390816132395790505b508152602001600081526020016000815250612c0d565b61326f8383613428565b61327c6000848484612f60565b6107d25760405162461bcd60e51b815260040161069c90614289565b600060016132a5846116f2565b6132af9190613f96565b600083815260986020526040902054909150808214613302576001600160a01b03841660009081526097602090815260408083208584528252808320548484528184208190558352609890915290208190555b5060009182526098602090815260408084208490556001600160a01b039094168352609781528383209183525290812055565b60995460009061334790600190613f96565b6000838152609a60205260408120546099805493945090928490811061336f5761336f613f6a565b90600052602060002001549050806099838154811061339057613390613f6a565b6000918252602080832090910192909255828152609a909152604080822084905585825281205560998054806133c8576133c8613fad565b6001900381819060005260206000200160009055905550505050565b60006133ef836116f2565b6001600160a01b039093166000908152609760209081526040808320868452825280832085905593825260989052919091209190915550565b6001600160a01b03821661347e5760405162461bcd60e51b815260206004820181905260248201527f4552433732313a206d696e7420746f20746865207a65726f2061646472657373604482015260640161069c565b61348781611e4d565b156134d45760405162461bcd60e51b815260206004820152601c60248201527f4552433732313a20746f6b656e20616c7265616479206d696e74656400000000604482015260640161069c565b6134e060008383612d5b565b6001600160a01b03821660009081526068602052604081208054600192906135099084906141e7565b909155505060008181526067602052604080822080546001600160a01b0319166001600160a01b03861690811790915590518392907fddf252ad1be2c89b69c2b068fc378daa952ba7f163c4a11628f55a4df523b3ef908290a46113f660008383612e13565b6040518060c001604052806060815260200160008152602001600081526020016060815260200160008152602001600081525090565b8280546135b190613f2f565b90600052602060002090601f0160209004810192826135d35760008555613619565b82601f106135ec57805160ff1916838001178555613619565b82800160010185558215613619579182015b828111156136195782518255916020019190600101906135fe565b50613625929150613682565b5090565b828054828255906000526020600020908101928215613676579160200282015b8281111561367657825180516136669184916020909101906135a5565b5091602001919060010190613649565b50613625929150613697565b5b808211156136255760008155600101613683565b808211156136255760006136ab82826136b4565b50600101613697565b5080546136c090613f2f565b6000825580601f106136d0575050565b601f0160209004906000526020600020908101906136ee9190613682565b50565b6001600160e01b0319811681146136ee57600080fd5b60006020828403121561371957600080fd5b81356117fc816136f1565b60006020828403121561373657600080fd5b5035919050565b60005b83811015613758578181015183820152602001613740565b838111156118f25750506000910152565b6000815180845261378181602086016020860161373d565b601f01601f19169290920160200192915050565b6020815260006117fc6020830184613769565b6001600160a01b03811681146136ee57600080fd5b600080604083850312156137d057600080fd5b82356137db816137a8565b946020939093013593505050565b6000602082840312156137fb57600080fd5b81356117fc816137a8565b634e487b7160e01b600052604160045260246000fd5b604051601f8201601f191681016001600160401b038111828210171561384457613844613806565b604052919050565b60006001600160401b0382111561386557613865613806565b50601f01601f191660200190565b60006138866138818461384c565b61381c565b905082815283838301111561389a57600080fd5b828260208301376000602084830101529392505050565b600082601f8301126138c257600080fd5b6117fc83833560208501613873565b600080604083850312156138e457600080fd5b82356138ef816137a8565b915060208301356001600160401b0381111561390a57600080fd5b613916858286016138b1565b9150509250929050565b60008060006060848603121561393557600080fd5b8335613940816137a8565b92506020840135613950816137a8565b929592945050506040919091013590565b6000806040838503121561397457600080fd5b50508035926020909101359150565b6000815160c0845261399860c0850182613769565b90506020808401518186015260408401516040860152606084015185830360608701528281518085528385019150838160051b860101848401935060005b82811015613a0457601f198783030184526139f2828651613769565b948601949386019391506001016139d6565b50608088015160808a015260a088015160a08a015280965050505050505092915050565b6000602080830181845280855180835260408601915060408160051b870101925083870160005b82811015613a7d57603f19888603018452613a6b858351613983565b94509285019290850190600101613a4f565b5092979650505050505050565b600081518084526020808501945080840160005b83811015613aba57815187529582019590820190600101613a9e565b509495945050505050565b602081526000825160606020840152613ae16080840182613769565b60208501516001600160a01b0316604085810191909152850151848203601f19016060860152909150613b148282613a8a565b95945050505050565b60008060408385031215613b3057600080fd5b8235613b3b816137a8565b915060208301358015158114613b5057600080fd5b809150509250929050565b600080600060608486031215613b7057600080fd5b8335613b7b816137a8565b95602085013595506040909401359392505050565b6020815260006117fc6020830184613983565b6020815260006117fc6020830184613a8a565b60008060008060808587031215613bcc57600080fd5b8435613bd7816137a8565b93506020850135613be7816137a8565b92506040850135915060608501356001600160401b03811115613c0957600080fd5b8501601f81018713613c1a57600080fd5b613c2987823560208401613873565b91505092959194509250565b60008060008060808587031215613c4b57600080fd5b8435613c56816137a8565b93506020850135613c66816137a8565b925060408501356001600160401b03811115613c8157600080fd5b613c8d878288016138b1565b949793965093946060013593505050565b60008060408385031215613cb157600080fd5b8235613cbc816137a8565b91506020830135613b50816137a8565b60006001600160401b03821115613ce557613ce5613806565b5060051b60200190565b60008060008060008060c08789031215613d0857600080fd5b6001600160401b038088351115613d1e57600080fd5b613d2b8989358a016138b1565b9650602080890135965060408901359550606089013582811115613d4e57600080fd5b8901601f81018b13613d5f57600080fd5b8035613d6d61388182613ccc565b81815260059190911b8201830190838101908d831115613d8c57600080fd5b8484015b83811015613dc2578681351115613da657600080fd5b613db58f8783358801016138b1565b8352918501918501613d90565b509a9d999c50979a60808101359960a09091013598509650505050505050565b600082601f830112613df357600080fd5b81356020613e0361388183613ccc565b82815260059290921b84018101918181019086841115613e2257600080fd5b8286015b84811015613e3d5780358352918301918301613e26565b509695505050505050565b600080600060608486031215613e5d57600080fd5b8335613e68816137a8565b92506020848101356001600160401b0380821115613e8557600080fd5b818701915087601f830112613e9957600080fd5b8135613ea761388182613ccc565b81815260059190911b8301840190848101908a831115613ec657600080fd5b8585015b83811015613efe57803585811115613ee25760008081fd5b613ef08d89838a0101613de2565b845250918601918601613eca565b50965050506040870135925080831115613f1757600080fd5b5050613f2586828701613de2565b9150509250925092565b600181811c90821680613f4357607f821691505b60208210811415613f6457634e487b7160e01b600052602260045260246000fd5b50919050565b634e487b7160e01b600052603260045260246000fd5b634e487b7160e01b600052601160045260246000fd5b600082821015613fa857613fa8613f80565b500390565b634e487b7160e01b600052603160045260246000fd5b6000600019821415613fd757613fd7613f80565b5060010190565b60208082526031908201527f4552433732313a207472616e736665722063616c6c6572206973206e6f74206f6040820152701ddb995c881b9bdc88185c1c1c9bdd9959607a1b606082015260800190565b6020808252818101527f537072696e67506c6f743a206e6f6e6578697374616e7420746f6b656e204944604082015260600190565b60208082526025908201527f537072696e67506c6f743a20506c6f742072656163686564206d617820636170604082015264616369747960d81b606082015260800190565b600083516140bb81846020880161373d565b8351908301906140cf81836020880161373d565b01949350505050565b600080835481600182811c9150808316806140f457607f831692505b602080841082141561411457634e487b7160e01b86526022600452602486fd5b818015614128576001811461413957614166565b60ff19861689528489019650614166565b60008a81526020902060005b8681101561415e5781548b820152908501908301614145565b505084890196505b509498975050505050505050565b634e487b7160e01b600052600160045260246000fd5b60208082526021908201527f537072696e67506c6f743a206e6f6e6578697374616e7420706c6f74207479706040820152606560f81b606082015260800190565b600082516141dd81846020870161373d565b9190910192915050565b600082198211156141fa576141fa613f80565b500190565b60006020828403121561421157600080fd5b81516117fc816137a8565b60006020828403121561422e57600080fd5b81516001600160401b0381111561424457600080fd5b8201601f8101841361425557600080fd5b80516142636138818261384c565b81815285602083850101111561427857600080fd5b613b1482602083016020860161373d565b60208082526032908201527f4552433732313a207472616e7366657220746f206e6f6e20455243373231526560408201527131b2b4bb32b91034b6b83632b6b2b73a32b960711b606082015260800190565b634e487b7160e01b600052601260045260246000fd5b600082614300576143006142db565b500490565b600082614314576143146142db565b500690565b6020808252602e908201527f496e697469616c697a61626c653a20636f6e747261637420697320616c72656160408201526d191e481a5b9a5d1a585b1a5e995960921b606082015260800190565b6020808252602b908201527f496e697469616c697a61626c653a20636f6e7472616374206973206e6f74206960408201526a6e697469616c697a696e6760a81b606082015260800190565b6001600160a01b03858116825284166020820152604081018390526080606082018190526000906143e590830184613769565b9695505050505050565b60006020828403121561440157600080fd5b81516117fc816136f156fea26469706673582212207c8d2d133c51760747097fc0e95dbe0a51e92df0d58e8b52f729d6517ca7600d64736f6c63430008090033",
  "linkReferences": {},
  "deployedLinkReferences": {}
}