{
  "_format": "hh-sol-artifact-1",
  "contractName": "SpringNode",
  "sourceName": "contracts/SpringNode.sol",
  "abi": [
    {
      "anonymous": false,
      "inputs": [
        {
          "indexed": true,
          "internalType": "address",
          "name": "owner",
          "type": "address"
        },
        {
          "indexed": true,
          "internalType": "address",
          "name": "approved",
          "type": "address"
        },
        {
          "indexed": true,
          "internalType": "uint256",
          "name": "tokenId",
          "type": "uint256"
        }
      ],
      "name": "Approval",
      "type": "event"
    },
    {
      "anonymous": false,
      "inputs": [
        {
          "indexed": true,
          "internalType": "address",
          "name": "owner",
          "type": "address"
        },
        {
          "indexed": true,
          "internalType": "address",
          "name": "operator",
          "type": "address"
        },
        {
          "indexed": false,
          "internalType": "bool",
          "name": "approved",
          "type": "bool"
        }
      ],
      "name": "ApprovalForAll",
      "type": "event"
    },
    {
      "anonymous": false,
      "inputs": [
        {
          "indexed": false,
          "internalType": "uint8",
          "name": "version",
          "type": "uint8"
        }
      ],
      "name": "Initialized",
      "type": "event"
    },
    {
      "anonymous": false,
      "inputs": [
        {
          "indexed": true,
          "internalType": "address",
          "name": "from",
          "type": "address"
        },
        {
          "indexed": true,
          "internalType": "address",
          "name": "to",
          "type": "address"
        },
        {
          "indexed": true,
          "internalType": "uint256",
          "name": "tokenId",
          "type": "uint256"
        }
      ],
      "name": "Transfer",
      "type": "event"
    },
    {
      "inputs": [
        {
          "internalType": "address",
          "name": "_new",
          "type": "address"
        },
        {
          "internalType": "bool",
          "name": "_change",
          "type": "bool"
        }
      ],
      "name": "addOwner",
      "outputs": [],
      "stateMutability": "nonpayable",
      "type": "function"
    },
    {
      "inputs": [
        {
          "internalType": "address",
          "name": "to",
          "type": "address"
        },
        {
          "internalType": "uint256",
          "name": "tokenId",
          "type": "uint256"
        }
      ],
      "name": "approve",
      "outputs": [],
      "stateMutability": "nonpayable",
      "type": "function"
    },
    {
      "inputs": [
        {
          "internalType": "address",
          "name": "owner",
          "type": "address"
        }
      ],
      "name": "balanceOf",
      "outputs": [
        {
          "internalType": "uint256",
          "name": "",
          "type": "uint256"
        }
      ],
      "stateMutability": "view",
      "type": "function"
    },
    {
      "inputs": [],
      "name": "baseURI",
      "outputs": [
        {
          "internalType": "string",
          "name": "",
          "type": "string"
        }
      ],
      "stateMutability": "view",
      "type": "function"
    },
    {
      "inputs": [
        {
          "internalType": "address",
          "name": "user",
          "type": "address"
        },
        {
          "internalType": "uint256[]",
          "name": "tokenIds",
          "type": "uint256[]"
        }
      ],
      "name": "burnBatch",
      "outputs": [],
      "stateMutability": "nonpayable",
      "type": "function"
    },
    {
      "inputs": [
        {
          "internalType": "string",
          "name": "name",
          "type": "string"
        },
        {
          "internalType": "address",
          "name": "user",
          "type": "address"
        },
        {
          "internalType": "uint256",
          "name": "count",
          "type": "uint256"
        }
      ],
      "name": "generateNfts",
      "outputs": [
        {
          "internalType": "uint256[]",
          "name": "",
          "type": "uint256[]"
        }
      ],
      "stateMutability": "nonpayable",
      "type": "function"
    },
    {
      "inputs": [
        {
          "internalType": "uint256",
          "name": "tokenId",
          "type": "uint256"
        }
      ],
      "name": "getApproved",
      "outputs": [
        {
          "internalType": "address",
          "name": "",
          "type": "address"
        }
      ],
      "stateMutability": "view",
      "type": "function"
    },
    {
      "inputs": [
        {
          "internalType": "uint256",
          "name": "tokenId",
          "type": "uint256"
        }
      ],
      "name": "getAttribute",
      "outputs": [
        {
          "internalType": "string",
          "name": "",
          "type": "string"
        }
      ],
      "stateMutability": "view",
      "type": "function"
    },
    {
      "inputs": [
        {
          "internalType": "uint256",
          "name": "iStart",
          "type": "uint256"
        },
        {
          "internalType": "uint256",
          "name": "iEnd",
          "type": "uint256"
        }
      ],
      "name": "getNodeOwnersBetweenIndexes",
      "outputs": [
        {
          "internalType": "address[]",
          "name": "",
          "type": "address[]"
        }
      ],
      "stateMutability": "view",
      "type": "function"
    },
    {
      "inputs": [],
      "name": "getNodeOwnersSize",
      "outputs": [
        {
          "internalType": "uint256",
          "name": "",
          "type": "uint256"
        }
      ],
      "stateMutability": "view",
      "type": "function"
    },
    {
      "inputs": [],
      "name": "getOwnersSize",
      "outputs": [
        {
          "internalType": "uint256",
          "name": "",
          "type": "uint256"
        }
      ],
      "stateMutability": "view",
      "type": "function"
    },
    {
      "inputs": [],
      "name": "handler",
      "outputs": [
        {
          "internalType": "address",
          "name": "",
          "type": "address"
        }
      ],
      "stateMutability": "view",
      "type": "function"
    },
    {
      "inputs": [
        {
          "internalType": "string",
          "name": "uri",
          "type": "string"
        },
        {
          "internalType": "address",
          "name": "_handler",
          "type": "address"
        }
      ],
      "name": "initialize",
      "outputs": [],
      "stateMutability": "nonpayable",
      "type": "function"
    },
    {
      "inputs": [
        {
          "internalType": "address",
          "name": "owner",
          "type": "address"
        },
        {
          "internalType": "address",
          "name": "operator",
          "type": "address"
        }
      ],
      "name": "isApprovedForAll",
      "outputs": [
        {
          "internalType": "bool",
          "name": "",
          "type": "bool"
        }
      ],
      "stateMutability": "view",
      "type": "function"
    },
    {
      "inputs": [
        {
          "internalType": "address",
          "name": "",
          "type": "address"
        }
      ],
      "name": "isBlacklisted",
      "outputs": [
        {
          "internalType": "bool",
          "name": "",
          "type": "bool"
        }
      ],
      "stateMutability": "view",
      "type": "function"
    },
    {
      "inputs": [
        {
          "internalType": "address",
          "name": "",
          "type": "address"
        }
      ],
      "name": "isOwner",
      "outputs": [
        {
          "internalType": "bool",
          "name": "",
          "type": "bool"
        }
      ],
      "stateMutability": "view",
      "type": "function"
    },
    {
      "inputs": [],
      "name": "name",
      "outputs": [
        {
          "internalType": "string",
          "name": "",
          "type": "string"
        }
      ],
      "stateMutability": "view",
      "type": "function"
    },
    {
      "inputs": [
        {
          "internalType": "uint256",
          "name": "",
          "type": "uint256"
        }
      ],
      "name": "nodeOwners",
      "outputs": [
        {
          "internalType": "address",
          "name": "",
          "type": "address"
        }
      ],
      "stateMutability": "view",
      "type": "function"
    },
    {
      "inputs": [
        {
          "internalType": "address",
          "name": "",
          "type": "address"
        }
      ],
      "name": "nodeOwnersInserted",
      "outputs": [
        {
          "internalType": "bool",
          "name": "",
          "type": "bool"
        }
      ],
      "stateMutability": "view",
      "type": "function"
    },
    {
      "inputs": [],
      "name": "openCreateNft",
      "outputs": [
        {
          "internalType": "bool",
          "name": "",
          "type": "bool"
        }
      ],
      "stateMutability": "view",
      "type": "function"
    },
    {
      "inputs": [
        {
          "internalType": "uint256",
          "name": "tokenId",
          "type": "uint256"
        }
      ],
      "name": "ownerOf",
      "outputs": [
        {
          "internalType": "address",
          "name": "",
          "type": "address"
        }
      ],
      "stateMutability": "view",
      "type": "function"
    },
    {
      "inputs": [
        {
          "internalType": "uint256",
          "name": "",
          "type": "uint256"
        }
      ],
      "name": "owners",
      "outputs": [
        {
          "internalType": "address",
          "name": "",
          "type": "address"
        }
      ],
      "stateMutability": "view",
      "type": "function"
    },
    {
      "inputs": [
        {
          "internalType": "address",
          "name": "_new",
          "type": "address"
        }
      ],
      "name": "removeOwner",
      "outputs": [],
      "stateMutability": "nonpayable",
      "type": "function"
    },
    {
      "inputs": [
        {
          "internalType": "address",
          "name": "from",
          "type": "address"
        },
        {
          "internalType": "address",
          "name": "to",
          "type": "address"
        },
        {
          "internalType": "uint256",
          "name": "tokenId",
          "type": "uint256"
        }
      ],
      "name": "safeTransferFrom",
      "outputs": [],
      "stateMutability": "nonpayable",
      "type": "function"
    },
    {
      "inputs": [
        {
          "internalType": "address",
          "name": "from",
          "type": "address"
        },
        {
          "internalType": "address",
          "name": "to",
          "type": "address"
        },
        {
          "internalType": "uint256",
          "name": "tokenId",
          "type": "uint256"
        },
        {
          "internalType": "bytes",
          "name": "_data",
          "type": "bytes"
        }
      ],
      "name": "safeTransferFrom",
      "outputs": [],
      "stateMutability": "nonpayable",
      "type": "function"
    },
    {
      "inputs": [
        {
          "internalType": "address",
          "name": "operator",
          "type": "address"
        },
        {
          "internalType": "bool",
          "name": "approved",
          "type": "bool"
        }
      ],
      "name": "setApprovalForAll",
      "outputs": [],
      "stateMutability": "nonpayable",
      "type": "function"
    },
    {
      "inputs": [
        {
          "internalType": "string",
          "name": "_new",
          "type": "string"
        }
      ],
      "name": "setBaseURI",
      "outputs": [],
      "stateMutability": "nonpayable",
      "type": "function"
    },
    {
      "inputs": [
        {
          "internalType": "address",
          "name": "_new",
          "type": "address"
        }
      ],
      "name": "setHandler",
      "outputs": [],
      "stateMutability": "nonpayable",
      "type": "function"
    },
    {
      "inputs": [
        {
          "internalType": "address",
          "name": "_new",
          "type": "address"
        },
        {
          "internalType": "bool",
          "name": "_value",
          "type": "bool"
        }
      ],
      "name": "setIsBlacklisted",
      "outputs": [],
      "stateMutability": "nonpayable",
      "type": "function"
    },
    {
      "inputs": [
        {
          "internalType": "bool",
          "name": "_new",
          "type": "bool"
        }
      ],
      "name": "setOpenCreateNft",
      "outputs": [],
      "stateMutability": "nonpayable",
      "type": "function"
    },
    {
      "inputs": [
        {
          "internalType": "uint256",
          "name": "tokenId",
          "type": "uint256"
        },
        {
          "internalType": "string",
          "name": "nodeType",
          "type": "string"
        }
      ],
      "name": "setTokenIdToType",
      "outputs": [],
      "stateMutability": "nonpayable",
      "type": "function"
    },
    {
      "inputs": [
        {
          "internalType": "bytes4",
          "name": "interfaceId",
          "type": "bytes4"
        }
      ],
      "name": "supportsInterface",
      "outputs": [
        {
          "internalType": "bool",
          "name": "",
          "type": "bool"
        }
      ],
      "stateMutability": "view",
      "type": "function"
    },
    {
      "inputs": [],
      "name": "symbol",
      "outputs": [
        {
          "internalType": "string",
          "name": "",
          "type": "string"
        }
      ],
      "stateMutability": "view",
      "type": "function"
    },
    {
      "inputs": [
        {
          "internalType": "uint256",
          "name": "index",
          "type": "uint256"
        }
      ],
      "name": "tokenByIndex",
      "outputs": [
        {
          "internalType": "uint256",
          "name": "",
          "type": "uint256"
        }
      ],
      "stateMutability": "view",
      "type": "function"
    },
    {
      "inputs": [
        {
          "internalType": "uint256",
          "name": "",
          "type": "uint256"
        }
      ],
      "name": "tokenIdsToType",
      "outputs": [
        {
          "internalType": "string",
          "name": "",
          "type": "string"
        }
      ],
      "stateMutability": "view",
      "type": "function"
    },
    {
      "inputs": [
        {
          "internalType": "address",
          "name": "owner",
          "type": "address"
        },
        {
          "internalType": "uint256",
          "name": "index",
          "type": "uint256"
        }
      ],
      "name": "tokenOfOwnerByIndex",
      "outputs": [
        {
          "internalType": "uint256",
          "name": "",
          "type": "uint256"
        }
      ],
      "stateMutability": "view",
      "type": "function"
    },
    {
      "inputs": [
        {
          "internalType": "uint256",
          "name": "tokenId",
          "type": "uint256"
        }
      ],
      "name": "tokenURI",
      "outputs": [
        {
          "internalType": "string",
          "name": "",
          "type": "string"
        }
      ],
      "stateMutability": "view",
      "type": "function"
    },
    {
      "inputs": [
        {
          "internalType": "address",
          "name": "user",
          "type": "address"
        }
      ],
      "name": "tokensOfOwner",
      "outputs": [
        {
          "internalType": "uint256[]",
          "name": "",
          "type": "uint256[]"
        }
      ],
      "stateMutability": "view",
      "type": "function"
    },
    {
      "inputs": [
        {
          "internalType": "address",
          "name": "user",
          "type": "address"
        },
        {
          "internalType": "uint256",
          "name": "iStart",
          "type": "uint256"
        },
        {
          "internalType": "uint256",
          "name": "iEnd",
          "type": "uint256"
        }
      ],
      "name": "tokensOfOwnerByIndexesBetween",
      "outputs": [
        {
          "internalType": "uint256[]",
          "name": "",
          "type": "uint256[]"
        }
      ],
      "stateMutability": "view",
      "type": "function"
    },
    {
      "inputs": [],
      "name": "totalSupply",
      "outputs": [
        {
          "internalType": "uint256",
          "name": "",
          "type": "uint256"
        }
      ],
      "stateMutability": "view",
      "type": "function"
    },
    {
      "inputs": [
        {
          "internalType": "address",
          "name": "from",
          "type": "address"
        },
        {
          "internalType": "address",
          "name": "to",
          "type": "address"
        },
        {
          "internalType": "uint256",
          "name": "tokenId",
          "type": "uint256"
        }
      ],
      "name": "transferFrom",
      "outputs": [],
      "stateMutability": "nonpayable",
      "type": "function"
    }
  ],
  "bytecode": "0x608060405234801561001057600080fd5b506131f7806100206000396000f3fe608060405234801561001057600080fd5b50600436106102535760003560e01c806355f804b311610146578063a22cb465116100c3578063c23e6f9311610087578063c23e6f9314610522578063c395016214610542578063c80916d41461054f578063c87b56dd14610562578063e985e9c514610575578063fe575a87146105b157600080fd5b8063a22cb465146104c3578063b2dc5dc3146104d6578063b3ad18e2146104e9578063b88d4fde146104fc578063bac426d01461050f57600080fd5b8063842e76691161010a578063842e76691461045f5780638462151c14610482578063864b7e951461049557806395d89b41146104a8578063a0e38492146104b057600080fd5b806355f804b31461040b5780636352211e1461041e5780636c0360eb1461043157806370a08231146104395780637ab4339d1461044c57600080fd5b80632f745c59116101d45780634f6ccce7116101985780634f6ccce7146103b75780635139839c146103ca5780635181db2b146103dd578063518e32d3146103f0578063551a6d931461040357600080fd5b80632f745c591461034b57806333a481dd1461035e57806342842e0e14610371578063493fe80f146103845780634cee1e3b1461039757600080fd5b80630c7b1d7b1161021b5780630c7b1d7b146102e8578063173825d9146102fa57806318160ddd1461030d57806323b872dd146103155780632f54bf6e1461032857600080fd5b806301ffc9a714610258578063025e7c271461028057806306fdde03146102ab578063081812fc146102c0578063095ea7b3146102d3575b600080fd5b61026b610266366004612876565b6105d4565b60405190151581526020015b60405180910390f35b61029361028e366004612893565b6105e5565b6040516001600160a01b039091168152602001610277565b6102b361060f565b6040516102779190612904565b6102936102ce366004612893565b6106a1565b6102e66102e136600461292e565b61073b565b005b60c9545b604051908152602001610277565b6102e6610308366004612958565b610851565b6099546102ec565b6102e6610323366004612973565b610ad8565b61026b610336366004612958565b60ca6020526000908152604090205460ff1681565b6102ec61035936600461292e565b610b09565b6102e661036c3660046129bf565b610b9f565b6102e661037f366004612973565b610be1565b6102b3610392366004612893565b610bfc565b6103aa6103a53660046129da565b610c7d565b6040516102779190612a0d565b6102ec6103c5366004612893565b610d23565b6102936103d8366004612893565b610db6565b6103aa6103eb366004612b1c565b610dc6565b6102e66103fe366004612b62565b610ff0565b60d1546102ec565b6102e6610419366004612b95565b6111dc565b61029361042c366004612893565b61121e565b6102b3611295565b6102ec610447366004612958565b6112a4565b6102e661045a366004612bc9565b61132b565b61026b61046d366004612958565b60d26020526000908152604090205460ff1681565b6103aa610490366004612958565b6113a3565b6102e66104a3366004612c0d565b611446565b6102b361148f565b6102e66104be366004612b62565b61149e565b6102e66104d1366004612b62565b6114f8565b6102e66104e4366004612c53565b611503565b6102b36104f7366004612893565b6115ef565b6102e661050a366004612d0b565b611689565b6102e661051d366004612958565b6116c1565b610535610530366004612d86565b611712565b6040516102779190612da8565b60d05461026b9060ff1681565b60cb54610293906001600160a01b031681565b6102b3610570366004612893565b6117e2565b61026b610583366004612de9565b6001600160a01b039182166000908152606a6020908152604080832093909416825291909152205460ff1690565b61026b6105bf366004612958565b60cf6020526000908152604090205460ff1681565b60006105df826118bd565b92915050565b60c981815481106105f557600080fd5b6000918252602090912001546001600160a01b0316905081565b60606065805461061e90612e13565b80601f016020809104026020016040519081016040528092919081815260200182805461064a90612e13565b80156106975780601f1061066c57610100808354040283529160200191610697565b820191906000526020600020905b81548152906001019060200180831161067a57829003601f168201915b5050505050905090565b6000818152606760205260408120546001600160a01b031661071f5760405162461bcd60e51b815260206004820152602c60248201527f4552433732313a20617070726f76656420717565727920666f72206e6f6e657860448201526b34b9ba32b73a103a37b5b2b760a11b60648201526084015b60405180910390fd5b506000908152606960205260409020546001600160a01b031690565b60006107468261121e565b9050806001600160a01b0316836001600160a01b031614156107b45760405162461bcd60e51b815260206004820152602160248201527f4552433732313a20617070726f76616c20746f2063757272656e74206f776e656044820152603960f91b6064820152608401610716565b336001600160a01b03821614806107d057506107d08133610583565b6108425760405162461bcd60e51b815260206004820152603860248201527f4552433732313a20617070726f76652063616c6c6572206973206e6f74206f7760448201527f6e6572206e6f7220617070726f76656420666f7220616c6c00000000000000006064820152608401610716565b61084c83836118e2565b505050565b336001600160a01b031660c960008154811061086f5761086f612e4e565b6000918252602090912001546001600160a01b0316146108cc5760405162461bcd60e51b815260206004820152601860248201527727bbb732b9399d1027b7363c9029bab832b91027bbb732b960411b6044820152606401610716565b6001600160a01b038116600090815260ca602052604090205460ff166109285760405162461bcd60e51b815260206004820152601160248201527027bbb732b9399d102737ba1037bbb732b960791b6044820152606401610716565b60c960008154811061093c5761093c612e4e565b6000918252602090912001546001600160a01b03828116911614156109ad5760405162461bcd60e51b815260206004820152602160248201527f4f776e6572733a2043616e6e6f742072656d6f7665207375706572206f776e656044820152603960f91b6064820152608401610716565b60015b60c954811015610ab657816001600160a01b031660c982815481106109d7576109d7612e4e565b6000918252602090912001546001600160a01b03161415610aa45760c98054610a0290600190612e7a565b81548110610a1257610a12612e4e565b60009182526020909120015460c980546001600160a01b039092169183908110610a3e57610a3e612e4e565b9060005260206000200160006101000a8154816001600160a01b0302191690836001600160a01b0316021790555060c9805480610a7d57610a7d612e91565b600082815260209020810160001990810180546001600160a01b0319169055019055610ab6565b80610aae81612ea7565b9150506109b0565b506001600160a01b0316600090815260ca60205260409020805460ff19169055565b610ae23382611950565b610afe5760405162461bcd60e51b815260040161071690612ec2565b61084c838383611a47565b6000610b14836112a4565b8210610b765760405162461bcd60e51b815260206004820152602b60248201527f455243373231456e756d657261626c653a206f776e657220696e646578206f7560448201526a74206f6620626f756e647360a81b6064820152608401610716565b506001600160a01b03919091166000908152609760209081526040808320938352929052205490565b33600090815260ca602052604090205460ff16610bce5760405162461bcd60e51b815260040161071690612f13565b60d0805460ff1916911515919091179055565b61084c83838360405180602001604052806000815250611689565b60cb5460405163493fe80f60e01b8152600481018390526060916001600160a01b03169063493fe80f9060240160006040518083038186803b158015610c4157600080fd5b505afa158015610c55573d6000803e3d6000fd5b505050506040513d6000823e601f3d908101601f191682016040526105df9190810190612f3f565b60606000610c8b8484612e7a565b6001600160401b03811115610ca257610ca2612a51565b604051908082528060200260200182016040528015610ccb578160200160208202803683370190505b509050835b83811015610d1a57610ce28682610b09565b82610ced8784612e7a565b81518110610cfd57610cfd612e4e565b602090810291909101015280610d1281612ea7565b915050610cd0565b50949350505050565b6000610d2e60995490565b8210610d915760405162461bcd60e51b815260206004820152602c60248201527f455243373231456e756d657261626c653a20676c6f62616c20696e646578206f60448201526b7574206f6620626f756e647360a01b6064820152608401610716565b60998281548110610da457610da4612e4e565b90600052602060002001549050919050565b60d181815481106105f557600080fd5b60cb546060906001600160a01b03163314610df35760405162461bcd60e51b815260040161071690612fb5565b6001600160a01b038316600090815260cf602052604090205460ff1615610e5c5760405162461bcd60e51b815260206004820152601f60248201527f537072696e674e6f64653a20426c61636b6c69737465642061646472657373006044820152606401610716565b60d05460ff16610ea55760405162461bcd60e51b815260206004820152601460248201527329b83934b733a737b2329d102737ba1037b832b760611b6044820152606401610716565b6001600160a01b038316600090815260d2602052604090205460ff16610f295760d1805460018082019092557f695fb3134ad82c3b8022bc5464edd0bcc9424ef672b52245dcb6ab2374327ce30180546001600160a01b0319166001600160a01b038616908117909155600090815260d260205260409020805460ff191690911790555b6000826001600160401b03811115610f4357610f43612a51565b604051908082528060200260200182016040528015610f6c578160200160208202803683370190505b50905060005b83811015610d1a576000610f8560cd5490565b905080838381518110610f9a57610f9a612e4e565b602090810291909101810191909152600082815260cc8252604090208851610fc4928a01906127c4565b50610fcf8682611bd7565b610fdd60cd80546001019055565b5080610fe881612ea7565b915050610f72565b336001600160a01b031660c960008154811061100e5761100e612e4e565b6000918252602090912001546001600160a01b03161461106b5760405162461bcd60e51b815260206004820152601860248201527727bbb732b9399d1027b7363c9029bab832b91027bbb732b960411b6044820152606401610716565b6001600160a01b038216600090815260ca602052604090205460ff16156110cc5760405162461bcd60e51b815260206004820152601560248201527427bbb732b9399d1020b63932b0b23c9037bbb732b960591b6044820152606401610716565b6001600160a01b038216600090815260ca60205260409020805460ff19166001179055801561118c5760c98060008154811061110a5761110a612e4e565b6000918252602080832090910154835460018101855593835290822090920180546001600160a01b0319166001600160a01b039093169290921790915560c9805484929061115a5761115a612e4e565b9060005260206000200160006101000a8154816001600160a01b0302191690836001600160a01b031602179055505050565b60c980546001810182556000919091527f66be4f155c5ef2ebd3772b228f2f00681e4ed5826cdb3b1943cc11ad15ad1d280180546001600160a01b0319166001600160a01b0384161790555b5050565b33600090815260ca602052604090205460ff1661120b5760405162461bcd60e51b815260040161071690612f13565b80516111d89060ce9060208401906127c4565b6000818152606760205260408120546001600160a01b0316806105df5760405162461bcd60e51b815260206004820152602960248201527f4552433732313a206f776e657220717565727920666f72206e6f6e657869737460448201526832b73a103a37b5b2b760b91b6064820152608401610716565b606061129f611bf1565b905090565b60006001600160a01b03821661130f5760405162461bcd60e51b815260206004820152602a60248201527f4552433732313a2062616c616e636520717565727920666f7220746865207a65604482015269726f206164647265737360b01b6064820152608401610716565b506001600160a01b031660009081526068602052604090205490565b60006113376001611c00565b9050801561134f576000805461ff0019166101001790555b6113598383611c8d565b801561084c576000805461ff0019169055604051600181527f7f26b83ff96e1f2b6a682f133852f6798a09c465da95921460cefb38474024989060200160405180910390a1505050565b606060006113b0836112a4565b6001600160401b038111156113c7576113c7612a51565b6040519080825280602002602001820160405280156113f0578160200160208202803683370190505b50905060005b6113ff846112a4565b81101561143f576114108482610b09565b82828151811061142257611422612e4e565b60209081029190910101528061143781612ea7565b9150506113f6565b5092915050565b60cb546001600160a01b031633146114705760405162461bcd60e51b815260040161071690612fb5565b600082815260cc60209081526040909120825161084c928401906127c4565b60606066805461061e90612e13565b33600090815260ca602052604090205460ff166114cd5760405162461bcd60e51b815260040161071690612f13565b6001600160a01b0391909116600090815260cf60205260409020805460ff1916911515919091179055565b6111d8338383611d0d565b60cb546001600160a01b0316331461152d5760405162461bcd60e51b815260040161071690612fb5565b60005b815181101561084c57826001600160a01b031661156583838151811061155857611558612e4e565b602002602001015161121e565b6001600160a01b0316146115bb5760405162461bcd60e51b815260206004820152601960248201527f537072696e674e6f64653a204e6f74206e6674206f776e6572000000000000006044820152606401610716565b6115dd8282815181106115d0576115d0612e4e565b6020026020010151611ddc565b806115e781612ea7565b915050611530565b60cc602052600090815260409020805461160890612e13565b80601f016020809104026020016040519081016040528092919081815260200182805461163490612e13565b80156116815780601f1061165657610100808354040283529160200191611681565b820191906000526020600020905b81548152906001019060200180831161166457829003601f168201915b505050505081565b6116933383611950565b6116af5760405162461bcd60e51b815260040161071690612ec2565b6116bb84848484611e83565b50505050565b33600090815260ca602052604090205460ff166116f05760405162461bcd60e51b815260040161071690612f13565b60cb80546001600160a01b0319166001600160a01b0392909216919091179055565b606060006117208484612e7a565b6001600160401b0381111561173757611737612a51565b604051908082528060200260200182016040528015611760578160200160208202803683370190505b509050835b838110156117da5760d1818154811061178057611780612e4e565b6000918252602090912001546001600160a01b0316826117a08784612e7a565b815181106117b0576117b0612e4e565b6001600160a01b0390921660209283029190910190910152806117d281612ea7565b915050611765565b509392505050565b6000818152606760205260409020546060906001600160a01b03166118615760405162461bcd60e51b815260206004820152602f60248201527f4552433732314d657461646174613a2055524920717565727920666f72206e6f60448201526e3732bc34b9ba32b73a103a37b5b2b760891b6064820152608401610716565b600061186b611bf1565b9050600081511161188b57604051806020016040528060008152506118b6565b8061189584611eb6565b6040516020016118a6929190612ff7565b6040516020818303038152906040525b9392505050565b60006001600160e01b0319821663780e9d6360e01b14806105df57506105df82611fb3565b600081815260696020526040902080546001600160a01b0319166001600160a01b03841690811790915581906119178261121e565b6001600160a01b03167f8c5be1e5ebec7d5bd14f71427d1e84f3dd0314c0f7b2291e5b200ac8c7c3b92560405160405180910390a45050565b6000818152606760205260408120546001600160a01b03166119c95760405162461bcd60e51b815260206004820152602c60248201527f4552433732313a206f70657261746f7220717565727920666f72206e6f6e657860448201526b34b9ba32b73a103a37b5b2b760a11b6064820152608401610716565b60006119d48361121e565b9050806001600160a01b0316846001600160a01b03161480611a1b57506001600160a01b038082166000908152606a602090815260408083209388168352929052205460ff165b80611a3f5750836001600160a01b0316611a34846106a1565b6001600160a01b0316145b949350505050565b6001600160a01b038316600090815260cf602052604090205460ff16158015611a8957506001600160a01b038216600090815260cf602052604090205460ff16155b611ad55760405162461bcd60e51b815260206004820152601f60248201527f537072696e674e6f64653a20426c61636b6c69737465642061646472657373006044820152606401610716565b6001600160a01b038216600090815260d2602052604090205460ff16611b595760d1805460018082019092557f695fb3134ad82c3b8022bc5464edd0bcc9424ef672b52245dcb6ab2374327ce30180546001600160a01b0319166001600160a01b038516908117909155600090815260d260205260409020805460ff191690911790555b611b64838383612003565b60cb5460405163b836c5f560e01b81526001600160a01b0385811660048301528481166024830152604482018490529091169063b836c5f590606401600060405180830381600087803b158015611bba57600080fd5b505af1158015611bce573d6000803e3d6000fd5b50505050505050565b6111d88282604051806020016040528060008152506121aa565b606060ce805461061e90612e13565b60008054610100900460ff1615611c47578160ff166001148015611c235750303b155b611c3f5760405162461bcd60e51b815260040161071690613026565b506000919050565b60005460ff808416911610611c6e5760405162461bcd60e51b815260040161071690613026565b506000805460ff191660ff92909216919091179055600190565b919050565b600054610100900460ff16611cb45760405162461bcd60e51b815260040161071690613074565b611cbc6121dd565b611d036040518060400160405280600b81526020016a537072696e67204e6f646560a81b8152506040518060400160405280600281526020016129a760f11b815250612260565b6111d882826122ae565b816001600160a01b0316836001600160a01b03161415611d6f5760405162461bcd60e51b815260206004820152601960248201527f4552433732313a20617070726f766520746f2063616c6c6572000000000000006044820152606401610716565b6001600160a01b038381166000818152606a6020908152604080832094871680845294825291829020805460ff191686151590811790915591519182527f17307eab39ab6107e8899845ad3d59bd9653f200f220920489ca2b5937696c31910160405180910390a3505050565b6000611de78261121e565b9050611df581600084612316565b611e006000836118e2565b6001600160a01b0381166000908152606860205260408120805460019290611e29908490612e7a565b909155505060008281526067602052604080822080546001600160a01b0319169055518391906001600160a01b038416907fddf252ad1be2c89b69c2b068fc378daa952ba7f163c4a11628f55a4df523b3ef908390a45050565b611e8e848484611a47565b611e9a84848484612321565b6116bb5760405162461bcd60e51b8152600401610716906130bf565b606081611eda5750506040805180820190915260018152600360fc1b602082015290565b8160005b8115611f045780611eee81612ea7565b9150611efd9050600a83613127565b9150611ede565b6000816001600160401b03811115611f1e57611f1e612a51565b6040519080825280601f01601f191660200182016040528015611f48576020820181803683370190505b5090505b8415611a3f57611f5d600183612e7a565b9150611f6a600a8661313b565b611f7590603061314f565b60f81b818381518110611f8a57611f8a612e4e565b60200101906001600160f81b031916908160001a905350611fac600a86613127565b9450611f4c565b60006001600160e01b031982166380ac58cd60e01b1480611fe457506001600160e01b03198216635b5e139f60e01b145b806105df57506301ffc9a760e01b6001600160e01b03198316146105df565b826001600160a01b03166120168261121e565b6001600160a01b03161461207a5760405162461bcd60e51b815260206004820152602560248201527f4552433732313a207472616e736665722066726f6d20696e636f72726563742060448201526437bbb732b960d91b6064820152608401610716565b6001600160a01b0382166120dc5760405162461bcd60e51b8152602060048201526024808201527f4552433732313a207472616e7366657220746f20746865207a65726f206164646044820152637265737360e01b6064820152608401610716565b6120e7838383612316565b6120f26000826118e2565b6001600160a01b038316600090815260686020526040812080546001929061211b908490612e7a565b90915550506001600160a01b038216600090815260686020526040812080546001929061214990849061314f565b909155505060008181526067602052604080822080546001600160a01b0319166001600160a01b0386811691821790925591518493918716917fddf252ad1be2c89b69c2b068fc378daa952ba7f163c4a11628f55a4df523b3ef91a4505050565b6121b4838361242e565b6121c16000848484612321565b61084c5760405162461bcd60e51b8152600401610716906130bf565b600054610100900460ff166122045760405162461bcd60e51b815260040161071690613074565b60c9805460018181019092557f66be4f155c5ef2ebd3772b228f2f00681e4ed5826cdb3b1943cc11ad15ad1d280180546001600160a01b03191633908117909155600090815260ca60205260409020805460ff19169091179055565b600054610100900460ff166122875760405162461bcd60e51b815260040161071690613074565b815161229a9060659060208501906127c4565b50805161084c9060669060208401906127c4565b600054610100900460ff166122d55760405162461bcd60e51b815260040161071690613074565b81516122e89060ce9060208501906127c4565b5060cb80546001600160a01b0319166001600160a01b03929092169190911790555060d0805460ff19169055565b61084c83838361257c565b60006001600160a01b0384163b1561242357604051630a85bd0160e11b81526001600160a01b0385169063150b7a0290612365903390899088908890600401613167565b602060405180830381600087803b15801561237f57600080fd5b505af19250505080156123af575060408051601f3d908101601f191682019092526123ac918101906131a4565b60015b612409573d8080156123dd576040519150601f19603f3d011682016040523d82523d6000602084013e6123e2565b606091505b5080516124015760405162461bcd60e51b8152600401610716906130bf565b805181602001fd5b6001600160e01b031916630a85bd0160e11b149050611a3f565b506001949350505050565b6001600160a01b0382166124845760405162461bcd60e51b815260206004820181905260248201527f4552433732313a206d696e7420746f20746865207a65726f20616464726573736044820152606401610716565b6000818152606760205260409020546001600160a01b0316156124e95760405162461bcd60e51b815260206004820152601c60248201527f4552433732313a20746f6b656e20616c7265616479206d696e746564000000006044820152606401610716565b6124f560008383612316565b6001600160a01b038216600090815260686020526040812080546001929061251e90849061314f565b909155505060008181526067602052604080822080546001600160a01b0319166001600160a01b03861690811790915590518392907fddf252ad1be2c89b69c2b068fc378daa952ba7f163c4a11628f55a4df523b3ef908290a45050565b6001600160a01b0383166125d7576125d281609980546000838152609a60205260408120829055600182018355919091527f72a152ddfb8e864297c917af52ea6c1c68aead0fee1a62673fcc7e0c94979d000155565b6125fa565b816001600160a01b0316836001600160a01b0316146125fa576125fa8382612634565b6001600160a01b0382166126115761084c816126d1565b826001600160a01b0316826001600160a01b03161461084c5761084c8282612780565b60006001612641846112a4565b61264b9190612e7a565b60008381526098602052604090205490915080821461269e576001600160a01b03841660009081526097602090815260408083208584528252808320548484528184208190558352609890915290208190555b5060009182526098602090815260408084208490556001600160a01b039094168352609781528383209183525290812055565b6099546000906126e390600190612e7a565b6000838152609a60205260408120546099805493945090928490811061270b5761270b612e4e565b90600052602060002001549050806099838154811061272c5761272c612e4e565b6000918252602080832090910192909255828152609a9091526040808220849055858252812055609980548061276457612764612e91565b6001900381819060005260206000200160009055905550505050565b600061278b836112a4565b6001600160a01b039093166000908152609760209081526040808320868452825280832085905593825260989052919091209190915550565b8280546127d090612e13565b90600052602060002090601f0160209004810192826127f25760008555612838565b82601f1061280b57805160ff1916838001178555612838565b82800160010185558215612838579182015b8281111561283857825182559160200191906001019061281d565b50612844929150612848565b5090565b5b808211156128445760008155600101612849565b6001600160e01b03198116811461287357600080fd5b50565b60006020828403121561288857600080fd5b81356118b68161285d565b6000602082840312156128a557600080fd5b5035919050565b60005b838110156128c75781810151838201526020016128af565b838111156116bb5750506000910152565b600081518084526128f08160208601602086016128ac565b601f01601f19169290920160200192915050565b6020815260006118b660208301846128d8565b80356001600160a01b0381168114611c8857600080fd5b6000806040838503121561294157600080fd5b61294a83612917565b946020939093013593505050565b60006020828403121561296a57600080fd5b6118b682612917565b60008060006060848603121561298857600080fd5b61299184612917565b925061299f60208501612917565b9150604084013590509250925092565b80358015158114611c8857600080fd5b6000602082840312156129d157600080fd5b6118b6826129af565b6000806000606084860312156129ef57600080fd5b6129f884612917565b95602085013595506040909401359392505050565b6020808252825182820181905260009190848201906040850190845b81811015612a4557835183529284019291840191600101612a29565b50909695505050505050565b634e487b7160e01b600052604160045260246000fd5b604051601f8201601f191681016001600160401b0381118282101715612a8f57612a8f612a51565b604052919050565b60006001600160401b03821115612ab057612ab0612a51565b50601f01601f191660200190565b6000612ad1612acc84612a97565b612a67565b9050828152838383011115612ae557600080fd5b828260208301376000602084830101529392505050565b600082601f830112612b0d57600080fd5b6118b683833560208501612abe565b600080600060608486031215612b3157600080fd5b83356001600160401b03811115612b4757600080fd5b612b5386828701612afc565b93505061299f60208501612917565b60008060408385031215612b7557600080fd5b612b7e83612917565b9150612b8c602084016129af565b90509250929050565b600060208284031215612ba757600080fd5b81356001600160401b03811115612bbd57600080fd5b611a3f84828501612afc565b60008060408385031215612bdc57600080fd5b82356001600160401b03811115612bf257600080fd5b612bfe85828601612afc565b925050612b8c60208401612917565b60008060408385031215612c2057600080fd5b8235915060208301356001600160401b03811115612c3d57600080fd5b612c4985828601612afc565b9150509250929050565b60008060408385031215612c6657600080fd5b612c6f83612917565b91506020808401356001600160401b0380821115612c8c57600080fd5b818601915086601f830112612ca057600080fd5b813581811115612cb257612cb2612a51565b8060051b9150612cc3848301612a67565b8181529183018401918481019089841115612cdd57600080fd5b938501935b83851015612cfb57843582529385019390850190612ce2565b8096505050505050509250929050565b60008060008060808587031215612d2157600080fd5b612d2a85612917565b9350612d3860208601612917565b92506040850135915060608501356001600160401b03811115612d5a57600080fd5b8501601f81018713612d6b57600080fd5b612d7a87823560208401612abe565b91505092959194509250565b60008060408385031215612d9957600080fd5b50508035926020909101359150565b6020808252825182820181905260009190848201906040850190845b81811015612a455783516001600160a01b031683529284019291840191600101612dc4565b60008060408385031215612dfc57600080fd5b612e0583612917565b9150612b8c60208401612917565b600181811c90821680612e2757607f821691505b60208210811415612e4857634e487b7160e01b600052602260045260246000fd5b50919050565b634e487b7160e01b600052603260045260246000fd5b634e487b7160e01b600052601160045260246000fd5b600082821015612e8c57612e8c612e64565b500390565b634e487b7160e01b600052603160045260246000fd5b6000600019821415612ebb57612ebb612e64565b5060010190565b60208082526031908201527f4552433732313a207472616e736665722063616c6c6572206973206e6f74206f6040820152701ddb995c881b9bdc88185c1c1c9bdd9959607a1b606082015260800190565b60208082526012908201527127bbb732b9399d1027b7363c9027bbb732b960711b604082015260600190565b600060208284031215612f5157600080fd5b81516001600160401b03811115612f6757600080fd5b8201601f81018413612f7857600080fd5b8051612f86612acc82612a97565b818152856020838501011115612f9b57600080fd5b612fac8260208301602086016128ac565b95945050505050565b60208082526022908201527f537072696e674e6f64653a20476f64206d6f6465206e6f742061637469766174604082015261195960f21b606082015260800190565b600083516130098184602088016128ac565b83519083019061301d8183602088016128ac565b01949350505050565b6020808252602e908201527f496e697469616c697a61626c653a20636f6e747261637420697320616c72656160408201526d191e481a5b9a5d1a585b1a5e995960921b606082015260800190565b6020808252602b908201527f496e697469616c697a61626c653a20636f6e7472616374206973206e6f74206960408201526a6e697469616c697a696e6760a81b606082015260800190565b60208082526032908201527f4552433732313a207472616e7366657220746f206e6f6e20455243373231526560408201527131b2b4bb32b91034b6b83632b6b2b73a32b960711b606082015260800190565b634e487b7160e01b600052601260045260246000fd5b60008261313657613136613111565b500490565b60008261314a5761314a613111565b500690565b6000821982111561316257613162612e64565b500190565b6001600160a01b038581168252841660208201526040810183905260806060820181905260009061319a908301846128d8565b9695505050505050565b6000602082840312156131b657600080fd5b81516118b68161285d56fea2646970667358221220eb6de0da0526adf5c830ebba9dc83c84b81da86483016e175b2fc17117ad48bd64736f6c63430008090033",
  "linkReferences": {},
  "deployedLinkReferences": {}
}