{
  "_format": "hh-sol-artifact-1",
  "contractName": "Handler_AddonsFacet",
  "sourceName": "contracts/handler/AddonsFacet.sol",
  "abi": [
    {
      "inputs": [
        {
          "internalType": "string",
          "name": "name",
          "type": "string"
        },
        {
          "internalType": "string",
          "name": "nodeType",
          "type": "string"
        }
      ],
      "name": "getFertilizerPriceByNameAndNodeType",
      "outputs": [
        {
          "internalType": "uint256",
          "name": "",
          "type": "uint256"
        }
      ],
      "stateMutability": "view",
      "type": "function"
    },
    {
      "inputs": [
        {
          "internalType": "string",
          "name": "name",
          "type": "string"
        }
      ],
      "name": "getFertilizerType",
      "outputs": [
        {
          "components": [
            {
              "internalType": "uint256",
              "name": "durationEffect",
              "type": "uint256"
            },
            {
              "internalType": "uint256",
              "name": "rewardBoost",
              "type": "uint256"
            },
            {
              "internalType": "uint256",
              "name": "globalLimit",
              "type": "uint256"
            },
            {
              "internalType": "uint256",
              "name": "userLimit",
              "type": "uint256"
            },
            {
              "internalType": "uint256",
              "name": "userNodeTypeLimit",
              "type": "uint256"
            },
            {
              "internalType": "uint256",
              "name": "nodeLimit",
              "type": "uint256"
            }
          ],
          "internalType": "struct Fertilizer",
          "name": "",
          "type": "tuple"
        }
      ],
      "stateMutability": "view",
      "type": "function"
    },
    {
      "inputs": [],
      "name": "getFertilizerTypes",
      "outputs": [
        {
          "components": [
            {
              "internalType": "string",
              "name": "name",
              "type": "string"
            },
            {
              "internalType": "uint256",
              "name": "durationEffect",
              "type": "uint256"
            },
            {
              "internalType": "uint256",
              "name": "rewardBoost",
              "type": "uint256"
            },
            {
              "internalType": "uint256[]",
              "name": "prices",
              "type": "uint256[]"
            },
            {
              "internalType": "uint256",
              "name": "globalLimit",
              "type": "uint256"
            },
            {
              "internalType": "uint256",
              "name": "userNodeTypeLimit",
              "type": "uint256"
            },
            {
              "internalType": "uint256",
              "name": "nodeLimit",
              "type": "uint256"
            }
          ],
          "internalType": "struct Handler_AddonsFacet.FertilizerView[]",
          "name": "",
          "type": "tuple[]"
        }
      ],
      "stateMutability": "view",
      "type": "function"
    },
    {
      "inputs": [
        {
          "internalType": "uint256",
          "name": "nodeId",
          "type": "uint256"
        }
      ],
      "name": "getItemLogForNode",
      "outputs": [
        {
          "components": [
            {
              "internalType": "uint256",
              "name": "creationTime",
              "type": "uint256"
            },
            {
              "internalType": "string",
              "name": "addonKind",
              "type": "string"
            },
            {
              "internalType": "string",
              "name": "addonTypeName",
              "type": "string"
            }
          ],
          "internalType": "struct Handler_AddonsFacet.NodeAddonLogItemView[]",
          "name": "",
          "type": "tuple[]"
        }
      ],
      "stateMutability": "view",
      "type": "function"
    },
    {
      "inputs": [
        {
          "internalType": "string",
          "name": "name",
          "type": "string"
        },
        {
          "internalType": "string",
          "name": "nodeType",
          "type": "string"
        }
      ],
      "name": "getWaterpackPriceByNameAndNodeType",
      "outputs": [
        {
          "internalType": "uint256",
          "name": "",
          "type": "uint256"
        }
      ],
      "stateMutability": "view",
      "type": "function"
    },
    {
      "inputs": [
        {
          "internalType": "string",
          "name": "name",
          "type": "string"
        }
      ],
      "name": "getWaterpackType",
      "outputs": [
        {
          "components": [
            {
              "internalType": "uint256",
              "name": "ratioOfGRP",
              "type": "uint256"
            }
          ],
          "internalType": "struct Waterpack",
          "name": "",
          "type": "tuple"
        }
      ],
      "stateMutability": "view",
      "type": "function"
    },
    {
      "inputs": [],
      "name": "getWaterpackTypes",
      "outputs": [
        {
          "components": [
            {
              "internalType": "string",
              "name": "name",
              "type": "string"
            },
            {
              "internalType": "uint256",
              "name": "ratioOfGRP",
              "type": "uint256"
            },
            {
              "internalType": "uint256[]",
              "name": "prices",
              "type": "uint256[]"
            }
          ],
          "internalType": "struct Handler_AddonsFacet.WaterpackView[]",
          "name": "",
          "type": "tuple[]"
        }
      ],
      "stateMutability": "view",
      "type": "function"
    },
    {
      "inputs": [
        {
          "internalType": "string",
          "name": "name",
          "type": "string"
        }
      ],
      "name": "hasFertilizerType",
      "outputs": [
        {
          "internalType": "bool",
          "name": "",
          "type": "bool"
        }
      ],
      "stateMutability": "view",
      "type": "function"
    },
    {
      "inputs": [
        {
          "internalType": "string",
          "name": "name",
          "type": "string"
        }
      ],
      "name": "hasWaterpackType",
      "outputs": [
        {
          "internalType": "bool",
          "name": "",
          "type": "bool"
        }
      ],
      "stateMutability": "view",
      "type": "function"
    },
    {
      "inputs": [
        {
          "internalType": "uint256",
          "name": "nodeTokenId",
          "type": "uint256"
        }
      ],
      "name": "totalFertilizerCreatedPerNodeTokenId",
      "outputs": [
        {
          "internalType": "uint256",
          "name": "",
          "type": "uint256"
        }
      ],
      "stateMutability": "view",
      "type": "function"
    },
    {
      "inputs": [
        {
          "internalType": "string",
          "name": "typeName",
          "type": "string"
        }
      ],
      "name": "totalFertilizerCreatedPerType",
      "outputs": [
        {
          "internalType": "uint256",
          "name": "",
          "type": "uint256"
        }
      ],
      "stateMutability": "view",
      "type": "function"
    },
    {
      "inputs": [
        {
          "internalType": "address",
          "name": "user",
          "type": "address"
        },
        {
          "internalType": "string",
          "name": "nodeType",
          "type": "string"
        }
      ],
      "name": "totalFertilizerCreatedPerUserPerType",
      "outputs": [
        {
          "internalType": "uint256",
          "name": "",
          "type": "uint256"
        }
      ],
      "stateMutability": "view",
      "type": "function"
    }
  ],
  "bytecode": "0x608060405234801561001057600080fd5b506118f3806100206000396000f3fe608060405234801561001057600080fd5b50600436106100b45760003560e01c8063ad1dcdc411610071578063ad1dcdc41461019c578063bc1371a4146101af578063d3e24378146101d1578063dba3a19c146101e6578063f286be15146101f9578063f65f22671461023857600080fd5b806306343174146100b95780633da607a5146100e15780636bc01b2e146101025780637673036f14610161578063821247ea14610176578063aaf0e9e214610189575b600080fd5b6100cc6100c7366004611316565b610258565b60405190151581526020015b60405180910390f35b6100f46100ef366004611353565b610269565b6040519081526020016100d8565b610115610110366004611316565b61027c565b6040516100d89190600060c082019050825182526020830151602083015260408301516040830152606083015160608301526080830151608083015260a083015160a083015292915050565b610169610307565b6040516100d8919061144e565b6100f4610184366004611353565b610687565b6100f4610197366004611528565b610693565b6100f46101aa366004611589565b610704565b6101c26101bd366004611316565b610761565b604051905181526020016100d8565b6101d961078e565b6040516100d891906115cb565b6100cc6101f4366004611316565b610bbe565b6100f4610207366004611677565b60009081527f87e1fbeddd51183bf8b543eba737e1308597e167e4320ca5858ddc4f2780b441602052604090205490565b61024b610246366004611677565b610bc9565b6040516100d89190611690565b600061026382610f61565b92915050565b60006102758383610fa1565b9392505050565b6102b56040518060c001604052806000815260200160008152602001600081526020016000815260200160008152602001600081525090565b6102be8261103f565b6040805160c0810182528254815260018301546020820152600283015491810191909152600382015460608201526004820154608082015260059091015460a082015292915050565b6060600060008051602061189e833981519152905060008080546040805160208084028201810190925282815292919060009084015b828210156103e957838290600052602060002001805461035c90611713565b80601f016020809104026020016040519081016040528092919081815260200182805461038890611713565b80156103d55780601f106103aa576101008083540402835291602001916103d5565b820191906000526020600020905b8154815290600101906020018083116103b857829003601f168201915b50505050508152602001906001019061033d565b5050845492935060009291505067ffffffffffffffff81111561040e5761040e611273565b60405190808252806020026020018201604052801561046357816020015b61045060405180606001604052806060815260200160008152602001606081525090565b81526020019060019003908161042c5790505b50905060005b835481101561067f576000835167ffffffffffffffff81111561048e5761048e611273565b6040519080825280602002602001820160405280156104b7578160200160208202803683370190505b50905060005b845181101561056957856003018660010184815481106104df576104df61174e565b906000526020600020016040516104f691906117fd565b90815260200160405180910390208582815181106105165761051661174e565b602002602001015160405161052b9190611809565b90815260200160405180910390205482828151811061054c5761054c61174e565b6020908102919091010152806105618161183b565b9150506104bd565b50604051806060016040528086600101848154811061058a5761058a61174e565b90600052602060002001805461059f90611713565b80601f01602080910402602001604051908101604052809291908181526020018280546105cb90611713565b80156106185780601f106105ed57610100808354040283529160200191610618565b820191906000526020600020905b8154815290600101906020018083116105fb57829003601f168201915b505050505081526020018660000184815481106106375761063761174e565b90600052602060002001600001548152602001828152508383815181106106605761066061174e565b60200260200101819052505080806106779061183b565b915050610469565b509392505050565b60006102758383611119565b6001600160a01b03831660009081527f87e1fbeddd51183bf8b543eba737e1308597e167e4320ca5858ddc4f2780b4406020526040808220905160008051602061187e83398151915291906106eb9086908690611856565b9081526020016040518091039020549150509392505050565b60405160009060008051602061187e833981519152907f87e1fbeddd51183bf8b543eba737e1308597e167e4320ca5858ddc4f2780b43f906107499086908690611856565b90815260200160405180910390205491505092915050565b60408051602081019091526000815261077982611186565b60408051602081019091529054815292915050565b6060600060008051602061187e833981519152905060008080546040805160208084028201810190925282815292919060009084015b828210156108705783829060005260206000200180546107e390611713565b80601f016020809104026020016040519081016040528092919081815260200182805461080f90611713565b801561085c5780601f106108315761010080835404028352916020019161085c565b820191906000526020600020905b81548152906001019060200180831161083f57829003601f168201915b5050505050815260200190600101906107c4565b5050845492935060009291505067ffffffffffffffff81111561089557610895611273565b60405190808252806020026020018201604052801561090657816020015b6108f36040518060e00160405280606081526020016000815260200160008152602001606081526020016000815260200160008152602001600081525090565b8152602001906001900390816108b35790505b50905060005b835481101561067f57600084600101828154811061092c5761092c61174e565b9060005260206000200190506000845167ffffffffffffffff81111561095457610954611273565b60405190808252806020026020018201604052801561097d578160200160208202803683370190505b50905060005b8551811015610a1157866003018360405161099e91906117fd565b90815260200160405180910390208682815181106109be576109be61174e565b60200260200101516040516109d39190611809565b9081526020016040518091039020548282815181106109f4576109f461174e565b602090810291909101015280610a098161183b565b915050610983565b506040518060e00160405280838054610a2990611713565b80601f0160208091040260200160405190810160405280929190818152602001828054610a5590611713565b8015610aa25780601f10610a7757610100808354040283529160200191610aa2565b820191906000526020600020905b815481529060010190602001808311610a8557829003601f168201915b50505050508152602001876000018581548110610ac157610ac161174e565b9060005260206000209060060201600001548152602001876000018581548110610aed57610aed61174e565b9060005260206000209060060201600101548152602001828152602001876000018581548110610b1f57610b1f61174e565b9060005260206000209060060201600201548152602001876000018581548110610b4b57610b4b61174e565b9060005260206000209060060201600401548152602001876000018581548110610b7757610b7761174e565b906000526020600020906006020160050154815250848481518110610b9e57610b9e61174e565b602002602001018190525050508080610bb69061183b565b91505061090c565b60006102638261125c565b60008181527f5f31d4ea3d8e55e9180c4761659d517974342fa39f09c7cae6c78dd83934a2c36020818152604080842081518154938402810160809081019093526060818101858152909694919384928491840182828015610c4a57602002820191906000526020600020905b815481526020019060010190808311610c36575b5050505050815260200160018201805480602002602001604051908101604052809291908181526020016000905b82821015610d24578382906000526020600020018054610c9790611713565b80601f0160208091040260200160405190810160405280929190818152602001828054610cc390611713565b8015610d105780601f10610ce557610100808354040283529160200191610d10565b820191906000526020600020905b815481529060010190602001808311610cf357829003601f168201915b505050505081526020019060010190610c78565b50505050815260200160028201805480602002602001604051908101604052809291908181526020016000905b82821015610dfd578382906000526020600020018054610d7090611713565b80601f0160208091040260200160405190810160405280929190818152602001828054610d9c90611713565b8015610de95780601f10610dbe57610100808354040283529160200191610de9565b820191906000526020600020905b815481529060010190602001808311610dcc57829003601f168201915b505050505081526020019060010190610d51565b5050509152505080515190915060008167ffffffffffffffff811115610e2557610e25611273565b604051908082528060200260200182016040528015610e7a57816020015b610e6760405180606001604052806000815260200160608152602001606081525090565b815260200190600190039081610e435790505b50905060005b82811015610f57578351805182908110610e9c57610e9c61174e565b6020026020010151828281518110610eb657610eb661174e565b6020026020010151600001818152505083602001518181518110610edc57610edc61174e565b6020026020010151828281518110610ef657610ef661174e565b60200260200101516020018190525083604001518181518110610f1b57610f1b61174e565b6020026020010151828281518110610f3557610f3561174e565b6020026020010151604001819052508080610f4f9061183b565b915050610e80565b5095945050505050565b60008060008051602061189e8339815191525b90508060020183604051610f889190611809565b9081526040519081900360200190205415159392505050565b6000610fac83610f61565b610ffd5760405162461bcd60e51b815260206004820152601d60248201527f57617465727061636b207479706520646f6573206e6f7420657869737400000060448201526064015b60405180910390fd5b600060008051602061189e8339815191525b905080600301846040516110239190611809565b9081526020016040518091039020836040516107499190611809565b60405160009060008051602061187e8339815191529082907f87e1fbeddd51183bf8b543eba737e1308597e167e4320ca5858ddc4f2780b43d90611084908690611809565b908152602001604051809103902054905080600014156110e65760405162461bcd60e51b815260206004820152601c60248201527f46657274696c697a6572733a206e6f6e6578697374616e74206b6579000000006044820152606401610ff4565b816110f2600183611866565b815481106111025761110261174e565b906000526020600020906006020192505050919050565b60006111248361125c565b6111705760405162461bcd60e51b815260206004820152601e60248201527f46657274696c697a6572207479706520646f6573206e6f7420657869737400006044820152606401610ff4565b600060008051602061187e83398151915261100f565b60405160009060008051602061189e8339815191529082907fae290eb28aab8105e055b657aeea4e3b7eeed3fbe32f123b18998ab2907937b5906111cb908690611809565b9081526020016040518091039020549050806000141561122d5760405162461bcd60e51b815260206004820152601b60248201527f57617465727061636b733a206e6f6e6578697374616e74206b657900000000006044820152606401610ff4565b81611239600183611866565b815481106112495761124961174e565b9060005260206000200192505050919050565b60008060008051602061187e833981519152610f74565b634e487b7160e01b600052604160045260246000fd5b600082601f83011261129a57600080fd5b813567ffffffffffffffff808211156112b5576112b5611273565b604051601f8301601f19908116603f011681019082821181831017156112dd576112dd611273565b816040528381528660208588010111156112f657600080fd5b836020870160208301376000602085830101528094505050505092915050565b60006020828403121561132857600080fd5b813567ffffffffffffffff81111561133f57600080fd5b61134b84828501611289565b949350505050565b6000806040838503121561136657600080fd5b823567ffffffffffffffff8082111561137e57600080fd5b61138a86838701611289565b935060208501359150808211156113a057600080fd5b506113ad85828601611289565b9150509250929050565b60005b838110156113d25781810151838201526020016113ba565b838111156113e1576000848401525b50505050565b600081518084526113ff8160208601602086016113b7565b601f01601f19169290920160200192915050565b600081518084526020808501945080840160005b8381101561144357815187529582019590820190600101611427565b509495945050505050565b60006020808301818452808551808352604092508286019150828160051b87010184880160005b838110156114d157603f1989840301855281516060815181865261149b828701826113e7565b9150508882015189860152878201519150848103888601526114bd8183611413565b968901969450505090860190600101611475565b509098975050505050505050565b60008083601f8401126114f157600080fd5b50813567ffffffffffffffff81111561150957600080fd5b60208301915083602082850101111561152157600080fd5b9250929050565b60008060006040848603121561153d57600080fd5b83356001600160a01b038116811461155457600080fd5b9250602084013567ffffffffffffffff81111561157057600080fd5b61157c868287016114df565b9497909650939450505050565b6000806020838503121561159c57600080fd5b823567ffffffffffffffff8111156115b357600080fd5b6115bf858286016114df565b90969095509350505050565b60006020808301818452808551808352604092508286019150828160051b87010184880160005b838110156114d157603f19898403018552815160e08151818652611618828701826113e7565b91505088820151898601528782015188860152606080830151868303828801526116428382611413565b6080858101519089015260a0808601519089015260c094850151949097019390935250505093860193908601906001016115f2565b60006020828403121561168957600080fd5b5035919050565b60006020808301818452808551808352604092508286019150828160051b87010184880160005b838110156114d157603f19898403018552815160608151855288820151818a8701526116e5828701826113e7565b915050878201519150848103888601526116ff81836113e7565b9689019694505050908601906001016116b7565b600181811c9082168061172757607f821691505b6020821081141561174857634e487b7160e01b600052602260045260246000fd5b50919050565b634e487b7160e01b600052603260045260246000fd5b8054600090600181811c908083168061177e57607f831692505b60208084108214156117a057634e487b7160e01b600052602260045260246000fd5b8180156117b457600181146117c5576117f1565b60ff198616895284890196506117f1565b876000528160002060005b868110156117e95781548b8201529085019083016117d0565b505084890196505b50505050505092915050565b60006102758284611764565b6000825161181b8184602087016113b7565b9190910192915050565b634e487b7160e01b600052601160045260246000fd5b600060001982141561184f5761184f611825565b5060010190565b8183823760009101908152919050565b60008282101561187857611878611825565b50039056fe87e1fbeddd51183bf8b543eba737e1308597e167e4320ca5858ddc4f2780b43bae290eb28aab8105e055b657aeea4e3b7eeed3fbe32f123b18998ab2907937b3a2646970667358221220953d162339109fbc03b729a97f71e49e83751c2dd764a8141f0841383328744164736f6c63430008090033",
  "linkReferences": {},
  "deployedLinkReferences": {}
}