{
  "_format": "hh-sol-artifact-1",
  "contractName": "Handler_PreSaleFacet",
  "sourceName": "contracts/handler/PreSaleFacet.sol",
  "abi": [
    {
      "inputs": [
        {
          "internalType": "address",
          "name": "user",
          "type": "address"
        },
        {
          "internalType": "uint256",
          "name": "preSaleItemIdx",
          "type": "uint256"
        }
      ],
      "name": "createLuckyBoxFromPreSale",
      "outputs": [],
      "stateMutability": "nonpayable",
      "type": "function"
    },
    {
      "inputs": [],
      "name": "preSale",
      "outputs": [
        {
          "internalType": "contract IPreSaleBurnable",
          "name": "",
          "type": "address"
        }
      ],
      "stateMutability": "view",
      "type": "function"
    },
    {
      "inputs": [
        {
          "internalType": "string",
          "name": "preSaleName",
          "type": "string"
        }
      ],
      "name": "preSaleMapping",
      "outputs": [
        {
          "internalType": "string",
          "name": "",
          "type": "string"
        }
      ],
      "stateMutability": "view",
      "type": "function"
    },
    {
      "inputs": [
        {
          "internalType": "contract IPreSaleBurnable",
          "name": "_preSale",
          "type": "address"
        }
      ],
      "name": "setPreSale",
      "outputs": [],
      "stateMutability": "nonpayable",
      "type": "function"
    },
    {
      "inputs": [
        {
          "internalType": "string[]",
          "name": "preSaleNames",
          "type": "string[]"
        },
        {
          "internalType": "string[]",
          "name": "luckyBoxesNames",
          "type": "string[]"
        }
      ],
      "name": "setPreSaleMapping",
      "outputs": [],
      "stateMutability": "nonpayable",
      "type": "function"
    }
  ],
  "bytecode": "0x608060405234801561001057600080fd5b50610af8806100206000396000f3fe608060405234801561001057600080fd5b50600436106100575760003560e01c80631b9d6c751461005c5780632571791f146100715780635a7adf7f1461008457806362ceaec0146100c35780638872d3bc146100d6575b600080fd5b61006f61006a366004610691565b6100f6565b005b61006f61007f36600461080f565b6102d3565b7fd7a5400e6fccf83787e25efc945f1e0f55d1d80be5e67e8fa52bc1b0a5fcb1ce546040516001600160a01b0390911681526020015b60405180910390f35b61006f6100d1366004610873565b61038b565b6100e96100e4366004610890565b6103d4565b6040516100ba919061095a565b336001600160a01b038316148061013b57503360009081527f268ac4c2b4d4a4c12e71a80c18e7ac5f6fdd526f1a6f30d4c2f8836daedf1053602052604090205460ff165b61019b5760405162461bcd60e51b815260206004820152602660248201527f48616e646c65723a20446f6e2774206d6573732077697468206f746865727320604482015265636c61696d7360d01b60648201526084015b60405180910390fd5b60007fd7a5400e6fccf83787e25efc945f1e0f55d1d80be5e67e8fa52bc1b0a5fcb1cd6001810154604051635300199960e01b81526001600160a01b0386811660048301526024820186905292935091169060009081908390635300199990604401600060405180830381600087803b15801561021757600080fd5b505af115801561022b573d6000803e3d6000fd5b505050506040513d6000823e601f3d908101601f19168201604052610253919081019061096d565b909350915061025f9050565b6009546001600160a01b0316638706d8fe6102798361041c565b84896040518463ffffffff1660e01b8152600401610299939291906109f9565b600060405180830381600087803b1580156102b357600080fd5b505af11580156102c7573d6000803e3d6000fd5b50505050505050505050565b6102db6104f0565b805182511461032c5760405162461bcd60e51b815260206004820152601860248201527f48616e646c65723a204c656e677468206d69736d6174636800000000000000006044820152606401610192565b60005b82518110156103865761037483828151811061034d5761034d610a2c565b602002602001015183838151811061036757610367610a2c565b6020026020010151610588565b8061037e81610a42565b91505061032f565b505050565b6103936104f0565b7fd7a5400e6fccf83787e25efc945f1e0f55d1d80be5e67e8fa52bc1b0a5fcb1ce80546001600160a01b0319166001600160a01b0392909216919091179055565b606061041583838080601f01602080910402602001604051908101604052809392919081815260200183838082843760009201919091525061041c92505050565b9392505050565b6040516060907fd7a5400e6fccf83787e25efc945f1e0f55d1d80be5e67e8fa52bc1b0a5fcb1cd908190610451908590610a6b565b9081526020016040518091039020805461046a90610a87565b80601f016020809104026020016040519081016040528092919081815260200182805461049690610a87565b80156104e35780601f106104b8576101008083540402835291602001916104e3565b820191906000526020600020905b8154815290600101906020018083116104c657829003601f168201915b5050505050915050919050565b3360009081527f268ac4c2b4d4a4c12e71a80c18e7ac5f6fdd526f1a6f30d4c2f8836daedf105360205260409020547f268ac4c2b4d4a4c12e71a80c18e7ac5f6fdd526f1a6f30d4c2f8836daedf10519060ff166105855760405162461bcd60e51b815260206004820152601260248201527127bbb732b9399d1027b7363c9027bbb732b960711b6044820152606401610192565b50565b6040517fd7a5400e6fccf83787e25efc945f1e0f55d1d80be5e67e8fa52bc1b0a5fcb1cd90829082906105bc908690610a6b565b908152602001604051809103902090805190602001906105dd9291906105e3565b50505050565b8280546105ef90610a87565b90600052602060002090601f0160209004810192826106115760008555610657565b82601f1061062a57805160ff1916838001178555610657565b82800160010185558215610657579182015b8281111561065757825182559160200191906001019061063c565b50610663929150610667565b5090565b5b808211156106635760008155600101610668565b6001600160a01b038116811461058557600080fd5b600080604083850312156106a457600080fd5b82356106af8161067c565b946020939093013593505050565b634e487b7160e01b600052604160045260246000fd5b604051601f8201601f1916810167ffffffffffffffff811182821017156106fc576106fc6106bd565b604052919050565b600067ffffffffffffffff82111561071e5761071e6106bd565b50601f01601f191660200190565b600082601f83011261073d57600080fd5b8135602067ffffffffffffffff8083111561075a5761075a6106bd565b8260051b6107698382016106d3565b938452858101830193838101908886111561078357600080fd5b84880192505b85831015610803578235848111156107a15760008081fd5b8801603f81018a136107b35760008081fd5b8581013560406107ca6107c583610704565b6106d3565b8281528c828486010111156107df5760008081fd5b828285018a8301376000928101890192909252508352509184019190840190610789565b98975050505050505050565b6000806040838503121561082257600080fd5b823567ffffffffffffffff8082111561083a57600080fd5b6108468683870161072c565b9350602085013591508082111561085c57600080fd5b506108698582860161072c565b9150509250929050565b60006020828403121561088557600080fd5b81356104158161067c565b600080602083850312156108a357600080fd5b823567ffffffffffffffff808211156108bb57600080fd5b818501915085601f8301126108cf57600080fd5b8135818111156108de57600080fd5b8660208285010111156108f057600080fd5b60209290920196919550909350505050565b60005b8381101561091d578181015183820152602001610905565b838111156105dd5750506000910152565b60008151808452610946816020860160208601610902565b601f01601f19169290920160200192915050565b602081526000610415602083018461092e565b60008060006060848603121561098257600080fd5b8351925060208401519150604084015167ffffffffffffffff8111156109a757600080fd5b8401601f810186136109b857600080fd5b80516109c66107c582610704565b8181528760208385010111156109db57600080fd5b6109ec826020830160208601610902565b8093505050509250925092565b606081526000610a0c606083018661092e565b6020830194909452506001600160a01b0391909116604090910152919050565b634e487b7160e01b600052603260045260246000fd5b6000600019821415610a6457634e487b7160e01b600052601160045260246000fd5b5060010190565b60008251610a7d818460208701610902565b9190910192915050565b600181811c90821680610a9b57607f821691505b60208210811415610abc57634e487b7160e01b600052602260045260246000fd5b5091905056fea2646970667358221220eac9551078d4ab7408e4574a299415697e6ecbfc8f8f6562920228dca3e205b764736f6c63430008090033",
  "linkReferences": {},
  "deployedLinkReferences": {}
}