{
  "_format": "hh-sol-artifact-1",
  "contractName": "Swapper",
  "sourceName": "contracts/Swapper.sol",
  "abi": [
    {
      "anonymous": false,
      "inputs": [
        {
          "indexed": true,
          "internalType": "contract IERC20",
          "name": "token",
          "type": "address"
        },
        {
          "indexed": false,
          "internalType": "address",
          "name": "to",
          "type": "address"
        },
        {
          "indexed": false,
          "internalType": "uint256",
          "name": "amount",
          "type": "uint256"
        }
      ],
      "name": "ERC20PaymentReleased",
      "type": "event"
    },
    {
      "anonymous": false,
      "inputs": [
        {
          "indexed": false,
          "internalType": "uint8",
          "name": "version",
          "type": "uint8"
        }
      ],
      "name": "Initialized",
      "type": "event"
    },
    {
      "anonymous": false,
      "inputs": [
        {
          "indexed": false,
          "internalType": "address",
          "name": "account",
          "type": "address"
        },
        {
          "indexed": false,
          "internalType": "uint256",
          "name": "shares",
          "type": "uint256"
        }
      ],
      "name": "PayeeAdded",
      "type": "event"
    },
    {
      "anonymous": false,
      "inputs": [
        {
          "indexed": false,
          "internalType": "address",
          "name": "from",
          "type": "address"
        },
        {
          "indexed": false,
          "internalType": "uint256",
          "name": "amount",
          "type": "uint256"
        }
      ],
      "name": "PaymentReceived",
      "type": "event"
    },
    {
      "anonymous": false,
      "inputs": [
        {
          "indexed": false,
          "internalType": "address",
          "name": "to",
          "type": "address"
        },
        {
          "indexed": false,
          "internalType": "uint256",
          "name": "amount",
          "type": "uint256"
        }
      ],
      "name": "PaymentReleased",
      "type": "event"
    },
    {
      "inputs": [
        {
          "internalType": "string",
          "name": "name",
          "type": "string"
        },
        {
          "internalType": "address",
          "name": "to",
          "type": "address"
        },
        {
          "internalType": "uint256",
          "name": "until",
          "type": "uint256"
        },
        {
          "internalType": "uint256",
          "name": "rate",
          "type": "uint256"
        },
        {
          "internalType": "address[]",
          "name": "path",
          "type": "address[]"
        }
      ],
      "name": "addInflu",
      "outputs": [],
      "stateMutability": "nonpayable",
      "type": "function"
    },
    {
      "inputs": [
        {
          "internalType": "address",
          "name": "token",
          "type": "address"
        },
        {
          "internalType": "address[]",
          "name": "pathIn",
          "type": "address[]"
        },
        {
          "internalType": "address[]",
          "name": "pathOut",
          "type": "address[]"
        }
      ],
      "name": "addMapPath",
      "outputs": [],
      "stateMutability": "nonpayable",
      "type": "function"
    },
    {
      "inputs": [
        {
          "internalType": "address",
          "name": "_new",
          "type": "address"
        },
        {
          "internalType": "bool",
          "name": "_change",
          "type": "bool"
        }
      ],
      "name": "addOwner",
      "outputs": [],
      "stateMutability": "nonpayable",
      "type": "function"
    },
    {
      "inputs": [
        {
          "internalType": "uint256",
          "name": "",
          "type": "uint256"
        }
      ],
      "name": "allInflus",
      "outputs": [
        {
          "internalType": "string",
          "name": "",
          "type": "string"
        }
      ],
      "stateMutability": "view",
      "type": "function"
    },
    {
      "inputs": [],
      "name": "base",
      "outputs": [
        {
          "internalType": "address",
          "name": "",
          "type": "address"
        }
      ],
      "stateMutability": "view",
      "type": "function"
    },
    {
      "inputs": [],
      "name": "distri",
      "outputs": [
        {
          "internalType": "address",
          "name": "",
          "type": "address"
        }
      ],
      "stateMutability": "view",
      "type": "function"
    },
    {
      "inputs": [],
      "name": "futur",
      "outputs": [
        {
          "internalType": "address",
          "name": "",
          "type": "address"
        }
      ],
      "stateMutability": "view",
      "type": "function"
    },
    {
      "inputs": [],
      "name": "futurFee",
      "outputs": [
        {
          "internalType": "uint256",
          "name": "",
          "type": "uint256"
        }
      ],
      "stateMutability": "view",
      "type": "function"
    },
    {
      "inputs": [],
      "name": "getAllInfluSize",
      "outputs": [
        {
          "internalType": "uint256",
          "name": "",
          "type": "uint256"
        }
      ],
      "stateMutability": "view",
      "type": "function"
    },
    {
      "inputs": [
        {
          "internalType": "uint256",
          "name": "iStart",
          "type": "uint256"
        },
        {
          "internalType": "uint256",
          "name": "iEnd",
          "type": "uint256"
        }
      ],
      "name": "getAllInflusBetweenIndexes",
      "outputs": [
        {
          "internalType": "string[]",
          "name": "",
          "type": "string[]"
        }
      ],
      "stateMutability": "view",
      "type": "function"
    },
    {
      "inputs": [
        {
          "internalType": "string",
          "name": "name",
          "type": "string"
        }
      ],
      "name": "getInfluDataPath",
      "outputs": [
        {
          "internalType": "address[]",
          "name": "",
          "type": "address[]"
        }
      ],
      "stateMutability": "view",
      "type": "function"
    },
    {
      "inputs": [
        {
          "internalType": "uint256",
          "name": "iStart",
          "type": "uint256"
        },
        {
          "internalType": "uint256",
          "name": "iEnd",
          "type": "uint256"
        }
      ],
      "name": "getMapPathBetweenIndexes",
      "outputs": [
        {
          "components": [
            {
              "internalType": "address[]",
              "name": "pathIn",
              "type": "address[]"
            },
            {
              "internalType": "address[]",
              "name": "pathOut",
              "type": "address[]"
            }
          ],
          "internalType": "struct Swapper.Path[]",
          "name": "",
          "type": "tuple[]"
        }
      ],
      "stateMutability": "view",
      "type": "function"
    },
    {
      "inputs": [
        {
          "internalType": "address",
          "name": "key",
          "type": "address"
        }
      ],
      "name": "getMapPathForKey",
      "outputs": [
        {
          "components": [
            {
              "internalType": "address[]",
              "name": "pathIn",
              "type": "address[]"
            },
            {
              "internalType": "address[]",
              "name": "pathOut",
              "type": "address[]"
            }
          ],
          "internalType": "struct Swapper.Path",
          "name": "",
          "type": "tuple"
        }
      ],
      "stateMutability": "view",
      "type": "function"
    },
    {
      "inputs": [
        {
          "internalType": "uint256",
          "name": "iStart",
          "type": "uint256"
        },
        {
          "internalType": "uint256",
          "name": "iEnd",
          "type": "uint256"
        }
      ],
      "name": "getMapPathKeysBetweenIndexes",
      "outputs": [
        {
          "internalType": "address[]",
          "name": "",
          "type": "address[]"
        }
      ],
      "stateMutability": "view",
      "type": "function"
    },
    {
      "inputs": [],
      "name": "getMapPathSize",
      "outputs": [
        {
          "internalType": "uint256",
          "name": "",
          "type": "uint256"
        }
      ],
      "stateMutability": "view",
      "type": "function"
    },
    {
      "inputs": [],
      "name": "getOwnersSize",
      "outputs": [
        {
          "internalType": "uint256",
          "name": "",
          "type": "uint256"
        }
      ],
      "stateMutability": "view",
      "type": "function"
    },
    {
      "inputs": [
        {
          "internalType": "address",
          "name": "account",
          "type": "address"
        }
      ],
      "name": "getPendingOf",
      "outputs": [
        {
          "internalType": "uint256",
          "name": "",
          "type": "uint256"
        }
      ],
      "stateMutability": "view",
      "type": "function"
    },
    {
      "inputs": [],
      "name": "handler",
      "outputs": [
        {
          "internalType": "address",
          "name": "",
          "type": "address"
        }
      ],
      "stateMutability": "view",
      "type": "function"
    },
    {
      "inputs": [
        {
          "internalType": "string",
          "name": "",
          "type": "string"
        }
      ],
      "name": "influData",
      "outputs": [
        {
          "internalType": "address",
          "name": "to",
          "type": "address"
        },
        {
          "internalType": "uint256",
          "name": "rate",
          "type": "uint256"
        },
        {
          "internalType": "uint256",
          "name": "until",
          "type": "uint256"
        },
        {
          "internalType": "uint256",
          "name": "released",
          "type": "uint256"
        },
        {
          "internalType": "uint256",
          "name": "claimable",
          "type": "uint256"
        }
      ],
      "stateMutability": "view",
      "type": "function"
    },
    {
      "inputs": [
        {
          "internalType": "string",
          "name": "",
          "type": "string"
        }
      ],
      "name": "influInserted",
      "outputs": [
        {
          "internalType": "bool",
          "name": "",
          "type": "bool"
        }
      ],
      "stateMutability": "view",
      "type": "function"
    },
    {
      "inputs": [
        {
          "internalType": "address[]",
          "name": "payees",
          "type": "address[]"
        },
        {
          "internalType": "uint256[]",
          "name": "shares",
          "type": "uint256[]"
        },
        {
          "internalType": "address[]",
          "name": "addresses",
          "type": "address[]"
        },
        {
          "internalType": "uint256[]",
          "name": "fees",
          "type": "uint256[]"
        },
        {
          "internalType": "uint256[]",
          "name": "_swAmounts",
          "type": "uint256[]"
        },
        {
          "internalType": "address",
          "name": "_handler",
          "type": "address"
        }
      ],
      "name": "initialize",
      "outputs": [],
      "stateMutability": "nonpayable",
      "type": "function"
    },
    {
      "inputs": [
        {
          "internalType": "address",
          "name": "",
          "type": "address"
        }
      ],
      "name": "isOwner",
      "outputs": [
        {
          "internalType": "bool",
          "name": "",
          "type": "bool"
        }
      ],
      "stateMutability": "view",
      "type": "function"
    },
    {
      "inputs": [],
      "name": "lpFee",
      "outputs": [
        {
          "internalType": "uint256",
          "name": "",
          "type": "uint256"
        }
      ],
      "stateMutability": "view",
      "type": "function"
    },
    {
      "inputs": [],
      "name": "lpHandler",
      "outputs": [
        {
          "internalType": "address",
          "name": "",
          "type": "address"
        }
      ],
      "stateMutability": "view",
      "type": "function"
    },
    {
      "inputs": [],
      "name": "openSwapApplyFertilizer",
      "outputs": [
        {
          "internalType": "bool",
          "name": "",
          "type": "bool"
        }
      ],
      "stateMutability": "view",
      "type": "function"
    },
    {
      "inputs": [],
      "name": "openSwapApplyWaterpack",
      "outputs": [
        {
          "internalType": "bool",
          "name": "",
          "type": "bool"
        }
      ],
      "stateMutability": "view",
      "type": "function"
    },
    {
      "inputs": [],
      "name": "openSwapClaimRewardsAll",
      "outputs": [
        {
          "internalType": "bool",
          "name": "",
          "type": "bool"
        }
      ],
      "stateMutability": "view",
      "type": "function"
    },
    {
      "inputs": [],
      "name": "openSwapClaimRewardsBatch",
      "outputs": [
        {
          "internalType": "bool",
          "name": "",
          "type": "bool"
        }
      ],
      "stateMutability": "view",
      "type": "function"
    },
    {
      "inputs": [],
      "name": "openSwapClaimRewardsNodeType",
      "outputs": [
        {
          "internalType": "bool",
          "name": "",
          "type": "bool"
        }
      ],
      "stateMutability": "view",
      "type": "function"
    },
    {
      "inputs": [],
      "name": "openSwapCreateLuckyBoxesWithTokens",
      "outputs": [
        {
          "internalType": "bool",
          "name": "",
          "type": "bool"
        }
      ],
      "stateMutability": "view",
      "type": "function"
    },
    {
      "inputs": [],
      "name": "openSwapNewPlot",
      "outputs": [
        {
          "internalType": "bool",
          "name": "",
          "type": "bool"
        }
      ],
      "stateMutability": "view",
      "type": "function"
    },
    {
      "inputs": [
        {
          "internalType": "uint256",
          "name": "",
          "type": "uint256"
        }
      ],
      "name": "owners",
      "outputs": [
        {
          "internalType": "address",
          "name": "",
          "type": "address"
        }
      ],
      "stateMutability": "view",
      "type": "function"
    },
    {
      "inputs": [
        {
          "internalType": "uint256",
          "name": "index",
          "type": "uint256"
        }
      ],
      "name": "payee",
      "outputs": [
        {
          "internalType": "address",
          "name": "",
          "type": "address"
        }
      ],
      "stateMutability": "view",
      "type": "function"
    },
    {
      "inputs": [
        {
          "internalType": "address payable",
          "name": "account",
          "type": "address"
        }
      ],
      "name": "release",
      "outputs": [],
      "stateMutability": "nonpayable",
      "type": "function"
    },
    {
      "inputs": [
        {
          "internalType": "contract IERC20",
          "name": "token",
          "type": "address"
        },
        {
          "internalType": "address",
          "name": "account",
          "type": "address"
        }
      ],
      "name": "release",
      "outputs": [],
      "stateMutability": "nonpayable",
      "type": "function"
    },
    {
      "inputs": [
        {
          "internalType": "string",
          "name": "name",
          "type": "string"
        }
      ],
      "name": "releaseInflu",
      "outputs": [],
      "stateMutability": "nonpayable",
      "type": "function"
    },
    {
      "inputs": [
        {
          "internalType": "contract IERC20",
          "name": "token",
          "type": "address"
        },
        {
          "internalType": "address",
          "name": "account",
          "type": "address"
        }
      ],
      "name": "released",
      "outputs": [
        {
          "internalType": "uint256",
          "name": "",
          "type": "uint256"
        }
      ],
      "stateMutability": "view",
      "type": "function"
    },
    {
      "inputs": [
        {
          "internalType": "address",
          "name": "account",
          "type": "address"
        }
      ],
      "name": "released",
      "outputs": [
        {
          "internalType": "uint256",
          "name": "",
          "type": "uint256"
        }
      ],
      "stateMutability": "view",
      "type": "function"
    },
    {
      "inputs": [
        {
          "internalType": "address",
          "name": "token",
          "type": "address"
        }
      ],
      "name": "removeMapPath",
      "outputs": [],
      "stateMutability": "nonpayable",
      "type": "function"
    },
    {
      "inputs": [
        {
          "internalType": "address",
          "name": "_new",
          "type": "address"
        }
      ],
      "name": "removeOwner",
      "outputs": [],
      "stateMutability": "nonpayable",
      "type": "function"
    },
    {
      "inputs": [],
      "name": "rewardsFee",
      "outputs": [
        {
          "internalType": "uint256",
          "name": "",
          "type": "uint256"
        }
      ],
      "stateMutability": "view",
      "type": "function"
    },
    {
      "inputs": [],
      "name": "router",
      "outputs": [
        {
          "internalType": "address",
          "name": "",
          "type": "address"
        }
      ],
      "stateMutability": "view",
      "type": "function"
    },
    {
      "inputs": [
        {
          "internalType": "address",
          "name": "_new",
          "type": "address"
        }
      ],
      "name": "setDistri",
      "outputs": [],
      "stateMutability": "nonpayable",
      "type": "function"
    },
    {
      "inputs": [
        {
          "internalType": "address",
          "name": "_new",
          "type": "address"
        }
      ],
      "name": "setFutur",
      "outputs": [],
      "stateMutability": "nonpayable",
      "type": "function"
    },
    {
      "inputs": [
        {
          "internalType": "uint256",
          "name": "_new",
          "type": "uint256"
        }
      ],
      "name": "setFuturFee",
      "outputs": [],
      "stateMutability": "nonpayable",
      "type": "function"
    },
    {
      "inputs": [
        {
          "internalType": "uint256",
          "name": "_new",
          "type": "uint256"
        }
      ],
      "name": "setLpFee",
      "outputs": [],
      "stateMutability": "nonpayable",
      "type": "function"
    },
    {
      "inputs": [
        {
          "internalType": "address",
          "name": "_new",
          "type": "address"
        }
      ],
      "name": "setLpHandler",
      "outputs": [],
      "stateMutability": "nonpayable",
      "type": "function"
    },
    {
      "inputs": [
        {
          "internalType": "address",
          "name": "_new",
          "type": "address"
        }
      ],
      "name": "setNative",
      "outputs": [],
      "stateMutability": "nonpayable",
      "type": "function"
    },
    {
      "inputs": [
        {
          "internalType": "bool",
          "name": "_new",
          "type": "bool"
        }
      ],
      "name": "setOpenSwapApplyFertilizer",
      "outputs": [],
      "stateMutability": "nonpayable",
      "type": "function"
    },
    {
      "inputs": [
        {
          "internalType": "bool",
          "name": "_new",
          "type": "bool"
        }
      ],
      "name": "setOpenSwapApplyWaterpack",
      "outputs": [],
      "stateMutability": "nonpayable",
      "type": "function"
    },
    {
      "inputs": [
        {
          "internalType": "bool",
          "name": "_new",
          "type": "bool"
        }
      ],
      "name": "setOpenSwapClaimRewardsAll",
      "outputs": [],
      "stateMutability": "nonpayable",
      "type": "function"
    },
    {
      "inputs": [
        {
          "internalType": "bool",
          "name": "_new",
          "type": "bool"
        }
      ],
      "name": "setOpenSwapClaimRewardsBatch",
      "outputs": [],
      "stateMutability": "nonpayable",
      "type": "function"
    },
    {
      "inputs": [
        {
          "internalType": "bool",
          "name": "_new",
          "type": "bool"
        }
      ],
      "name": "setOpenSwapClaimRewardsNodeType",
      "outputs": [],
      "stateMutability": "nonpayable",
      "type": "function"
    },
    {
      "inputs": [
        {
          "internalType": "bool",
          "name": "_new",
          "type": "bool"
        }
      ],
      "name": "setOpenSwapCreateLuckyBoxesWithTokens",
      "outputs": [],
      "stateMutability": "nonpayable",
      "type": "function"
    },
    {
      "inputs": [
        {
          "internalType": "bool",
          "name": "_new",
          "type": "bool"
        }
      ],
      "name": "setOpenSwapNewPlot",
      "outputs": [],
      "stateMutability": "nonpayable",
      "type": "function"
    },
    {
      "inputs": [
        {
          "internalType": "uint256",
          "name": "_new",
          "type": "uint256"
        }
      ],
      "name": "setRewardsFee",
      "outputs": [],
      "stateMutability": "nonpayable",
      "type": "function"
    },
    {
      "inputs": [
        {
          "internalType": "address",
          "name": "_new",
          "type": "address"
        }
      ],
      "name": "setRouter",
      "outputs": [],
      "stateMutability": "nonpayable",
      "type": "function"
    },
    {
      "inputs": [
        {
          "internalType": "address",
          "name": "_new",
          "type": "address"
        }
      ],
      "name": "setSpring",
      "outputs": [],
      "stateMutability": "nonpayable",
      "type": "function"
    },
    {
      "inputs": [
        {
          "internalType": "bool",
          "name": "_new",
          "type": "bool"
        }
      ],
      "name": "setSwapFutur",
      "outputs": [],
      "stateMutability": "nonpayable",
      "type": "function"
    },
    {
      "inputs": [
        {
          "internalType": "bool",
          "name": "_new",
          "type": "bool"
        }
      ],
      "name": "setSwapLiquifyClaim",
      "outputs": [],
      "stateMutability": "nonpayable",
      "type": "function"
    },
    {
      "inputs": [
        {
          "internalType": "bool",
          "name": "_new",
          "type": "bool"
        }
      ],
      "name": "setSwapLiquifyCreate",
      "outputs": [],
      "stateMutability": "nonpayable",
      "type": "function"
    },
    {
      "inputs": [
        {
          "internalType": "bool",
          "name": "_new",
          "type": "bool"
        }
      ],
      "name": "setSwapLpPool",
      "outputs": [],
      "stateMutability": "nonpayable",
      "type": "function"
    },
    {
      "inputs": [
        {
          "internalType": "bool",
          "name": "_new",
          "type": "bool"
        }
      ],
      "name": "setSwapPayee",
      "outputs": [],
      "stateMutability": "nonpayable",
      "type": "function"
    },
    {
      "inputs": [
        {
          "internalType": "bool",
          "name": "_new",
          "type": "bool"
        }
      ],
      "name": "setSwapRewards",
      "outputs": [],
      "stateMutability": "nonpayable",
      "type": "function"
    },
    {
      "inputs": [
        {
          "internalType": "uint256",
          "name": "_new",
          "type": "uint256"
        }
      ],
      "name": "setSwapTokensAmountClaim",
      "outputs": [],
      "stateMutability": "nonpayable",
      "type": "function"
    },
    {
      "inputs": [
        {
          "internalType": "uint256",
          "name": "_new",
          "type": "uint256"
        }
      ],
      "name": "setSwapTokensAmountCreate",
      "outputs": [],
      "stateMutability": "nonpayable",
      "type": "function"
    },
    {
      "inputs": [
        {
          "internalType": "address",
          "name": "account",
          "type": "address"
        }
      ],
      "name": "shares",
      "outputs": [
        {
          "internalType": "uint256",
          "name": "",
          "type": "uint256"
        }
      ],
      "stateMutability": "view",
      "type": "function"
    },
    {
      "inputs": [],
      "name": "spring",
      "outputs": [
        {
          "internalType": "address",
          "name": "",
          "type": "address"
        }
      ],
      "stateMutability": "view",
      "type": "function"
    },
    {
      "inputs": [
        {
          "internalType": "address",
          "name": "tokenIn",
          "type": "address"
        },
        {
          "internalType": "address",
          "name": "user",
          "type": "address"
        },
        {
          "internalType": "uint256",
          "name": "amount",
          "type": "uint256"
        },
        {
          "internalType": "string",
          "name": "sponso",
          "type": "string"
        }
      ],
      "name": "swapApplyFertilizer",
      "outputs": [],
      "stateMutability": "nonpayable",
      "type": "function"
    },
    {
      "inputs": [
        {
          "internalType": "address",
          "name": "tokenIn",
          "type": "address"
        },
        {
          "internalType": "address",
          "name": "user",
          "type": "address"
        },
        {
          "internalType": "uint256",
          "name": "amount",
          "type": "uint256"
        },
        {
          "internalType": "string",
          "name": "sponso",
          "type": "string"
        }
      ],
      "name": "swapApplyWaterpack",
      "outputs": [],
      "stateMutability": "nonpayable",
      "type": "function"
    },
    {
      "inputs": [
        {
          "internalType": "address",
          "name": "tokenOut",
          "type": "address"
        },
        {
          "internalType": "address",
          "name": "user",
          "type": "address"
        },
        {
          "internalType": "uint256",
          "name": "rewardsTotal",
          "type": "uint256"
        },
        {
          "internalType": "uint256",
          "name": "feesTotal",
          "type": "uint256"
        }
      ],
      "name": "swapClaimRewardsAll",
      "outputs": [],
      "stateMutability": "nonpayable",
      "type": "function"
    },
    {
      "inputs": [
        {
          "internalType": "address",
          "name": "tokenOut",
          "type": "address"
        },
        {
          "internalType": "address",
          "name": "user",
          "type": "address"
        },
        {
          "internalType": "uint256",
          "name": "rewardsTotal",
          "type": "uint256"
        },
        {
          "internalType": "uint256",
          "name": "feesTotal",
          "type": "uint256"
        }
      ],
      "name": "swapClaimRewardsBatch",
      "outputs": [],
      "stateMutability": "nonpayable",
      "type": "function"
    },
    {
      "inputs": [
        {
          "internalType": "address",
          "name": "tokenOut",
          "type": "address"
        },
        {
          "internalType": "address",
          "name": "user",
          "type": "address"
        },
        {
          "internalType": "uint256",
          "name": "rewardsTotal",
          "type": "uint256"
        },
        {
          "internalType": "uint256",
          "name": "feesTotal",
          "type": "uint256"
        }
      ],
      "name": "swapClaimRewardsNodeType",
      "outputs": [],
      "stateMutability": "nonpayable",
      "type": "function"
    },
    {
      "inputs": [
        {
          "internalType": "address",
          "name": "tokenIn",
          "type": "address"
        },
        {
          "internalType": "address",
          "name": "user",
          "type": "address"
        },
        {
          "internalType": "uint256",
          "name": "price",
          "type": "uint256"
        },
        {
          "internalType": "string",
          "name": "sponso",
          "type": "string"
        }
      ],
      "name": "swapCreateLuckyBoxesWithTokens",
      "outputs": [],
      "stateMutability": "nonpayable",
      "type": "function"
    },
    {
      "inputs": [
        {
          "internalType": "address",
          "name": "tokenIn",
          "type": "address"
        },
        {
          "internalType": "address",
          "name": "user",
          "type": "address"
        },
        {
          "internalType": "uint256",
          "name": "amount",
          "type": "uint256"
        },
        {
          "internalType": "string",
          "name": "sponso",
          "type": "string"
        }
      ],
      "name": "swapNewPlot",
      "outputs": [],
      "stateMutability": "nonpayable",
      "type": "function"
    },
    {
      "inputs": [],
      "name": "swapTokensAmountClaim",
      "outputs": [
        {
          "internalType": "uint256",
          "name": "",
          "type": "uint256"
        }
      ],
      "stateMutability": "view",
      "type": "function"
    },
    {
      "inputs": [],
      "name": "swapTokensAmountCreate",
      "outputs": [
        {
          "internalType": "uint256",
          "name": "",
          "type": "uint256"
        }
      ],
      "stateMutability": "view",
      "type": "function"
    },
    {
      "inputs": [
        {
          "internalType": "contract IERC20",
          "name": "token",
          "type": "address"
        }
      ],
      "name": "totalReleased",
      "outputs": [
        {
          "internalType": "uint256",
          "name": "",
          "type": "uint256"
        }
      ],
      "stateMutability": "view",
      "type": "function"
    },
    {
      "inputs": [],
      "name": "totalReleased",
      "outputs": [
        {
          "internalType": "uint256",
          "name": "",
          "type": "uint256"
        }
      ],
      "stateMutability": "view",
      "type": "function"
    },
    {
      "inputs": [],
      "name": "totalShares",
      "outputs": [
        {
          "internalType": "uint256",
          "name": "",
          "type": "uint256"
        }
      ],
      "stateMutability": "view",
      "type": "function"
    },
    {
      "inputs": [
        {
          "internalType": "string",
          "name": "name",
          "type": "string"
        },
        {
          "internalType": "uint256",
          "name": "until",
          "type": "uint256"
        },
        {
          "internalType": "uint256",
          "name": "rate",
          "type": "uint256"
        },
        {
          "internalType": "address[]",
          "name": "path",
          "type": "address[]"
        }
      ],
      "name": "updateInflu",
      "outputs": [],
      "stateMutability": "nonpayable",
      "type": "function"
    },
    {
      "inputs": [
        {
          "internalType": "address",
          "name": "token",
          "type": "address"
        },
        {
          "internalType": "address[]",
          "name": "pathIn",
          "type": "address[]"
        },
        {
          "internalType": "address[]",
          "name": "pathOut",
          "type": "address[]"
        }
      ],
      "name": "updateMapPath",
      "outputs": [],
      "stateMutability": "nonpayable",
      "type": "function"
    },
    {
      "stateMutability": "payable",
      "type": "receive"
    }
  ],
  "bytecode": "0x608060405234801561001057600080fd5b50615c7780620000216000396000f3fe60806040526004361061048c5760003560e01c806384dfbfe211610255578063c0d7865511610144578063dfb43dfd116100c1578063f6d33c8311610085578063f6d33c8314610f09578063f824673214610f29578063f887ea4014610f49578063f8ec0a1114610f69578063fbe12f1d14610f89578063fcec1a7f14610fa957600080fd5b8063dfb43dfd14610e74578063e15946b714610e94578063e33b7de314610eb4578063ec2c86b614610ec9578063edc132e514610ee957600080fd5b8063ce7c2ac211610108578063ce7c2ac214610d9b578063d14d47b414610dd1578063d79779b214610df1578063db7b935014610e27578063ddf7aa9f14610e4757600080fd5b8063c0d7865514610cd3578063c753695314610cf3578063c80916d414610d2e578063c857612d14610d4e578063ce46034414610d7b57600080fd5b80639cc34de4116101d2578063ac827bf311610196578063ac827bf314610c33578063b049791a14610c53578063b164d1e914610c73578063ba44da1214610c93578063bd9a99da14610cb357600080fd5b80639cc34de414610af25780639fa26e1314610bbd578063a5c9336614610bdd578063a77f789b14610bfd578063ab57476114610c1d57600080fd5b80638fb712fb116102195780638fb712fb14610b3257806392aaa2e914610b52578063942a617514610b675780639852595c14610b7d5780639948fa8a14610b9d57600080fd5b806384dfbfe214610a9257806385aa5e5a14610ab257806386b4f81914610ad25780638717bb1614610af25780638b83209b14610b1257600080fd5b80633ce3b1671161037c57806357dae063116102f9578063658793a3116102bd578063658793a3146109ce578063668be6cb146109ee578063704ce43e14610a0e57806375f3bd8014610a245780637f9bb09b14610a4557806381c8e15914610a6557600080fd5b806357dae0631461092e578063584a1c821461094e5780635a3002a71461096e5780635dd64c471461098e5780635f3d62a9146109ae57600080fd5b80634f399b2a116103405780634f399b2a146108985780635001f3b5146108b9578063518e32d3146108d957806351d00bf8146108f957806356b20abc1461090e57600080fd5b80633ce3b167146107ea578063406072a91461080b57806348b750441461082b5780634c3919ec1461084b5780634e7cde581461087857600080fd5b8063173825d91161040a5780632bb14e1d116103ce5780632bb14e1d1461074e5780632f173448146107645780632f54bf6e1461078557806336ed57cd146107b55780633a98ef39146107d557600080fd5b8063173825d9146106ad57806319165587146106cd5780632213f926146106ed578063258fd23c1461070d57806329e5367a1461072d57600080fd5b806308680ade1161045157806308680ade146106145780630bfe9829146106425780630c7b1d7b146106625780631080d9f51461067757806311ac6cf81461068d57600080fd5b80625bc9f4146104d1578063025e7c2714610507578063032cdbfc146105345780630441e6c5146105c5578063051bd84c146105f257600080fd5b366104cc577f6ef95f06320e7a25a04a175ca677b7052bdd97131872c2192525a629f51be77033346040516104c2929190614f03565b60405180910390a1005b600080fd5b3480156104dd57600080fd5b50601d546104f290600160d01b900460ff1681565b60405190151581526020015b60405180910390f35b34801561051357600080fd5b50610527610522366004614f1c565b610fca565b6040516104fe9190614f35565b34801561054057600080fd5b5061059361054f366004614ffe565b8051602081830181018051601082529282019190930120915280546001820154600283015460038401546004909401546001600160a01b0390931693919290919085565b604080516001600160a01b0390961686526020860194909452928401919091526060830152608082015260a0016104fe565b3480156105d157600080fd5b506105e56105e0366004614f1c565b610ff4565b6040516104fe919061508a565b3480156105fe57600080fd5b5061061261060d3660046150ab565b6110a0565b005b34801561062057600080fd5b5061063461062f3660046150e8565b6110f6565b6040519081526020016104fe565b34801561064e57600080fd5b5061061261065d366004615105565b61115f565b34801561066e57600080fd5b50600854610634565b34801561068357600080fd5b50610634601c5481565b34801561069957600080fd5b506106126106a83660046150ab565b6111c4565b3480156106b957600080fd5b506106126106c83660046150e8565b611214565b3480156106d957600080fd5b506106126106e83660046150e8565b611470565b3480156106f957600080fd5b506106126107083660046150ab565b61157a565b34801561071957600080fd5b506106126107283660046150e8565b6115c7565b34801561073957600080fd5b50601d546104f290600160b81b900460ff1681565b34801561075a57600080fd5b5061063460185481565b34801561077057600080fd5b50601d546104f290600160a81b900460ff1681565b34801561079157600080fd5b506104f26107a03660046150e8565b60096020526000908152604090205460ff1681565b3480156107c157600080fd5b506106126107d0366004615170565b61167c565b3480156107e157600080fd5b50600154610634565b3480156107f657600080fd5b50601d546104f290600160a01b900460ff1681565b34801561081757600080fd5b506106346108263660046151b6565b6116db565b34801561083757600080fd5b506106126108463660046151b6565b611706565b34801561085757600080fd5b5061086b6108663660046150e8565b6118ca565b6040516104fe919061526a565b34801561088457600080fd5b50610612610893366004614f1c565b611a26565b3480156108a457600080fd5b50601d546104f290600160b01b900460ff1681565b3480156108c557600080fd5b50601654610527906001600160a01b031681565b3480156108e557600080fd5b506106126108f436600461527d565b611a5a565b34801561090557600080fd5b50600e54610634565b34801561091a57600080fd5b50610612610929366004614ffe565b611c1c565b34801561093a57600080fd5b5061061261094936600461539d565b611eba565b34801561095a57600080fd5b50601454610527906001600160a01b031681565b34801561097a57600080fd5b506106126109893660046150e8565b611f3b565b34801561099a57600080fd5b506106126109a93660046150e8565b611ff1565b3480156109ba57600080fd5b506106126109c93660046150ab565b6120a7565b3480156109da57600080fd5b506106126109e9366004615170565b6120f4565b3480156109fa57600080fd5b50601154610527906001600160a01b031681565b348015610a1a57600080fd5b5061063460195481565b348015610a3057600080fd5b50601d546104f290600160c81b900460ff1681565b348015610a5157600080fd5b50610612610a6036600461547d565b612147565b348015610a7157600080fd5b50610a85610a80366004615508565b612321565b6040516104fe919061552a565b348015610a9e57600080fd5b50610612610aad366004614f1c565b61246f565b348015610abe57600080fd5b50610612610acd366004614f1c565b6124a3565b348015610ade57600080fd5b50610612610aed3660046150e8565b6124d7565b348015610afe57600080fd5b50610612610b0d3660046150ab565b61254a565b348015610b1e57600080fd5b50610527610b2d366004614f1c565b612599565b348015610b3e57600080fd5b50610612610b4d3660046150ab565b6125c9565b348015610b5e57600080fd5b50600a54610634565b348015610b7357600080fd5b50610634601b5481565b348015610b8957600080fd5b50610634610b983660046150e8565b612614565b348015610ba957600080fd5b50610612610bb8366004615105565b61262f565b348015610bc957600080fd5b50610612610bd836600461558c565b612682565b348015610be957600080fd5b50610612610bf8366004614f1c565b61270c565b348015610c0957600080fd5b50610612610c18366004615105565b612740565b348015610c2957600080fd5b5061063460175481565b348015610c3f57600080fd5b50610612610c4e3660046150ab565b612793565b348015610c5f57600080fd5b50610612610c6e36600461558c565b6127e0565b348015610c7f57600080fd5b50610612610c8e3660046150ab565b612878565b348015610c9f57600080fd5b50610612610cae3660046150e8565b6128c1565b348015610cbf57600080fd5b50601254610527906001600160a01b031681565b348015610cdf57600080fd5b50610612610cee3660046150e8565b61297a565b348015610cff57600080fd5b506104f2610d0e366004614ffe565b8051602081830181018051600f8252928201919093012091525460ff1681565b348015610d3a57600080fd5b50601d54610527906001600160a01b031681565b348015610d5a57600080fd5b50610d6e610d69366004614ffe565b612a30565b6040516104fe9190615601565b348015610d8757600080fd5b50610612610d963660046150ab565b612aad565b348015610da757600080fd5b50610634610db63660046150e8565b6001600160a01b031660009081526003602052604090205490565b348015610ddd57600080fd5b50610612610dec366004614f1c565b612afa565b348015610dfd57600080fd5b50610634610e0c3660046150e8565b6001600160a01b031660009081526006602052604090205490565b348015610e3357600080fd5b50610d6e610e42366004615508565b612b2e565b348015610e5357600080fd5b50610e67610e62366004615508565b612bf7565b6040516104fe9190615614565b348015610e8057600080fd5b50610612610e8f3660046150ab565b612dac565b348015610ea057600080fd5b50610612610eaf3660046150ab565b612df9565b348015610ec057600080fd5b50600254610634565b348015610ed557600080fd5b50601354610527906001600160a01b031681565b348015610ef557600080fd5b50610612610f04366004615669565b612e46565b348015610f1557600080fd5b50610612610f24366004615105565b612fc6565b348015610f3557600080fd5b50610612610f443660046150e8565b613019565b348015610f5557600080fd5b50601554610527906001600160a01b031681565b348015610f7557600080fd5b50610612610f843660046150ab565b6130cf565b348015610f9557600080fd5b50610612610fa4366004615170565b61311c565b348015610fb557600080fd5b50601d546104f290600160c01b900460ff1681565b60088181548110610fda57600080fd5b6000918252602090912001546001600160a01b0316905081565b600e818154811061100457600080fd5b90600052602060002001600091509050805461101f906156d3565b80601f016020809104026020016040519081016040528092919081815260200182805461104b906156d3565b80156110985780601f1061106d57610100808354040283529160200191611098565b820191906000526020600020905b81548152906001019060200180831161107b57829003601f168201915b505050505081565b3360009081526009602052604090205460ff166110d85760405162461bcd60e51b81526004016110cf9061570e565b60405180910390fd5b601d8054911515600160a81b0260ff60a81b19909216919091179055565b6001600160a01b03811660009081526003602052604081205461112b5760405162461bcd60e51b81526004016110cf9061573a565b600061113660025490565b6111409047615796565b90506000611157848361115287612614565b61316f565b949350505050565b601d546001600160a01b031633146111895760405162461bcd60e51b81526004016110cf906157ae565b601d54600160c81b900460ff166111b25760405162461bcd60e51b81526004016110cf906157dd565b6111be848484846131b7565b50505050565b3360009081526009602052604090205460ff166111f35760405162461bcd60e51b81526004016110cf9061570e565b601a8054911515600160301b0266ff00000000000019909216919091179055565b336001600160a01b0316600860008154811061123257611232615808565b6000918252602090912001546001600160a01b0316146112645760405162461bcd60e51b81526004016110cf9061581e565b6001600160a01b03811660009081526009602052604090205460ff166112c05760405162461bcd60e51b815260206004820152601160248201527027bbb732b9399d102737ba1037bbb732b960791b60448201526064016110cf565b60086000815481106112d4576112d4615808565b6000918252602090912001546001600160a01b03828116911614156113455760405162461bcd60e51b815260206004820152602160248201527f4f776e6572733a2043616e6e6f742072656d6f7665207375706572206f776e656044820152603960f91b60648201526084016110cf565b60015b60085481101561144e57816001600160a01b03166008828154811061136f5761136f615808565b6000918252602090912001546001600160a01b0316141561143c576008805461139a90600190615850565b815481106113aa576113aa615808565b600091825260209091200154600880546001600160a01b0390921691839081106113d6576113d6615808565b9060005260206000200160006101000a8154816001600160a01b0302191690836001600160a01b03160217905550600880548061141557611415615867565b600082815260209020810160001990810180546001600160a01b031916905501905561144e565b806114468161587d565b915050611348565b506001600160a01b03166000908152600960205260409020805460ff19169055565b6001600160a01b0381166000908152600360205260409020546114a55760405162461bcd60e51b81526004016110cf9061573a565b60006114b060025490565b6114ba9047615796565b905060006114cc838361115286612614565b9050806114eb5760405162461bcd60e51b81526004016110cf90615898565b6001600160a01b03831660009081526004602052604081208054839290611513908490615796565b92505081905550806002600082825461152c9190615796565b9091555061153c9050838261337f565b7fdf20fd1e76bc69d672e4814fafb2c449bba3a5369d8359adf9e05e6fde87b056838260405161156d929190614f03565b60405180910390a1505050565b3360009081526009602052604090205460ff166115a95760405162461bcd60e51b81526004016110cf9061570e565b601d8054911515600160b81b0260ff60b81b19909216919091179055565b3360009081526009602052604090205460ff166115f65760405162461bcd60e51b81526004016110cf9061570e565b6001600160a01b03811661165a5760405162461bcd60e51b815260206004820152602560248201527f537761707065723a2046757475722063616e6e6f742062652061646472657373604482015264207a65726f60d81b60648201526084016110cf565b601280546001600160a01b0319166001600160a01b0392909216919091179055565b601d546001600160a01b031633146116a65760405162461bcd60e51b81526004016110cf906157ae565b601d54600160b01b900460ff166116cf5760405162461bcd60e51b81526004016110cf906157dd565b6111be84848484613498565b6001600160a01b03918216600090815260076020908152604080832093909416825291909152205490565b6001600160a01b03811660009081526003602052604090205461173b5760405162461bcd60e51b81526004016110cf9061573a565b6001600160a01b0382166000908152600660205260408120546040516370a0823160e01b81526001600160a01b038516906370a0823190611780903090600401614f35565b60206040518083038186803b15801561179857600080fd5b505afa1580156117ac573d6000803e3d6000fd5b505050506040513d601f19601f820116820180604052508101906117d091906158e3565b6117da9190615796565b905060006117ed838361115287876116db565b90508061180c5760405162461bcd60e51b81526004016110cf90615898565b6001600160a01b03808516600090815260076020908152604080832093871683529290529081208054839290611843908490615796565b90915550506001600160a01b03841660009081526006602052604081208054839290611870908490615796565b90915550611881905084848361380b565b836001600160a01b03167f3be5b7a71e84ed12875d241991c70855ac5817d847039e17a9d895c1ceb0f18a84836040516118bc929190614f03565b60405180910390a250505050565b60408051808201909152606080825260208201526001600160a01b0382166000908152600d602052604090205460ff166119425760405162461bcd60e51b815260206004820152601960248201527814ddd85c1c195c8e8812d95e48191bd95cdb9d08195e1a5cdd603a1b60448201526064016110cf565b6001600160a01b0382166000908152600b602090815260409182902082518154606093810282018401855293810184815290939192849284918401828280156119b457602002820191906000526020600020905b81546001600160a01b03168152600190910190602001808311611996575b5050505050815260200160018201805480602002602001604051908101604052809291908181526020018280548015611a1657602002820191906000526020600020905b81546001600160a01b031681526001909101906020018083116119f8575b5050505050815250509050919050565b3360009081526009602052604090205460ff16611a555760405162461bcd60e51b81526004016110cf9061570e565b601b55565b336001600160a01b03166008600081548110611a7857611a78615808565b6000918252602090912001546001600160a01b031614611aaa5760405162461bcd60e51b81526004016110cf9061581e565b6001600160a01b03821660009081526009602052604090205460ff1615611b0b5760405162461bcd60e51b815260206004820152601560248201527427bbb732b9399d1020b63932b0b23c9037bbb732b960591b60448201526064016110cf565b6001600160a01b0382166000908152600960205260409020805460ff191660011790558015611bcb57600880600081548110611b4957611b49615808565b6000918252602080832090910154835460018101855593835290822090920180546001600160a01b0319166001600160a01b039093169290921790915560088054849290611b9957611b99615808565b9060005260206000200160006101000a8154816001600160a01b0302191690836001600160a01b031602179055505050565b600880546001810182556000919091527ff3f7a9fe364faab93b216da50a3214154f22a0a2b415b23a84c8169e8b636ee30180546001600160a01b0384166001600160a01b03199091161790555050565b600f81604051611c2c91906158fc565b9081526040519081900360200190205460ff16611c5b5760405162461bcd60e51b81526004016110cf90615918565b6000601082604051611c6d91906158fc565b908152602001604051809103902090506000816004015411611ccd5760405162461bcd60e51b8152602060048201526019602482015278537761707065723a204e6f7468696e6720746f20636c61696d60381b60448201526064016110cf565b6011546005820180546000926001600160a01b03169190611cf090600190615850565b81548110611d0057611d00615808565b6000918252602090912001546001600160a01b031614611dd65760155460048084015460405163d06ca61f60e01b81526001600160a01b039093169263d06ca61f92611d529291600588019101615998565b60006040518083038186803b158015611d6a57600080fd5b505afa158015611d7e573d6000803e3d6000fd5b505050506040513d6000823e601f3d908101601f19168201604052611da691908101906159b1565b6005830154611db790600190615850565b81518110611dc757611dc7615808565b60200260200101519050611ddd565b5060048101545b8160040154826003016000828254611df59190615796565b909155505060006004830155600582018054611e1390600190615850565b81548110611e2357611e23615808565b60009182526020909120015460135483546040516323b872dd60e01b81526001600160a01b03938416936323b872dd93611e6893908216929116908690600401615a36565b602060405180830381600087803b158015611e8257600080fd5b505af1158015611e96573d6000803e3d6000fd5b505050506040513d601f19601f820116820180604052508101906111be9190615a5a565b6000611ec66001613861565b90508015611ede576000805461ff0019166101001790555b611eec8787878787876138ee565b8015611f32576000805461ff0019169055604051600181527f7f26b83ff96e1f2b6a682f133852f6798a09c465da95921460cefb38474024989060200160405180910390a15b50505050505050565b3360009081526009602052604090205460ff16611f6a5760405162461bcd60e51b81526004016110cf9061570e565b6001600160a01b038116611fcf5760405162461bcd60e51b815260206004820152602660248201527f537761707065723a20537072696e672063616e6e6f742062652061646472657360448201526573207a65726f60d01b60648201526084016110cf565b601180546001600160a01b0319166001600160a01b0392909216919091179055565b3360009081526009602052604090205460ff166120205760405162461bcd60e51b81526004016110cf9061570e565b6001600160a01b0381166120855760405162461bcd60e51b815260206004820152602660248201527f537761707065723a204e61746976652063616e6e6f742062652061646472657360448201526573207a65726f60d01b60648201526084016110cf565b601680546001600160a01b0319166001600160a01b0392909216919091179055565b3360009081526009602052604090205460ff166120d65760405162461bcd60e51b81526004016110cf9061570e565b601d8054911515600160c81b0260ff60c81b19909216919091179055565b601d546001600160a01b0316331461211e5760405162461bcd60e51b81526004016110cf906157ae565b601d54600160a81b900460ff166116cf5760405162461bcd60e51b81526004016110cf906157dd565b3360009081526009602052604090205460ff166121765760405162461bcd60e51b81526004016110cf9061570e565b600f8560405161218691906158fc565b9081526040519081900360200190205460ff16156121e65760405162461bcd60e51b815260206004820152601d60248201527f537761707065723a20496e666c7520616c72656164792065786973747300000060448201526064016110cf565b600e80546001810182556000919091528551612229917fbb7b4a454dc3493923482f07822329ed19e8244eff582cc204f8554c3620c3fd01906020880190614dfb565b506001600f8660405161223c91906158fc565b908152602001604051809103902060006101000a81548160ff0219169083151502179055506040518060c00160405280856001600160a01b031681526020018381526020018481526020016000815260200160008152602001828152506010866040516122a991906158fc565b9081526040805160209281900383019020835181546001600160a01b0319166001600160a01b03909116178155838301516001820155908301516002820155606083015160038201556080830151600482015560a08301518051919261231792600585019290910190614e7f565b5050505050505050565b6060600061232f8484615850565b6001600160401b0381111561234657612346614f49565b60405190808252806020026020018201604052801561237957816020015b60608152602001906001900390816123645790505b509050835b8381101561246757600e818154811061239957612399615808565b9060005260206000200180546123ae906156d3565b80601f01602080910402602001604051908101604052809291908181526020018280546123da906156d3565b80156124275780601f106123fc57610100808354040283529160200191612427565b820191906000526020600020905b81548152906001019060200180831161240a57829003601f168201915b50505050508286836124399190615850565b8151811061244957612449615808565b6020026020010181905250808061245f9061587d565b91505061237e565b509392505050565b3360009081526009602052604090205460ff1661249e5760405162461bcd60e51b81526004016110cf9061570e565b601955565b3360009081526009602052604090205460ff166124d25760405162461bcd60e51b81526004016110cf9061570e565b601855565b3360009081526009602052604090205460ff166125065760405162461bcd60e51b81526004016110cf9061570e565b6001600160a01b0381166000908152600d602052604090205460ff1661253e5760405162461bcd60e51b81526004016110cf90615a77565b6125478161393b565b50565b3360009081526009602052604090205460ff166125795760405162461bcd60e51b81526004016110cf9061570e565b601a80549115156401000000000264ff0000000019909216919091179055565b6000600582815481106125ae576125ae615808565b6000918252602090912001546001600160a01b031692915050565b3360009081526009602052604090205460ff166125f85760405162461bcd60e51b81526004016110cf9061570e565b601a8054911515620100000262ff000019909216919091179055565b6001600160a01b031660009081526004602052604090205490565b601d546001600160a01b031633146126595760405162461bcd60e51b81526004016110cf906157ae565b601d54600160c01b900460ff166111b25760405162461bcd60e51b81526004016110cf906157dd565b3360009081526009602052604090205460ff166126b15760405162461bcd60e51b81526004016110cf9061570e565b6001600160a01b0383166000908152600d602052604090205460ff166126e95760405162461bcd60e51b81526004016110cf90615a77565b61270783604051806040016040528085815260200184815250613aa4565b505050565b3360009081526009602052604090205460ff1661273b5760405162461bcd60e51b81526004016110cf9061570e565b601755565b601d546001600160a01b0316331461276a5760405162461bcd60e51b81526004016110cf906157ae565b601d54600160a01b900460ff166111b25760405162461bcd60e51b81526004016110cf906157dd565b3360009081526009602052604090205460ff166127c25760405162461bcd60e51b81526004016110cf9061570e565b601a805491151563010000000263ff00000019909216919091179055565b3360009081526009602052604090205460ff1661280f5760405162461bcd60e51b81526004016110cf9061570e565b6001600160a01b0383166000908152600d602052604090205460ff16156126e95760405162461bcd60e51b815260206004820152601d60248201527f537761707065723a20546f6b656e20616c72656164792065786973747300000060448201526064016110cf565b3360009081526009602052604090205460ff166128a75760405162461bcd60e51b81526004016110cf9061570e565b601a80549115156101000261ff0019909216919091179055565b3360009081526009602052604090205460ff166128f05760405162461bcd60e51b81526004016110cf9061570e565b6001600160a01b0381166129585760405162461bcd60e51b815260206004820152602960248201527f537761707065723a204c7048616e646c65722063616e6e6f742062652061646460448201526872657373207a65726f60b81b60648201526084016110cf565b601480546001600160a01b0319166001600160a01b0392909216919091179055565b3360009081526009602052604090205460ff166129a95760405162461bcd60e51b81526004016110cf9061570e565b6001600160a01b038116612a0e5760405162461bcd60e51b815260206004820152602660248201527f537761707065723a20526f757465722063616e6e6f742062652061646472657360448201526573207a65726f60d01b60648201526084016110cf565b601580546001600160a01b0319166001600160a01b0392909216919091179055565b6060601082604051612a4291906158fc565b9081526040805191829003602090810183206005018054808302850183019093528284529190830182828015612aa157602002820191906000526020600020905b81546001600160a01b03168152600190910190602001808311612a83575b50505050509050919050565b3360009081526009602052604090205460ff16612adc5760405162461bcd60e51b81526004016110cf9061570e565b601d8054911515600160c01b0260ff60c01b19909216919091179055565b3360009081526009602052604090205460ff16612b295760405162461bcd60e51b81526004016110cf9061570e565b601c55565b60606000612b3c8484615850565b6001600160401b03811115612b5357612b53614f49565b604051908082528060200260200182016040528015612b7c578160200160208202803683370190505b509050835b8381101561246757600a805482908110612b9d57612b9d615808565b6000918252602090912001546001600160a01b031682612bbd8784615850565b81518110612bcd57612bcd615808565b6001600160a01b039092166020928302919091019091015280612bef8161587d565b915050612b81565b60606000612c058484615850565b6001600160401b03811115612c1c57612c1c614f49565b604051908082528060200260200182016040528015612c6157816020015b6040805180820190915260608082526020820152815260200190600190039081612c3a5790505b509050835b8381101561246757600a8054600b9160009184908110612c8857612c88615808565b60009182526020808320909101546001600160a01b031683528281019390935260409182019020815181546060948102820185018452928101838152909391928492849190840182828015612d0657602002820191906000526020600020905b81546001600160a01b03168152600190910190602001808311612ce8575b5050505050815260200160018201805480602002602001604051908101604052809291908181526020018280548015612d6857602002820191906000526020600020905b81546001600160a01b03168152600190910190602001808311612d4a575b505050505081525050828683612d7e9190615850565b81518110612d8e57612d8e615808565b60200260200101819052508080612da49061587d565b915050612c66565b3360009081526009602052604090205460ff16612ddb5760405162461bcd60e51b81526004016110cf9061570e565b601d8054911515600160a01b0260ff60a01b19909216919091179055565b3360009081526009602052604090205460ff16612e285760405162461bcd60e51b81526004016110cf9061570e565b601d8054911515600160b01b0260ff60b01b19909216919091179055565b3360009081526009602052604090205460ff16612e755760405162461bcd60e51b81526004016110cf9061570e565b600f84604051612e8591906158fc565b9081526040519081900360200190205460ff16612eb45760405162461bcd60e51b81526004016110cf90615918565b6000601085604051612ec691906158fc565b90815260408051918290036020908101832060c08401835280546001600160a01b031684526001810154848301526002810154848401526003810154606085015260048101546080850152600581018054845181850281018501909552808552919360a0860193909290830182828015612f6957602002820191906000526020600020905b81546001600160a01b03168152600190910190602001808311612f4b575b50505050508152505090506040518060c0016040528082600001516001600160a01b031681526020018481526020018581526020018260600151815260200182608001518152602001838152506010866040516122a991906158fc565b601d546001600160a01b03163314612ff05760405162461bcd60e51b81526004016110cf906157ae565b601d54600160d01b900460ff166111b25760405162461bcd60e51b81526004016110cf906157dd565b3360009081526009602052604090205460ff166130485760405162461bcd60e51b81526004016110cf9061570e565b6001600160a01b0381166130ad5760405162461bcd60e51b815260206004820152602660248201527f537761707065723a204469737472692063616e6e6f742062652061646472657360448201526573207a65726f60d01b60648201526084016110cf565b601380546001600160a01b0319166001600160a01b0392909216919091179055565b3360009081526009602052604090205460ff166130fe5760405162461bcd60e51b81526004016110cf9061570e565b601d8054911515600160d01b0260ff60d01b19909216919091179055565b601d546001600160a01b031633146131465760405162461bcd60e51b81526004016110cf906157ae565b601d54600160b81b900460ff166116cf5760405162461bcd60e51b81526004016110cf906157dd565b6001546001600160a01b038416600090815260036020526040812054909183916131999086615aae565b6131a39190615acd565b6131ad9190615850565b90505b9392505050565b600082116132025760405162461bcd60e51b81526020600482015260186024820152770537761707065723a204e6f7468696e6720746f20737761760441b60448201526064016110cf565b600f8160405161321291906158fc565b9081526040519081900360200190205460ff16156132c25760108160405161323a91906158fc565b90815260200160405180910390206002015442116132c25761271060108260405161326591906158fc565b908152602001604051809103902060010154836132829190615aae565b61328c9190615acd565b60108260405161329c91906158fc565b908152602001604051809103902060040160008282546132bc9190615796565b90915550505b6011546001600160a01b038581169116141561336c576011546040516323b872dd60e01b81526001600160a01b03909116906323b872dd9061330c90869030908790600401615a36565b602060405180830381600087803b15801561332657600080fd5b505af115801561333a573d6000803e3d6000fd5b505050506040513d601f19601f8201168201806040525081019061335e9190615a5a565b50613367613bd1565b6111be565b613377848484613e7a565b6111be613bd1565b804710156133cf5760405162461bcd60e51b815260206004820152601d60248201527f416464726573733a20696e73756666696369656e742062616c616e636500000060448201526064016110cf565b6000826001600160a01b03168260405160006040518083038185875af1925050503d806000811461341c576040519150601f19603f3d011682016040523d82523d6000602084013e613421565b606091505b50509050806127075760405162461bcd60e51b815260206004820152603a60248201527f416464726573733a20756e61626c6520746f2073656e642076616c75652c207260448201527f6563697069656e74206d6179206861766520726576657274656400000000000060648201526084016110cf565b6011546001600160a01b03858116911614806134cc57506001600160a01b0384166000908152600d602052604090205460ff165b6134e85760405162461bcd60e51b81526004016110cf90615aef565b60006134f48284615796565b11156111be57601a5462010000900460ff16156135a5576011546013546001600160a01b03918216916323b872dd91163061352f8587615796565b6040518463ffffffff1660e01b815260040161354d93929190615a36565b602060405180830381600087803b15801561356757600080fd5b505af115801561357b573d6000803e3d6000fd5b505050506040513d601f19601f8201168201806040525081019061359f9190615a5a565b50613637565b8115613637576011546013546040516323b872dd60e01b81526001600160a01b03928316926323b872dd926135e39291169030908790600401615a36565b602060405180830381600087803b1580156135fd57600080fd5b505af1158015613611573d6000803e3d6000fd5b505050506040513d601f19601f820116820180604052508101906136359190615a5a565b505b601a5462010000900460ff1680156136505750601c5481115b156136605761365e816140ba565b505b6011546001600160a01b03858116911614156137065781156133675760115460405163a9059cbb60e01b81526001600160a01b039091169063a9059cbb906136ae9086908690600401614f03565b602060405180830381600087803b1580156136c857600080fd5b505af11580156136dc573d6000803e3d6000fd5b505050506040513d601f19601f820116820180604052508101906137009190615a5a565b506111be565b60115460155460405163095ea7b360e01b81526001600160a01b039283169263095ea7b39261373c929116908690600401614f03565b602060405180830381600087803b15801561375657600080fd5b505af115801561376a573d6000803e3d6000fd5b505050506040513d601f19601f8201168201806040525081019061378e9190615a5a565b506015546001600160a01b038581166000908152600b60205260408082209051635c11d79560e01b81529290931692635c11d795926137dd928792909160019091019089904290600401615b1f565b600060405180830381600087803b1580156137f757600080fd5b505af1158015612317573d6000803e3d6000fd5b6127078363a9059cbb60e01b848460405160240161382a929190614f03565b60408051601f198184030181529190526020810180516001600160e01b03166001600160e01b031990931692909217909152614345565b60008054610100900460ff16156138a8578160ff1660011480156138845750303b155b6138a05760405162461bcd60e51b81526004016110cf90615b5b565b506000919050565b60005460ff8084169116106138cf5760405162461bcd60e51b81526004016110cf90615b5b565b506000805460ff191660ff92909216919091179055600190565b919050565b600054610100900460ff166139155760405162461bcd60e51b81526004016110cf90615ba9565b61391d614417565b613927868661449a565b613933848484846145d8565b505050505050565b6001600160a01b0381166000908152600d602052604090205460ff1661395e5750565b6001600160a01b0381166000908152600d60209081526040808320805460ff19169055600b9091528120906139938282614ed4565b6139a1600183016000614ed4565b50506001600160a01b0381166000908152600c6020526040812054600a549091906139ce90600190615850565b90506000600a60000182815481106139e8576139e8615808565b60009182526020808320909101546001600160a01b03908116808452600c909252604080842087905590871683528220919091559050818314613a6b5780600a6000018481548110613a3c57613a3c615808565b9060005260206000200160006101000a8154816001600160a01b0302191690836001600160a01b031602179055505b600a805480613a7c57613a7c615867565b600082815260209020810160001990810180546001600160a01b031916905501905550505050565b6001600160a01b0382166000908152600d602052604090205460ff1615613b14576001600160a01b0382166000908152600b60209081526040909120825180518493613af4928492910190614e7f565b506020828101518051613b0d9260018501920190614e7f565b5050505050565b6001600160a01b0382166000908152600d60209081526040808320805460ff19166001179055600b8252909120825180518493613b55928492910190614e7f565b506020828101518051613b6e9260018501920190614e7f565b5050600a80546001600160a01b0385166000818152600c60205260408120839055600183018455929092527fc65a7bb8d6351c1cf70c95a316cc6a92839c986682d98bc35f958f4883f9d2a80180546001600160a01b0319169091179055505050565b6011546040516370a0823160e01b81526000916001600160a01b0316906370a0823190613c02903090600401614f35565b60206040518083038186803b158015613c1a57600080fd5b505afa158015613c2e573d6000803e3d6000fd5b505050506040513d601f19601f82011682018060405250810190613c5291906158e3565b9050601b548110158015613c6d5750601a54610100900460ff165b8015613c7c5750601a5460ff16155b1561254757601a805460ff1916600117908190556301000000900460ff1615613cd757600061271060175483613cb29190615aae565b613cbc9190615acd565b601254909150613cd5906001600160a01b031682614869565b505b601a54640100000000900460ff1615613d9457600061271060185483613cfd9190615aae565b613d079190615acd565b60115460135460405163a9059cbb60e01b81529293506001600160a01b039182169263a9059cbb92613d3f9216908590600401614f03565b602060405180830381600087803b158015613d5957600080fd5b505af1158015613d6d573d6000803e3d6000fd5b505050506040513d601f19601f82011682018060405250810190613d919190615a5a565b50505b601a5465010000000000900460ff1615613dd257600061271060195483613dbb9190615aae565b613dc59190615acd565b9050613dd0816148a7565b505b601a54600160301b900460ff1615613e6d576011546040516370a0823160e01b8152613e6b916001600160a01b0316906370a0823190613e16903090600401614f35565b60206040518083038186803b158015613e2e57600080fd5b505afa158015613e42573d6000803e3d6000fd5b505050506040513d601f19601f82011682018060405250810190613e6691906158e3565b6140ba565b505b601a805460ff1916905550565b6001600160a01b0383166000908152600d602052604090205460ff16613eb25760405162461bcd60e51b81526004016110cf90615aef565b6015546001600160a01b038481166000908152600b602052604080822090516307c0329d60e21b815291939290921691631f00ca7491613ef6918691600401615998565b60006040518083038186803b158015613f0e57600080fd5b505afa158015613f22573d6000803e3d6000fd5b505050506040513d6000823e601f3d908101601f19168201604052613f4a91908101906159b1565b600081518110613f5c57613f5c615808565b60200260200101519050836001600160a01b03166323b872dd8430846040518463ffffffff1660e01b8152600401613f9693929190615a36565b602060405180830381600087803b158015613fb057600080fd5b505af1158015613fc4573d6000803e3d6000fd5b505050506040513d601f19601f82011682018060405250810190613fe89190615a5a565b5060155460405163095ea7b360e01b81526001600160a01b038681169263095ea7b39261401d92909116908590600401614f03565b602060405180830381600087803b15801561403757600080fd5b505af115801561404b573d6000803e3d6000fd5b505050506040513d601f19601f8201168201806040525081019061406f9190615a5a565b506015546001600160a01b038581166000908152600b6020526040908190209051635c11d79560e01b81529190921691635c11d795916137dd91859187919030904290600401615b1f565b6016546040516370a0823160e01b815260009182916001600160a01b03909116906370a08231906140ef903090600401614f35565b60206040518083038186803b15801561410757600080fd5b505afa15801561411b573d6000803e3d6000fd5b505050506040513d601f19601f8201168201806040525081019061413f91906158e3565b6040805160028082526060820183529293506000929091602083019080368337505060115482519293506001600160a01b03169183915060009061418557614185615808565b6001600160a01b0392831660209182029290920101526016548251911690829060019081106141b6576141b6615808565b6001600160a01b03928316602091820292909201015260115460155460405163095ea7b360e01b81529183169263095ea7b3926141fb92909116908890600401614f03565b602060405180830381600087803b15801561421557600080fd5b505af1158015614229573d6000803e3d6000fd5b505050506040513d601f19601f8201168201806040525081019061424d9190615a5a565b50601554604051635c11d79560e01b81526001600160a01b0390911690635c11d79590614287908790600090869030904290600401615bf4565b600060405180830381600087803b1580156142a157600080fd5b505af11580156142b5573d6000803e3d6000fd5b50506016546040516370a0823160e01b81528593506001600160a01b0390911691506370a08231906142eb903090600401614f35565b60206040518083038186803b15801561430357600080fd5b505afa158015614317573d6000803e3d6000fd5b505050506040513d601f19601f8201168201806040525081019061433b91906158e3565b6111579190615850565b600061439a826040518060400160405280602081526020017f5361666545524332303a206c6f772d6c6576656c2063616c6c206661696c6564815250856001600160a01b03166148db9092919063ffffffff16565b80519091501561270757808060200190518101906143b89190615a5a565b6127075760405162461bcd60e51b815260206004820152602a60248201527f5361666545524332303a204552433230206f7065726174696f6e20646964206e6044820152691bdd081cdd58d8d9595960b21b60648201526084016110cf565b600054610100900460ff1661443e5760405162461bcd60e51b81526004016110cf90615ba9565b6008805460018181019092557ff3f7a9fe364faab93b216da50a3214154f22a0a2b415b23a84c8169e8b636ee30180546001600160a01b031916339081179091556000908152600960205260409020805460ff19169091179055565b600054610100900460ff166144c15760405162461bcd60e51b81526004016110cf90615ba9565b805182511461452d5760405162461bcd60e51b815260206004820152603260248201527f5061796d656e7453706c69747465723a2070617965657320616e6420736861726044820152710cae640d8cadccee8d040dad2e6dac2e8c6d60731b60648201526084016110cf565b600082511161457e5760405162461bcd60e51b815260206004820152601a60248201527f5061796d656e7453706c69747465723a206e6f2070617965657300000000000060448201526064016110cf565b60005b8251811015612707576145c683828151811061459f5761459f615808565b60200260200101518383815181106145b9576145b9615808565b60200260200101516148ea565b806145d08161587d565b915050614581565b600054610100900460ff166145ff5760405162461bcd60e51b81526004016110cf90615ba9565b8360008151811061461257614612615808565b6020026020010151601160006101000a8154816001600160a01b0302191690836001600160a01b031602179055508360018151811061465357614653615808565b6020026020010151601260006101000a8154816001600160a01b0302191690836001600160a01b031602179055508360028151811061469457614694615808565b6020026020010151601360006101000a8154816001600160a01b0302191690836001600160a01b03160217905550836003815181106146d5576146d5615808565b6020026020010151601460006101000a8154816001600160a01b0302191690836001600160a01b031602179055508360048151811061471657614716615808565b6020026020010151601560006101000a8154816001600160a01b0302191690836001600160a01b031602179055508360058151811061475757614757615808565b6020026020010151601660006101000a8154816001600160a01b0302191690836001600160a01b031602179055508260008151811061479857614798615808565b6020026020010151601781905550826001815181106147b9576147b9615808565b6020026020010151601881905550826002815181106147da576147da615808565b6020026020010151601981905550816000815181106147fb576147fb615808565b6020026020010151601b819055508160018151811061481c5761481c615808565b6020908102919091010151601c55601d8054601a8054660101010101010066ffffffffffffff199091161790556001600160d81b0319166001600160a01b03909216919091179055505050565b6000614874826140ba565b60165460405163a9059cbb60e01b81529192506001600160a01b03169063a9059cbb90611e689086908590600401614f03565b60006148b4600283615acd565b905060006148c28284615850565b905060006148cf836140ba565b90506111be8282614ac7565b60606131ad8484600085614c91565b6001600160a01b0382166149555760405162461bcd60e51b815260206004820152602c60248201527f5061796d656e7453706c69747465723a206163636f756e74206973207468652060448201526b7a65726f206164647265737360a01b60648201526084016110cf565b600081116149a55760405162461bcd60e51b815260206004820152601d60248201527f5061796d656e7453706c69747465723a2073686172657320617265203000000060448201526064016110cf565b6001600160a01b03821660009081526003602052604090205415614a1f5760405162461bcd60e51b815260206004820152602b60248201527f5061796d656e7453706c69747465723a206163636f756e7420616c726561647960448201526a206861732073686172657360a81b60648201526084016110cf565b6005805460018082019092557f036b6384b5eca791c62761152d0c79bb0604c104a5fb6f4eb0703f3154bb3db00180546001600160a01b0319166001600160a01b038516908117909155600090815260036020526040902082905554614a86908290615796565b6001556040517f40c340f65e17194d14ddddb073d3c9f888e3cb52b5aae0c6c7706b4fbc905fac90614abb9084908490614f03565b60405180910390a15050565b60115460155460405163095ea7b360e01b81526001600160a01b039283169263095ea7b392614afd929116908690600401614f03565b602060405180830381600087803b158015614b1757600080fd5b505af1158015614b2b573d6000803e3d6000fd5b505050506040513d601f19601f82011682018060405250810190614b4f9190615a5a565b5060165460155460405163095ea7b360e01b81526001600160a01b039283169263095ea7b392614b86929116908590600401614f03565b602060405180830381600087803b158015614ba057600080fd5b505af1158015614bb4573d6000803e3d6000fd5b505050506040513d601f19601f82011682018060405250810190614bd89190615a5a565b5060155460115460165460145460405162e8e33760e81b81526001600160a01b0393841660048201529183166024830152604482018690526064820185905260006084830181905260a4830152821660c48201524260e482015291169063e8e337009061010401606060405180830381600087803b158015614c5957600080fd5b505af1158015614c6d573d6000803e3d6000fd5b505050506040513d601f19601f82011682018060405250810190613b0d9190615c13565b606082471015614cf25760405162461bcd60e51b815260206004820152602660248201527f416464726573733a20696e73756666696369656e742062616c616e636520666f6044820152651c8818d85b1b60d21b60648201526084016110cf565b6001600160a01b0385163b614d495760405162461bcd60e51b815260206004820152601d60248201527f416464726573733a2063616c6c20746f206e6f6e2d636f6e747261637400000060448201526064016110cf565b600080866001600160a01b03168587604051614d6591906158fc565b60006040518083038185875af1925050503d8060008114614da2576040519150601f19603f3d011682016040523d82523d6000602084013e614da7565b606091505b5091509150614db7828286614dc2565b979650505050505050565b60608315614dd15750816131b0565b825115614de15782518084602001fd5b8160405162461bcd60e51b81526004016110cf919061508a565b828054614e07906156d3565b90600052602060002090601f016020900481019282614e295760008555614e6f565b82601f10614e4257805160ff1916838001178555614e6f565b82800160010185558215614e6f579182015b82811115614e6f578251825591602001919060010190614e54565b50614e7b929150614eee565b5090565b828054828255906000526020600020908101928215614e6f579160200282015b82811115614e6f57825182546001600160a01b0319166001600160a01b03909116178255602090920191600190910190614e9f565b508054600082559060005260206000209081019061254791905b5b80821115614e7b5760008155600101614eef565b6001600160a01b03929092168252602082015260400190565b600060208284031215614f2e57600080fd5b5035919050565b6001600160a01b0391909116815260200190565b634e487b7160e01b600052604160045260246000fd5b604051601f8201601f191681016001600160401b0381118282101715614f8757614f87614f49565b604052919050565b600082601f830112614fa057600080fd5b81356001600160401b03811115614fb957614fb9614f49565b614fcc601f8201601f1916602001614f5f565b818152846020838601011115614fe157600080fd5b816020850160208301376000918101602001919091529392505050565b60006020828403121561501057600080fd5b81356001600160401b0381111561502657600080fd5b61115784828501614f8f565b60005b8381101561504d578181015183820152602001615035565b838111156111be5750506000910152565b60008151808452615076816020860160208601615032565b601f01601f19169290920160200192915050565b6020815260006131b0602083018461505e565b801515811461254757600080fd5b6000602082840312156150bd57600080fd5b81356131b08161509d565b6001600160a01b038116811461254757600080fd5b80356138e9816150c8565b6000602082840312156150fa57600080fd5b81356131b0816150c8565b6000806000806080858703121561511b57600080fd5b8435615126816150c8565b93506020850135615136816150c8565b92506040850135915060608501356001600160401b0381111561515857600080fd5b61516487828801614f8f565b91505092959194509250565b6000806000806080858703121561518657600080fd5b8435615191816150c8565b935060208501356151a1816150c8565b93969395505050506040820135916060013590565b600080604083850312156151c957600080fd5b82356151d4816150c8565b915060208301356151e4816150c8565b809150509250929050565b600081518084526020808501945080840160005b838110156152285781516001600160a01b031687529582019590820190600101615203565b509495945050505050565b600081516040845261524860408501826151ef565b90506020830151848203602086015261526182826151ef565b95945050505050565b6020815260006131b06020830184615233565b6000806040838503121561529057600080fd5b823561529b816150c8565b915060208301356151e48161509d565b60006001600160401b038211156152c4576152c4614f49565b5060051b60200190565b600082601f8301126152df57600080fd5b813560206152f46152ef836152ab565b614f5f565b82815260059290921b8401810191818101908684111561531357600080fd5b8286015b8481101561533757803561532a816150c8565b8352918301918301615317565b509695505050505050565b600082601f83011261535357600080fd5b813560206153636152ef836152ab565b82815260059290921b8401810191818101908684111561538257600080fd5b8286015b848110156153375780358352918301918301615386565b60008060008060008060c087890312156153b657600080fd5b86356001600160401b03808211156153cd57600080fd5b6153d98a838b016152ce565b975060208901359150808211156153ef57600080fd5b6153fb8a838b01615342565b9650604089013591508082111561541157600080fd5b61541d8a838b016152ce565b9550606089013591508082111561543357600080fd5b61543f8a838b01615342565b9450608089013591508082111561545557600080fd5b5061546289828a01615342565b92505061547160a088016150dd565b90509295509295509295565b600080600080600060a0868803121561549557600080fd5b85356001600160401b03808211156154ac57600080fd5b6154b889838a01614f8f565b9650602088013591506154ca826150c8565b9094506040870135935060608701359250608087013590808211156154ee57600080fd5b506154fb888289016152ce565b9150509295509295909350565b6000806040838503121561551b57600080fd5b50508035926020909101359150565b6000602080830181845280855180835260408601915060408160051b870101925083870160005b8281101561557f57603f1988860301845261556d85835161505e565b94509285019290850190600101615551565b5092979650505050505050565b6000806000606084860312156155a157600080fd5b83356155ac816150c8565b925060208401356001600160401b03808211156155c857600080fd5b6155d4878388016152ce565b935060408601359150808211156155ea57600080fd5b506155f7868287016152ce565b9150509250925092565b6020815260006131b060208301846151ef565b6000602080830181845280855180835260408601915060408160051b870101925083870160005b8281101561557f57603f19888603018452615657858351615233565b9450928501929085019060010161563b565b6000806000806080858703121561567f57600080fd5b84356001600160401b038082111561569657600080fd5b6156a288838901614f8f565b9550602087013594506040870135935060608701359150808211156156c657600080fd5b50615164878288016152ce565b600181811c908216806156e757607f821691505b6020821081141561570857634e487b7160e01b600052602260045260246000fd5b50919050565b60208082526012908201527127bbb732b9399d1027b7363c9027bbb732b960711b604082015260600190565b60208082526026908201527f5061796d656e7453706c69747465723a206163636f756e7420686173206e6f2060408201526573686172657360d01b606082015260800190565b634e487b7160e01b600052601160045260246000fd5b600082198211156157a9576157a9615780565b500190565b60208082526015908201527429bbb0b83832b91d1027b7363c902430b7323632b960591b604082015260600190565b60208082526011908201527029bbb0b83832b91d102737ba1037b832b760791b604082015260600190565b634e487b7160e01b600052603260045260246000fd5b60208082526018908201527727bbb732b9399d1027b7363c9029bab832b91027bbb732b960411b604082015260600190565b60008282101561586257615862615780565b500390565b634e487b7160e01b600052603160045260246000fd5b600060001982141561589157615891615780565b5060010190565b6020808252602b908201527f5061796d656e7453706c69747465723a206163636f756e74206973206e6f742060408201526a191d59481c185e5b595b9d60aa1b606082015260800190565b6000602082840312156158f557600080fd5b5051919050565b6000825161590e818460208701615032565b9190910192915050565b60208082526022908201527f537761707065723a20496e666c7520646f65736e742065786973742065786973604082015261747360f01b606082015260800190565b6000815480845260208085019450836000528060002060005b838110156152285781546001600160a01b031687529582019560019182019101615973565b8281526040602082015260006131ad604083018461595a565b600060208083850312156159c457600080fd5b82516001600160401b038111156159da57600080fd5b8301601f810185136159eb57600080fd5b80516159f96152ef826152ab565b81815260059190911b82018301908381019087831115615a1857600080fd5b928401925b82841015614db757835182529284019290840190615a1d565b6001600160a01b039384168152919092166020820152604081019190915260600190565b600060208284031215615a6c57600080fd5b81516131b08161509d565b6020808252601b908201527f537761707065723a20546f6b656e20646f65736e742065786973740000000000604082015260600190565b6000816000190483118215151615615ac857615ac8615780565b500290565b600082615aea57634e487b7160e01b600052601260045260246000fd5b500490565b60208082526016908201527529bbb0b83832b91d102ab735b737bbb7103a37b5b2b760511b604082015260600190565b85815284602082015260a060408201526000615b3e60a083018661595a565b6001600160a01b0394909416606083015250608001529392505050565b6020808252602e908201527f496e697469616c697a61626c653a20636f6e747261637420697320616c72656160408201526d191e481a5b9a5d1a585b1a5e995960921b606082015260800190565b6020808252602b908201527f496e697469616c697a61626c653a20636f6e7472616374206973206e6f74206960408201526a6e697469616c697a696e6760a81b606082015260800190565b85815284602082015260a060408201526000615b3e60a08301866151ef565b600080600060608486031215615c2857600080fd5b835192506020840151915060408401519050925092509256fea2646970667358221220388b0313c80747eef7e67c6e6fc08c4bf9d5cc7cb84c8f76a3a246da0c086da464736f6c63430008090033",
  "linkReferences": {},
  "deployedLinkReferences": {}
}