{
  "_format": "hh-sol-artifact-1",
  "contractName": "PaymentSplitterUpgradeable",
  "sourceName": "contracts/PaymentSplitterUpgradeable.sol",
  "abi": [
    {
      "anonymous": false,
      "inputs": [
        {
          "indexed": true,
          "internalType": "contract IERC20",
          "name": "token",
          "type": "address"
        },
        {
          "indexed": false,
          "internalType": "address",
          "name": "to",
          "type": "address"
        },
        {
          "indexed": false,
          "internalType": "uint256",
          "name": "amount",
          "type": "uint256"
        }
      ],
      "name": "ERC20PaymentReleased",
      "type": "event"
    },
    {
      "anonymous": false,
      "inputs": [
        {
          "indexed": false,
          "internalType": "uint8",
          "name": "version",
          "type": "uint8"
        }
      ],
      "name": "Initialized",
      "type": "event"
    },
    {
      "anonymous": false,
      "inputs": [
        {
          "indexed": false,
          "internalType": "address",
          "name": "account",
          "type": "address"
        },
        {
          "indexed": false,
          "internalType": "uint256",
          "name": "shares",
          "type": "uint256"
        }
      ],
      "name": "PayeeAdded",
      "type": "event"
    },
    {
      "anonymous": false,
      "inputs": [
        {
          "indexed": false,
          "internalType": "address",
          "name": "from",
          "type": "address"
        },
        {
          "indexed": false,
          "internalType": "uint256",
          "name": "amount",
          "type": "uint256"
        }
      ],
      "name": "PaymentReceived",
      "type": "event"
    },
    {
      "anonymous": false,
      "inputs": [
        {
          "indexed": false,
          "internalType": "address",
          "name": "to",
          "type": "address"
        },
        {
          "indexed": false,
          "internalType": "uint256",
          "name": "amount",
          "type": "uint256"
        }
      ],
      "name": "PaymentReleased",
      "type": "event"
    },
    {
      "inputs": [
        {
          "internalType": "address",
          "name": "account",
          "type": "address"
        }
      ],
      "name": "getPendingOf",
      "outputs": [
        {
          "internalType": "uint256",
          "name": "",
          "type": "uint256"
        }
      ],
      "stateMutability": "view",
      "type": "function"
    },
    {
      "inputs": [
        {
          "internalType": "uint256",
          "name": "index",
          "type": "uint256"
        }
      ],
      "name": "payee",
      "outputs": [
        {
          "internalType": "address",
          "name": "",
          "type": "address"
        }
      ],
      "stateMutability": "view",
      "type": "function"
    },
    {
      "inputs": [
        {
          "internalType": "address payable",
          "name": "account",
          "type": "address"
        }
      ],
      "name": "release",
      "outputs": [],
      "stateMutability": "nonpayable",
      "type": "function"
    },
    {
      "inputs": [
        {
          "internalType": "contract IERC20",
          "name": "token",
          "type": "address"
        },
        {
          "internalType": "address",
          "name": "account",
          "type": "address"
        }
      ],
      "name": "release",
      "outputs": [],
      "stateMutability": "nonpayable",
      "type": "function"
    },
    {
      "inputs": [
        {
          "internalType": "contract IERC20",
          "name": "token",
          "type": "address"
        },
        {
          "internalType": "address",
          "name": "account",
          "type": "address"
        }
      ],
      "name": "released",
      "outputs": [
        {
          "internalType": "uint256",
          "name": "",
          "type": "uint256"
        }
      ],
      "stateMutability": "view",
      "type": "function"
    },
    {
      "inputs": [
        {
          "internalType": "address",
          "name": "account",
          "type": "address"
        }
      ],
      "name": "released",
      "outputs": [
        {
          "internalType": "uint256",
          "name": "",
          "type": "uint256"
        }
      ],
      "stateMutability": "view",
      "type": "function"
    },
    {
      "inputs": [
        {
          "internalType": "address",
          "name": "account",
          "type": "address"
        }
      ],
      "name": "shares",
      "outputs": [
        {
          "internalType": "uint256",
          "name": "",
          "type": "uint256"
        }
      ],
      "stateMutability": "view",
      "type": "function"
    },
    {
      "inputs": [
        {
          "internalType": "contract IERC20",
          "name": "token",
          "type": "address"
        }
      ],
      "name": "totalReleased",
      "outputs": [
        {
          "internalType": "uint256",
          "name": "",
          "type": "uint256"
        }
      ],
      "stateMutability": "view",
      "type": "function"
    },
    {
      "inputs": [],
      "name": "totalReleased",
      "outputs": [
        {
          "internalType": "uint256",
          "name": "",
          "type": "uint256"
        }
      ],
      "stateMutability": "view",
      "type": "function"
    },
    {
      "inputs": [],
      "name": "totalShares",
      "outputs": [
        {
          "internalType": "uint256",
          "name": "",
          "type": "uint256"
        }
      ],
      "stateMutability": "view",
      "type": "function"
    },
    {
      "stateMutability": "payable",
      "type": "receive"
    }
  ],
  "bytecode": "0x608060405234801561001057600080fd5b50610c96806100206000396000f3fe6080604052600436106100955760003560e01c80638b83209b116100595780638b83209b146101b35780639852595c146101eb578063ce7c2ac214610221578063d79779b214610257578063e33b7de31461028d57600080fd5b806308680ade146100e357806319165587146101165780633a98ef3914610138578063406072a91461014d57806348b750441461019357600080fd5b366100de577f6ef95f06320e7a25a04a175ca677b7052bdd97131872c2192525a629f51be77033604080516001600160a01b0390921682523460208301520160405180910390a1005b600080fd5b3480156100ef57600080fd5b506101036100fe366004610a0a565b6102a2565b6040519081526020015b60405180910390f35b34801561012257600080fd5b50610136610131366004610a0a565b61032a565b005b34801561014457600080fd5b50600154610103565b34801561015957600080fd5b50610103610168366004610a27565b6001600160a01b03918216600090815260076020908152604080832093909416825291909152205490565b34801561019f57600080fd5b506101366101ae366004610a27565b610453565b3480156101bf57600080fd5b506101d36101ce366004610a60565b61063b565b6040516001600160a01b03909116815260200161010d565b3480156101f757600080fd5b50610103610206366004610a0a565b6001600160a01b031660009081526004602052604090205490565b34801561022d57600080fd5b5061010361023c366004610a0a565b6001600160a01b031660009081526003602052604090205490565b34801561026357600080fd5b50610103610272366004610a0a565b6001600160a01b031660009081526006602052604090205490565b34801561029957600080fd5b50600254610103565b6001600160a01b0381166000908152600360205260408120546102e05760405162461bcd60e51b81526004016102d790610a79565b60405180910390fd5b60006102eb60025490565b6102f59047610ad5565b90506000610322848361031d876001600160a01b031660009081526004602052604090205490565b61066b565b949350505050565b6001600160a01b03811660009081526003602052604090205461035f5760405162461bcd60e51b81526004016102d790610a79565b600061036a60025490565b6103749047610ad5565b9050600061039c838361031d866001600160a01b031660009081526004602052604090205490565b9050806103bb5760405162461bcd60e51b81526004016102d790610aed565b6001600160a01b038316600090815260046020526040812080548392906103e3908490610ad5565b9250508190555080600260008282546103fc9190610ad5565b9091555061040c905083826106b3565b604080516001600160a01b0385168152602081018390527fdf20fd1e76bc69d672e4814fafb2c449bba3a5369d8359adf9e05e6fde87b056910160405180910390a1505050565b6001600160a01b0381166000908152600360205260409020546104885760405162461bcd60e51b81526004016102d790610a79565b6001600160a01b0382166000908152600660205260408120546040516370a0823160e01b81523060048201526001600160a01b038516906370a082319060240160206040518083038186803b1580156104e057600080fd5b505afa1580156104f4573d6000803e3d6000fd5b505050506040513d601f19601f820116820180604052508101906105189190610b38565b6105229190610ad5565b9050600061055b838361031d87876001600160a01b03918216600090815260076020908152604080832093909416825291909152205490565b90508061057a5760405162461bcd60e51b81526004016102d790610aed565b6001600160a01b038085166000908152600760209081526040808320938716835292905290812080548392906105b1908490610ad5565b90915550506001600160a01b038416600090815260066020526040812080548392906105de908490610ad5565b909155506105ef90508484836107d1565b604080516001600160a01b038581168252602082018490528616917f3be5b7a71e84ed12875d241991c70855ac5817d847039e17a9d895c1ceb0f18a910160405180910390a250505050565b60006005828154811061065057610650610b51565b6000918252602090912001546001600160a01b031692915050565b6001546001600160a01b038416600090815260036020526040812054909183916106959086610b67565b61069f9190610b86565b6106a99190610ba8565b90505b9392505050565b804710156107035760405162461bcd60e51b815260206004820152601d60248201527f416464726573733a20696e73756666696369656e742062616c616e636500000060448201526064016102d7565b6000826001600160a01b03168260405160006040518083038185875af1925050503d8060008114610750576040519150601f19603f3d011682016040523d82523d6000602084013e610755565b606091505b50509050806107cc5760405162461bcd60e51b815260206004820152603a60248201527f416464726573733a20756e61626c6520746f2073656e642076616c75652c207260448201527f6563697069656e74206d6179206861766520726576657274656400000000000060648201526084016102d7565b505050565b604080516001600160a01b03848116602483015260448083018590528351808403909101815260649092018352602080830180516001600160e01b031663a9059cbb60e01b17905283518085019094528084527f5361666545524332303a206c6f772d6c6576656c2063616c6c206661696c6564908401526107cc928692916000916108619185169084906108de565b8051909150156107cc578080602001905181019061087f9190610bbf565b6107cc5760405162461bcd60e51b815260206004820152602a60248201527f5361666545524332303a204552433230206f7065726174696f6e20646964206e6044820152691bdd081cdd58d8d9595960b21b60648201526084016102d7565b60606106a98484600085856001600160a01b0385163b6109405760405162461bcd60e51b815260206004820152601d60248201527f416464726573733a2063616c6c20746f206e6f6e2d636f6e747261637400000060448201526064016102d7565b600080866001600160a01b0316858760405161095c9190610c11565b60006040518083038185875af1925050503d8060008114610999576040519150601f19603f3d011682016040523d82523d6000602084013e61099e565b606091505b50915091506109ae8282866109b9565b979650505050505050565b606083156109c85750816106ac565b8251156109d85782518084602001fd5b8160405162461bcd60e51b81526004016102d79190610c2d565b6001600160a01b0381168114610a0757600080fd5b50565b600060208284031215610a1c57600080fd5b81356106ac816109f2565b60008060408385031215610a3a57600080fd5b8235610a45816109f2565b91506020830135610a55816109f2565b809150509250929050565b600060208284031215610a7257600080fd5b5035919050565b60208082526026908201527f5061796d656e7453706c69747465723a206163636f756e7420686173206e6f2060408201526573686172657360d01b606082015260800190565b634e487b7160e01b600052601160045260246000fd5b60008219821115610ae857610ae8610abf565b500190565b6020808252602b908201527f5061796d656e7453706c69747465723a206163636f756e74206973206e6f742060408201526a191d59481c185e5b595b9d60aa1b606082015260800190565b600060208284031215610b4a57600080fd5b5051919050565b634e487b7160e01b600052603260045260246000fd5b6000816000190483118215151615610b8157610b81610abf565b500290565b600082610ba357634e487b7160e01b600052601260045260246000fd5b500490565b600082821015610bba57610bba610abf565b500390565b600060208284031215610bd157600080fd5b815180151581146106ac57600080fd5b60005b83811015610bfc578181015183820152602001610be4565b83811115610c0b576000848401525b50505050565b60008251610c23818460208701610be1565b9190910192915050565b6020815260008251806020840152610c4c816040850160208701610be1565b601f01601f1916919091016040019291505056fea26469706673582212203b767ad86fd9d36364aedfd7d86e8fb9ed1fb9f6510359b41612707f2578793064736f6c63430008090033",
  "linkReferences": {},
  "deployedLinkReferences": {}
}