{
  "_format": "hh-sol-artifact-1",
  "contractName": "SpringMarketPlace",
  "sourceName": "contracts/SpringMarketPlace.sol",
  "abi": [
    {
      "anonymous": false,
      "inputs": [
        {
          "indexed": false,
          "internalType": "uint8",
          "name": "version",
          "type": "uint8"
        }
      ],
      "name": "Initialized",
      "type": "event"
    },
    {
      "inputs": [
        {
          "internalType": "address",
          "name": "_new",
          "type": "address"
        },
        {
          "internalType": "bool",
          "name": "_change",
          "type": "bool"
        }
      ],
      "name": "addOwner",
      "outputs": [],
      "stateMutability": "nonpayable",
      "type": "function"
    },
    {
      "inputs": [],
      "name": "auctionBeforeAdd",
      "outputs": [
        {
          "internalType": "uint256",
          "name": "",
          "type": "uint256"
        }
      ],
      "stateMutability": "view",
      "type": "function"
    },
    {
      "inputs": [],
      "name": "auctionBeforeRef",
      "outputs": [
        {
          "internalType": "uint256",
          "name": "",
          "type": "uint256"
        }
      ],
      "stateMutability": "view",
      "type": "function"
    },
    {
      "inputs": [
        {
          "internalType": "address",
          "name": "_nft",
          "type": "address"
        },
        {
          "internalType": "string[]",
          "name": "names",
          "type": "string[]"
        }
      ],
      "name": "deleteMapPrice",
      "outputs": [],
      "stateMutability": "nonpayable",
      "type": "function"
    },
    {
      "inputs": [],
      "name": "fee",
      "outputs": [
        {
          "internalType": "uint256",
          "name": "",
          "type": "uint256"
        }
      ],
      "stateMutability": "view",
      "type": "function"
    },
    {
      "inputs": [
        {
          "internalType": "address",
          "name": "_nft",
          "type": "address"
        },
        {
          "internalType": "uint256",
          "name": "_tokenId",
          "type": "uint256"
        }
      ],
      "name": "forceAuctionEnd",
      "outputs": [],
      "stateMutability": "nonpayable",
      "type": "function"
    },
    {
      "inputs": [
        {
          "internalType": "address",
          "name": "_nft",
          "type": "address"
        },
        {
          "internalType": "uint256",
          "name": "iStart",
          "type": "uint256"
        },
        {
          "internalType": "uint256",
          "name": "iEnd",
          "type": "uint256"
        }
      ],
      "name": "getAuctionOfBetweenIndexes",
      "outputs": [
        {
          "components": [
            {
              "internalType": "address",
              "name": "owner",
              "type": "address"
            },
            {
              "internalType": "uint256",
              "name": "tokenId",
              "type": "uint256"
            },
            {
              "internalType": "uint256",
              "name": "currentPrice",
              "type": "uint256"
            },
            {
              "internalType": "address",
              "name": "nextOwner",
              "type": "address"
            },
            {
              "internalType": "uint256",
              "name": "end",
              "type": "uint256"
            },
            {
              "internalType": "uint256",
              "name": "creationTime",
              "type": "uint256"
            }
          ],
          "internalType": "struct SpringMarketPlace.Auction[]",
          "name": "",
          "type": "tuple[]"
        }
      ],
      "stateMutability": "view",
      "type": "function"
    },
    {
      "inputs": [
        {
          "internalType": "address",
          "name": "_nft",
          "type": "address"
        },
        {
          "internalType": "uint256",
          "name": "iStart",
          "type": "uint256"
        },
        {
          "internalType": "uint256",
          "name": "iEnd",
          "type": "uint256"
        }
      ],
      "name": "getAuctionOfKeysBetweenIndexes",
      "outputs": [
        {
          "internalType": "uint256[]",
          "name": "",
          "type": "uint256[]"
        }
      ],
      "stateMutability": "view",
      "type": "function"
    },
    {
      "inputs": [
        {
          "internalType": "address",
          "name": "_nft",
          "type": "address"
        }
      ],
      "name": "getAuctionOfSize",
      "outputs": [
        {
          "internalType": "uint256",
          "name": "",
          "type": "uint256"
        }
      ],
      "stateMutability": "view",
      "type": "function"
    },
    {
      "inputs": [],
      "name": "getNftAddressAll",
      "outputs": [
        {
          "internalType": "address[]",
          "name": "",
          "type": "address[]"
        }
      ],
      "stateMutability": "view",
      "type": "function"
    },
    {
      "inputs": [
        {
          "internalType": "uint256",
          "name": "iStart",
          "type": "uint256"
        },
        {
          "internalType": "uint256",
          "name": "iEnd",
          "type": "uint256"
        }
      ],
      "name": "getNftAddressBetweenIndexes",
      "outputs": [
        {
          "internalType": "address[]",
          "name": "",
          "type": "address[]"
        }
      ],
      "stateMutability": "view",
      "type": "function"
    },
    {
      "inputs": [],
      "name": "getNftPricesAddressAll",
      "outputs": [
        {
          "internalType": "address[]",
          "name": "",
          "type": "address[]"
        }
      ],
      "stateMutability": "view",
      "type": "function"
    },
    {
      "inputs": [
        {
          "internalType": "uint256",
          "name": "iStart",
          "type": "uint256"
        },
        {
          "internalType": "uint256",
          "name": "iEnd",
          "type": "uint256"
        }
      ],
      "name": "getNftPricesAddressBetweenIndexes",
      "outputs": [
        {
          "internalType": "address[]",
          "name": "",
          "type": "address[]"
        }
      ],
      "stateMutability": "view",
      "type": "function"
    },
    {
      "inputs": [],
      "name": "getNftPricesSize",
      "outputs": [
        {
          "internalType": "uint256",
          "name": "",
          "type": "uint256"
        }
      ],
      "stateMutability": "view",
      "type": "function"
    },
    {
      "inputs": [],
      "name": "getNftSize",
      "outputs": [
        {
          "internalType": "uint256",
          "name": "",
          "type": "uint256"
        }
      ],
      "stateMutability": "view",
      "type": "function"
    },
    {
      "inputs": [
        {
          "internalType": "address",
          "name": "_nft",
          "type": "address"
        },
        {
          "internalType": "uint256",
          "name": "iStart",
          "type": "uint256"
        },
        {
          "internalType": "uint256",
          "name": "iEnd",
          "type": "uint256"
        }
      ],
      "name": "getOfferOfBetweenIndexes",
      "outputs": [
        {
          "components": [
            {
              "internalType": "address",
              "name": "owner",
              "type": "address"
            },
            {
              "internalType": "uint256",
              "name": "tokenId",
              "type": "uint256"
            },
            {
              "internalType": "uint256",
              "name": "price",
              "type": "uint256"
            },
            {
              "internalType": "uint256",
              "name": "creationTime",
              "type": "uint256"
            }
          ],
          "internalType": "struct SpringMarketPlace.Offer[]",
          "name": "",
          "type": "tuple[]"
        }
      ],
      "stateMutability": "view",
      "type": "function"
    },
    {
      "inputs": [
        {
          "internalType": "address",
          "name": "_nft",
          "type": "address"
        },
        {
          "internalType": "uint256",
          "name": "iStart",
          "type": "uint256"
        },
        {
          "internalType": "uint256",
          "name": "iEnd",
          "type": "uint256"
        }
      ],
      "name": "getOfferOfKeysBetweenIndexes",
      "outputs": [
        {
          "internalType": "uint256[]",
          "name": "",
          "type": "uint256[]"
        }
      ],
      "stateMutability": "view",
      "type": "function"
    },
    {
      "inputs": [
        {
          "internalType": "address",
          "name": "_nft",
          "type": "address"
        }
      ],
      "name": "getOfferOfSize",
      "outputs": [
        {
          "internalType": "uint256",
          "name": "",
          "type": "uint256"
        }
      ],
      "stateMutability": "view",
      "type": "function"
    },
    {
      "inputs": [],
      "name": "getOwnersSize",
      "outputs": [
        {
          "internalType": "uint256",
          "name": "",
          "type": "uint256"
        }
      ],
      "stateMutability": "view",
      "type": "function"
    },
    {
      "inputs": [
        {
          "internalType": "address",
          "name": "_nft",
          "type": "address"
        },
        {
          "internalType": "uint256",
          "name": "iStart",
          "type": "uint256"
        },
        {
          "internalType": "uint256",
          "name": "iEnd",
          "type": "uint256"
        }
      ],
      "name": "getPricesOfBetweenIndexes",
      "outputs": [
        {
          "components": [
            {
              "internalType": "uint256",
              "name": "offerPrice",
              "type": "uint256"
            },
            {
              "internalType": "uint256",
              "name": "auctionPrice",
              "type": "uint256"
            }
          ],
          "internalType": "struct SpringMarketPlace.MinPrices[]",
          "name": "",
          "type": "tuple[]"
        }
      ],
      "stateMutability": "view",
      "type": "function"
    },
    {
      "inputs": [
        {
          "internalType": "address",
          "name": "_nft",
          "type": "address"
        },
        {
          "internalType": "uint256",
          "name": "iStart",
          "type": "uint256"
        },
        {
          "internalType": "uint256",
          "name": "iEnd",
          "type": "uint256"
        }
      ],
      "name": "getPricesOfKeysBetweenIndexes",
      "outputs": [
        {
          "internalType": "string[]",
          "name": "",
          "type": "string[]"
        }
      ],
      "stateMutability": "view",
      "type": "function"
    },
    {
      "inputs": [
        {
          "internalType": "address",
          "name": "_nft",
          "type": "address"
        }
      ],
      "name": "getPricesOfSize",
      "outputs": [
        {
          "internalType": "uint256",
          "name": "",
          "type": "uint256"
        }
      ],
      "stateMutability": "view",
      "type": "function"
    },
    {
      "inputs": [
        {
          "internalType": "address",
          "name": "_spring",
          "type": "address"
        },
        {
          "internalType": "address",
          "name": "_swapper",
          "type": "address"
        },
        {
          "internalType": "uint256",
          "name": "_fee",
          "type": "uint256"
        },
        {
          "internalType": "uint256",
          "name": "_auctionBeforeRef",
          "type": "uint256"
        },
        {
          "internalType": "uint256",
          "name": "_auctionBeforeAdd",
          "type": "uint256"
        }
      ],
      "name": "initialize",
      "outputs": [],
      "stateMutability": "nonpayable",
      "type": "function"
    },
    {
      "inputs": [
        {
          "internalType": "address",
          "name": "",
          "type": "address"
        }
      ],
      "name": "isBlacklistedNft",
      "outputs": [
        {
          "internalType": "bool",
          "name": "",
          "type": "bool"
        }
      ],
      "stateMutability": "view",
      "type": "function"
    },
    {
      "inputs": [
        {
          "internalType": "address",
          "name": "",
          "type": "address"
        }
      ],
      "name": "isOwner",
      "outputs": [
        {
          "internalType": "bool",
          "name": "",
          "type": "bool"
        }
      ],
      "stateMutability": "view",
      "type": "function"
    },
    {
      "inputs": [
        {
          "internalType": "address",
          "name": "",
          "type": "address"
        }
      ],
      "name": "onlyAttribute",
      "outputs": [
        {
          "internalType": "bool",
          "name": "",
          "type": "bool"
        }
      ],
      "stateMutability": "view",
      "type": "function"
    },
    {
      "inputs": [],
      "name": "openAuction",
      "outputs": [
        {
          "internalType": "bool",
          "name": "",
          "type": "bool"
        }
      ],
      "stateMutability": "view",
      "type": "function"
    },
    {
      "inputs": [],
      "name": "openOffer",
      "outputs": [
        {
          "internalType": "bool",
          "name": "",
          "type": "bool"
        }
      ],
      "stateMutability": "view",
      "type": "function"
    },
    {
      "inputs": [
        {
          "internalType": "uint256",
          "name": "",
          "type": "uint256"
        }
      ],
      "name": "owners",
      "outputs": [
        {
          "internalType": "address",
          "name": "",
          "type": "address"
        }
      ],
      "stateMutability": "view",
      "type": "function"
    },
    {
      "inputs": [
        {
          "internalType": "address",
          "name": "_nft",
          "type": "address"
        },
        {
          "internalType": "uint256",
          "name": "_tokenId",
          "type": "uint256"
        },
        {
          "internalType": "uint256",
          "name": "_currentPrice",
          "type": "uint256"
        }
      ],
      "name": "purchaseAuctionItem",
      "outputs": [],
      "stateMutability": "nonpayable",
      "type": "function"
    },
    {
      "inputs": [
        {
          "internalType": "address",
          "name": "_nft",
          "type": "address"
        },
        {
          "internalType": "uint256",
          "name": "_tokenId",
          "type": "uint256"
        }
      ],
      "name": "purchaseOfferItem",
      "outputs": [],
      "stateMutability": "nonpayable",
      "type": "function"
    },
    {
      "inputs": [
        {
          "internalType": "address",
          "name": "_nft",
          "type": "address"
        },
        {
          "internalType": "uint256",
          "name": "_tokenId",
          "type": "uint256"
        }
      ],
      "name": "recoverAuctionItem",
      "outputs": [],
      "stateMutability": "nonpayable",
      "type": "function"
    },
    {
      "inputs": [
        {
          "internalType": "address",
          "name": "_nft",
          "type": "address"
        },
        {
          "internalType": "uint256",
          "name": "_tokenId",
          "type": "uint256"
        }
      ],
      "name": "recoverOfferItem",
      "outputs": [],
      "stateMutability": "nonpayable",
      "type": "function"
    },
    {
      "inputs": [
        {
          "internalType": "address",
          "name": "_new",
          "type": "address"
        }
      ],
      "name": "removeOwner",
      "outputs": [],
      "stateMutability": "nonpayable",
      "type": "function"
    },
    {
      "inputs": [
        {
          "internalType": "address",
          "name": "_nft",
          "type": "address"
        },
        {
          "internalType": "uint256",
          "name": "_tokenId",
          "type": "uint256"
        },
        {
          "internalType": "uint256",
          "name": "_currentPrice",
          "type": "uint256"
        },
        {
          "internalType": "uint256",
          "name": "_end",
          "type": "uint256"
        }
      ],
      "name": "sellAuctionItem",
      "outputs": [],
      "stateMutability": "nonpayable",
      "type": "function"
    },
    {
      "inputs": [
        {
          "internalType": "address",
          "name": "_nft",
          "type": "address"
        },
        {
          "internalType": "uint256",
          "name": "_tokenId",
          "type": "uint256"
        },
        {
          "internalType": "uint256",
          "name": "_price",
          "type": "uint256"
        }
      ],
      "name": "sellOfferItem",
      "outputs": [],
      "stateMutability": "nonpayable",
      "type": "function"
    },
    {
      "inputs": [
        {
          "internalType": "uint256",
          "name": "_auctionBeforeRef",
          "type": "uint256"
        },
        {
          "internalType": "uint256",
          "name": "_auctionBeforeAdd",
          "type": "uint256"
        }
      ],
      "name": "setAuctionBefore",
      "outputs": [],
      "stateMutability": "nonpayable",
      "type": "function"
    },
    {
      "inputs": [
        {
          "internalType": "uint256",
          "name": "_new",
          "type": "uint256"
        }
      ],
      "name": "setFee",
      "outputs": [],
      "stateMutability": "nonpayable",
      "type": "function"
    },
    {
      "inputs": [
        {
          "internalType": "address",
          "name": "_nft",
          "type": "address"
        },
        {
          "internalType": "bool",
          "name": "_new",
          "type": "bool"
        }
      ],
      "name": "setIsBlacklistedNft",
      "outputs": [],
      "stateMutability": "nonpayable",
      "type": "function"
    },
    {
      "inputs": [
        {
          "internalType": "address",
          "name": "_nft",
          "type": "address"
        },
        {
          "internalType": "string[]",
          "name": "_names",
          "type": "string[]"
        },
        {
          "internalType": "uint256[]",
          "name": "_offerPrices",
          "type": "uint256[]"
        },
        {
          "internalType": "uint256[]",
          "name": "_auctionPrices",
          "type": "uint256[]"
        }
      ],
      "name": "setMinPrices",
      "outputs": [],
      "stateMutability": "nonpayable",
      "type": "function"
    },
    {
      "inputs": [
        {
          "internalType": "address",
          "name": "_addr",
          "type": "address"
        },
        {
          "internalType": "bool",
          "name": "_new",
          "type": "bool"
        }
      ],
      "name": "setOnlyAttribute",
      "outputs": [],
      "stateMutability": "nonpayable",
      "type": "function"
    },
    {
      "inputs": [
        {
          "internalType": "bool",
          "name": "_new",
          "type": "bool"
        }
      ],
      "name": "setOpenAuction",
      "outputs": [],
      "stateMutability": "nonpayable",
      "type": "function"
    },
    {
      "inputs": [
        {
          "internalType": "bool",
          "name": "_new",
          "type": "bool"
        }
      ],
      "name": "setOpenOffer",
      "outputs": [],
      "stateMutability": "nonpayable",
      "type": "function"
    },
    {
      "inputs": [
        {
          "internalType": "address",
          "name": "_new",
          "type": "address"
        }
      ],
      "name": "setSpring",
      "outputs": [],
      "stateMutability": "nonpayable",
      "type": "function"
    },
    {
      "inputs": [
        {
          "internalType": "address",
          "name": "_new",
          "type": "address"
        }
      ],
      "name": "setSwapper",
      "outputs": [],
      "stateMutability": "nonpayable",
      "type": "function"
    },
    {
      "inputs": [],
      "name": "spring",
      "outputs": [
        {
          "internalType": "address",
          "name": "",
          "type": "address"
        }
      ],
      "stateMutability": "view",
      "type": "function"
    },
    {
      "inputs": [],
      "name": "swapper",
      "outputs": [
        {
          "internalType": "address",
          "name": "",
          "type": "address"
        }
      ],
      "stateMutability": "view",
      "type": "function"
    }
  ],
  "bytecode": "0x608060405234801561001057600080fd5b50614bde806100206000396000f3fe608060405234801561001057600080fd5b50600436106102955760003560e01c80637012ef1311610167578063a6cb7234116100ce578063ddca3f4311610087578063ddca3f431461062e578063e12ae50114610637578063e1e39c561461064a578063f383f6ee14610676578063f4a15f411461067e578063ff6479311461069157600080fd5b8063a6cb7234146105cd578063bc9c10da146105da578063c8824768146105ed578063c9f499ae14610600578063d13f90b414610613578063db8ee6191461062657600080fd5b806390ebc20a1161012057806390ebc20a1461056e57806395827ace1461058157806396301d59146105945780639c82f2a414610459578063a25772aa146105a7578063a420a4c1146105ba57600080fd5b80637012ef13146104ed578063723610f9146104f6578063741fb3db1461051f5780637dd3a6911461053f57806380d8fcef146105525780638e01d4841461056557600080fd5b80632f54bf6e1161020b578063612d3271116101c4578063612d32711461046c578063632c18e11461048c578063668be6cb14610494578063680baf6f146104a757806369fe0e2d146104c75780636ce38498146104da57600080fd5b80632f54bf6e146103c05780633eea418e146103e35780634841a8fb146104035780634a70c38b14610423578063518e32d3146104465780635a3002a71461045957600080fd5b8063173825d91161025d578063173825d914610333578063180223c8146103465780631fd6ef441461036f578063249f1db114610377578063278a9da61461039a5780632b3297f9146103ad57600080fd5b8063025e7c271461029a578063049a8da5146102ca57806304cb72f9146102ea5780630c7b1d7b1461030c57806316c6bf341461031e575b600080fd5b6102ad6102a8366004613f4d565b6106a4565b6040516001600160a01b0390911681526020015b60405180910390f35b6102dd6102d8366004613f66565b6106ce565b6040516102c19190613f88565b6040546102fc90610100900460ff1681565b60405190151581526020016102c1565b6001545b6040519081526020016102c1565b61033161032c366004613ffa565b61079f565b005b610331610341366004614031565b610802565b610310610354366004614031565b6001600160a01b031660009081526036602052604090205490565b6102dd610a88565b6102fc610385366004614031565b60426020526000908152604090205460ff1681565b6103316103a8366004614053565b610aed565b603e546102ad906001600160a01b031681565b6102fc6103ce366004614031565b60026020526000908152604090205460ff1681565b6103f66103f136600461407d565b610e0a565b6040516102c191906140b0565b61041661041136600461407d565b610fa2565b6040516102c19190614136565b6102fc610431366004614031565b60416020526000908152604090205460ff1681565b610331610454366004613ffa565b6110fa565b610331610467366004614031565b6112e4565b61047f61047a36600461407d565b611335565b6040516102c19190614196565b603954610310565b603d546102ad906001600160a01b031681565b6104ba6104b536600461407d565b611454565b6040516102c19190614204565b6103316104d5366004613f4d565b6115b5565b6103316104e8366004614053565b6115e9565b61031060445481565b610310610504366004614031565b6001600160a01b03166000908152603a602052604090205490565b61053261052d36600461407d565b6117e5565b6040516102c1919061427e565b61033161054d366004614414565b6118b6565b61033161056036600461407d565b611947565b61031060435481565b61053261057c36600461407d565b611d17565b61033161058f3660046144bc565b611de5565b6103316105a2366004614554565b611f86565b6103316105b5366004614554565b611fc8565b6103316105c8366004614571565b612011565b6040546102fc9060ff1681565b6103316105e8366004614053565b6123bc565b6103316105fb366004613ffa565b6127ae565b61033161060e366004613f66565b612808565b6103316106213660046145aa565b612842565b603554610310565b610310603f5481565b610331610645366004614053565b6128c1565b610310610658366004614031565b6001600160a01b031660009081526036602052604090206004015490565b6102dd612bbb565b61033161068c36600461407d565b612c1e565b6102dd61069f366004613f66565b613024565b600181815481106106b457600080fd5b6000918252602090912001546001600160a01b0316905081565b606060006106dc848461460d565b6001600160401b038111156106f3576106f36142b6565b60405190808252806020026020018201604052801561071c578160200160208202803683370190505b509050835b8381101561079757603980548290811061073d5761073d614624565b6000918252602090912001546001600160a01b03168261075d878461460d565b8151811061076d5761076d614624565b6001600160a01b03909216602092830291909101909101528061078f8161463a565b915050610721565b509392505050565b3360009081526002602052604090205460ff166107d75760405162461bcd60e51b81526004016107ce90614655565b60405180910390fd5b6001600160a01b03919091166000908152604160205260409020805460ff1916911515919091179055565b336001600160a01b0316600160008154811061082057610820614624565b6000918252602090912001546001600160a01b03161461087d5760405162461bcd60e51b815260206004820152601860248201527727bbb732b9399d1027b7363c9029bab832b91027bbb732b960411b60448201526064016107ce565b6001600160a01b03811660009081526002602052604090205460ff166108d95760405162461bcd60e51b815260206004820152601160248201527027bbb732b9399d102737ba1037bbb732b960791b60448201526064016107ce565b60016000815481106108ed576108ed614624565b6000918252602090912001546001600160a01b038281169116141561095e5760405162461bcd60e51b815260206004820152602160248201527f4f776e6572733a2043616e6e6f742072656d6f7665207375706572206f776e656044820152603960f91b60648201526084016107ce565b60015b600154811015610a6657816001600160a01b03166001828154811061098857610988614624565b6000918252602090912001546001600160a01b03161415610a5457600180546109b290829061460d565b815481106109c2576109c2614624565b600091825260209091200154600180546001600160a01b0390921691839081106109ee576109ee614624565b9060005260206000200160006101000a8154816001600160a01b0302191690836001600160a01b031602179055506001805480610a2d57610a2d614681565b600082815260209020810160001990810180546001600160a01b0319169055019055610a66565b80610a5e8161463a565b915050610961565b506001600160a01b03166000908152600260205260409020805460ff19169055565b60606035600001805480602002602001604051908101604052809291908181526020018280548015610ae357602002820191906000526020600020905b81546001600160a01b03168152600190910190602001808311610ac5575b5050505050905090565b3360009081526002602052604090205460ff16610b1c5760405162461bcd60e51b81526004016107ce90614655565b6001600160a01b03821660009081526038602052604090205460ff16610b545760405162461bcd60e51b81526004016107ce90614697565b6001600160a01b038216600090815260366020908152604080832084845260070190915290205460ff16610b9a5760405162461bcd60e51b81526004016107ce906146e3565b6001600160a01b0380831660009081526036602090815260408083208584526005908101835292819020815160c0810183528154861680825260018301549482019490945260028201549281019290925260038101549094166060820181905260048501546080830152939092015460a0830152909114610d72576000612710603f548360400151610c2c9190614727565b610c369190614746565b603d54835160408501519293506001600160a01b039091169163a9059cbb9190610c6190859061460d565b6040516001600160e01b031960e085901b1681526001600160a01b0390921660048301526024820152604401602060405180830381600087803b158015610ca757600080fd5b505af1158015610cbb573d6000803e3d6000fd5b505050506040513d601f19601f82011682018060405250810190610cdf9190614768565b508015610d7057603d54603e5460405163a9059cbb60e01b81526001600160a01b0391821660048201526024810184905291169063a9059cbb90604401602060405180830381600087803b158015610d3657600080fd5b505af1158015610d4a573d6000803e3d6000fd5b505050506040513d601f19601f82011682018060405250810190610d6e9190614768565b505b505b60608101516040516323b872dd60e01b81526001600160a01b038516916323b872dd91610da59130918790600401614785565b600060405180830381600087803b158015610dbf57600080fd5b505af1158015610dd3573d6000803e3d6000fd5b5050506001600160a01b0384166000908152603660205260409020610dfc9150600401836130ed565b610e0583613217565b505050565b60606000610e18848461460d565b6001600160401b03811115610e2f57610e2f6142b6565b604051908082528060200260200182016040528015610eab57816020015b610e986040518060c0016040528060006001600160a01b03168152602001600081526020016000815260200160006001600160a01b0316815260200160008152602001600081525090565b815260200190600190039081610e4d5790505b506001600160a01b0386166000908152603660205260409020909150600401845b84811015610f9757816001016000836000018381548110610eef57610eef614624565b600091825260208083209091015483528281019390935260409182019020815160c08101835281546001600160a01b039081168252600183015494820194909452600282015492810192909252600381015490921660608201526004820154608082015260059091015460a082015283610f69888461460d565b81518110610f7957610f79614624565b60200260200101819052508080610f8f9061463a565b915050610ecc565b509095945050505050565b60606000610fb0848461460d565b6001600160401b03811115610fc757610fc76142b6565b60405190808252806020026020018201604052801561102c57816020015b611019604051806080016040528060006001600160a01b031681526020016000815260200160008152602001600081525090565b815260200190600190039081610fe55790505b506001600160a01b0386166000908152603660205260409020909150845b84811015610f975781600101600083600001838154811061106d5761106d614624565b600091825260208083209091015483528281019390935260409182019020815160808101835281546001600160a01b03168152600182015493810193909352600281015491830191909152600301546060820152836110cc888461460d565b815181106110dc576110dc614624565b602002602001018190525080806110f29061463a565b91505061104a565b336001600160a01b0316600160008154811061111857611118614624565b6000918252602090912001546001600160a01b0316146111755760405162461bcd60e51b815260206004820152601860248201527727bbb732b9399d1027b7363c9029bab832b91027bbb732b960411b60448201526064016107ce565b6001600160a01b03821660009081526002602052604090205460ff16156111d65760405162461bcd60e51b815260206004820152601560248201527427bbb732b9399d1020b63932b0b23c9037bbb732b960591b60448201526064016107ce565b6001600160a01b0382166000908152600260205260409020805460ff1916600117905580156112955760018060008154811061121457611214614624565b600091825260208083209091015483546001818101865594845291832090910180546001600160a01b0319166001600160a01b0390921691909117905581548492919061126357611263614624565b9060005260206000200160006101000a8154816001600160a01b0302191690836001600160a01b031602179055505050565b6001805480820182556000919091527fb10e2d527612073b26eecdfd717e6a320cf44b4afac2b0732d9fcbe2b7fa0cf60180546001600160a01b0319166001600160a01b0384161790555b5050565b3360009081526002602052604090205460ff166113135760405162461bcd60e51b81526004016107ce90614655565b603d80546001600160a01b0319166001600160a01b0392909216919091179055565b60606000611343848461460d565b6001600160401b0381111561135a5761135a6142b6565b60405190808252806020026020018201604052801561139f57816020015b60408051808201909152600080825260208201528152602001906001900390816113785790505b506001600160a01b0386166000908152603a60205260409020909150845b84811015610f9757816001018260000182815481106113de576113de614624565b906000526020600020016040516113f591906147e4565b908152604080519182900360209081018320838301909252815483526001909101549082015283611426888461460d565b8151811061143657611436614624565b6020026020010181905250808061144c9061463a565b9150506113bd565b60606000611462848461460d565b6001600160401b03811115611479576114796142b6565b6040519080825280602002602001820160405280156114ac57816020015b60608152602001906001900390816114975790505b506001600160a01b0386166000908152603a60205260409020909150845b84811015610f97578160000181815481106114e7576114e7614624565b9060005260206000200180546114fc906147a9565b80601f0160208091040260200160405190810160405280929190818152602001828054611528906147a9565b80156115755780601f1061154a57610100808354040283529160200191611575565b820191906000526020600020905b81548152906001019060200180831161155857829003601f168201915b5050505050838783611587919061460d565b8151811061159757611597614624565b602002602001018190525080806115ad9061463a565b9150506114ca565b3360009081526002602052604090205460ff166115e45760405162461bcd60e51b81526004016107ce90614655565b603f55565b6002600354141561160c5760405162461bcd60e51b81526004016107ce90614880565b60026003556001600160a01b03821660009081526038602052604090205460ff166116495760405162461bcd60e51b81526004016107ce90614697565b6001600160a01b038216600090815260366020908152604080832084845260030190915290205460ff1661168f5760405162461bcd60e51b81526004016107ce906146e3565b6001600160a01b038083166000908152603660209081526040808320858452600190810183529281902081516080810183528154909516808652938101549285019290925260028201549084015260030154606083015233148061170257503360009081526002602052604090205460ff165b61174e5760405162461bcd60e51b815260206004820152601f60248201527f537072696e674d61726b6574506c6163653a20556e617574686f72697a65640060448201526064016107ce565b80516040516323b872dd60e01b81526001600160a01b038516916323b872dd9161177e9130918790600401614785565b600060405180830381600087803b15801561179857600080fd5b505af11580156117ac573d6000803e3d6000fd5b5050506001600160a01b03841660009081526036602052604090206117d29150836133bb565b6117db83613217565b5050600160035550565b606060006117f3848461460d565b6001600160401b0381111561180a5761180a6142b6565b604051908082528060200260200182016040528015611833578160200160208202803683370190505b506001600160a01b0386166000908152603660205260409020909150600401845b84811015610f975781600001818154811061187157611871614624565b9060005260206000200154838783611889919061460d565b8151811061189957611899614624565b6020908102919091010152806118ae8161463a565b915050611854565b3360009081526002602052604090205460ff166118e55760405162461bcd60e51b81526004016107ce90614655565b6001600160a01b0382166000908152603a60205260408120905b825181101561193d5761192b8284838151811061191e5761191e614624565b6020026020010151613435565b806119358161463a565b9150506118ff565b50610e0583613655565b6002600354141561196a5760405162461bcd60e51b81526004016107ce90614880565b6002600355806119d45760405162461bcd60e51b815260206004820152602f60248201527f537072696e674d61726b6574506c6163653a205072696365206d75737420626560448201526e02067726561746572207468616e203608c1b60648201526084016107ce565b6001600160a01b03831660009081526042602052604090205460ff1615611a0d5760405162461bcd60e51b81526004016107ce906148b7565b60405460ff16611a5f5760405162461bcd60e51b815260206004820152601b60248201527f537072696e674d61726b6574506c6163653a204e6f74206f70656e000000000060448201526064016107ce565b6001600160a01b0383166000908152603c602052604090205460ff1615611c67576040516359d68c7160e11b8152600481018390526000906001600160a01b0385169063b3ad18e29060240160006040518083038186803b158015611ac357600080fd5b505afa158015611ad7573d6000803e3d6000fd5b505050506040513d6000823e601f3d908101601f19168201604052611aff9190810190614901565b6001600160a01b0385166000908152603a6020526040908190209051919250906003820190611b2f908490614977565b9081526040519081900360200190205460ff16611b5e5760405162461bcd60e51b81526004016107ce90614993565b828160010183604051611b719190614977565b908152604051908190036020019020541115611b9f5760405162461bcd60e51b81526004016107ce906149d7565b6001600160a01b03851660009081526041602052604090205460ff1615611c645760405163493fe80f60e01b8152600481018590526000906001600160a01b0387169063493fe80f9060240160006040518083038186803b158015611c0357600080fd5b505afa158015611c17573d6000803e3d6000fd5b505050506040513d6000823e601f3d908101601f19168201604052611c3f9190810190614901565b90506000815111611c625760405162461bcd60e51b81526004016107ce90614a24565b505b50505b6040516323b872dd60e01b81526001600160a01b038416906323b872dd90611c9790339030908790600401614785565b600060405180830381600087803b158015611cb157600080fd5b505af1158015611cc5573d6000803e3d6000fd5b50505050611cd2836137cf565b6001600160a01b03831660009081526036602090815260409182902082516080810184523381529182018590529181018390524260608201526117db91908490613866565b60606000611d25848461460d565b6001600160401b03811115611d3c57611d3c6142b6565b604051908082528060200260200182016040528015611d65578160200160208202803683370190505b506001600160a01b0386166000908152603660205260409020909150845b84811015610f9757816000018181548110611da057611da0614624565b9060005260206000200154838783611db8919061460d565b81518110611dc857611dc8614624565b602090810291909101015280611ddd8161463a565b915050611d83565b3360009081526002602052604090205460ff16611e145760405162461bcd60e51b81526004016107ce90614655565b8151835114611e355760405162461bcd60e51b81526004016107ce90614a67565b8051835114611e565760405162461bcd60e51b81526004016107ce90614a67565b6040516359d68c7160e11b8152600060048201526001600160a01b0385169063b3ad18e29060240160006040518083038186803b158015611e9657600080fd5b505afa158015611eaa573d6000803e3d6000fd5b505050506040513d6000823e601f3d908101601f19168201604052611ed29190810190614901565b50611edc84613956565b60005b8351811015611f7f576001600160a01b0385166000908152603a602052604090208451611f6d9190869084908110611f1957611f19614624565b60200260200101516040518060400160405280878681518110611f3e57611f3e614624565b60200260200101518152602001868681518110611f5d57611f5d614624565b60200260200101518152506139ed565b80611f778161463a565b915050611edf565b5050505050565b3360009081526002602052604090205460ff16611fb55760405162461bcd60e51b81526004016107ce90614655565b6040805460ff1916911515919091179055565b3360009081526002602052604090205460ff16611ff75760405162461bcd60e51b81526004016107ce90614655565b604080549115156101000261ff0019909216919091179055565b600260035414156120345760405162461bcd60e51b81526004016107ce90614880565b60026003556001600160a01b03841660009081526042602052604090205460ff16156120725760405162461bcd60e51b81526004016107ce906148b7565b604054610100900460ff166120c95760405162461bcd60e51b815260206004820152601b60248201527f537072696e674d61726b6574506c6163653a204e6f74206f70656e000000000060448201526064016107ce565b6001600160a01b0384166000908152603c602052604090205460ff16156122d3576040516359d68c7160e11b8152600481018490526000906001600160a01b0386169063b3ad18e29060240160006040518083038186803b15801561212d57600080fd5b505afa158015612141573d6000803e3d6000fd5b505050506040513d6000823e601f3d908101601f191682016040526121699190810190614901565b6001600160a01b0386166000908152603a6020526040908190209051919250906003820190612199908490614977565b9081526040519081900360200190205460ff166121c85760405162461bcd60e51b81526004016107ce90614993565b8381600101836040516121db9190614977565b908152602001604051809103902060010154111561220b5760405162461bcd60e51b81526004016107ce906149d7565b6001600160a01b03861660009081526041602052604090205460ff16156122d05760405163493fe80f60e01b8152600481018690526000906001600160a01b0388169063493fe80f9060240160006040518083038186803b15801561226f57600080fd5b505afa158015612283573d6000803e3d6000fd5b505050506040513d6000823e601f3d908101601f191682016040526122ab9190810190614901565b905060008151116122ce5760405162461bcd60e51b81526004016107ce90614a24565b505b50505b6040516323b872dd60e01b81526001600160a01b038516906323b872dd9061230390339030908890600401614785565b600060405180830381600087803b15801561231d57600080fd5b505af1158015612331573d6000803e3d6000fd5b5050505061233e846137cf565b6123b160356001016000866001600160a01b03166001600160a01b03168152602001908152602001600020600401846040518060c00160405280336001600160a01b03168152602001878152602001868152602001336001600160a01b0316815260200185815260200142815250613b05565b505060016003555050565b600260035414156123df5760405162461bcd60e51b81526004016107ce90614880565b60026003556001600160a01b03821660009081526038602052604090205460ff1661241c5760405162461bcd60e51b81526004016107ce90614697565b6001600160a01b038216600090815260366020908152604080832084845260070190915290205460ff166124625760405162461bcd60e51b81526004016107ce906146e3565b6001600160a01b0380831660009081526036602090815260408083208584526005908101835292819020815160c08101835281548616815260018201549381019390935260028101549183019190915260038101549093166060820181905260048401546080830152929091015460a0820152903314806124f257503360009081526002602052604090205460ff165b61253e5760405162461bcd60e51b815260206004820152601f60248201527f537072696e674d61726b6574506c6163653a20556e617574686f72697a65640060448201526064016107ce565b80608001514210156125a65760405162461bcd60e51b815260206004820152602b60248201527f537072696e674d61726b6574506c6163653a2041756374696f6e206e6f74206660448201526a1a5b9a5cda1959081e595d60aa1b60648201526084016107ce565b80606001516001600160a01b031681600001516001600160a01b031614612724576000612710603f5483604001516125de9190614727565b6125e89190614746565b603d54835160408501519293506001600160a01b039091169163a9059cbb919061261390859061460d565b6040516001600160e01b031960e085901b1681526001600160a01b0390921660048301526024820152604401602060405180830381600087803b15801561265957600080fd5b505af115801561266d573d6000803e3d6000fd5b505050506040513d601f19601f820116820180604052508101906126919190614768565b50801561272257603d54603e5460405163a9059cbb60e01b81526001600160a01b0391821660048201526024810184905291169063a9059cbb90604401602060405180830381600087803b1580156126e857600080fd5b505af11580156126fc573d6000803e3d6000fd5b505050506040513d601f19601f820116820180604052508101906127209190614768565b505b505b60608101516040516323b872dd60e01b81526001600160a01b038516916323b872dd916127579130918790600401614785565b600060405180830381600087803b15801561277157600080fd5b505af1158015612785573d6000803e3d6000fd5b5050506001600160a01b03841660009081526036602052604090206117d29150600401836130ed565b3360009081526002602052604090205460ff166127dd5760405162461bcd60e51b81526004016107ce90614655565b6001600160a01b03919091166000908152604260205260409020805460ff1916911515919091179055565b3360009081526002602052604090205460ff166128375760405162461bcd60e51b81526004016107ce90614655565b604391909155604455565b600061284e6001613c3d565b90508015612866576000805461ff0019166101001790555b6128738686868686613cca565b80156128b9576000805461ff0019169055604051600181527f7f26b83ff96e1f2b6a682f133852f6798a09c465da95921460cefb38474024989060200160405180910390a15b505050505050565b600260035414156128e45760405162461bcd60e51b81526004016107ce90614880565b60026003556001600160a01b03821660009081526038602052604090205460ff166129215760405162461bcd60e51b81526004016107ce90614697565b6001600160a01b038216600090815260366020908152604080832084845260030190915290205460ff166129675760405162461bcd60e51b81526004016107ce906146e3565b6001600160a01b03808316600090815260366020908152604080832085845260019081018352928190208151608081018352815490951680865293810154928501929092526002820154908401526003015460608301523314156129dd5760405162461bcd60e51b81526004016107ce90614aa9565b6000612710603f5483604001516129f49190614727565b6129fe9190614746565b603d54835160408501519293506001600160a01b03909116916323b872dd913391612a2a90869061460d565b6040518463ffffffff1660e01b8152600401612a4893929190614785565b602060405180830381600087803b158015612a6257600080fd5b505af1158015612a76573d6000803e3d6000fd5b505050506040513d601f19601f82011682018060405250810190612a9a9190614768565b508015612b2e57603d54603e546040516323b872dd60e01b81526001600160a01b03928316926323b872dd92612ada923392909116908690600401614785565b602060405180830381600087803b158015612af457600080fd5b505af1158015612b08573d6000803e3d6000fd5b505050506040513d601f19601f82011682018060405250810190612b2c9190614768565b505b6040516323b872dd60e01b81526001600160a01b038516906323b872dd90612b5e90309033908890600401614785565b600060405180830381600087803b158015612b7857600080fd5b505af1158015612b8c573d6000803e3d6000fd5b5050506001600160a01b0385166000908152603660205260409020612bb29150846133bb565b6123b184613217565b60606039600001805480602002602001604051908101604052809291908181526020018280548015610ae3576020028201919060005260206000209081546001600160a01b03168152600190910190602001808311610ac5575050505050905090565b60026003541415612c415760405162461bcd60e51b81526004016107ce90614880565b60026003556001600160a01b03831660009081526038602052604090205460ff16612c7e5760405162461bcd60e51b81526004016107ce90614697565b6001600160a01b038316600090815260366020908152604080832085845260070190915290205460ff16612cc45760405162461bcd60e51b81526004016107ce906146e3565b6001600160a01b0380841660009081526036602090815260408083208684526005908101835292819020815160c081018352815486168082526001830154948201949094526002820154928101929092526003810154909416606082015260048401546080820152929091015460a0830152331415612d555760405162461bcd60e51b81526004016107ce90614aa9565b80608001514210612dbc5760405162461bcd60e51b815260206004820152602b60248201527f537072696e674d61726b6574506c6163653a2041756374696f6e20616c72656160448201526a191e48199a5b9a5cda195960aa1b60648201526084016107ce565b80604001518211612e355760405162461bcd60e51b815260206004820152603c60248201527f537072696e674d61726b6574506c6163653a204e6577207072696365206d757360448201527f7420626520626967676572207468616e2063757272656e74206f6e650000000060648201526084016107ce565b80606001516001600160a01b031681600001516001600160a01b031614612ee857603d546060820151604080840151905163a9059cbb60e01b81526001600160a01b039283166004820152602481019190915291169063a9059cbb90604401602060405180830381600087803b158015612eae57600080fd5b505af1158015612ec2573d6000803e3d6000fd5b505050506040513d601f19601f82011682018060405250810190612ee69190614768565b505b603d546040516323b872dd60e01b81526001600160a01b03909116906323b872dd90612f1c90339030908790600401614785565b602060405180830381600087803b158015612f3657600080fd5b505af1158015612f4a573d6000803e3d6000fd5b505050506040513d601f19601f82011682018060405250810190612f6e9190614768565b5060808101516043548190612f839042614af7565b1115612f9957604454612f969042614af7565b90505b61301860356001016000876001600160a01b03166001600160a01b03168152602001908152602001600020600401856040518060c0016040528086600001516001600160a01b0316815260200186602001518152602001878152602001336001600160a01b031681526020018581526020018660a00151815250613b05565b50506001600355505050565b60606000613032848461460d565b6001600160401b03811115613049576130496142b6565b604051908082528060200260200182016040528015613072578160200160208202803683370190505b509050835b8381101561079757603580548290811061309357613093614624565b6000918252602090912001546001600160a01b0316826130b3878461460d565b815181106130c3576130c3614624565b6001600160a01b0390921660209283029190910190910152806130e58161463a565b915050613077565b600081815260038301602052604090205460ff16613109575050565b6000818152600380840160209081526040808420805460ff191690556001808701835281852080546001600160a01b0319908116825581830187905560028083018890559582018054909116905560048101869055600501859055928601909152822054845490929161317b9161460d565b9050600084600001828154811061319457613194614624565b600091825260208083209091015480835260028801909152604080832086905586835282209190915590508183146131e957808560000184815481106131dc576131dc614624565b6000918252602090912001555b84548590806131fa576131fa614681565b600190038181906000526020600020016000905590555050505050565b6001600160a01b03811660009081526038602052604090205460ff1661323a5750565b6001600160a01b0381166000908152603660205260409020805460049091015481158015613266575080155b15610e05576001600160a01b0383166000908152603860209081526040808320805460ff19169055603690915281209081816132a28282613e21565b50506004820160006132b48282613e21565b5050506001600160a01b0384166000908152603760205260408120546035549092506132e29060019061460d565b90506000603560000182815481106132fc576132fc614624565b60009182526020808320909101546001600160a01b03908116808452603790925260408084208790559089168352822091909155905081831461337f57806035600001848154811061335057613350614624565b9060005260206000200160006101000a8154816001600160a01b0302191690836001600160a01b031602179055505b603580548061339057613390614681565b600082815260209020810160001990810180546001600160a01b031916905501905550505050505b50565b600081815260038301602052604090205460ff166133d7575050565b6000818152600380840160209081526040808420805460ff191690556001808701835281852080546001600160a01b031916815580820186905560028082018790559401859055928601909152822054845490929161317b9161460d565b81600301816040516134479190614977565b9081526040519081900360200190205460ff16613462575050565b81600301816040516134749190614977565b908152604051908190036020018120805460ff19169055600183019061349b908390614977565b908152604051908190036020018120600080825560019091018190559060028401906134c8908490614977565b9081526040519081900360200190205483549091506000906134ec9060019061460d565b9050600084600001828154811061350557613505614624565b90600052602060002001805461351a906147a9565b80601f0160208091040260200160405190810160405280929190818152602001828054613546906147a9565b80156135935780601f1061356857610100808354040283529160200191613593565b820191906000526020600020905b81548152906001019060200180831161357657829003601f168201915b505050505090508285600201826040516135ad9190614977565b90815260200160405180910390208190555084600201846040516135d19190614977565b90815260200160405180910390206000905582821461361f578085600001848154811061360057613600614624565b90600052602060002001908051906020019061361d929190613e3f565b505b845485908061363057613630614681565b60019003818190600052602060002001600061364c9190613ec3565b90555050505050565b6001600160a01b0381166000908152603c602052604090205460ff166136785750565b6001600160a01b0381166000908152603a6020526040902054806112e0576001600160a01b0382166000908152603c60209081526040808320805460ff19169055603a9091528120906136cb8282613efd565b50506001600160a01b0382166000908152603b60205260408120546039549091906136f89060019061460d565b905060006039600001828154811061371257613712614624565b60009182526020808320909101546001600160a01b03908116808452603b90925260408084208790559088168352822091909155905081831461379557806039600001848154811061376657613766614624565b9060005260206000200160006101000a8154816001600160a01b0302191690836001600160a01b031602179055505b60398054806137a6576137a6614681565b600082815260209020810160001990810180546001600160a01b03191690550190555050505050565b6001600160a01b03811660009081526038602052604090205460ff16156137f35750565b6001600160a01b03166000818152603860209081526040808320805460ff19166001908117909155603580546037909452918420839055820181559091527fcfa4bec1d3298408bb5afcfcd9c430549c5b31f8aa5c5848151c0a55f473c34d0180546001600160a01b0319169091179055565b600082815260038401602052604090205460ff16156138d057600091825260019283016020908152604092839020825181546001600160a01b0319166001600160a01b03909116178155908201519381019390935590810151600283015560600151600390910155565b60008281526003848101602090815260408084208054600160ff1990911681179091558088018352818520865181546001600160a01b0319166001600160a01b0390911617815586840151818301558683015160028083019190915560609097015194019390935586549487018252832084905590830185559381529290922090910155565b6001600160a01b0381166000908152603c602052604090205460ff161561397a5750565b6001600160a01b03166000818152603c60209081526040808320805460ff1916600190811790915560398054603b909452918420839055820181559091527fdc16fef70f8d5ddbc01ee3d903d1e69c18a3c7be080eb86a81e0578814ee58d30180546001600160a01b0319169091179055565b82600301826040516139ff9190614977565b9081526040519081900360200190205460ff1615613a4c57808360010183604051613a2a9190614977565b9081526040516020918190038201902082518155910151600190910155505050565b60018360030183604051613a609190614977565b908152604051908190036020018120805492151560ff199093169290921790915581906001850190613a93908590614977565b9081526040519081900360209081018220835181559201516001909201919091558354906002850190613ac7908590614977565b9081526040516020918190038201902091909155835460018101855560008581528290208451613aff93919092019190850190613e3f565b50505050565b600082815260038401602052604090205460ff1615613b9357600082815260018085016020908152604092839020845181546001600160a01b039182166001600160a01b0319918216178355928601519382019390935592840151600284015560608401516003840180549190931691161790556080820151600482015560a0820151600590910155505050565b6000828152600380850160209081526040808420805460ff191660019081179091558781018352818520865181546001600160a01b039182166001600160a01b031991821617835588860151838501558885015160028085019190915560608a0151978401805498909316979091169690961790556080870151600482015560a0870151600590910155875493880183529084208390558201865585835290912001829055505050565b60008054610100900460ff1615613c84578160ff166001148015613c605750303b155b613c7c5760405162461bcd60e51b81526004016107ce90614b0f565b506000919050565b60005460ff808416911610613cab5760405162461bcd60e51b81526004016107ce90614b0f565b506000805460ff191660ff92909216919091179055600190565b919050565b600054610100900460ff16613cf15760405162461bcd60e51b81526004016107ce90614b5d565b613cf9613d0e565b613d01613d8e565b611f7f8585858585613dbc565b600054610100900460ff16613d355760405162461bcd60e51b81526004016107ce90614b5d565b6001805480820182557fb10e2d527612073b26eecdfd717e6a320cf44b4afac2b0732d9fcbe2b7fa0cf60180546001600160a01b031916339081179091556000908152600260205260409020805460ff19169091179055565b600054610100900460ff16613db55760405162461bcd60e51b81526004016107ce90614b5d565b6001600355565b600054610100900460ff16613de35760405162461bcd60e51b81526004016107ce90614b5d565b603d80546001600160a01b039687166001600160a01b031991821617909155603e805495909616941693909317909355603f55604391909155604455565b50805460008255906000526020600020908101906133b89190613f1b565b828054613e4b906147a9565b90600052602060002090601f016020900481019282613e6d5760008555613eb3565b82601f10613e8657805160ff1916838001178555613eb3565b82800160010185558215613eb3579182015b82811115613eb3578251825591602001919060010190613e98565b50613ebf929150613f1b565b5090565b508054613ecf906147a9565b6000825580601f10613edf575050565b601f0160209004906000526020600020908101906133b89190613f1b565b50805460008255906000526020600020908101906133b89190613f30565b5b80821115613ebf5760008155600101613f1c565b80821115613ebf576000613f448282613ec3565b50600101613f30565b600060208284031215613f5f57600080fd5b5035919050565b60008060408385031215613f7957600080fd5b50508035926020909101359150565b6020808252825182820181905260009190848201906040850190845b81811015613fc95783516001600160a01b031683529284019291840191600101613fa4565b50909695505050505050565b80356001600160a01b0381168114613cc557600080fd5b80151581146133b857600080fd5b6000806040838503121561400d57600080fd5b61401683613fd5565b9150602083013561402681613fec565b809150509250929050565b60006020828403121561404357600080fd5b61404c82613fd5565b9392505050565b6000806040838503121561406657600080fd5b61406f83613fd5565b946020939093013593505050565b60008060006060848603121561409257600080fd5b61409b84613fd5565b95602085013595506040909401359392505050565b602080825282518282018190526000919060409081850190868401855b8281101561412957815180516001600160a01b03908116865287820151888701528682015187870152606080830151909116908601526080808201519086015260a0908101519085015260c090930192908501906001016140cd565b5091979650505050505050565b602080825282518282018190526000919060409081850190868401855b8281101561412957815180516001600160a01b03168552868101518786015285810151868601526060908101519085015260809093019290850190600101614153565b602080825282518282018190526000919060409081850190868401855b82811015614129578151805185528601518685015292840192908501906001016141b3565b60005b838110156141f35781810151838201526020016141db565b83811115613aff5750506000910152565b6000602080830181845280855180835260408601915060408160051b870101925083870160005b8281101561427157878503603f1901845281518051808752614252818989018a85016141d8565b601f01601f19169590950186019450928501929085019060010161422b565b5092979650505050505050565b6020808252825182820181905260009190848201906040850190845b81811015613fc95783518352928401929184019160010161429a565b634e487b7160e01b600052604160045260246000fd5b604051601f8201601f191681016001600160401b03811182821017156142f4576142f46142b6565b604052919050565b60006001600160401b03821115614315576143156142b6565b5060051b60200190565b60006001600160401b03821115614338576143386142b6565b50601f01601f191660200190565b600082601f83011261435757600080fd5b8135602061436c614367836142fc565b6142cc565b82815260059290921b8401810191818101908684111561438b57600080fd5b8286015b848110156144095780356001600160401b038111156143ae5760008081fd5b8701603f810189136143c05760008081fd5b8481013560406143d26143678361431f565b8281528b828486010111156143e75760008081fd5b828285018983013760009281018801929092525084525091830191830161438f565b509695505050505050565b6000806040838503121561442757600080fd5b61443083613fd5565b915060208301356001600160401b0381111561444b57600080fd5b61445785828601614346565b9150509250929050565b600082601f83011261447257600080fd5b81356020614482614367836142fc565b82815260059290921b840181019181810190868411156144a157600080fd5b8286015b8481101561440957803583529183019183016144a5565b600080600080608085870312156144d257600080fd5b6144db85613fd5565b935060208501356001600160401b03808211156144f757600080fd5b61450388838901614346565b9450604087013591508082111561451957600080fd5b61452588838901614461565b9350606087013591508082111561453b57600080fd5b5061454887828801614461565b91505092959194509250565b60006020828403121561456657600080fd5b813561404c81613fec565b6000806000806080858703121561458757600080fd5b61459085613fd5565b966020860135965060408601359560600135945092505050565b600080600080600060a086880312156145c257600080fd5b6145cb86613fd5565b94506145d960208701613fd5565b94979496505050506040830135926060810135926080909101359150565b634e487b7160e01b600052601160045260246000fd5b60008282101561461f5761461f6145f7565b500390565b634e487b7160e01b600052603260045260246000fd5b600060001982141561464e5761464e6145f7565b5060010190565b60208082526012908201527127bbb732b9399d1027b7363c9027bbb732b960711b604082015260600190565b634e487b7160e01b600052603160045260246000fd5b6020808252602c908201527f537072696e674d61726b6574506c6163653a204e667420636f6e74726163742060408201526b06973206e6f742073657475760a41b606082015260800190565b60208082526024908201527f537072696e674d61726b6574506c6163653a204974656d20646f65736e7420656040820152631e1a5cdd60e21b606082015260800190565b6000816000190483118215151615614741576147416145f7565b500290565b60008261476357634e487b7160e01b600052601260045260246000fd5b500490565b60006020828403121561477a57600080fd5b815161404c81613fec565b6001600160a01b039384168152919092166020820152604081019190915260600190565b600181811c908216806147bd57607f821691505b602082108114156147de57634e487b7160e01b600052602260045260246000fd5b50919050565b600080835481600182811c91508083168061480057607f831692505b602080841082141561482057634e487b7160e01b86526022600452602486fd5b818015614834576001811461484557614872565b60ff19861689528489019650614872565b60008a81526020902060005b8681101561486a5781548b820152908501908301614851565b505084890196505b509498975050505050505050565b6020808252601f908201527f5265656e7472616e637947756172643a207265656e7472616e742063616c6c00604082015260600190565b6020808252602a908201527f537072696e674d61726b6574506c6163653a204e6f7420617574686f72697a65604082015269190818dbdb9d1c9858dd60b21b606082015260800190565b60006020828403121561491357600080fd5b81516001600160401b0381111561492957600080fd5b8201601f8101841361493a57600080fd5b80516149486143678261431f565b81815285602083850101111561495d57600080fd5b61496e8260208301602086016141d8565b95945050505050565b600082516149898184602087016141d8565b9190910192915050565b60208082526024908201527f537072696e674d61726b6574506c6163653a20436f6e7461637420636f7265206040820152637465616d60e01b606082015260800190565b6020808252602d908201527f537072696e674d61726b6574506c6163653a205072696365206c6f776572207460408201526c68616e206d696e20707269636560981b606082015260800190565b60208082526023908201527f537072696e674d61726b6574506c6163653a204f6e6c79207370656369616c2060408201526213999d60ea1b606082015260800190565b60208082526022908201527f537072696e674d61726b6574506c6163653a204c656e677468206d69736d61746040820152610c6d60f31b606082015260800190565b6020808252602e908201527f537072696e674d61726b6574506c6163653a20596f752063616e6e6f7420627560408201526d1e481e5bdd5c881bdddb881b999d60921b606082015260800190565b60008219821115614b0a57614b0a6145f7565b500190565b6020808252602e908201527f496e697469616c697a61626c653a20636f6e747261637420697320616c72656160408201526d191e481a5b9a5d1a585b1a5e995960921b606082015260800190565b6020808252602b908201527f496e697469616c697a61626c653a20636f6e7472616374206973206e6f74206960408201526a6e697469616c697a696e6760a81b60608201526080019056fea2646970667358221220230ec867e9a7d6fca47d5b867173718b6c77f73f223634b4e01b6693db849e7964736f6c63430008090033",
  "linkReferences": {},
  "deployedLinkReferences": {}
}