{
  "_format": "hh-sol-artifact-1",
  "contractName": "EmergencyMode",
  "sourceName": "contracts/EmergencyMode.sol",
  "abi": [
    {
      "inputs": [
        {
          "internalType": "address",
          "name": "_new",
          "type": "address"
        },
        {
          "internalType": "bool",
          "name": "_change",
          "type": "bool"
        }
      ],
      "name": "addOwner",
      "outputs": [],
      "stateMutability": "nonpayable",
      "type": "function"
    },
    {
      "inputs": [],
      "name": "getOwnersSize",
      "outputs": [
        {
          "internalType": "uint256",
          "name": "",
          "type": "uint256"
        }
      ],
      "stateMutability": "view",
      "type": "function"
    },
    {
      "inputs": [],
      "name": "isEmergencyMode",
      "outputs": [
        {
          "internalType": "bool",
          "name": "",
          "type": "bool"
        }
      ],
      "stateMutability": "view",
      "type": "function"
    },
    {
      "inputs": [
        {
          "internalType": "address",
          "name": "",
          "type": "address"
        }
      ],
      "name": "isOwner",
      "outputs": [
        {
          "internalType": "bool",
          "name": "",
          "type": "bool"
        }
      ],
      "stateMutability": "view",
      "type": "function"
    },
    {
      "inputs": [
        {
          "internalType": "uint256",
          "name": "",
          "type": "uint256"
        }
      ],
      "name": "owners",
      "outputs": [
        {
          "internalType": "address",
          "name": "",
          "type": "address"
        }
      ],
      "stateMutability": "view",
      "type": "function"
    },
    {
      "inputs": [
        {
          "internalType": "address",
          "name": "_new",
          "type": "address"
        }
      ],
      "name": "removeOwner",
      "outputs": [],
      "stateMutability": "nonpayable",
      "type": "function"
    },
    {
      "inputs": [
        {
          "internalType": "bool",
          "name": "_emergency",
          "type": "bool"
        }
      ],
      "name": "setEmergencyMode",
      "outputs": [],
      "stateMutability": "nonpayable",
      "type": "function"
    }
  ],
  "bytecode": "0x60806040526002805460ff1916905534801561001a57600080fd5b5060008054600181810183557f290decd9548b62a8d60345a988386fc84ba6bc95484008f6362f93160ef3e56390910180546001600160a01b03191633908117909155825260208190526040909120805460ff1916909117905561079b806100836000396000f3fe608060405234801561001057600080fd5b506004361061007d5760003560e01c806320a194b81161005b57806320a194b8146100d85780632f54bf6e146100f5578063518e32d314610118578063be32b3f81461012b57600080fd5b8063025e7c27146100825780630c7b1d7b146100b2578063173825d9146100c3575b600080fd5b61009561009036600461063c565b61013e565b6040516001600160a01b0390911681526020015b60405180910390f35b6000546040519081526020016100a9565b6100d66100d1366004610671565b610168565b005b6002546100e59060ff1681565b60405190151581526020016100a9565b6100e5610103366004610671565b60016020526000908152604090205460ff1681565b6100d66101263660046106a3565b6103e9565b6100d66101393660046106d6565b6105d5565b6000818154811061014e57600080fd5b6000918252602090912001546001600160a01b0316905081565b336001600160a01b031660008081548110610185576101856106f1565b6000918252602090912001546001600160a01b0316146101e75760405162461bcd60e51b815260206004820152601860248201527727bbb732b9399d1027b7363c9029bab832b91027bbb732b960411b60448201526064015b60405180910390fd5b6001600160a01b03811660009081526001602052604090205460ff166102435760405162461bcd60e51b815260206004820152601160248201527027bbb732b9399d102737ba1037bbb732b960791b60448201526064016101de565b60008081548110610256576102566106f1565b6000918252602090912001546001600160a01b03828116911614156102c75760405162461bcd60e51b815260206004820152602160248201527f4f776e6572733a2043616e6e6f742072656d6f7665207375706572206f776e656044820152603960f91b60648201526084016101de565b60015b6000548110156103c757816001600160a01b0316600082815481106102f1576102f16106f1565b6000918252602090912001546001600160a01b031614156103b5576000805461031c9060019061071d565b8154811061032c5761032c6106f1565b600091825260208220015481546001600160a01b03909116919083908110610356576103566106f1565b6000918252602082200180546001600160a01b0319166001600160a01b03939093169290921790915580548061038e5761038e610734565b600082815260209020810160001990810180546001600160a01b03191690550190556103c7565b806103bf8161074a565b9150506102ca565b506001600160a01b03166000908152600160205260409020805460ff19169055565b336001600160a01b031660008081548110610406576104066106f1565b6000918252602090912001546001600160a01b0316146104635760405162461bcd60e51b815260206004820152601860248201527727bbb732b9399d1027b7363c9029bab832b91027bbb732b960411b60448201526064016101de565b6001600160a01b03821660009081526001602052604090205460ff16156104c45760405162461bcd60e51b815260206004820152601560248201527427bbb732b9399d1020b63932b0b23c9037bbb732b960591b60448201526064016101de565b6001600160a01b0382166000908152600160208190526040909120805460ff19169091179055801561058757600080600081548110610505576105056106f1565b6000918252602080832090910154835460018101855593835290822090920180546001600160a01b0319166001600160a01b039093169290921790915580548391908190610555576105556106f1565b9060005260206000200160006101000a8154816001600160a01b0302191690836001600160a01b031602179055505050565b600080546001810182559080527f290decd9548b62a8d60345a988386fc84ba6bc95484008f6362f93160ef3e5630180546001600160a01b0384166001600160a01b03199091161790555050565b3360009081526001602052604090205460ff166106295760405162461bcd60e51b815260206004820152601260248201527127bbb732b9399d1027b7363c9027bbb732b960711b60448201526064016101de565b6002805460ff1916911515919091179055565b60006020828403121561064e57600080fd5b5035919050565b80356001600160a01b038116811461066c57600080fd5b919050565b60006020828403121561068357600080fd5b61068c82610655565b9392505050565b8035801515811461066c57600080fd5b600080604083850312156106b657600080fd5b6106bf83610655565b91506106cd60208401610693565b90509250929050565b6000602082840312156106e857600080fd5b61068c82610693565b634e487b7160e01b600052603260045260246000fd5b634e487b7160e01b600052601160045260246000fd5b60008282101561072f5761072f610707565b500390565b634e487b7160e01b600052603160045260246000fd5b600060001982141561075e5761075e610707565b506001019056fea2646970667358221220313e49c29bfb1dd0a0dd2a946929f988fd61941fc414f5008e22a2edfd60766064736f6c63430008090033",
  "linkReferences": {},
  "deployedLinkReferences": {}
}