{
  "contracts/Old.sol": {
    "Old": {
      "abi": [
        {
          "inputs": [
            {
              "internalType": "address",
              "name": "_mm",
              "type": "address"
            }
          ],
          "stateMutability": "nonpayable",
          "type": "constructor"
        },
        {
          "inputs": [
            {
              "internalType": "string",
              "name": "name",
              "type": "string"
            },
            {
              "internalType": "address",
              "name": "owner",
              "type": "address"
            }
          ],
          "name": "getNodeTypeLevelUp",
          "outputs": [
            {
              "internalType": "uint256",
              "name": "",
              "type": "uint256"
            }
          ],
          "stateMutability": "view",
          "type": "function"
        },
        {
          "inputs": [
            {
              "internalType": "string",
              "name": "name",
              "type": "string"
            },
            {
              "internalType": "address",
              "name": "owner",
              "type": "address"
            }
          ],
          "name": "getNodeTypeOwnerCreatedPending",
          "outputs": [
            {
              "internalType": "uint256",
              "name": "",
              "type": "uint256"
            }
          ],
          "stateMutability": "nonpayable",
          "type": "function"
        },
        {
          "inputs": [
            {
              "internalType": "string",
              "name": "name",
              "type": "string"
            },
            {
              "internalType": "address",
              "name": "owner",
              "type": "address"
            }
          ],
          "name": "getNodeTypeOwnerNumber",
          "outputs": [
            {
              "internalType": "uint256",
              "name": "",
              "type": "uint256"
            }
          ],
          "stateMutability": "view",
          "type": "function"
        },
        {
          "inputs": [
            {
              "internalType": "address",
              "name": "",
              "type": "address"
            },
            {
              "internalType": "string",
              "name": "",
              "type": "string"
            }
          ],
          "name": "isSetUp",
          "outputs": [
            {
              "internalType": "bool",
              "name": "",
              "type": "bool"
            }
          ],
          "stateMutability": "view",
          "type": "function"
        },
        {
          "inputs": [
            {
              "internalType": "address",
              "name": "",
              "type": "address"
            },
            {
              "internalType": "string",
              "name": "",
              "type": "string"
            }
          ],
          "name": "levelUp",
          "outputs": [
            {
              "internalType": "uint256",
              "name": "",
              "type": "uint256"
            }
          ],
          "stateMutability": "view",
          "type": "function"
        },
        {
          "inputs": [],
          "name": "mm",
          "outputs": [
            {
              "internalType": "address",
              "name": "",
              "type": "address"
            }
          ],
          "stateMutability": "view",
          "type": "function"
        },
        {
          "inputs": [
            {
              "internalType": "address",
              "name": "",
              "type": "address"
            },
            {
              "internalType": "string",
              "name": "",
              "type": "string"
            }
          ],
          "name": "number",
          "outputs": [
            {
              "internalType": "uint256",
              "name": "",
              "type": "uint256"
            }
          ],
          "stateMutability": "view",
          "type": "function"
        },
        {
          "inputs": [
            {
              "internalType": "address",
              "name": "",
              "type": "address"
            },
            {
              "internalType": "string",
              "name": "",
              "type": "string"
            }
          ],
          "name": "pending",
          "outputs": [
            {
              "internalType": "uint256",
              "name": "",
              "type": "uint256"
            }
          ],
          "stateMutability": "view",
          "type": "function"
        }
      ],
      "evm": {
        "bytecode": {
          "linkReferences": {},
          "object": "608060405234801561001057600080fd5b506040516109a63803806109a683398101604081905261002f9161019d565b600580546001600160a01b039283166001600160a01b031990911681178255600090815260046020818152604080842081516346756a6960e01b80825281860192909252825160249181900382018120805460ff19908116600190811790925589548b16895281875285892085845283890152855192839003840183206003908190558a548c168a526002808952878b20878652858b0152875194859003860185208490558b548d168b52818952878b20968552848a0196909652865193849003909401832082905589548b168952968652848820694d6f6e7420426c616e6360b01b808452600a808501929092528651602a94819003850181208054909a1684179099558a548c168a52918752858920828952888201528551978890038301882084905589548b16895284875285892082895288820152855197889003830188209490945597549098168652909252808420948352908201939093529151918290039092019020556101cd565b6000602082840312156101af57600080fd5b81516001600160a01b03811681146101c657600080fd5b9392505050565b6107ca806101dc6000396000f3fe608060405234801561001057600080fd5b50600436106100885760003560e01c80633d80733d1161005b5780633d80733d1461017a57806359fd58a61461018d578063d8a911d9146101c9578063e90eaa51146101dc57600080fd5b8063029ecf421461008d57806313bdbc4a146100dc5780631ff9e1951461012b578063368384731461013e575b600080fd5b6100c961009b36600461063b565b6002602090815260009283526040909220815180830184018051928152908401929093019190912091525481565b6040519081526020015b60405180910390f35b61011b6100ea36600461063b565b6004602090815260009283526040909220815180830184018051928152908401929093019190912091525460ff1681565b60405190151581526020016100d3565b6100c9610139366004610689565b610207565b6100c961014c36600461063b565b6001602090815260009283526040909220815180830184018051928152908401929093019190912091525481565b6100c9610188366004610689565b6103bd565b6100c961019b36600461063b565b6003602090815260009283526040909220815180830184018051928152908401929093019190912091525481565b6100c96101d7366004610689565b610460565b6005546101ef906001600160a01b031681565b6040516001600160a01b0390911681526020016100d3565b6001600160a01b038116600090815260046020526040808220905161022d9085906106d7565b9081526040519081900360200190205460ff1661037f57600061025383600160066104fe565b9050600061026c8482610267856001610728565b6104fe565b9050600061028a858261027f8587610740565b610267906001610728565b6001600160a01b0386166000908152600460205260409081902090519192506001916102b79089906106d7565b9081526040805160209281900383018120805460ff1916941515949094179093556001600160a01b03881660009081526001909252902084916102fb9089906106d7565b9081526040805160209281900383018120939093556001600160a01b03881660009081526002909252902083916103339089906106d7565b9081526040805160209281900383018120939093556001600160a01b038816600090815260039092529020829161036b9089906106d7565b908152604051908190036020019020555050505b6001600160a01b0382166000908152600260205260409081902090516103a69085906106d7565b908152602001604051809103902054905092915050565b6001600160a01b03811660009081526004602052604080822090516103e39085906106d7565b9081526040519081900360200190205460ff166104395760405162461bcd60e51b815260206004820152600f60248201526e04f6c643a204e6f742073657420757608c1b60448201526064015b60405180910390fd5b6001600160a01b0382166000908152600360205260409081902090516103a69085906106d7565b6001600160a01b03811660009081526004602052604080822090516104869085906106d7565b9081526040519081900360200190205460ff166104d75760405162461bcd60e51b815260206004820152600f60248201526e04f6c643a204e6f742073657420757608c1b6044820152606401610430565b6001600160a01b0382166000908152600160205260409081902090516103a69085906106d7565b60008054604080516020808201849052606088901b6bffffffffffffffffffffffff19168284015244605483015242607480840191909152835180840390910181526094909201909252805191012090828061055983610757565b9091555061056990508382610772565b6105739085610728565b95945050505050565b80356001600160a01b038116811461059357600080fd5b919050565b634e487b7160e01b600052604160045260246000fd5b600082601f8301126105bf57600080fd5b813567ffffffffffffffff808211156105da576105da610598565b604051601f8301601f19908116603f0116810190828211818310171561060257610602610598565b8160405283815286602085880101111561061b57600080fd5b836020870160208301376000602085830101528094505050505092915050565b6000806040838503121561064e57600080fd5b6106578361057c565b9150602083013567ffffffffffffffff81111561067357600080fd5b61067f858286016105ae565b9150509250929050565b6000806040838503121561069c57600080fd5b823567ffffffffffffffff8111156106b357600080fd5b6106bf858286016105ae565b9250506106ce6020840161057c565b90509250929050565b6000825160005b818110156106f857602081860181015185830152016106de565b81811115610707576000828501525b509190910192915050565b634e487b7160e01b600052601160045260246000fd5b6000821982111561073b5761073b610712565b500190565b60008282101561075257610752610712565b500390565b600060001982141561076b5761076b610712565b5060010190565b60008261078f57634e487b7160e01b600052601260045260246000fd5b50069056fea264697066735822122036a37927fdcb08fc3c2fe37f0677463939402123e21c7290fc7e447f3344c1f664736f6c63430008090033",
          "opcodes": "PUSH1 0x80 PUSH1 0x40 MSTORE CALLVALUE DUP1 ISZERO PUSH2 0x10 JUMPI PUSH1 0x0 DUP1 REVERT JUMPDEST POP PUSH1 0x40 MLOAD PUSH2 0x9A6 CODESIZE SUB DUP1 PUSH2 0x9A6 DUP4 CODECOPY DUP2 ADD PUSH1 0x40 DUP2 SWAP1 MSTORE PUSH2 0x2F SWAP2 PUSH2 0x19D JUMP JUMPDEST PUSH1 0x5 DUP1 SLOAD PUSH1 0x1 PUSH1 0x1 PUSH1 0xA0 SHL SUB SWAP3 DUP4 AND PUSH1 0x1 PUSH1 0x1 PUSH1 0xA0 SHL SUB NOT SWAP1 SWAP2 AND DUP2 OR DUP3 SSTORE PUSH1 0x0 SWAP1 DUP2 MSTORE PUSH1 0x4 PUSH1 0x20 DUP2 DUP2 MSTORE PUSH1 0x40 DUP1 DUP5 KECCAK256 DUP2 MLOAD PUSH4 0x46756A69 PUSH1 0xE0 SHL DUP1 DUP3 MSTORE DUP2 DUP7 ADD SWAP3 SWAP1 SWAP3 MSTORE DUP3 MLOAD PUSH1 0x24 SWAP2 DUP2 SWAP1 SUB DUP3 ADD DUP2 KECCAK256 DUP1 SLOAD PUSH1 0xFF NOT SWAP1 DUP2 AND PUSH1 0x1 SWAP1 DUP2 OR SWAP1 SWAP3 SSTORE DUP10 SLOAD DUP12 AND DUP10 MSTORE DUP2 DUP8 MSTORE DUP6 DUP10 KECCAK256 DUP6 DUP5 MSTORE DUP4 DUP10 ADD MSTORE DUP6 MLOAD SWAP3 DUP4 SWAP1 SUB DUP5 ADD DUP4 KECCAK256 PUSH1 0x3 SWAP1 DUP2 SWAP1 SSTORE DUP11 SLOAD DUP13 AND DUP11 MSTORE PUSH1 0x2 DUP1 DUP10 MSTORE DUP8 DUP12 KECCAK256 DUP8 DUP7 MSTORE DUP6 DUP12 ADD MSTORE DUP8 MLOAD SWAP5 DUP6 SWAP1 SUB DUP7 ADD DUP6 KECCAK256 DUP5 SWAP1 SSTORE DUP12 SLOAD DUP14 AND DUP12 MSTORE DUP2 DUP10 MSTORE DUP8 DUP12 KECCAK256 SWAP7 DUP6 MSTORE DUP5 DUP11 ADD SWAP7 SWAP1 SWAP7 MSTORE DUP7 MLOAD SWAP4 DUP5 SWAP1 SUB SWAP1 SWAP5 ADD DUP4 KECCAK256 DUP3 SWAP1 SSTORE DUP10 SLOAD DUP12 AND DUP10 MSTORE SWAP7 DUP7 MSTORE DUP5 DUP9 KECCAK256 PUSH10 0x4D6F6E7420426C616E63 PUSH1 0xB0 SHL DUP1 DUP5 MSTORE PUSH1 0xA DUP1 DUP6 ADD SWAP3 SWAP1 SWAP3 MSTORE DUP7 MLOAD PUSH1 0x2A SWAP5 DUP2 SWAP1 SUB DUP6 ADD DUP2 KECCAK256 DUP1 SLOAD SWAP1 SWAP11 AND DUP5 OR SWAP1 SWAP10 SSTORE DUP11 SLOAD DUP13 AND DUP11 MSTORE SWAP2 DUP8 MSTORE DUP6 DUP10 KECCAK256 DUP3 DUP10 MSTORE DUP9 DUP3 ADD MSTORE DUP6 MLOAD SWAP8 DUP9 SWAP1 SUB DUP4 ADD DUP9 KECCAK256 DUP5 SWAP1 SSTORE DUP10 SLOAD DUP12 AND DUP10 MSTORE DUP5 DUP8 MSTORE DUP6 DUP10 KECCAK256 DUP3 DUP10 MSTORE DUP9 DUP3 ADD MSTORE DUP6 MLOAD SWAP8 DUP9 SWAP1 SUB DUP4 ADD DUP9 KECCAK256 SWAP5 SWAP1 SWAP5 SSTORE SWAP8 SLOAD SWAP1 SWAP9 AND DUP7 MSTORE SWAP1 SWAP3 MSTORE DUP1 DUP5 KECCAK256 SWAP5 DUP4 MSTORE SWAP1 DUP3 ADD SWAP4 SWAP1 SWAP4 MSTORE SWAP2 MLOAD SWAP2 DUP3 SWAP1 SUB SWAP1 SWAP3 ADD SWAP1 KECCAK256 SSTORE PUSH2 0x1CD JUMP JUMPDEST PUSH1 0x0 PUSH1 0x20 DUP3 DUP5 SUB SLT ISZERO PUSH2 0x1AF JUMPI PUSH1 0x0 DUP1 REVERT JUMPDEST DUP2 MLOAD PUSH1 0x1 PUSH1 0x1 PUSH1 0xA0 SHL SUB DUP2 AND DUP2 EQ PUSH2 0x1C6 JUMPI PUSH1 0x0 DUP1 REVERT JUMPDEST SWAP4 SWAP3 POP POP POP JUMP JUMPDEST PUSH2 0x7CA DUP1 PUSH2 0x1DC PUSH1 0x0 CODECOPY PUSH1 0x0 RETURN INVALID PUSH1 0x80 PUSH1 0x40 MSTORE CALLVALUE DUP1 ISZERO PUSH2 0x10 JUMPI PUSH1 0x0 DUP1 REVERT JUMPDEST POP PUSH1 0x4 CALLDATASIZE LT PUSH2 0x88 JUMPI PUSH1 0x0 CALLDATALOAD PUSH1 0xE0 SHR DUP1 PUSH4 0x3D80733D GT PUSH2 0x5B JUMPI DUP1 PUSH4 0x3D80733D EQ PUSH2 0x17A JUMPI DUP1 PUSH4 0x59FD58A6 EQ PUSH2 0x18D JUMPI DUP1 PUSH4 0xD8A911D9 EQ PUSH2 0x1C9 JUMPI DUP1 PUSH4 0xE90EAA51 EQ PUSH2 0x1DC JUMPI PUSH1 0x0 DUP1 REVERT JUMPDEST DUP1 PUSH4 0x29ECF42 EQ PUSH2 0x8D JUMPI DUP1 PUSH4 0x13BDBC4A EQ PUSH2 0xDC JUMPI DUP1 PUSH4 0x1FF9E195 EQ PUSH2 0x12B JUMPI DUP1 PUSH4 0x36838473 EQ PUSH2 0x13E JUMPI JUMPDEST PUSH1 0x0 DUP1 REVERT JUMPDEST PUSH2 0xC9 PUSH2 0x9B CALLDATASIZE PUSH1 0x4 PUSH2 0x63B JUMP JUMPDEST PUSH1 0x2 PUSH1 0x20 SWAP1 DUP2 MSTORE PUSH1 0x0 SWAP3 DUP4 MSTORE PUSH1 0x40 SWAP1 SWAP3 KECCAK256 DUP2 MLOAD DUP1 DUP4 ADD DUP5 ADD DUP1 MLOAD SWAP3 DUP2 MSTORE SWAP1 DUP5 ADD SWAP3 SWAP1 SWAP4 ADD SWAP2 SWAP1 SWAP2 KECCAK256 SWAP2 MSTORE SLOAD DUP2 JUMP JUMPDEST PUSH1 0x40 MLOAD SWAP1 DUP2 MSTORE PUSH1 0x20 ADD JUMPDEST PUSH1 0x40 MLOAD DUP1 SWAP2 SUB SWAP1 RETURN JUMPDEST PUSH2 0x11B PUSH2 0xEA CALLDATASIZE PUSH1 0x4 PUSH2 0x63B JUMP JUMPDEST PUSH1 0x4 PUSH1 0x20 SWAP1 DUP2 MSTORE PUSH1 0x0 SWAP3 DUP4 MSTORE PUSH1 0x40 SWAP1 SWAP3 KECCAK256 DUP2 MLOAD DUP1 DUP4 ADD DUP5 ADD DUP1 MLOAD SWAP3 DUP2 MSTORE SWAP1 DUP5 ADD SWAP3 SWAP1 SWAP4 ADD SWAP2 SWAP1 SWAP2 KECCAK256 SWAP2 MSTORE SLOAD PUSH1 0xFF AND DUP2 JUMP JUMPDEST PUSH1 0x40 MLOAD SWAP1 ISZERO ISZERO DUP2 MSTORE PUSH1 0x20 ADD PUSH2 0xD3 JUMP JUMPDEST PUSH2 0xC9 PUSH2 0x139 CALLDATASIZE PUSH1 0x4 PUSH2 0x689 JUMP JUMPDEST PUSH2 0x207 JUMP JUMPDEST PUSH2 0xC9 PUSH2 0x14C CALLDATASIZE PUSH1 0x4 PUSH2 0x63B JUMP JUMPDEST PUSH1 0x1 PUSH1 0x20 SWAP1 DUP2 MSTORE PUSH1 0x0 SWAP3 DUP4 MSTORE PUSH1 0x40 SWAP1 SWAP3 KECCAK256 DUP2 MLOAD DUP1 DUP4 ADD DUP5 ADD DUP1 MLOAD SWAP3 DUP2 MSTORE SWAP1 DUP5 ADD SWAP3 SWAP1 SWAP4 ADD SWAP2 SWAP1 SWAP2 KECCAK256 SWAP2 MSTORE SLOAD DUP2 JUMP JUMPDEST PUSH2 0xC9 PUSH2 0x188 CALLDATASIZE PUSH1 0x4 PUSH2 0x689 JUMP JUMPDEST PUSH2 0x3BD JUMP JUMPDEST PUSH2 0xC9 PUSH2 0x19B CALLDATASIZE PUSH1 0x4 PUSH2 0x63B JUMP JUMPDEST PUSH1 0x3 PUSH1 0x20 SWAP1 DUP2 MSTORE PUSH1 0x0 SWAP3 DUP4 MSTORE PUSH1 0x40 SWAP1 SWAP3 KECCAK256 DUP2 MLOAD DUP1 DUP4 ADD DUP5 ADD DUP1 MLOAD SWAP3 DUP2 MSTORE SWAP1 DUP5 ADD SWAP3 SWAP1 SWAP4 ADD SWAP2 SWAP1 SWAP2 KECCAK256 SWAP2 MSTORE SLOAD DUP2 JUMP JUMPDEST PUSH2 0xC9 PUSH2 0x1D7 CALLDATASIZE PUSH1 0x4 PUSH2 0x689 JUMP JUMPDEST PUSH2 0x460 JUMP JUMPDEST PUSH1 0x5 SLOAD PUSH2 0x1EF SWAP1 PUSH1 0x1 PUSH1 0x1 PUSH1 0xA0 SHL SUB AND DUP2 JUMP JUMPDEST PUSH1 0x40 MLOAD PUSH1 0x1 PUSH1 0x1 PUSH1 0xA0 SHL SUB SWAP1 SWAP2 AND DUP2 MSTORE PUSH1 0x20 ADD PUSH2 0xD3 JUMP JUMPDEST PUSH1 0x1 PUSH1 0x1 PUSH1 0xA0 SHL SUB DUP2 AND PUSH1 0x0 SWAP1 DUP2 MSTORE PUSH1 0x4 PUSH1 0x20 MSTORE PUSH1 0x40 DUP1 DUP3 KECCAK256 SWAP1 MLOAD PUSH2 0x22D SWAP1 DUP6 SWAP1 PUSH2 0x6D7 JUMP JUMPDEST SWAP1 DUP2 MSTORE PUSH1 0x40 MLOAD SWAP1 DUP2 SWAP1 SUB PUSH1 0x20 ADD SWAP1 KECCAK256 SLOAD PUSH1 0xFF AND PUSH2 0x37F JUMPI PUSH1 0x0 PUSH2 0x253 DUP4 PUSH1 0x1 PUSH1 0x6 PUSH2 0x4FE JUMP JUMPDEST SWAP1 POP PUSH1 0x0 PUSH2 0x26C DUP5 DUP3 PUSH2 0x267 DUP6 PUSH1 0x1 PUSH2 0x728 JUMP JUMPDEST PUSH2 0x4FE JUMP JUMPDEST SWAP1 POP PUSH1 0x0 PUSH2 0x28A DUP6 DUP3 PUSH2 0x27F DUP6 DUP8 PUSH2 0x740 JUMP JUMPDEST PUSH2 0x267 SWAP1 PUSH1 0x1 PUSH2 0x728 JUMP JUMPDEST PUSH1 0x1 PUSH1 0x1 PUSH1 0xA0 SHL SUB DUP7 AND PUSH1 0x0 SWAP1 DUP2 MSTORE PUSH1 0x4 PUSH1 0x20 MSTORE PUSH1 0x40 SWAP1 DUP2 SWAP1 KECCAK256 SWAP1 MLOAD SWAP2 SWAP3 POP PUSH1 0x1 SWAP2 PUSH2 0x2B7 SWAP1 DUP10 SWAP1 PUSH2 0x6D7 JUMP JUMPDEST SWAP1 DUP2 MSTORE PUSH1 0x40 DUP1 MLOAD PUSH1 0x20 SWAP3 DUP2 SWAP1 SUB DUP4 ADD DUP2 KECCAK256 DUP1 SLOAD PUSH1 0xFF NOT AND SWAP5 ISZERO ISZERO SWAP5 SWAP1 SWAP5 OR SWAP1 SWAP4 SSTORE PUSH1 0x1 PUSH1 0x1 PUSH1 0xA0 SHL SUB DUP9 AND PUSH1 0x0 SWAP1 DUP2 MSTORE PUSH1 0x1 SWAP1 SWAP3 MSTORE SWAP1 KECCAK256 DUP5 SWAP2 PUSH2 0x2FB SWAP1 DUP10 SWAP1 PUSH2 0x6D7 JUMP JUMPDEST SWAP1 DUP2 MSTORE PUSH1 0x40 DUP1 MLOAD PUSH1 0x20 SWAP3 DUP2 SWAP1 SUB DUP4 ADD DUP2 KECCAK256 SWAP4 SWAP1 SWAP4 SSTORE PUSH1 0x1 PUSH1 0x1 PUSH1 0xA0 SHL SUB DUP9 AND PUSH1 0x0 SWAP1 DUP2 MSTORE PUSH1 0x2 SWAP1 SWAP3 MSTORE SWAP1 KECCAK256 DUP4 SWAP2 PUSH2 0x333 SWAP1 DUP10 SWAP1 PUSH2 0x6D7 JUMP JUMPDEST SWAP1 DUP2 MSTORE PUSH1 0x40 DUP1 MLOAD PUSH1 0x20 SWAP3 DUP2 SWAP1 SUB DUP4 ADD DUP2 KECCAK256 SWAP4 SWAP1 SWAP4 SSTORE PUSH1 0x1 PUSH1 0x1 PUSH1 0xA0 SHL SUB DUP9 AND PUSH1 0x0 SWAP1 DUP2 MSTORE PUSH1 0x3 SWAP1 SWAP3 MSTORE SWAP1 KECCAK256 DUP3 SWAP2 PUSH2 0x36B SWAP1 DUP10 SWAP1 PUSH2 0x6D7 JUMP JUMPDEST SWAP1 DUP2 MSTORE PUSH1 0x40 MLOAD SWAP1 DUP2 SWAP1 SUB PUSH1 0x20 ADD SWAP1 KECCAK256 SSTORE POP POP POP JUMPDEST PUSH1 0x1 PUSH1 0x1 PUSH1 0xA0 SHL SUB DUP3 AND PUSH1 0x0 SWAP1 DUP2 MSTORE PUSH1 0x2 PUSH1 0x20 MSTORE PUSH1 0x40 SWAP1 DUP2 SWAP1 KECCAK256 SWAP1 MLOAD PUSH2 0x3A6 SWAP1 DUP6 SWAP1 PUSH2 0x6D7 JUMP JUMPDEST SWAP1 DUP2 MSTORE PUSH1 0x20 ADD PUSH1 0x40 MLOAD DUP1 SWAP2 SUB SWAP1 KECCAK256 SLOAD SWAP1 POP SWAP3 SWAP2 POP POP JUMP JUMPDEST PUSH1 0x1 PUSH1 0x1 PUSH1 0xA0 SHL SUB DUP2 AND PUSH1 0x0 SWAP1 DUP2 MSTORE PUSH1 0x4 PUSH1 0x20 MSTORE PUSH1 0x40 DUP1 DUP3 KECCAK256 SWAP1 MLOAD PUSH2 0x3E3 SWAP1 DUP6 SWAP1 PUSH2 0x6D7 JUMP JUMPDEST SWAP1 DUP2 MSTORE PUSH1 0x40 MLOAD SWAP1 DUP2 SWAP1 SUB PUSH1 0x20 ADD SWAP1 KECCAK256 SLOAD PUSH1 0xFF AND PUSH2 0x439 JUMPI PUSH1 0x40 MLOAD PUSH3 0x461BCD PUSH1 0xE5 SHL DUP2 MSTORE PUSH1 0x20 PUSH1 0x4 DUP3 ADD MSTORE PUSH1 0xF PUSH1 0x24 DUP3 ADD MSTORE PUSH15 0x4F6C643A204E6F742073657420757 PUSH1 0x8C SHL PUSH1 0x44 DUP3 ADD MSTORE PUSH1 0x64 ADD JUMPDEST PUSH1 0x40 MLOAD DUP1 SWAP2 SUB SWAP1 REVERT JUMPDEST PUSH1 0x1 PUSH1 0x1 PUSH1 0xA0 SHL SUB DUP3 AND PUSH1 0x0 SWAP1 DUP2 MSTORE PUSH1 0x3 PUSH1 0x20 MSTORE PUSH1 0x40 SWAP1 DUP2 SWAP1 KECCAK256 SWAP1 MLOAD PUSH2 0x3A6 SWAP1 DUP6 SWAP1 PUSH2 0x6D7 JUMP JUMPDEST PUSH1 0x1 PUSH1 0x1 PUSH1 0xA0 SHL SUB DUP2 AND PUSH1 0x0 SWAP1 DUP2 MSTORE PUSH1 0x4 PUSH1 0x20 MSTORE PUSH1 0x40 DUP1 DUP3 KECCAK256 SWAP1 MLOAD PUSH2 0x486 SWAP1 DUP6 SWAP1 PUSH2 0x6D7 JUMP JUMPDEST SWAP1 DUP2 MSTORE PUSH1 0x40 MLOAD SWAP1 DUP2 SWAP1 SUB PUSH1 0x20 ADD SWAP1 KECCAK256 SLOAD PUSH1 0xFF AND PUSH2 0x4D7 JUMPI PUSH1 0x40 MLOAD PUSH3 0x461BCD PUSH1 0xE5 SHL DUP2 MSTORE PUSH1 0x20 PUSH1 0x4 DUP3 ADD MSTORE PUSH1 0xF PUSH1 0x24 DUP3 ADD MSTORE PUSH15 0x4F6C643A204E6F742073657420757 PUSH1 0x8C SHL PUSH1 0x44 DUP3 ADD MSTORE PUSH1 0x64 ADD PUSH2 0x430 JUMP JUMPDEST PUSH1 0x1 PUSH1 0x1 PUSH1 0xA0 SHL SUB DUP3 AND PUSH1 0x0 SWAP1 DUP2 MSTORE PUSH1 0x1 PUSH1 0x20 MSTORE PUSH1 0x40 SWAP1 DUP2 SWAP1 KECCAK256 SWAP1 MLOAD PUSH2 0x3A6 SWAP1 DUP6 SWAP1 PUSH2 0x6D7 JUMP JUMPDEST PUSH1 0x0 DUP1 SLOAD PUSH1 0x40 DUP1 MLOAD PUSH1 0x20 DUP1 DUP3 ADD DUP5 SWAP1 MSTORE PUSH1 0x60 DUP9 SWAP1 SHL PUSH12 0xFFFFFFFFFFFFFFFFFFFFFFFF NOT AND DUP3 DUP5 ADD MSTORE DIFFICULTY PUSH1 0x54 DUP4 ADD MSTORE TIMESTAMP PUSH1 0x74 DUP1 DUP5 ADD SWAP2 SWAP1 SWAP2 MSTORE DUP4 MLOAD DUP1 DUP5 SUB SWAP1 SWAP2 ADD DUP2 MSTORE PUSH1 0x94 SWAP1 SWAP3 ADD SWAP1 SWAP3 MSTORE DUP1 MLOAD SWAP2 ADD KECCAK256 SWAP1 DUP3 DUP1 PUSH2 0x559 DUP4 PUSH2 0x757 JUMP JUMPDEST SWAP1 SWAP2 SSTORE POP PUSH2 0x569 SWAP1 POP DUP4 DUP3 PUSH2 0x772 JUMP JUMPDEST PUSH2 0x573 SWAP1 DUP6 PUSH2 0x728 JUMP JUMPDEST SWAP6 SWAP5 POP POP POP POP POP JUMP JUMPDEST DUP1 CALLDATALOAD PUSH1 0x1 PUSH1 0x1 PUSH1 0xA0 SHL SUB DUP2 AND DUP2 EQ PUSH2 0x593 JUMPI PUSH1 0x0 DUP1 REVERT JUMPDEST SWAP2 SWAP1 POP JUMP JUMPDEST PUSH4 0x4E487B71 PUSH1 0xE0 SHL PUSH1 0x0 MSTORE PUSH1 0x41 PUSH1 0x4 MSTORE PUSH1 0x24 PUSH1 0x0 REVERT JUMPDEST PUSH1 0x0 DUP3 PUSH1 0x1F DUP4 ADD SLT PUSH2 0x5BF JUMPI PUSH1 0x0 DUP1 REVERT JUMPDEST DUP2 CALLDATALOAD PUSH8 0xFFFFFFFFFFFFFFFF DUP1 DUP3 GT ISZERO PUSH2 0x5DA JUMPI PUSH2 0x5DA PUSH2 0x598 JUMP JUMPDEST PUSH1 0x40 MLOAD PUSH1 0x1F DUP4 ADD PUSH1 0x1F NOT SWAP1 DUP2 AND PUSH1 0x3F ADD AND DUP2 ADD SWAP1 DUP3 DUP3 GT DUP2 DUP4 LT OR ISZERO PUSH2 0x602 JUMPI PUSH2 0x602 PUSH2 0x598 JUMP JUMPDEST DUP2 PUSH1 0x40 MSTORE DUP4 DUP2 MSTORE DUP7 PUSH1 0x20 DUP6 DUP9 ADD ADD GT ISZERO PUSH2 0x61B JUMPI PUSH1 0x0 DUP1 REVERT JUMPDEST DUP4 PUSH1 0x20 DUP8 ADD PUSH1 0x20 DUP4 ADD CALLDATACOPY PUSH1 0x0 PUSH1 0x20 DUP6 DUP4 ADD ADD MSTORE DUP1 SWAP5 POP POP POP POP POP SWAP3 SWAP2 POP POP JUMP JUMPDEST PUSH1 0x0 DUP1 PUSH1 0x40 DUP4 DUP6 SUB SLT ISZERO PUSH2 0x64E JUMPI PUSH1 0x0 DUP1 REVERT JUMPDEST PUSH2 0x657 DUP4 PUSH2 0x57C JUMP JUMPDEST SWAP2 POP PUSH1 0x20 DUP4 ADD CALLDATALOAD PUSH8 0xFFFFFFFFFFFFFFFF DUP2 GT ISZERO PUSH2 0x673 JUMPI PUSH1 0x0 DUP1 REVERT JUMPDEST PUSH2 0x67F DUP6 DUP3 DUP7 ADD PUSH2 0x5AE JUMP JUMPDEST SWAP2 POP POP SWAP3 POP SWAP3 SWAP1 POP JUMP JUMPDEST PUSH1 0x0 DUP1 PUSH1 0x40 DUP4 DUP6 SUB SLT ISZERO PUSH2 0x69C JUMPI PUSH1 0x0 DUP1 REVERT JUMPDEST DUP3 CALLDATALOAD PUSH8 0xFFFFFFFFFFFFFFFF DUP2 GT ISZERO PUSH2 0x6B3 JUMPI PUSH1 0x0 DUP1 REVERT JUMPDEST PUSH2 0x6BF DUP6 DUP3 DUP7 ADD PUSH2 0x5AE JUMP JUMPDEST SWAP3 POP POP PUSH2 0x6CE PUSH1 0x20 DUP5 ADD PUSH2 0x57C JUMP JUMPDEST SWAP1 POP SWAP3 POP SWAP3 SWAP1 POP JUMP JUMPDEST PUSH1 0x0 DUP3 MLOAD PUSH1 0x0 JUMPDEST DUP2 DUP2 LT ISZERO PUSH2 0x6F8 JUMPI PUSH1 0x20 DUP2 DUP7 ADD DUP2 ADD MLOAD DUP6 DUP4 ADD MSTORE ADD PUSH2 0x6DE JUMP JUMPDEST DUP2 DUP2 GT ISZERO PUSH2 0x707 JUMPI PUSH1 0x0 DUP3 DUP6 ADD MSTORE JUMPDEST POP SWAP2 SWAP1 SWAP2 ADD SWAP3 SWAP2 POP POP JUMP JUMPDEST PUSH4 0x4E487B71 PUSH1 0xE0 SHL PUSH1 0x0 MSTORE PUSH1 0x11 PUSH1 0x4 MSTORE PUSH1 0x24 PUSH1 0x0 REVERT JUMPDEST PUSH1 0x0 DUP3 NOT DUP3 GT ISZERO PUSH2 0x73B JUMPI PUSH2 0x73B PUSH2 0x712 JUMP JUMPDEST POP ADD SWAP1 JUMP JUMPDEST PUSH1 0x0 DUP3 DUP3 LT ISZERO PUSH2 0x752 JUMPI PUSH2 0x752 PUSH2 0x712 JUMP JUMPDEST POP SUB SWAP1 JUMP JUMPDEST PUSH1 0x0 PUSH1 0x0 NOT DUP3 EQ ISZERO PUSH2 0x76B JUMPI PUSH2 0x76B PUSH2 0x712 JUMP JUMPDEST POP PUSH1 0x1 ADD SWAP1 JUMP JUMPDEST PUSH1 0x0 DUP3 PUSH2 0x78F JUMPI PUSH4 0x4E487B71 PUSH1 0xE0 SHL PUSH1 0x0 MSTORE PUSH1 0x12 PUSH1 0x4 MSTORE PUSH1 0x24 PUSH1 0x0 REVERT JUMPDEST POP MOD SWAP1 JUMP INVALID LOG2 PUSH5 0x6970667358 0x22 SLT KECCAK256 CALLDATASIZE LOG3 PUSH26 0x27FDCB08FC3C2FE37F0677463939402123E21C7290FC7E447F33 DIFFICULTY 0xC1 0xF6 PUSH5 0x736F6C6343 STOP ADDMOD MULMOD STOP CALLER "
        },
        "methodIdentifiers": {
          "getNodeTypeLevelUp(string,address)": "3d80733d",
          "getNodeTypeOwnerCreatedPending(string,address)": "1ff9e195",
          "getNodeTypeOwnerNumber(string,address)": "d8a911d9",
          "isSetUp(address,string)": "13bdbc4a",
          "levelUp(address,string)": "59fd58a6",
          "mm()": "e90eaa51",
          "number(address,string)": "36838473",
          "pending(address,string)": "029ecf42"
        }
      }
    }
  }
}